:100000004BC100007AC1000078C1000076C1000039
:1000100074C1000072C1000070C100006EC1000018
:100020006CC10000A2C6000068C1000066C10000EB
:1000300064C1000062C1000060C100005EC1000038
:100040005CC100005AC1000058C1000056C1000048
:1000500054C1000052C1000050C100000C94621253
:100060004CC100000C9401100C94371046C10000E4
:1000700044C1000042C1000040C100003EC1000078
:100080003CC100003AC1000038C1000036C1000088
:100090000C9496100C94CC1030C100000C94C61730
:1000A0002CC100002AC1000028C1000026C10000A8
:1000B00024C1000022C1000020C100001EC10000B8
:1000C0001CC100001AC1000018C1000016C10000C8
:1000D00014C1000012C1000010C100000EC10000D8
:1000E0000CC1000007634236B79BD8A71A3968567F
:1000F00018AEBAAB558C1D3CB7CC5763BD6DEDFD4A
:10010000753EF6177231BF000000803F0800000006
:10011000BE922449123EABAAAA2ABECDCCCC4C3EFC
:1001200000000080BEABAAAAAA3E00000000BF00EB
:100130000000803F0000000000084178D3BB4387E7
:10014000D1133D190E3CC3BD4282AD2B3E68EC82FB
:1001500076BED98FE1A93E4C80EFFFBE01C4FF7F80
:100160003F000000000091139413831387138D1335
:10017000CB1398139C13A213A613AA13B013B41392
:10018000B813CB13BE13C213C61300000A0B020927
:100190000C0D0E0807030401000000000000000021
:1001A000000000000000000000000000000000004F
:1001B000000000000000121110000000000000000C
:1001C000000000000000000000000000000000002F
:1001D0000102102020080810204010204080020159
:1001E000020108040201010204081020408080403E
:1001F000201008040201800402018040201008043D
:1002000002010804020101020408102040800102DA
:1002100004081020408005050505070508080808A2
:10022000020202020A0A080804040404010101018E
:100230000101010103030303030303030407070789
:100240000C0C0C0C0C0C0C0C02020202060606062E
:10025000060606060B0B0B0B0B0B0B0B000022000C
:10026000250028002B002E00310034000201000080
:10027000050108010B0100002100240027002A00CD
:100280002D003000330001010000040107010A01C4
:1002900072036910FE100E1711241FBECFEFD1E2BA
:1002A000DEBFCDBF00E00CBF13E0A0E0B2E0E8E1AC
:1002B000FCE300E00BBF02C007900D92AE31B10726
:1002C000D9F725E0AEE1B3E001C01D92AE38B20728
:1002D000E1F711E0CCE4D1E000E006C0219701098C
:1002E000802FFE010E941619C834D10780E008074C
:1002F000A9F70E942C110C940A1E82CEDC01ED910C
:10030000FC910190F081E02D19944F925F926F92D1
:100310007F928F929F92AF92BF92CF92DF92EF9295
:10032000FF920F931F93CF93DF9300D01F921F92E2
:10033000CDB7DEB7982E862E8A01D22EADB6BEB6C8
:100340008DB79EB7821B91090FB6F8949EBF0FBE62
:100350008DBF01967C01622F70E080E090E00E94EA
:10036000AF0B9B01AC0160E070E080E291E40E9481
:10037000C40C2B013C01B801012E000C880B990B19
:100380000E94B10BA30192010E947A0B87FD0BC062
:1003900020E030E040E85FE3C301B2010E94150BAA
:1003A0000E947E0B8B011F92DF9280E192E09F936F
:1003B0008F93CE0101966C019F938F930E942F1B08
:1003C0001F930F93DF92CF92FF92EF920E942F1B09
:1003D000482D692D87E293E00E948815B70187E2D6
:1003E00093E00E9483118DB79EB70C960FB6F894D8
:1003F0009EBF0FBE8DBF0FB6F894BEBE0FBEADBE82
:100400000F900F900F900F900F90DF91CF911F9151
:100410000F91FF90EF90DF90CF90BF90AF909F90A3
:100420008F907F906F905F904F900895CF93DF9360
:10043000EA01462F682F87E293E00E948815BE01EB
:1004400087E293E0DF91CF910C9483118F929F927A
:10045000AF92BF92CF92DF92EF92FF920F931F93D2
:10046000CF93DF9300D01F921F92CDB7DEB77C01F0
:10047000962E872EADB6BEB68DB79EB7841B91095A
:100480000FB6F8949EBF0FBE8DBF0DB71EB70F5F9E
:100490001F4F1F924F9380E192E09F938F93CE0165
:1004A00001966C019F938F930E942F1B8F929F92B6
:1004B000DF92CF921F930F930E942F1BB801C701A9
:1004C0000E949D148DB79EB70C960FB6F8949EBFF0
:1004D0000FBE8DBFC7010FB6F894BEBE0FBEADBE36
:1004E0000F900F900F900F900F90DF91CF911F9171
:1004F0000F91FF90EF90DF90CF90BF90AF909F90C3
:100500008F9008958FEF84B984B1887F84B9EBE62A
:10051000F0E0808187608083E8E6F0E080818160A0
:10052000808378940895833030F4CB0177FF1BC02B
:1005300080E090E018C0833069F4CB016115784FFA
:1005400014F480E098EF813028E09207ACF080E06E
:1005500098E008958450823068F4CB01643E724084
:1005600014F484EE92E0853A26E092072CF084EAB7
:1005700096E008958FEF9FEF0895CF93DF93EB01FF
:10058000BC0183E893E00E9475116CED72E083E892
:1005900093E00E9483114AE050E0BE0183E893E0BB
:1005A000DF91CF910C945212CF92DF92EF92FF9293
:1005B0000F931F93CF93DF93CDB7DEB7E6970FB6B8
:1005C000F894DEBF0FBECDBF082F63EF72E0CE01FF
:1005D00001967C010E949D1463EF72E0CE010796A4
:1005E0000E949D14102F117000FD03C063EF72E094
:1005F00002C066E172E0CE010D960E949D141111B9
:1006000003C063EF72E002C06AE172E0CE0143967C
:100610000E949D14111103C063EF72E002C06EE1ED
:1006200072E0CE0149960E949D14111103C063EF40
:1006300072E002C062E272E0CE014F960E949D1409
:10064000111103C063EF72E002C066E272E0CE01F6
:1006500085960E949D1463EF72E0CE018B960E94F6
:100660009D14670100E010E0B601CE01C1960E9422
:10067000C614B801CE01C19680DFCE01C1960E949A
:1006800036140F5F1F4F96E0C90ED11C08301105BC
:1006900059F78E010F5C1F4F06501109C8010E94C7
:1006A0003614E016F106C1F780E090E0E6960FB64A
:1006B000F894DEBF0FBECDBFDF91CF911F910F9198
:1006C000FF90EF90DF90CF900895382FFC0180E0ED
:1006D00090E02E2F231B261720F42191820F911DCD
:1006E000F8CF0895809106029091070290938103BC
:1006F000809380031092390324E044E167E287E2AB
:1007000093E00C9422156AE272E083E893E00E9481
:10071000831180E294E00E94910E4AE050E0BC0117
:1007200083E893E00E944C1265E372E083E893E073
:100730000E949E1181E08093250380E294E00E9454
:10074000910E892B19F180E294E00E94910E4AE00B
:1007500050E0BC0183E893E00E944C126BE472E02D
:1007600083E893E00E94831180E294E00E94AB0E44
:100770004AE050E0BC0183E893E00E94521261E03D
:1007800070E080E090E00E94D112D7CF1092250354
:100790006EE472E083E893E00C949E115F926F9296
:1007A0007F928F929F92AF92BF92CF92DF92EF9201
:1007B000FF920F931F93CF93DF936AE070E080E086
:1007C00090E00E94D11280E294E00E94910E1816EF
:1007D00019060CF0AFC181E08093250380E294E01C
:1007E0000E94AB0E8F3F910509F0A4C180E294E016
:1007F0000E94AB0E8F3F910509F09CC180E294E00E
:100800000E94AB0EEC01582E2FEF8217B9F380E255
:1008100094E00E94AB0E082F80E294E00E94AB0EA1
:10082000182F811102C0809137038093370340E075
:100830006AE087E293E00E948815809135039091E9
:100840003603111102C0009711F18B30910514F499
:10085000019602C080E090E09093360380933503C8
:10086000812FA2DE6AE772E087E293E00E948311A3
:100870004AE050E06091370387E293E00E94011262
:100880006FE772E087E293E00E9483112DC16DE76C
:1008900072E087E293E00E948311033008F424C1E0
:1008A00080E294E00E94AB0E3C0180E294E00E9462
:1008B000AB0E20E030E0382F620E731E6E01DD2497
:1008C0008BE0C89FE0011124C85CDC4F9E812C8125
:1008D0003D818F81911108C0A3014C595F4F421790
:1008E000530744F48F5F06C02C593F4F2615370538
:1008F0000CF481509BE09C9DF0019D9DF00D112416
:10090000E85CFC4F878380E294E00E94AB0E7C01A0
:1009100080E294E00E94AB0E20E030E0382FE20E3F
:10092000F31E80E294E00E94AB0E8C0180E294E022
:100930000E94AB0E20E030E0382F020F131F80E240
:1009400094E00E94AB0E80E294E00E94AB0E80E245
:1009500094E00E94AB0E80E294E00E94AB0E80E235
:1009600094E00E94AB0E80E294E00E94AB0E80E225
:1009700094E00E94AB0E80E294E00E94AB0E80E215
:1009800094E00E94AB0E91E0E11424E0F2060CF436
:1009900090E04701E11484E0F80614F024E0921A94
:1009A00081E0011524E012070CF480E058010115E4
:1009B00024E0120714F024E0B21A2BE02C9DE00191
:1009C0002D9DD00D1124C85CDC4F7D826C829986F0
:1009D00088869E83BB86AA868C87809138035816AA
:1009E000B1F021E0A60160E084E08FDC8B818130F2
:1009F00029F0823031F06BE672E005C060E772E00A
:100A000002C065E772E087E293E00E948311509292
:100A100038038BE08C9DE0018D9DD00D1124C85CC6
:100A2000DC4F6C817D81072E000C880B990B99D6C9
:100A300028E539E344EB5DE344D760D624E0AB011D
:100A400061E084E062DC6FED87E293E00E94841154
:100A50004F81042E000C550B23E061E08AE055DC49
:100A600068E172E087E293E00E94831124E0A40130
:100A700062E084E04ADCE11484E0F80614F46FE7F5
:100A800001C06EE787E293E00E9484118BE08C9DA9
:100A9000F0018D9DF00D1124E85CFC4F40855185DF
:100AA00024E062E08AE031DC24E0A50163E084E038
:100AB0002CDC0115144014F46FE701C06EE787E2E7
:100AC00093E00E94841180918203581205C0909196
:100AD00080038091810302C0962D872D909380031F
:100AE000809381035092820380E294E00E94910EF1
:100AF000181619062CF480E294E00E94AB0EF4CF95
:100B000061E070E080E090E00E94D11240913303F8
:100B100050913403493051051CF44F5F5F4F02C0C0
:100B200040E050E0509334034093330321E060E011
:100B300082E1EBDB10922503DF91CF911F910F91A2
:100B4000FF90EF90DF90CF90BF90AF909F908F90ED
:100B50007F906F905F900895EF92FF920F931F9395
:100B6000CF93DF93182FD62F7A01022FC6E0C60F3E
:100B7000C20F622FCA01A9DDC10F8C0FC82FC0950B
:100B800081E08093260380E294E00E94910E892BFD
:100B900029F080E294E00E94AB0EF5CF61E082E0A4
:100BA0000E94081461E083E00E94081461E070E094
:100BB00080E090E00E94D1126FEF70E080E294E05C
:100BC0009DDB6FEF70E080E294E098DB612F80E2C4
:100BD00094E00E942B0F10E0B8016D5F7F4F80E220
:100BE00094E08CDB63E070E080E294E087DB6D2FC3
:100BF00080E294E00E942B0FA801B70180E294E00C
:100C00000E9436116C2F80E294E00E942B0F80E24C
:100C100094E00E94770F60E082E00E94081460E098
:100C200083E00E94081461E070E080E090E00E94A0
:100C3000D11210922603DF91CF911F910F91FF9057
:100C4000EF900895DF92EF92FF920F931F93CF934F
:100C5000DF9300D01F92CDB7DEB7182FD42EE52E2C
:100C600062DCF82E092F89839A83DB82EC8224E0F0
:100C7000AE014F5F5F4F6EE1812F6EDFF092800318
:100C8000009381038BE0189FF0011124E85CFC4F76
:100C9000F48205830F900F900F900F90DF91CF910A
:100CA0001F910F91FF90EF90DF900895CF93DF9306
:100CB0001F921F92CDB7DEB769837A8322E0AE011F
:100CC0004F5F5F4F62E248DF0F900F90DF91CF914F
:100CD00008950F931F93CF93DF9300D01F92CDB74A
:100CE000DEB7182F062F613029F419821A821B8271
:100CF0001C8208C0623081F49FEF99838FE08A8361
:100D00009B838C8324E0AE014F5F5F4F66E0812FB1
:100D100023DF1630A0F01AC084EE898382E08A8334
:100D200084EA8B8386E08C8324E0AE014F5F5F4FC3
:100D300066E0812F11DF163048F4033038F48BE081
:100D4000189FF0011124E85CFC4F03830F900F9073
:100D50000F900F90DF91CF911F910F91089561E057
:100D6000B8CF60E0B6CF62E0B4CF1F920F920FB65B
:100D70000F9211240BB60F92EF92FF920F931F93D5
:100D80002F933F934F935F936F937F938F939F9393
:100D9000AF93BF93CF93EF93FF93C0913803189B0A
:100DA00038C02F9A8BE0C89F80011124085C1C4F2B
:100DB0007801E4E0EE0EF11C085F1F4F189B20C085
:100DC000F701608171816150710971836083C33063
:100DD00040F480917F03813021F480917D03811163
:100DE00004C0F8014081518102C040E050E08C2FE6
:100DF00029DF68EC70E080E090E00E94D112DECF45
:100E000080917D0391E0892780937D0390937F03F8
:100E10002F98199B3EC02F9AFBE0CF9F8001112491
:100E2000085C1C4F780184E0E80EF11C085F1F4F3E
:100E3000199B25C0F701608171816F5F7F4F7183BE
:100E40006083C33068F480917F03823021F4809105
:100E50007E03811109C0F801408151815C5F06C0A9
:100E6000F8014081518102C040E054E08C2FEADE5D
:100E700068EC70E080E090E00E94D112D9CF9091B0
:100E80007E0381E0892780937E0382E080937F0345
:100E90002F981A9B48C02F9A00E010E01A9B09C0B7
:100EA00061E070E080E090E00E94D1120F5F1F4F80
:100EB000F5CF093E134038F090911E0381E0892759
:100EC00080931E0320C0C33068F48BE0C89FF001FC
:100ED0001124E85CFC4F6481758140E050E08C2F68
:100EE000B1DE02C0C53018F481E08C0F01C081E092
:100EF00080933803843010F034DF05C0833011F460
:100F000032DF01C02CDF64E170E080E090E00E94FD
:100F1000D11290917F0381E0892780937F0383E042
:100F200080937F032F98FF91EF91CF91BF91AF9165
:100F30009F918F917F916F915F914F913F912F91F1
:100F40001F910F91FF90EF900F900BBE0F900FBE6F
:100F50000F901F9018950F931F93CF93DF93082F37
:100F6000162FD42FC6E0C40FC60FC80FC09581E05E
:100F70008093260380E294E0D4D6892B21F080E28E
:100F800094E0E9D6F7CF61E082E00E94081461E0C6
:100F900083E00E94081461E070E080E090E00E942D
:100FA000D1126FEF70E080E294E0A8D96FEF70E0AB
:100FB00080E294E0A3D9602F80E294E04CD764E013
:100FC00070E080E294E09AD962E070E080E294E020
:100FD00095D9612F80E294E03ED76D2F80E294E0B6
:100FE0003AD76C2F80E294E036D780E294E07FD746
:100FF00060E082E00E94081460E083E00E94081430
:1010000061E070E080E090E00E94D112109226032F
:10101000DF91CF911F910F9108956F927F928F92E0
:101020009F92AF92BF92CF92DF92EF92FF920F9377
:101030001F93CF93DF93CDB7DEB762970FB6F894C7
:10104000DEBF0FBECDBFF82EE62E63EF72E0CE01FD
:101050000D960E949D1442E06E2D8F2D7CDF6AE07C
:1010600070E080E090E00E94D11281E0809325033F
:1010700080E294E070D6F82E80E294E06CD69FEF88
:10108000F91202C08F3F09F1E12C80E294E049D6C9
:10109000892B21F080E294E05ED6F7CF10922503F1
:1010A000BE01635F7F4F83E893E00E948E11EE20C4
:1010B00049F0BB2009F409C10B2D10E011950195F1
:1010C000110903C101E01FEF00C180E294E043D6A3
:1010D0003C01BC01772746E0CE010796B7D963EC07
:1010E00072E0CE0101960E949D14BE01695F7F4FA0
:1010F000CE0101960E94FA14BC01CE010D960E9409
:10110000B114CE0101960E943614CE0107960E94BA
:10111000361480E294E01FD65C01BC01772746E0DC
:10112000CE01019693D9BE01635F7F4FCE01079632
:101130000E94C61463E872E0CE0107960E940B1568
:10114000BE016F5F7F4F0E94FA14BC01CE010D9665
:101150000E94B114CE0107960E943614CE0101966A
:101160000E94361480E294E0F6D56C01B82EBC01E2
:10117000772746E0CE01019669D9BE01635F7F4FB4
:10118000CE0107960E94C6146FE872E0CE01079662
:101190000E940B15BE016F5F7F4F0E94FA14BC01C5
:1011A000CE010D960E94B114CE0107960E9436140E
:1011B000CE0101960E94361480E294E0CCD5F82E40
:1011C00080E294E0C8D5E82E982E812C84010F0D82
:1011D000111D46E0B801CE01019638D9BE01635F0A
:1011E0007F4FCE0107960E94C61468E972E0CE01D7
:1011F00007960E940B15BE016F5F7F4F0E94FA1485
:10120000BC01CE010D960E94B114CE0107960E943A
:101210003614CE0101960E94361480E294E09BD5EC
:101220004C01BC01772746E0CE0101960FD9BE01E3
:10123000635F7F4FCE0107960E94C61460EA72E09A
:10124000CE0107960E940B15BE016F5F7F4F0E9473
:10125000FA14BC01CE010D960E94B114CE0107967E
:101260000E943614CE0101960E943614A60CCA0CB8
:10127000FC0CFE0CF0946F2D70E046E0CE01019660
:10128000E5D8BE01635F7F4FCE0107960E94C6146A
:101290006FEA72E0CE0107960E940B15BE016F5FE8
:1012A0007F4F0E94FA14BC01CE010D960E94B1142A
:1012B000CE0107960E943614CE0101960E94361484
:1012C000EE24E394F810E0CEE0CECE010D960E941D
:1012D0003614C80162960FB6F894DEBF0FBECDBFBC
:1012E000DF91CF911F910F91FF90EF90DF90CF9002
:1012F000BF90AF909F908F907F906F90089542E243
:1013000064E28091380327DE49DA68E284E085DE12
:10131000181619068CF421E0811534E093070CF4BB
:1013200020E020932003811524E092070CF09450D4
:1013300090932403809323038091230390912403AB
:1013400090936F0380936E038091200380937003CA
:1013500068E285E062DE181619068CF421E081153A
:1013600034E093070CF420E020931F03811524E060
:1013700092070CF094509093220380932103809164
:1013800021039091220390937A03809379038091B3
:101390001F0380937B0380911E038823B1F140914A
:1013A0002303509124034E31510530F04B3F51053A
:1013B00030F4440F551F05C040E050E002C044EF38
:1013C00051E080912003811101C05C5F64E670E010
:1013D00081E038DC40912103509122034E315105C8
:1013E00030F04B3F510530F4440F551F05C040E02D
:1013F00050E002C044EF51E080911F03811101C011
:101400005C5F64E670E082E01DDC9091390381E06E
:10141000892790911E0389132DC0811103C040ECD0
:1014200052E002C04EEB52E060E083E10E941602FF
:1014300080911E0381111AC080912003811103C085
:1014400040E054E002C040E050E064E670E081E03B
:10145000F9DB80911F03811103C040E054E002C01A
:1014600040E050E064E670E082E0ECDB80911E0337
:1014700080933903409123035091240324E063E0D7
:101480008AE00E948501409121035091220324E0CB
:1014900063E08FE00C9485010F931F93CF93DF934C
:1014A00000D000D0CDB7DEB72DD887E293E00E9400
:1014B000141687E293E00E94421587E293E00E94AF
:1014C0007E1561E082E00E94CC1361E083E00E941F
:1014D000CC1326E040E051EE60E070E083E893E05A
:1014E00027D526E047E35FED60E070E080E294E01E
:1014F0001FD580E294E0FBD481E031DC82E02FDC78
:1015000083E031DC84E02DDC85E02BDC81E080931E
:10151000380384EF91E090934C0380934B0384E66F
:1015200090E090935703809356038EE190E0909360
:101530006203809361038FE090E090936D0380934A
:101540006C0384E190E0909378038093770311E03B
:101550006FEF73E0812FAADB1F5F1630C9F740E001
:1015600060E087E293E00E94881562EC72E087E217
:1015700093E0C9D641E060E087E293E00E948815DD
:1015800067EC72E087E293E0BED642E060E087E27B
:1015900093E00E9488156CEC72E087E293E0B3D68A
:1015A00043E060E087E293E00E94881561ED72E01D
:1015B00087E293E0A8D648E068E180913803CBDC6D
:1015C000A2D862E070E080E090E0EBD764E485E0D0
:1015D00024DD8C01811594400CF0145066ED72E00E
:1015E000CE0101960E949D14B801CE0101960E9481
:1015F000BD02CE0101960E94361480911E03811116
:1016000003C040EC52E002C04EEB52E060E083E1E8
:101610000E94160226960FB6F894DEBF0FBECDBF0D
:10162000DF91CF911F910F9108955058BB27AA27A2
:101630000ED00DC1FED030F003D120F031F49F3F29
:1016400011F41EF4F3C00EF4E095E7FBE9C0E92FB6
:101650000FD180F3BA17620773078407950718F054
:1016600071F49EF527C10EF4E0950B2EBA2FA02D34
:101670000B01B90190010C01CA01A0011124FF273F
:10168000591B99F0593F50F4503E68F11A16F0403A
:10169000A22F232F342F4427585FF3CF4695379539
:1016A0002795A795F0405395C9F77EF41F16BA0BFE
:1016B000620B730B840BBAF09150A1F0FF0FBB1FAC
:1016C000661F771F881FC2F70EC0BA0F621F731FF5
:1016D000841F48F4879577956795B795F7959E3F52
:1016E00008F0B3CF9395880F08F09927EE0F9795E0
:1016F0008795089571D008F481E0089504D0689426
:10170000B111D9C00895BCD088F09F5790F0B92F7F
:101710009927B751A0F0D1F0660F771F881F991F46
:101720001AF0BA95C9F712C0B13081F0C3D0B1E058
:101730000895C0C0672F782F8827B85F39F0B93F68
:10174000CCF3869577956795B395D9F73EF4909548
:101750008095709561957F4F8F4F9F4F0895E894C6
:1017600009C097FB3EF490958095709561957F4FE9
:101770008F4F9F4F9923A9F0F92F96E9BB27939597
:10178000F695879577956795B795F111F8CFFAF4A7
:10179000BB0F11F460FF1BC06F5F7F4F8F4F9F4FD8
:1017A00016C0882311F096E911C0772321F09EE836
:1017B000872F762F05C0662371F096E8862F70E09C
:1017C00060E02AF09A95660F771F881FDAF7880F76
:1017D0009695879597F90895990F0008550FAA0BCC
:1017E000E0E8FEEF16161706E807F907C0F0121634
:1017F0001306E407F50798F0621B730B840B950B37
:1018000039F40A2661F0232B242B252B21F408958B
:101810000A2609F4A140A6958FEF811D811D089528
:1018200097F99F6780E870E060E008959FEF80EC93
:10183000089500240A941616170618060906089536
:1018400000240A9412161306140605060895092E9C
:101850000394000C11F4882352F0BB0F40F4BF2B0B
:1018600011F460FF04C06F5F7F4F8F4F9F4F08954B
:1018700057FD9058440F551F59F05F3F71F0479541
:10188000880F97FB991F61F09F3F79F08795089526
:10189000121613061406551FF2CF4695F1DF08C045
:1018A000161617061806991FF1CF86957105610562
:1018B00008940895E894BB2766277727CB0197F90A
:1018C00008950BD0C4CFB5DF28F0BADF18F0952308
:1018D00009F0A6CFABCF1124EECFCADFA0F3959FBE
:1018E000D1F3950F50E0551F629FF001729FBB2707
:1018F000F00DB11D639FAA27F00DB11DAA1F649FB3
:101900006627B00DA11D661F829F2227B00DA11D65
:10191000621F739FB00DA11D621F839FA00D611DEB
:10192000221F749F3327A00D611D231F849F600D0C
:10193000211D822F762F6A2F11249F5750408AF045
:10194000E1F088234AF0EE0FFF1FBB1F661F771FD1
:10195000881F91505040A9F79E3F510570F060CF0D
:10196000AACF5F3FECF3983EDCF3869577956795B9
:10197000B795F795E7959F5FC1F7FE2B880F911DEF
:101980009695879597F90895FA01EE0FFF1F309607
:101990002105310599F16115710561F48038BFE3C6
:1019A0009B0749F168949038810561F08038BFEF5A
:1019B0009B0741F0992342F5FF3FE10531052105E1
:1019C00011F1E8940894E795D901AA2329F4AB2FE3
:1019D000BE2FF85FD0F310C0FF5F70F4A695E0F75C
:1019E000F73950F019F0FF3A38F49F779F930CD0F5
:1019F0000F9007FC905808953EF018CF60E070E01B
:101A000080E89FE308954FE79F775F934F933F935D
:101A10002F939ED02F913F914F915F9152DF05C040
:101A200019F40EF0FDCE46CF01CF2ADFC8F3963869
:101A3000C0F707F80F92E8942BE33AEA48EB5FE728
:101A40004EDF0F920F920F924DB75EB70F92C0D03C
:101A5000E4EEF0E016D04F915F91EF91FF91E595A4
:101A6000EE1FFF1F49F0FE57E0684427EE0F441FAA
:101A7000FA95E1F74195550B32D00F9007FE26C03D
:101A80000895DF93CF931F930F93FF92EF92DF920E
:101A90007B018C01689405C0DA2EEF011EDFFE0188
:101AA000E894A5912591359145915591AEF3EF01BB
:101AB000CEDDFE019701A801DA9479F7DF90EF906F
:101AC000FF900F911F91CF91DF9108959B01AC0181
:101AD00060E070E080E89FE3AEC0A2CE14C1D0DE2B
:101AE000E8F39923D9F3940F511DBBF39150504063
:101AF00094F059F0882332F0660F771F881F9150B9
:101B00005040C1F79E3F510544F7880F911D9695AF
:101B1000879597F908955F3FACF0983E9CF0BB27FE
:101B2000869577956795B79508F4B1609395C1F759
:101B3000BB0F58F711F460FFE8CF6F5F7F4F8F4FF7
:101B40009F4FE3CFB8CE0EF0DEC070CE689468CE63
:101B500097DEC8F39923D1F3C6F3DF93CF931F9396
:101B60000F93FF92C92FDD2788232AF02197660F54
:101B7000771F881FDAF720E030E040E85FEB9FE353
:101B8000883920F0803E30F021968F774FDDECE0F1
:101B9000F1E003C04BDDE9E3F1E073DF8B01BE014F
:101BA000EC01FB2E6F5771097595771F880B990B08
:101BB000D8DD28E132E741E35FE38FDEAF2D980106
:101BC000AE01FF900F911F91CF91DF9140DD3FCE8D
:101BD000FA01DC01AA0FBB1F9B01AC01BF5728F41F
:101BE00022273327442750781FC0B75188F4AB2FE2
:101BF0000024469537952795011CA395D2F3002024
:101C000069F0220F331F441FB395DAF30DD00DCDC9
:101C100061307105A0E88A07B94630F49B01AC0138
:101C20006627772788279078309621F020833183A4
:101C30004283538308950CD00ACE02DE40F0F9DDD2
:101C400030F021F45F3F19F0EBCD511134CEEECDE1
:101C50000FDE98F39923C9F35523B1F3951B550B68
:101C6000BB27AA2762177307840738F09F5F5F4F6F
:101C7000220F331F441FAA1FA9F333D00E2E3AF0B0
:101C8000E0E830D091505040E695001CCAF729D0CA
:101C9000FE2F27D0660F771F881FBB1F2617370719
:101CA0004807AB07B0E809F0BB0B802DBF01FF2749
:101CB00093585F4F2AF09E3F510568F0B1CDFBCDA0
:101CC0005F3FECF3983EDCF3869577956795B79583
:101CD000F7959F5FC9F7880F911D9695879597F99E
:101CE0000895E1E0660F771F881FBB1F6217730717
:101CF0008407BA0720F0621B730B840BBA0BEE1F2C
:101D000088F7E09508959F3F31F0915020F4879532
:101D100077956795B795880F911D9695879597F953
:101D20000895FC01918D228D892F90E0805C9F4F5A
:101D3000821B91098F7399270895FC01918D828DE3
:101D4000981731F0828DE80FF11D858D90E0089590
:101D50008FEF9FEF0895FC01918D828D981761F0B0
:101D6000828DDF01A80FB11D5D968C91928D9F5FD2
:101D70009F73928F90E008958FEF9FEF0895FC017D
:101D8000538D448D252F30E0842F90E0821B930BE0
:101D9000541710F0CF9608950197089580E690E1CA
:101DA000892B39F080E090E0892B19F089D18111DD
:101DB00024C085EF90E1892B39F080E090E0892BF9
:101DC00019F013D281111CC080E090E0892B41F002
:101DD00080E090E0892B21F00E940000811113C067
:101DE00080E090E0892BA1F080E090E0892B81F0E9
:101DF0000E94000081110AC008950E940000D9CFFE
:101E00000E940000E1CF0E940000EACF0C94000085
:101E10000895FC01848DDF01A80FB11DA35ABF4FA7
:101E20002C91848D90E001968F739927848FA689D9
:101E3000B7892C93A089B1898C91837080648C932D
:101E4000938D848D981306C00288F389E02D8081DC
:101E50008F7D80830895EF92FF920F931F93CF930E
:101E6000DF93EC0181E0888F9B8D8C8D981305C0EA
:101E7000E889F989808185FD25C0F62E0B8D10E05B
:101E80000F5F1F4F0F731127E02E8C8DE8120BC0D0
:101E90000FB607FCFACFE889F989808185FFF5CF75
:101EA000CE01B7DFF2CF8B8DFE01E80FF11DE35AB3
:101EB000FF4FF0829FB7F8940B8FEA89FB898081EE
:101EC00080620AC09FB7F894EE89FF896083E88931
:101ED000F98980818370806480839FBF81E090E076
:101EE000DF91CF911F910F91FF90EF900895CF93C5
:101EF000DF93EC01888D8823C1F0EA89FB8980811A
:101F000085FD05C0A889B9898C9186FD0EC00FB6E4
:101F100007FCF5CF808185FFF2CFA889B9898C9124
:101F200085FFEDCFCE0175DFE8CFDF91CF9108952A
:101F3000CF92DF92EF92FF921F93CF93DF93EC014A
:101F40006A017B01122FE889F98982E080834115BB
:101F5000514E61057105B1F060E079E08DE390E0EC
:101F6000A70196010E94F418DA01C9010197A1099D
:101F7000B109B695A795979587959C01211580E1A4
:101F80003807A8F0E889F989108260E874E88EE1E2
:101F900090E0A70196010E94F418DA01C9010197A7
:101FA000A109B109B695A795979587959C01EC85F0
:101FB000FD853083EE85FF852083188EEC89FD89B1
:101FC0001083EA89FB89808180618083EA89FB89AB
:101FD000808188608083EA89FB8980818068808332
:101FE000EA89FB8980818F7D8083DF91CF911F916A
:101FF000FF90EF90DF90CF90089580E090E00895FB
:1020000008951F920F920FB60F9211240BB60F92E4
:102010002F938F939F93EF93FF93E0919303F0910E
:1020200094038081E0919903F0919A0382FD12C09C
:10203000908180919C038F5F8F7320919D03821705
:1020400051F0E0919C03F0E0ED57FC4F958F8093A9
:102050009C0301C08081FF91EF919F918F912F91FF
:102060000F900BBE0F900FBE0F901F9018951F92F0
:102070000F920FB60F9211240BB60F922F933F932E
:102080004F935F936F937F938F939F93AF93BF9380
:10209000EF93FF9383E893E0BCDEFF91EF91BF9154
:1020A000AF919F918F917F916F915F914F913F91F0
:1020B0002F910F900BBE0F900FBE0F901F90189591
:1020C00083E893E02EDE21E0892B09F420E0822FC3
:1020D0000895E3E8F3E01382128288EE93E0A0E033
:1020E000B0E084839583A683B78383EE92E09183E7
:1020F000808385EC90E09587848784EC90E09787D7
:10210000868780EC90E0918B808B81EC90E0938BC4
:10211000828B82EC90E0958B848B86EC90E0978BA1
:10212000868B118E128E138E148E08951F920F922D
:102130000FB60F9211240BB60F922F938F939F938C
:10214000EF93FF93E0913004F09131048081E091AE
:102150003604F091370482FD12C0908180913904D9
:102160008F5F8F7320913A04821751F0E091390408
:10217000F0E0E05EFB4F958F8093390401C08081D1
:10218000FF91EF919F918F912F910F900BBE0F9028
:102190000FBE0F901F9018951F920F920FB60F92BF
:1021A00011240BB60F922F933F934F935F936F932E
:1021B0007F938F939F93AF93BF93EF93FF9380E2AF
:1021C00094E027DEFF91EF91BF91AF919F918F91A6
:1021D0007F916F915F914F913F912F910F900BBE27
:1021E0000F900FBE0F901F90189580E294E099DD3C
:1021F00021E0892B09F420E0822F0895E0E2F4E049
:102200001382128288EE93E0A0E0B0E0848395838D
:10221000A683B78383EE92E0918380838DEC90E078
:10222000958784878CEC90E09787868788EC90E090
:10223000918B808B89EC90E0938B828B8AEC90E081
:10224000958B848B8EEC90E0978B868B118E128E03
:10225000138E148E08950895E8D1FDDF1DD9CEECBC
:10226000DEE04DD82097E9F399DDFBCFCF92DF92E6
:10227000EF92FF920F931F93CF93DF936C017A013C
:102280008B01C0E0D0E0CE15DF0581F0D8016D9163
:102290008D01D601ED91FC910190F081E02DC601F8
:1022A0001995892B11F02196EECF7E01C701DF91A0
:1022B000CF911F910F91FF90EF90DF90CF900895F5
:1022C0006115710579F0FB0101900020E9F7319764
:1022D000AF01461B570BDC01ED91FC910280F381AD
:1022E000E02D199480E090E00895DB0114964D9163
:1022F0005C9115976D917C91DC01ED91FC910280D0
:10230000F381E02D1994DCCFDC01ED91FC9101907B
:10231000F081E02D199461EF72E0D2CF0F931F93FB
:10232000CF93DF93EC01E1DF8C01CE01F4DF800F6E
:10233000911FDF91CF911F910F9108950F931F93DC
:10234000CF93DF93EC01BCDF8C01CE01E4DF800F83
:10235000911FDF91CF911F910F9108958F929F92BE
:10236000AF92BF92EF92FF920F931F93CF93DF93A1
:10237000CDB7DEB7A1970FB6F894DEBF0FBECDBFC5
:102380007C01FA01CB0119A2223008F42AE08E0167
:102390000F5D1F4F822E912CA12CB12CBF01A501E6
:1023A000940122D7F901CA01015011096A3010F4D1
:1023B000605D01C0695CD8016C93232B242B252B15
:1023C00069F7B801C7017CDFA1960FB6F894DEBFAC
:1023D0000FBECDBFDF91CF911F910F91FF90EF9076
:1023E000BF90AF909F908F9008952115310541F4D3
:1023F000DC01ED91FC910190F081E02D642F1994A6
:10240000ADCF9A01462F50E060E070E0EECFCF9262
:10241000DF92EF92FF920F931F93CF93DF932115DB
:10242000310581F4DC01ED91FC910190F081E02D0A
:10243000642FDF91CF911F910F91FF90EF90DF906C
:10244000CF9019942A303105F1F477FF1BC06A014F
:102450007B01EC016DE258DF8C0144275527BA015E
:102460004C195D096E097F092AE0CE0177DF800FE4
:10247000911FDF91CF911F910F91FF90EF90DF900F
:10248000CF9008952AE0DF91CF911F910F91FF9097
:10249000EF90DF90CF9062CF9A01AB01770F660B80
:1024A000770BB5CF0F931F93CF93DF93EC01F4DF3E
:1024B0008C01CE0130DF800F911FDF91CF911F91F2
:1024C0000F9108951F920F920FB60F9211242F9320
:1024D0003F938F939F93AF93BF938091BE0490914E
:1024E000BF04A091C004B091C1043091BD0423E0A9
:1024F000230F2D3720F40196A11DB11D05C026E83C
:10250000230F0296A11DB11D2093BD048093BE042C
:102510009093BF04A093C004B093C1048091C204FF
:102520009091C304A091C404B091C5040196A11D6B
:10253000B11D8093C2049093C304A093C404B093CC
:10254000C504BF91AF919F918F913F912F910F90B3
:102550000FBE0F901F9018953FB7F8948091C2045A
:102560009091C304A091C404B091C50426B5A89B62
:1025700005C02F3F19F00196A11DB11D3FBFBA2F15
:10258000A92F982F8827820F911DA11DB11DBC0175
:10259000CD0142E0660F771F881F991F4A95D1F73A
:1025A00008958F929F92AF92BF92CF92DF92EF9257
:1025B000FF926B017C01D0DF4B015C01C114D1049F
:1025C000E104F104F1F02DD4C7DFDC01CB0188195F
:1025D0009909AA09BB09883E9340A105B10570F38A
:1025E00021E0C21AD108E108F10888EE880E83E0E4
:1025F000981EA11CB11CC114D104E104F10421F7FF
:10260000DDCFFF90EF90DF90CF90BF90AF909F9085
:102610008F9008958230910538F0880F991F880FA8
:10262000991F05970197F1F70895789484B5826012
:1026300084BD84B5816084BD85B5826085BD85B566
:10264000816085BDEEE6F0E0808181608083E1E815
:10265000F0E010828081826080838081816080834D
:10266000E0E8F0E0808181608083E1EBF0E0808150
:1026700084608083E0EBF0E0808181608083E1E929
:10268000F0E0808182608083808181608083E0E9E6
:10269000F0E0808181608083E1EAF0E08081826007
:1026A0008083808181608083E0EAF0E080818160C6
:1026B0008083E1E2F1E080818260808380818160BB
:1026C0008083E0E2F1E0808181608083EAE7F0E0EE
:1026D000808184608083808182608083808181604A
:1026E00080838081806880831092C100089590E08B
:1026F000FC013197E231F10508F04DC08827ED5417
:10270000FF4F8F4F93C5809180008F7703C08091DA
:1027100080008F7D80938000089580918000877F66
:10272000F9CF84B58F7702C084B58F7D84BD0895BD
:102730008091B0008F7703C08091B0008F7D80932F
:10274000B0000895809190008F7707C0809190002D
:102750008F7D03C080919000877F809390000895C3
:102760008091A0008F7707C08091A0008F7D03C06B
:102770008091A000877F8093A00008958091200120
:102780008F7707C0809120018F7D03C08091200149
:10279000877F809320010895CF93DF9390E0FC0121
:1027A000E053FE4F2491FC01EA5EFD4F84918823A3
:1027B00061F190E0880F991FFC01EA58FD4FC59127
:1027C000D491FC01E45AFD4FA591B491611109C067
:1027D0009FB7F8948881209582238883EC912E23DB
:1027E0000BC0623061F49FB7F8948881322F309526
:1027F00083238883EC912E2B2C939FBF06C08FB729
:10280000F894E8812E2B28838FBFDF91CF91089514
:102810001F93CF93DF93282F30E0F901E657FE4F47
:102820008491F901E053FE4FD491F901EA5EFD4F26
:10283000C491CC23B9F0162F811159DFEC2FF0E0B1
:10284000EE0FFF1FE45AFD4FA591B4919FB7F89486
:10285000111104C08C91D095D82302C0EC91DE2BCD
:10286000DC939FBFDF91CF911F910895FC01808180
:1028700091817CC5CF93DF93EC018881998100978A
:1028800009F074D5198218821D821C821B821A825B
:10289000DF91CF9108950F931F93CF93DF93EC01B6
:1028A0008B016F5F7F4F88819981E9D5009731F067
:1028B000998388831B830A8381E001C080E0DF91D4
:1028C000CF911F910F910895CF93DF93EC018881F1
:1028D0009981892B29F08A819B818617970758F463
:1028E000CE01D9DF882341F08C819D81892B19F499
:1028F000E881F981108281E0DF91CF910895EF9214
:10290000FF920F931F93CF93DF93EC017B018A011A
:10291000BA01DADF811103C0CE01ACDF06C01D832E
:102920000C83B7018881998193D6CE01DF91CF9135
:102930001F910F91FF90EF900895FC01118210827A
:1029400013821282158214826115710549F0FB0110
:1029500001900020E9F73197AF01461B570BCFCF0D
:102960000895CF93DF93EC01FB018617970751F091
:10297000608171816115710521F044815581BFDF4E
:1029800001C078DFCE01DF91CF910895FC01118263
:1029900010821382128215821482E3CFEF92FF928B
:1029A0000F931F93CF93DF936115710511F480E0AE
:1029B0001AC041155105B1F07B01EC018C819D815C
:1029C0008A01080F191FB801CE017EDF882379F331
:1029D000288139818C819D81B701820F931F38D660
:1029E0001D830C8381E0DF91CF911F910F91FF90A8
:1029F000EF900895CF93DF93EC01FB014481558163
:102A000060817181CBDF811102C0CE0133DFCE0145
:102A1000DF91CF910895CF93DF93EC01611571059C
:102A200059F0FB0101900020E9F73197AF01461BF7
:102A3000570BB4DF811102C0CE011CDFCE01DF9144
:102A4000CF910895FC011382128284E093E0918378
:102A50008083648341872287138608951F93CF93D1
:102A6000DF93EC01162F6C8186EC94E0B9D16B8575
:102A7000612B86EC94E067D186EC94E0DF91CF91F6
:102A80001F91CAC128E0FC01238760E0E7CF0F93C4
:102A90001F93CF938C01C62F6460E0DF81E090E04C
:102AA000B9DD6C2F6B7FC801D9DF82E390E0CF9155
:102AB0001F910F91AFCD1F93CF93DF93EC01162F92
:102AC000CDDF612FCE01DF91CF911F91E0CF0F932A
:102AD0001F93CF93DF938C01C62FD42F607F642B7D
:102AE000EADF80E1C89FB00111246D2BC801DF919E
:102AF000CF911F910F91DFCF40E0E9CF61E0FCDF84
:102B000080ED97E087CD62E0F7DF80ED97E082CD42
:102B1000CF93DF93CDB7DEB728970FB6F894DEBF1B
:102B20000FBECDBF9C0188E0E8E0F2E0DE01119627
:102B300001900D928A95E1F7F9018085841710F4D0
:102B40004FEF480FFE013196E40FF11DE40FF11D28
:102B50009081690F6068C90128960FB6F894DEBFAE
:102B60000FBECDBFDF91CF91C7CFFC016681262F6D
:102B7000246026836C60C0CF41E0A9DF81E090E053
:102B80000895CF93DF93EC01423018F08D81886077
:102B90008D834887222329F0413019F48D81846088
:102BA0008D8362E370E080E090E0FBDC6B85CE011A
:102BB00055DF68EE73E080E090E0F3DC60E3CE0187
:102BC0007ADF84E991E126DD60E3CE0174DF84E9F8
:102BD00091E120DD60E3CE016EDF86E990E01ADD51
:102BE00060E2CE0168DF6D816062CE0185DF84E046
:102BF0008E83CE01BADFCE0181DF82E08F8366E073
:102C0000CE017ADFCE01DF91CF917DCFCF93DF93DD
:102C1000EC0186EC94E0D5D01D8220E04A856985E0
:102C2000CE01DF91CF91ADCFF1CF8091FA0490E04A
:102C30002091FB04821B910908959091FB048091DF
:102C4000FA04981750F4E92FF0E0E450FB4F20818C
:102C500030E09F5F9093FB0402C02FEF3FEFC9016C
:102C60000895E091FB048091FA04E81730F4F0E055
:102C7000E450FB4F808190E008958FEF9FEF08951F
:102C80000895CF93DF93EC01E091D204F091D30447
:102C90003097F1F09091FB048091FA049817C0F0FE
:102CA00090E0292F30E02617370754F4DE01A20FF9
:102CB000B31F4C91D901A450BB4F4C939F5FF1CFF0
:102CC0001092FB046093FA04CB01DF91CF91199429
:102CD000DF91CF910895E091D404F091D50430971D
:102CE00029F01092D8041092D70419940895CF9225
:102CF000DF92EF92FF920F931F93CF93DF937C01AC
:102D0000CB018A012091D604222389F0EB016B01CB
:102D1000C40ED51ECC15DD0561F06991D701ED918A
:102D2000FC910190F081E02DC7011995F3CF642F3C
:102D3000EBD0C801DF91CF911F910F91FF90EF90E1
:102D4000DF90CF900895CF93DF931F92CDB7DEB77A
:102D500069832091D6042223D1F02091D704203218
:102D600040F021E030E0FC013383228380E090E0FA
:102D700014C08091D804E82FF0E0E752FB4F99810E
:102D800090838F5F8093D8048093D70404C061E060
:102D9000CE010196B9D081E090E00F90DF91CF9104
:102DA0000895FC011382128288EE93E0A0E0B0E067
:102DB00084839583A683B78380E193E091838083A6
:102DC00008951092FB041092FA041092D804109205
:102DD000D70428D08BE696E1C4D081E496E1BCC04C
:102DE00081E08093D6046093F9041092D804109285
:102DF000D70408950F93062F21E04091D70469ED81
:102E000074E08091F9042AD01092D8041092D7046B
:102E10001092D6040F91089561E0ECCF86EC94E017
:102E2000C0CF08951092890581E0809387051092A4
:102E3000860561E084E1ECDC61E085E1E9DCE9EB59
:102E4000F0E080818E7F808380818D7F808388E425
:102E50008093B80085E48093BC0008950F934132BD
:102E600008F04AC0909189059111FCCF32E030936F
:102E70008905009387053FEF30931C05109261058B
:102E800040936005562FA2E6B5E0FB013E2F351BAF
:102E9000341718F431913D93F9CF10928805309191
:102EA0008805880F832B8093880580918605813063
:102EB00061F410928605809188058093BB00809113
:102EC000BC0083FDF8CF85EC01C085EE8093BC008B
:102ED000222321F0809189058230D1F380911C0555
:102EE0008F3F79F080911C05803241F080911C0564
:102EF000803331F094E005C091E003C092E001C05E
:102F000093E0892F0F91089540913E05262F30E0E0
:102F1000240F311D21323105DCF420918905243044
:102F2000C9F4FC0180E090E0861758F430913E052A
:102F30002191DC01A05CBA4FA30FB11D2C93019627
:102F4000F3CF80913E05680F60933E0580E00895C1
:102F500081E0089582E0089590938305809382052F
:102F600008959093850580938405089585ED809359
:102F7000BC008091BC0084FDFCCF109289050895AF
:102F800085EC8093BC001092890508951F920F92E2
:102F90000FB60F9211240BB60F922F933F934F93BE
:102FA0005F936F937F938F939F93AF93BF93EF93B1
:102FB000FF938091B900887F803609F49DC070F539
:102FC000883209F45CC090F4803109F455C038F4BB
:102FD000882309F4F3C0883009F44EC0F2C0883168
:102FE00009F44DC0803209F45EC0EBC0803409F4AE
:102FF00069C050F4803309F456C0883309F0E1C049
:1030000080931C05BDDFDDC0803509F44FC08835D5
:1030100009F45DC0883409F0D4C0D2C0883909F4FD
:10302000C3C0A8F4883709F467C038F4883609F4B7
:1030300063C0803709F460C0C4C0883809F4B4C0E4
:10304000803909F45FC0803809F0BBC05BC0803BA9
:1030500009F482C038F4803A09F466C0883A09F469
:103060007BC0AFC0803C09F4A3C0883C09F4A0C079
:10307000883B09F486C0A5C08091880510C0909156
:10308000610580916005981770F5E091610581E018
:103090008E0F80936105F0E0EE59FA4F80818093A6
:1030A000BB0085EC82C080931C058AC0E09161055D
:1030B00081E08E0F809361058091BB00F0E0EE59B6
:1030C000FA4F808390916105809160056AC0E0911C
:1030D000610581E08E0F809361058091BB00F0E077
:1030E000EE59FA4F808380918705811169C081E094
:1030F0008093860584EA5DC083E080938905109201
:103100001D05CFCF80911D05803208F04DC0E091A4
:103110001D0581E08E0F80931D058091BB00F0E0BE
:10312000E25EFA4F8083BDCF2BDF80911D05803298
:1031300030F4E0911D05F0E0E25EFA4F10826091FC
:103140001D0570E0E0918205F09183058EE195E028
:10315000199510921D0535C084E080938905109261
:103160003F0510923E05E0918405F0918505199583
:1031700080913E05811105C081E080933E0510924B
:103180004005E0913F0581E08E0F80933F05F0E020
:10319000E05CFA4F80818093BB0090913F05809165
:1031A0003E05981708F47DCF85E88093BC0009C0E0
:1031B00085EC8093BC001092890503C010921C0519
:1031C000D5DEFF91EF91BF91AF919F918F917F914C
:1031D0006F915F914F913F912F910F900BBE0F9088
:1031E0000FBE0F901F901895A1E21A2EAA1BBB1BB1
:1031F000FD010DC0AA1FBB1FEE1FFF1FA217B307C3
:10320000E407F50720F0A21BB30BE40BF50B661FD8
:10321000771F881F991F1A9469F76095709580959C
:1032200090959B01AC01BD01CF010895EE0FFF1FEA
:10323000881F8BBF0790F691E02D19940F931F9371
:10324000CF93DF938230910510F482E090E0E0911B
:103250008C05F0918D0520E030E0A0E0B0E03097E3
:1032600019F1408151810281138148175907C8F033
:103270008417950769F4109731F012960C93129702
:1032800013961C9327C000938C0510938D0522C0C4
:103290002115310519F04217530718F49A01BD01A1
:1032A000EF01DF01F801DBCF21153105F9F0281B13
:1032B000390B2430310580F48A819B8161157105B9
:1032C00021F0FB019383828304C090938D0580934A
:1032D0008C05FE01329644C0FE01E20FF31F81937C
:1032E000919322503109398328833AC020918A056D
:1032F00030918B05232B41F420910202309103027F
:1033000030938B0520938A052091000230910102B1
:103310002115310541F42DB73EB74091040250917B
:103320000502241B350BE0918A05F0918B05E2170D
:10333000F307A0F42E1B3F0B2817390778F0AC01D8
:103340004E5F5F4F2417350748F04E0F5F1F5093B5
:103350008B0540938A058193919302C0E0E0F0E0F1
:10336000CF01DF91CF911F910F910895CF93DF93FC
:10337000009709F481C0FC01329713821282A09158
:103380008C05B0918D05109781F420813181820FD9
:10339000931F20918A0530918B052817390751F525
:1033A000F0938B05E0938A0567C0ED0120E030E0E3
:1033B000CE17DF0740F44A815B819E01411551051C
:1033C000F1F0EA01F5CFD383C28340815181840FAC
:1033D000951FC817D90759F488819981840F951FC3
:1033E0000296918380838A819B81938382832115B6
:1033F000310529F4F0938D05E0938C053DC0E9017A
:10340000FB83EA8349915991C40FD51FEC17FD073F
:1034100061F480819181840F951F0296E90199835F
:103420008883828193819B838A83E0E0F0E0129617
:103430008D919C911397009719F0FD01DC01F7CF56
:103440008D919C9111979D012E5F3F4F820F931F8D
:1034500020918A0530918B052817390769F4309738
:1034600029F410928D0510928C0502C013821282ED
:10347000B0938B05A0938A05DF91CF9108956F9249
:103480007F928F929F92AF92BF92CF92DF92EF92F4
:10349000FF920F931F93CF93DF93009781F4CB019B
:1034A000DF91CF911F910F91FF90EF90DF90CF9020
:1034B000BF90AF909F908F907F906F90BFCEFC0198
:1034C000E60FF71F9C0122503109E217F30708F4B9
:1034D000A5C0EC01D9010D911C9111970617170792
:1034E000A8F00530110508F497C0C80104978617A5
:1034F000970708F491C002501109061B170B01939E
:1035000011936D937C93CF0131DF86C05B01A01ACC
:10351000B10A4C01800E911EA0918C05B0918D05D1
:10352000612C712CE12CF12C109709F446C08D917F
:103530009C911197A815B905B1F56C0142E0C40E34
:10354000D11CCA14DB0478F14C018A189B08640171
:1035500042E0C40ED11C1296BC9012971396AC9107
:10356000B5E0CB16D10440F0B282A3839182808271
:10357000D9016D937C9309C00E5F1F4F800F911F7F
:10358000F90191838083EB2DFA2FE114F10431F0DE
:10359000D7011396FC93EE9312973EC0F0938D05DE
:1035A000E0938C0539C06816790608F43C017D016A
:1035B00012960D90BC91A02DB7CF80918A05909165
:1035C0008B0588169906E1F466167706C8F4809193
:1035D000000290910102009741F48DB79EB740918F
:1035E000040250910502841B950BE817F907B0F40B
:1035F000F0938B05E0938A05F901718360830CC019
:10360000CB011CDE7C01009749F0A801BE0117D058
:10361000CE01ACDEC70104C0CE0102C080E090E064
:10362000DF91CF911F910F91FF90EF90DF90CF909E
:10363000BF90AF909F908F907F906F900895FB0107
:10364000DC0102C001900D9241505040D8F708951E
:10365000FB01DC0101900D920020E1F708950F932A
:103660001F93CF93DF93CDB7DEB72E970FB6F894A5
:10367000DEBF0FBECDBF0E891F8986E08C831A8303
:1036800009838FEF9FE79E838D83AE01465E5F4F78
:10369000688D798DCE01019610D0EF81F885E00F0D
:1036A000F11F10822E960FB6F894DEBF0FBECDBF6D
:1036B000DF91CF911F910F9108952F923F924F92DA
:1036C0005F926F927F928F929F92AF92BF92CF92B2
:1036D000DF92EF92FF920F931F93CF93DF93CDB7BB
:1036E000DEB72B970FB6F894DEBF0FBECDBF6C01CF
:1036F0007B018A01FC0117821682838181FFBFC191
:10370000CE0101963C01F6019381F70193FD85916D
:1037100093FF81917F01882309F4ADC1853239F48B
:1037200093FD859193FF81917F01853221F4B6014C
:1037300090E0D6D1E8CF912C212C312CFFE1F3156C
:10374000D8F08B3279F038F4803279F08332A1F4FA
:10375000232D20611DC08D3261F0803369F4232D4B
:10376000216016C0832D8260382EE32DE4603E2E4A
:103770002AC0F32DF8601DC037FC2DC020ED280FA6
:103780002A3040F08E32B9F436FC75C1232D206406
:10379000322E19C036FE06C08AE0989E200D1124F4
:1037A000922E11C0EAE02E9E200D1124222EF32D20
:1037B000F0623F2E08C08C3621F4832D8068382EAD
:1037C00002C0883641F4F70193FD859193FF819102
:1037D0007F018111B3CF982F9F7D9554933028F4AA
:1037E0000C5F1F4F9FE399830DC0833631F0833701
:1037F00071F0833509F055C020C0F80180818983BC
:103800000E5F1F4F88248394912C530112C028010E
:10381000F2E04F0E511CF801A080B18036FE03C0CB
:10382000692D70E002C06FEF7FEFC5014ED14C01F2
:103830008201F32DFF773F2E15C0280122E0420EB2
:10384000511CF801A080B18036FE03C0692D70E0E4
:1038500002C06FEF7FEFC5012DD14C01F32DF06851
:103860003F2E820133FC19C0822D90E08816990604
:10387000A0F4B60180E290E033D12A94F5CFF501AF
:1038800037FC859137FE81915F01B60190E028D128
:1038900021102A9421E0821A91088114910479F769
:1038A000E1C0843611F0893639F5F80137FE07C0DA
:1038B00060817181828193810C5F1F4F08C060819C
:1038C0007181072E000C880B990B0E5F1F4FF32D93
:1038D000FF763F2E97FF09C0909580957095619572
:1038E0007F4F8F4F9F4FF0683F2E2AE030E0A301BB
:1038F00033D1882E861844C0853731F4232D2F7E8E
:10390000B22E2AE030E025C0932D997FB92E8F3654
:10391000C1F018F4883579F0AEC0803719F08837D7
:1039200021F0A9C0E92FE061BE2EB4FE0DC0FB2D31
:10393000F460BF2E09C034FE0AC0292F2660B22EC3
:1039400006C028E030E005C020E130E002C020E100
:1039500032E0F801B7FE07C06081718182819381F6
:103960000C5F1F4F06C06081718180E090E00E5FA8
:103970001F4FA301F1D0882E8618FB2DFF773F2E15
:1039800036FE0DC0232D2E7FA22E891458F434FE4E
:103990000BC032FC09C0832D8E7EA82E05C0B82C2A
:1039A000A32C03C0B82C01C0B92CA4FE0FC0FE018B
:1039B000E80DF11D8081803321F49A2D997EA92E86
:1039C00009C0A2FE06C0B394B39404C08A2D8678C1
:1039D00009F0B394A3FC10C0A0FE06C0B21480F49A
:1039E000280C922C9B180DC0B21458F4B60180E23A
:1039F00090E076D0B394F8CFB21418F42B1802C02C
:103A0000982C212CA4FE0FC0B60180E390E068D072
:103A1000A2FE16C0A1FC03C088E790E002C088E5C2
:103A200090E0B6010CC08A2D867851F0A1FE02C04C
:103A30008BE201C080E2A7FC8DE2B60190E050D09D
:103A4000891430F4B60180E390E04AD09A94F8CF1C
:103A50008A94F301E80DF11D8081B60190E040D019
:103A60008110F6CF222009F44ECEB60180E290E01C
:103A700037D02A94F7CFF6018681978102C08FEF65
:103A80009FEF2B960FB6F894DEBF0FBECDBFDF9130
:103A9000CF911F910F91FF90EF90DF90CF90BF904B
:103AA000AF909F908F907F906F905F904F903F90DE
:103AB0002F900895FC010590615070400110D8F7D7
:103AC000809590958E0F9F1F0895FC016150704066
:103AD00001900110D8F7809590958E0F9F1F089543
:103AE0000F931F93CF93DF93FB01238121FD03C02D
:103AF0008FEF9FEF2CC022FF16C046815781248193
:103B000035814217530744F4A081B1819D012F5F95
:103B10003F4F318320838C93268137812F5F3F4F26
:103B20003783268314C08B01EC01FB010084F185EF
:103B3000E02D1995892BE1F6D80116968D919C916F
:103B40001797019617969C938E931697CE01DF9147
:103B5000CF911F910F910895FA01AA27283051F1B2
:103B6000203181F1E8946F936E7F6E5F7F4F8F4FAE
:103B70009F4FAF4FB1E03ED0B4E03CD0670F781F0D
:103B8000891F9A1FA11D680F791F8A1F911DA11DF2
:103B90006A0F711D811D911DA11D20D009F468942B
:103BA0003F912AE0269F11243019305D3193DEF6D3
:103BB000CF010895462F4770405D4193B3E00FD089
:103BC000C9F7F6CF462F4F70405D4A3318F0495D74
:103BD00031FD4052419302D0A9F7EACFB4E0A69557
:103BE0009795879577956795BA95C9F70097610579
:103BF000710508959B01AC010A2E069457954795CF
:103C000037952795BA95C9F7620F731F841F951FC3
:083C1000A01D0895F894FFCFF8
:103C180000008E052000DC05000040001400540060
:103C28002525256464006F487400526E6700536F41
:103C38006D006F4C6400496E730023232053746138
:103C480072743A20002023232323232323232323AE
:103C580023232323232323232323002C200023236C
:103C680020456E6420232323232323232323232374
:103C78002323232323232323232300204A6E740092
:103C88002057686C00204D6C7400453A00202020B5
:103C98002020002C204D73674C656774683A002C0F
:103CA800204572726F723A002C20446174613A00A8
:103CB8002C204D7367436865636B53756D3A002C10
:103CC8002043616C436865636B53756D3A0041002E
:103CD8004D007349443A006465673A0072706D3A62
:103CE800006C64253A0072657475726E3A200000A3
:103CF8000000002B0F3611BF0E770F910EAB0E9DF3
:103D08000E0D0A006E616E00696E66006F766600C1
:103D180000000000BC153611FD0F00100000000067
:0E3D2800A3167716FD0F401615161D16311640
:00000001FF
