S01600004D456E6750726F6A65637441726D2E73726563B0
S11300005AC1000089C1000087C1000085C10000F9
S113001083C1000081C100007FC100007DC10000D8
S11300207BC100000C94CF0877C1000075C10000AB
S113003073C1000071C100006FC100006DC10000F8
S11300406BC1000069C1000067C1000065C1000008
S113005063C1000061C100005FC100000C946D1712
S11300605BC100000C94CE150C94041655C100001D
S113007053C100000C9479084FC100004DC1000029
S11300804BC1000049C1000047C1000045C1000048
S11300900C9463160C9499163FC100000C947E1DB9
S11300A03BC1000039C1000037C1000035C1000068
S11300B033C1000031C100002FC100002DC1000078
S11300C02BC1000029C1000027C1000025C1000088
S11300D023C1000021C100001FC100001DC1000098
S11300E01BC1000005A84CCDB2D44EB93836A902C4
S11300F00C50B9918688083CA6AAAA2ABE00000022
S1130100803F07634236B79BD8A71A39685618AEA2
S1130110BAAB558C1D3CB7CC5763BD6DEDFD753E38
S1130120F6177231BF000000803F08000000BE9245
S11301302449123EABAAAA2ABECDCCCC4C3E000028
S11301400080BEABAAAAAA3E00000000BF000000C7
S1130150803F0000000000084178D3BB4387D113DF
S11301603D190E3CC3BD4282AD2B3E68EC8276BE87
S1130170D98FE1A93E4C80EFFFBE01C4FF7F3F0051
S113018000000000A818AB189A189E18A418E218CA
S1130190AF18B318B918BD18C118C718CB18CF18A1
S11301A0E218D518D918DD1800000A0B02090C0D45
S11301B00E08070304010000000000000000000016
S11301C0000000000000000000000000000000002B
S11301D000000000121110000000000000000000E8
S11301E00000000000000000000000000000010208
S11301F01020200808102040102040800201020135
S113020008040201010204081020408080402010EC
S11302100804020180040201804020100804020145
S113022008040201010204081020408001020408AD
S11302301020408005050505070508080808020286
S113024002020A0A0808040404040101010101016C
S113025001010303030303030303040707070C0C4F
S11302600C0C0C0C0C0C0202020206060606060616
S113027006060B0B0B0B0B0B0B0B000022002500CF
S113028028002B002E00310034000201000005017B
S113029008010B0100002100240027002A002D0082
S11302A03000330001010000040107010A01CA09FA
S11302B03616CB16C61C11241FBECFEFD1E2DEBF0B
S11302C0CDBF00E00CBF14E0A0E0B2E0E2E9F8E446
S11302D000E00BBF02C007900D92AA3DB107D9F709
S11302E027E0AAEDB4E001C01D92AB3AB207E1F7F2
S11302F011E0CBE5D1E000E006C021970109802F91
S1130300FE010E94E11EC735D10780E00807A9F766
S11303100E94F9160C94472473CEDC01ED91FC91F4
S11303200190F081E02D19948F929F92AF92BF9229
S1130330DF92EF92FF920F931F93CF93DF937C0191
S113034084E1D82EC62FD0E08701D69E000D111D62
S11303501124F801538B428BBA01550F880B990B6A
S11303600E9493114B015C012196DC9EC001DD9E2D
S1130370900D1124E701C80FD91F24ED3FE049EC8B
S11303805AE3C501B4010E94A812688379838A8361
S11303909B8320E030E044EB5DE3C501B4010E949F
S11303A0A8120E946011F801608FDF91CF911F9114
S11303B00F91FF90EF90DF90BF90AF909F908F9040
S11303C008951F93CF93DF93EC01162F842F622F90
S11303D020D5AC01612FCE01DF91CF911F91A4CF25
S11303E070E0DA01411524E052070CF0B450E4E166
S11303F0E69F9001E79F300D1124FC01E20FF31FEB
S1130400B38FA28F81E0411554400CF480E0868FB5
S1130410089570E0DA01411524E052070CF0B4505D
S1130420E4E1E69F9001E79F300D1124FC01E20F07
S1130430F31FB0A3A78F81E0411554400CF480E072
S113044081A308951F93CF93DF93EC01162F842F7C
S1130450622FDFD4AC01612FCE01DF91CF911F91C8
S1130460D8CF4F925F926F927F928F929F92AF926A
S1130470BF92CF92DF92EF92FF920F931F93CF938D
S1130480DF93EC01CB01BA01480159012BED3FE0A8
S113049049EC5FE30E948C106B017C01A50194017F
S11304A00E948D102BED3FE049E450E40E948C1033
S11304B00E94F5102B013C01C701B6010E94F51002
S11304C04B015C0120E030E04BE953E4C301B2018D
S11304D00E94A8126B017C0120E030E047E553E460
S11304E0C501B4010E94A8129B01AC01C701B60169
S11304F00E948D100E946011C857DF4F7983688372
S1130500CB01DF91CF911F910F91FF90EF90DF907E
S1130510CF90BF90AF909F908F907F906F905F909F
S11305204F9008958F929F92AF92BF92EF92FF9255
S11305300F931F93CF93DF93633030F4CA01453A8E
S1130540564008F45BC058C0633039F44130504120
S113055008F04FC080E090EF51C0EA017C016430A4
S113056009F042C0FC01EA58FF4F60817181072EF7
S1130570000C880B990B0E94931124ED3FE049EC89
S11305805AE30E94A8124B015C01BE0180E090E096
S11305900E94911124ED3FE049EC5AE30E94A81215
S11305A0AB01BC0195018401C7015BDF8436910571
S11305B084F4F701EE59FF4F80819181873023E065
S11305C0920714F487E093E0853A26E09207B4F0AA
S11305D013C0C53A86E0D80778F4CE01C730D340BB
S11305E068F487E093E00AC0653099F38FEF9FEFDA
S11305F005C080E090E102C084EA96E0DF91CF91EB
S11306001F910F91FF90EF90BF90AF909F908F90AC
S113061008950F931F93FC01E858FF4F0081118147
S1130620228133817497408151816281738119DF02
S11306301F910F9108954F925F926F927F928F92C4
S11306409F92AF92BF92CF92DF92EF92FF920F935D
S11306501F93CF93DF93EC01CB01BA0148015901F9
S11306602BED3FE049EC5FE30E948C106B017C01B1
S1130670A50194010E948D102BED3FE049E450E464
S11306800E948C100E9457132B013C01C701B60134
S11306900E9457134B015C0120E030E04BE953E426
S11306A0C301B2010E94A8126B017C0120E030E07A
S11306B047E553E4C501B4010E94A8129B01AC01B3
S11306C0C701B6010E948D100E946011C657DF4F0A
S11306D079836883CB01DF91CF911F910F91FF90B4
S11306E0EF90DF90CF90BF90AF909F908F907F90CE
S11306F06F905F904F9008950F931F93FC01E858FB
S1130700FF4F00811181228133817497408151818F
S11307106281738190DF1F910F910895EF92FF9290
S11307200F931F93CF93DF93162FD42F7901C6E035
S1130730C40FC00F602FC90174D3C10F8C0FC82F11
S1130740C0958DE396E00E945E14892B29F08DE319
S113075096E00E947814F5CF61E082E00E941F19B0
S113076061E083E00E941F1965E070E080E090E0A2
S11307700E94E8176FEF70E08DE396E0CEDD6FEF37
S113078070E08DE396E0C9DD612F8DE396E00E9471
S1130790F81410E0B8016D5F7F4F8DE396E0BDDD86
S11307A063E070E08DE396E0B8DD6D2F8DE396E0B5
S11307B00E94F814A801B7018DE396E00E94051782
S11307C06C2F8DE396E00E94F8148DE396E00E946E
S11307D0441560E082E00E941F1960E083E00E94FB
S11307E01F1965E070E080E090E0DF91CF911F91E8
S11307F00F91FF90EF900C94E8170F93CF93DF9332
S11308001F921F92CDB7DEB749835A8302E09E013F
S11308102F5F3F4F42E282DF0F900F90DF91CF9125
S11308200F910895DF92EF92FF920F931F93CF934E
S1130830DF9300D01F92CDB7DEB77C01162FD42EE4
S113084081E0481305C019821A821B821C8209C0E8
S113085082E0481311C09FEF99838FE08A839B83C2
S11308608C8304E09E012F5F3F4F46E0612FC70158
S113087055DF1630A8F01BC087E0898383E08A83A4
S113088084EA8B8386E08C8304E09E012F5F3F4FD4
S113089046E0C70143DF163050F482E08D1538F08E
S11308A0F70184E1189FE00DF11D1124D18A0F9006
S11308B00F900F900F90DF91CF911F910F91FF90A8
S11308C0EF90DF90089541E0ADCF40E0ABCF42E040
S11308D0A9CFBF92CF92DF92EF92FF920F931F9313
S11308E0CF93DF9300D01F92CDB7DEB77C01162FD4
S11308F0B22E032F17DE6C018983DA82BB820C834C
S113090004E09E012F5F3F4F4EE1612FC70106DFD8
S1130910A601612FC70108DD0F900F900F900F9073
S1130920DF91CF911F910F91FF90EF90DF90CF90C7
S1130930BF9008958F929F92AF92BF92DF92EF92F1
S1130940FF920F931F93CF93DF937C01D62EEA017E
S1130950C901B80124E13EEA43E251E40E94A8122D
S11309600E9460114B015C01BE01DD0F880B990BE5
S11309700E94931121E63BE046E351E40E94A81251
S11309800E9465119401AB016D2DC701DF91CF91D8
S11309901F910F91FF90EF90DF90BF90AF909F90C9
S11309A08F9097CF0F931F93CF93DF93062F142F1E
S11309B0D22FC6E0C20FC40FC60FC0958DE396E0D8
S11309C00E945E14892B29F08DE396E00E9478142E
S11309D0F5CF61E082E00E941F1961E083E00E948C
S11309E01F1965E070E080E090E00E94E8176FEF67
S11309F070E08DE396E091DC6FEF70E08DE396E0BC
S1130A008CDC602F8DE396E00E94F81464E070E0C3
S1130A108DE396E082DC62E070E08DE396E07DDCBD
S1130A20612F8DE396E00E94F8146D2F8DE396E01C
S1130A300E94F8146C2F8DE396E00E94F8148DE365
S1130A4096E00E94441560E082E00E941F1960E075
S1130A5083E00E941F1965E070E080E090E0DF9180
S1130A60CF911F910F910C94E8176F927F928F9200
S1130A709F92AF92BF92CF92DF92EF92FF920F9329
S1130A801F93CF93DF93CDB7DEB762970FB6F89479
S1130A90DEBF0FBECDBF6C01162FF42E6EEA74E0DC
S1130AA0CE010D960E94B41922E04F2D612FC6018C
S1130AB079DF65E070E080E090E00E94E81781E073
S1130AC0F60187878DE396E00E947814182F8DE352
S1130AD096E00E9478141F3F11F48F3FE9F0F12C47
S1130AE08DE396E00E945E14892B29F08DE396E055
S1130AF00E947814F5CFF6011786FF2039F0002301
S1130B0041F010E01195019511090DC101E01FEFAD
S1130B100AC1092D172D07C18DE396E00E947814B0
S1130B203C01BC01772746E0CE01079616D162E26C
S1130B3072E0CE0101960E94B419BE01695F7F4F35
S1130B40CE0101960E947F1ABC01CE010D960E942F
S1130B50C819CE0101960E944D19CE0107960E9434
S1130B604D198DE396E00E9478144C01BC0177275F
S1130B7046E0CE010196F1D0BE01635F7F4FCE0106
S1130B8007960E94DD1966E272E0CE0107960E9484
S1130B90901ABE016F5F7F4F0E947F1ABC01CE0185
S1130BA00D960E94C819CE0107960E944D19CE01D8
S1130BB001960E944D198DE396E00E9478147C0101
S1130BC0082FBC01772746E0CE010196C6D0BE01AE
S1130BD0635F7F4FCE0107960E94DD1962E372E0E6
S1130BE0CE0107960E94901ABE016F5F7F4F0E944C
S1130BF07F1ABC01CE010D960E94C819CE0107963A
S1130C000E944D19CE0101960E944D198DE396E084
S1130C100E947814182F8DE396E00E947814F82E21
S1130C20682F812FF6D0982E792E46E0682F792FE1
S1130C30CE01019692D0BE01635F7F4FCE0107962D
S1130C400E94DD196BE372E0CE0107960E94901AB0
S1130C50BE016F5F7F4F0E947F1ABC01CE010D96CB
S1130C600E94C819CE0107960E944D19CE01019623
S1130C700E944D198DE396E00E9478145C01BC013A
S1130C80772746E0CE01019668D0BE01635F7F4FAF
S1130C90CE0107960E94DD1963E472E0CE01079647
S1130CA00E94901ABE016F5F7F4F0E947F1ABC01A1
S1130CB0CE010D960E94C819CE0107960E944D19C7
S1130CC0CE0101960E944D19860CE80C1E0D1F0DD5
S1130CD01095612F70E046E0CE0101963ED0BE0132
S1130CE0635F7F4FCE0107960E94DD1962E572E0D3
S1130CF0CE0107960E94901ABE016F5F7F4F0E943B
S1130D007F1ABC01CE010D960E94C819CE01079628
S1130D100E944D19CE0101960E944D19FF24F394AF
S1130D201A11DDCEDDCECE010D960E944D19C801FB
S1130D3062960FB6F894DEBF0FBECDBFDF91CF91A0
S1130D401F910F91FF90EF90DF90CF90BF90AF90E5
S1130D509F908F907F906F9008958F929F92AF9203
S1130D60BF92CF92DF92EF92FF920F931F93CF9394
S1130D70DF9300D01F921F92CDB7DEB77C01962E71
S1130D80872EADB6BEB68DB79EB7841B91090FB63C
S1130D90F8949EBF0FBE8DBF0DB71EB70F5F1F4FD8
S1130DA01F924F9381E692E09F938F93CE01019619
S1130DB06C019F938F930E945C218F929F92DF928C
S1130DC0CF921F930F930E945C21B801C7010E9428
S1130DD0B4198DB79EB70C960FB6F8949EBF0FBE8C
S1130DE08DBFC7010FB6F894BEBE0FBEADBE0F9047
S1130DF00F900F900F900F90DF91CF911F910F9153
S1130E00FF90EF90DF90CF90BF90AF909F908F9026
S1130E10089570E0762F66279B01280F311DC901C4
S1130E200895382FFC0180E090E02E2F231B261715
S1130E3020F42191820F911DF8CF0895CF92DF9273
S1130E40EF92FF920F931F93CF93DF93CDB7DEB74B
S1130E502C970FB6F894DEBF0FBECDBF7C01C42E15
S1130E60FB01619171918F014AE077DFDD24D39416
S1130E70DC1430F5F801619171918F0146E0CE01E7
S1130E8001966BDFB701CE0107960E94DD1967E674
S1130E9072E0CE0107960E94901ABE016F5F7F4FE9
S1130EA00E947F1ABC01C7010E94C819CE0107968F
S1130EB00E944D19CE0101960E944D19D394D8CFAA
S1130EC0C7012C960FB6F894DEBF0FBECDBFDF91DD
S1130ED0CF911F910F91FF90EF90DF90CF900895E5
S1130EE0CF93DF9300D000D0CDB7DEB7462FBC013F
S1130EF0CE010196A3DFBE016F5F7F4F80EA95E0CC
S1130F000E945D17CE0101960E944D1926960FB6D8
S1130F10F894DEBF0FBECDBFDF91CF9108954F92FD
S1130F205F926F927F928F929F92AF92BF92CF9275
S1130F30DF92EF92FF920F931F93CF93DF9300D032
S1130F401F921F92CDB7DEB7982E862E8A01D22E1D
S1130F50ADB6BEB68DB79EB7821B91090FB6F89495
S1130F609EBF0FBE8DBF01967C01622F70E080E0B2
S1130F7090E00E9491119B01AC0160E070E080E27E
S1130F8091E40E940B132B013C01B801012E000CCB
S1130F90880B990B0E949311A30192010E94F110F6
S1130FA087FD0BC020E030E040E85FE3C301B201FD
S1130FB00E948C100E9460118B011F92DF9281E6C7
S1130FC092E09F938F93CE0101966C019F938F9330
S1130FD00E945C211F930F93DF92CF92FF92EF92B6
S1130FE00E945C21482D692D80EF94E00E94191B1A
S1130FF0B70180EF94E00E9452178DB79EB70C960C
S11310000FB6F8949EBF0FBE8DBF0FB6F894BEBE48
S11310100FBEADBE0F900F900F900F900F90DF9109
S1131020CF911F910F91FF90EF90DF90CF90BF90E1
S1131030AF909F908F907F906F905F904F900895A6
S1131040CF93DF93EA01462F682F80EF94E00E944C
S1131050191BBE0180EF94E0DF91CF910C945217DD
S11310608FEF84B984B1887F84B9EBE6F0E08081A6
S113107087608083E8E6F0E08081816080837894F3
S11310800895EAE0F1E080818D7F8083E7E0F1E07C
S113109080818F7080830895ECE7F0E09081907EEA
S11310A090839081282F2770922B9083887080934F
S11310B07B00EAE7F0E08081806480830895ECE7B8
S11310C0F0E080818F778083808180648083EAE789
S11310D0F0E0808187608083808180688083808164
S11310E08860808380E280937E008091E704845F3F
S11310F0D3CF1F920F920FB60F9211240BB60F92FB
S11311002F933F934F935F936F937F938F939F930B
S1131110AF93BF93EF93FF93809178009091790000
S1131120843F914038F42091780030917900245F15
S113113031400FC0809178009091790081309240C5
S113114030F02091780030917900325002C020E0D4
S113115030E08091E704E82FF0E0EE0FFF1FE1524A
S1131160FB4F31832083833010F48F5F01C080E014
S11311708093E704845F90DFFF91EF91BF91AF917B
S11311809F918F917F916F915F914F913F912F919B
S11311900F900BBE0F900FBE0F901F9018951F92CB
S11311A00F920FB60F9211240BB60F92EF92FF928B
S11311B00F931F932F933F934F935F936F937F935B
S11311C08F939F93AF93BF93CF93EF93FF93C0916C
S11311D00A05189B3BC02F9A84E1C89F8001112403
S11311E002501B4F7801ECE1EE0EF11C0E5E1F4F16
S11311F0189B23C0C33070F480919D05813021F089
S1131200F7012081318102C020E030E0F801408103
S1131210518108C0F70120813181F8014081518159
S1131220415051096C2F8EEF94E053DB68EC70E071
S113123080E090E00E94E817DBCF80919B0591E06D
S1131240892780939B0590939D052F98199B3DC0FA
S11312502F9AF4E1CF9F8001112402501B4F780193
S11312608CE1E80EF11C0E5E1F4F199B24C0C330A5
S113127078F480919D05823029F0F7012081318135
S11312803C5F02C020E034E0F8014081518108C095
S1131290F70120813181F801408151814F5F5F4F17
S11312A06C2F8EEF94E015DB68EC70E080E090E04A
S11312B00E94E817DACF90919C0581E089278093FA
S11312C09C0582E080939D052F981A9B4BC01F9A22
S11312D064E170E080E090E00E94E81700E010E034
S11312E01A9B09C061E070E080E090E00E94E8177A
S11312F00F5F1F4FF5CF093E134038F09091EC0477
S113130081E089278093EC0424C0C33078F484E11D
S1131310C89FF0011124E250FB4F4289538920E019
S113132030E06C2F8EEF94E0D4DA02C0C53018F4AC
S113133061E06C0F01C061E060930A058EEF94E0F8
S1131340643010F0C2DA05C0633011F4C0DA01C0B1
S1131350BADA90919D0581E0892780939D0583E009
S113136080939D05FF91EF91CF91BF91AF919F9194
S11313708F917F916F915F914F913F912F911F9129
S11313800F91FF90EF900F900BBE0F900FBE0F9038
S11313901F901895CF93DF938091080290910902D2
S11313A090939F0580939E0560E070E087E593E449
S11313B00E945D13CEEFD4E083D7688379838A8358
S11313C09B8360E070E08BE993E40E945D1378D71F
S11313D06C837D838E839F8384EB98E0A2E0B0E0EE
S11313E088879987AA87BB871D861E861F8624E166
S11313F044E067E280EF94E0DF91CF910C94B31A5C
S11314002F923F924F925F926F927F928F929F9210
S1131410AF92BF92CF92DF92EF92FF920F931F93FE
S1131420CF93DF93CDB7DEB762970FB6F894DEBFE4
S11314300FBECDBFD82E162F6EEA74E0CE010D96E6
S11314400E94B41926E0412F6D2D8EEF94E0AADAA4
S11314506AE070E080E090E00E94E81781E0809309
S1131460EF048DE396E00E947814182F8DE396E044
S11314700E9478141F3F11F48F3FE9F0E12C8DE3B3
S113148096E00E945E148C01892B29F08DE396E08E
S11314900E947814F4CF1092EF04EE2049F0FF205C
S11314A009F485C10F2D10E01195019511097FC133
S11314B001E01FEF7CC18DE396E00E9478142C01BB
S11314C0BC01772746E0CE01079647DC62E272E072
S11314D0CE0101960E94B419BE01695F7F4FCE010F
S11314E001960E947F1ABC01CE010D960E94C81974
S11314F0CE0101960E944D19CE0107960E944D1906
S11315008DE396E00E9478147C01BC01772746E0C5
S1131510CE01019622DCBE01635F7F4FCE010796A8
S11315200E94DD1966E272E0CE0107960E94901ACD
S1131530BE016F5F7F4F0E947F1ABC01CE010D96E2
S11315400E94C819CE0107960E944D19CE0101963A
S11315500E944D198DE396E00E9478148C01F82EB8
S1131560BC01772746E0CE010196F7DBBE01635F3D
S11315707F4FCE0107960E94DD1962E372E0CE012F
S113158007960E94901ABE016F5F7F4F0E947F1AD8
S1131590BC01CE010D960E94C819CE0107960E9487
S11315A04D19CE0101960E944D198DE396E00E94DB
S11315B078144C018DE396E00E947814282EB4012F
S11315C0772746E0CE010196C8DBBE01635F7F4FFB
S11315D0CE0107960E94DD1964E373E0CE010796FD
S11315E00E94901ABE016F5F7F4F0E947F1ABC0158
S11315F0CE010D960E94C819CE0107960E944D197E
S1131600CE0101960E944D198DE396E00E94781454
S11316105C018DE396E00E947814382EB50177279B
S113162046E0CE01019699DBBE01635F7F4FCE0198
S113163007960E94DD196CE373E0CE0107960E94C1
S1131640901ABE016F5F7F4F0E947F1ABC01CE01CA
S11316500D960E94C819CE0107960E944D19CE011D
S113166001960E944D198DE396E00E947814C82ECD
S11316708DE396E00E947814582E46E060E070E016
S1131680CE0101966ADBBE01635F7F4FCE010796F0
S11316900E94DD1964E473E0CE0107960E94901A5B
S11316A0BE016F5F7F4F0E947F1ABC01CE010D9671
S11316B00E94C819CE0107960E944D19CE010196C9
S11316C00E944D198DE396E00E9478143C01BC0100
S11316D0772746E0CE01019640DBBE01635F7F4F72
S11316E0CE0107960E94DD1963E472E0CE010796ED
S11316F00E94901ABE016F5F7F4F0E947F1ABC0147
S1131700CE010D960E94C819CE0107960E944D196C
S1131710CE0101960E944D19142D1E0D100F180DA7
S1131720120D1A0D130D1C0D150D1095612F70E07F
S113173046E0CE01019611DBBE01635F7F4FCE010F
S113174007960E94DD1962E572E0CE0107960E94B9
S1131750901ABE016F5F7F4F0E947F1ABC01CE01B9
S11317600D960E94C819CE0107960E944D19CE010C
S113177001960E944D19161181CE222D482D6D2DF2
S11317808EEF94E00E94E101632D8A2D42DBAC01CF
S11317906D2D8EEF94E00E94F001252D4C2D6D2DC2
S11317A08EEF94E00E942202EE24E39468CECE01F0
S11317B00D960E944D19C80162960FB6F894DEBFCB
S11317C00FBECDBFDF91CF911F910F91FF90EF908E
S11317D0DF90CF90BF90AF909F908F907F906F904D
S11317E05F904F903F902F9008954F925F926F9229
S11317F07F92BF92CF92DF92EF92FF920F931F934B
S1131800CF93DF93CDB7DEB72C970FB6F894DEBF36
S11318100FBECDBFEDB6FEB68091EC04882361F116
S113182080916D0590916E05C2971CF024EF31E014
S113183002C020E030E080916F05811101C03C5F5F
S113184044E650E061E08EEF94E043D88091810556
S113185090918205C2971CF024EF31E002C020E091
S113186030E080918305811101C03C5F44E650E083
S113187062E08EEF94E02DD890910B0581E08927EA
S11318809091EC04891355C0811153C00E94B7177D
S11318900091DB041091DC042091DD043091DE041E
S11318A0AB01BC01401B510B620B730B2AE0CE0150
S11318B007960E94FA19BE01695F7F4FCE01019617
S11318C00E94DD196EEE73E0CE0101960E94901A1B
S11318D0BC0180EA95E00E945D17CE0101960E944A
S11318E04D19CE0107960E944D198091EE04811185
S11318F003C020E034E002C020E030E044E650E0E1
S113190061E08EEF94E00E9469048091ED048111FE
S113191003C020E034E002C020E030E044E650E0C0
S113192062E08EEF94E00E9469048091EC0480935D
S11319300B0580910A05843010F464E261DD64E2F1
S113194084E05EDD64E285E05BDD46E261E08EEF2B
S113195094E08BD897FD06C0AC0161E08EEF94E073
S11319600E94F00146E262E08EEF94E07ED897FD9B
S113197006C0AC0162E08EEF94E00E94F00144E402
S113198064E08EEF94E071D897FD09C09850880FF9
S1131990991F880F991F909371058093700544E4F3
S11319A065E08EEF94E061D897FD09C09850880FE8
S11319B0991F880F991F9093850580938405409102
S11319C00A0550E021E060E083E0A9DA40E068E045
S11319D080EF94E00E94191B80916F05811103C070
S11319E068EE73E002C066EE73E080EF94E00E945C
S11319F0521740916D0550916E0523E060E089E037
S1131A008EDA40E06DE080EF94E00E94191B809133
S1131A108305811103C068EE73E002C066EE73E0D3
S1131A2080EF94E00E945217409181055091820505
S1131A3023E060E08EE073DA8091FC049091FD0471
S1131A4082309105E4F09091DA0481E08927809353
S1131A50DA041092FD041092FC04882339F080917A
S1131A60EC04811106C04AEE53E005C046E852E09A
S1131A7002C04CEE53E060E083E1E2DA05C0019677
S1131A809093FD048093FC04E0910A05E330C9F4CB
S1131A9060914C0570914D05072E000C880B990B35
S1131AA042D420E030E044EB5DE352D520E030E066
S1131AB040E450E49DD320E030E040EF52E42DD3E5
S1131AC012C044E1E49FF0011124E250FB4F62890B
S1131AD07389072E000C880B990B25D420E030E085
S1131AE044EB5DE335D5ECD3AB0124E061E083E066
S1131AF016DA6FED80EF94E00E9453176091600551
S1131B0070916105072E000C880B990B0CD420E012
S1131B1030E044EB5DE31CD5D3D324E0AB0161E0BA
S1131B2088E0FDD96FED80EF94E00E945317609137
S1131B30740570917505072E000C880B990BF3D36F
S1131B4020E030E044EB5DE303D5BAD324E0AB01FD
S1131B5061E08DE0E4D96FED80EF94E00E945317CB
S1131B60E0910A0514E11E9FF0011124E250FB4F9D
S1131B70428D538D24E062E083E0D1D980910A053F
S1131B80189FF0011124E250FB4F228D338D232B3B
S1131B9099F0968D992321F0833031F061E007C0EC
S1131BA0833021F060E003C06EE701C06FE780EF8F
S1131BB094E00E94531706C066E872E080EF94E058
S1131BC00E94521780912C0590912D05892B31F09C
S1131BD06091300580EF94E00E9453178091400596
S1131BE090914105892B31F06091440580EF94E098
S1131BF00E9453174091E3045091E40424E062E00E
S1131C0082E08DD94091E5045091E60424E062E03D
S1131C1087E085D98091E3041091E404912F64E670
S1131C2070E00E94AC1E072E000C880B990B7BD32E
S1131C301095111F1127111F412F50E08B019C019A
S1131C4064E08EEF94E00E949A048EEF94E00E9488
S1131C50090390938705809386058EEF94E00E9494
S1131C607C03909389058093880540918605509163
S1131C70870524E063E082E052D9409188055091C1
S1131C80890524E063E087E04AD90E94B717B09041
S1131C900602CB2CD12C9601220F331FEDB7FEB7D1
S1131CA0E21BF30B0FB6F894FEBF0FBEEDBF0DB7EA
S1131CB01EB70F5F1F4F4090E8045090E9046090F6
S1131CC0EA047090EB04641975098609970924E6FF
S1131CD030E040E050E00E94BF1EEDB7FEB7328313
S1131CE021838091600590916105F801938382833B
S1131CF080916D0590916E059583848380916F0525
S1131D0090E0978386838091700590917105918707
S1131D10808780912C0590912D05938782878091EF
S1131D20300590E0958784878091740590917505BE
S1131D30978786878091810590918205918B808B0E
S1131D408091830590E0938B828B809184059091A0
S1131D508505958B848B8091400590914105978BE7
S1131D60868B8091440590E0918F808F7A96C6018E
S1131D7001978C30910519F011921192F9CF6B2DC6
S1131D80C801AED80FB6F894FEBE0FBEEDBE2C96B9
S1131D900FB6F894DEBF0FBECDBFDF91CF911F9178
S1131DA00F91FF90EF90DF90CF90BF907F906F9056
S1131DB05F904F9008950F931F93CF93DF93CDB708
S1131DC0DEB76C970FB6F894DEBF0FBECDBF0E948E
S1131DD0B7176093DB047093DC048093DD04909365
S1131DE0DE043ED94ED96BD980EF94E00E94CC1B1F
S1131DF088E0EAE0F2E0DE01199601900D928A95FE
S1131E00E1F788E0E2E1F2E0DE01119601900D9243
S1131E108A95E1F7AE01475F5F4F60E080EF94E0A1
S1131E200E944D1BAE014F5F5F4F61E080EF94E075
S1131E300E944D1B80EF94E00E94D31A80EF94E03F
S1131E400E940F1B61E082E00E94E31861E083E0DE
S1131E500E94E31826E040E051EE60E070E080EA82
S1131E6095E033D626E047E35FED60E070E08DE374
S1131E7096E02BD68DE396E007D60EEF14E081E0D2
S1131E80F801848747E054E060E080E0D9D861E05D
S1131E90C8010E94630462E0C8010E94630463E015
S1131EA0C8010E94670464E0C8010E94650465E0FB
S1131EB0C8010E94650464EF71E080E090E00E9434
S1131EC0E81748E154E060E082E1BAD84BE154E01D
S1131ED061E080E0B5D888EE93E0F80191AB80AB87
S1131EE090934305809342058EE190E090935705CB
S1131EF0809356058AE090E090936B0580936A0581
S1131F0090937F0580937E0564EF71E080E090E01C
S1131F100E94E81748E154E061E082E191D846E28A
S1131F2054E062E080E08CD84FEF53E061E0C801F8
S1131F300E94FD034FEF53E062E0C8010E94FD03DD
S1131F4040E052E063E0C8010E94FD034FEF53E01C
S1131F5064E0C8010E94FD034FEF53E065E0C8014F
S1131F600E94FD0364EF71E080E090E00E94E817B6
S1131F7048E154E062E082E163D84BE654E063E078
S1131F8080E05ED844E263E0C8010E943505909386
S1131F904D0580934C0544E264E0C8010E94350578
S1131FA0909361058093600544E265E0C8010E9456
S1131FB03505909375058093740564EF71E080E0B6
S1131FC090E00E94E81748E154E063E082E138D8E9
S1131FD064EF71E080E090E0FBD780EF94E00E9432
S1131FE00F1B40E060E080EF94E00E94191B67E55E
S1131FF074E080EF94E056D740E065E080EF94E031
S11320000E94191B6BE574E080EF94E04BD741E02C
S113201060E080EF94E00E94191B6FE574E080EFAC
S113202094E040D742E060E080EF94E00E94191B06
S113203063E674E080EF94E035D743E060E080EF3E
S113204094E00E94191B67E674E080EF94E02AD7BD
S11320504EE061E0C8010E9435058C016FE774E031
S1132060CE0147960E94B419BE01695E7F4FCE012E
S113207041960E94DD19B801CE0141960E94A71A2B
S1132080BC0180EA95E019D7CE0141960E944D1912
S1132090CE0147960E944D1947E461E08EEF94E02B
S11320A00E9435058C016CE874E0CE0147960E94CD
S11320B0B419BE01695E7F4FCE0141960E94DD19BD
S11320C0B801CE0141960E94A71ABC0180EA95E0AE
S11320D0F4D6CE0141960E944D19CE0147960E9436
S11320E04D1924E130E041E754E064E08EEF94E0E0
S11320F00E94690460E177E280E090E069D7109281
S113210007026C960FB6F894DEBF0FBECDBFDF9109
S1132110CF911F910F9108955058BB27AA270ED035
S1132120C5C18ED130F093D120F031F49F3F11F42A
S11321301EF45EC10EF4E095E7FB54C1E92FD8D13B
S113214080F3BA17620773078407950718F071F4D0
S11321509EF5F0C10EF4E0950B2EBA2FA02D0B01C5
S1132160B90190010C01CA01A0011124FF27591BD8
S113217099F0593F50F4503E68F11A16F040A22FDE
S1132180232F342F4427585FF3CF4695379527954F
S1132190A795F0405395C9F77EF41F16BA0B620B4E
S11321A0730B840BBAF09150A1F0FF0FBB1F661F95
S11321B0771F881FC2F70EC0BA0F621F731F841FD8
S11321C048F4879577956795B795F7959E3F08F0FE
S11321D0B3CF9395880F08F09927EE0F97958795BD
S11321E00895DCD008F481E0089539D1E3956FC1F6
S11321F00CD05CC12CD140F023D130F021F45F3FEE
S113220019F0F0C0511197C1F3C072D198F399231A
S1132210C9F35523B1F3951B550BBB27AA276217A6
S11322207307840738F09F5F5F4F220F331F441FEB
S1132230AA1FA9F333D00E2E3AF0E0E830D0915023
S11322405040E695001CCAF729D0FE2F27D0660F10
S1132250771F881FBB1F261737074807AB07B0E84F
S113226009F0BB0B802DBF01FF2793585F4F2AF065
S11322709E3F510568F0B6C05EC15F3FECF3983EE7
S1132280DCF3869577956795B795F7959F5FC9F7C2
S1132290880F911D9695879597F90895E1E0660F4B
S11322A0771F881FBB1F621773078407BA0720F0C4
S11322B0621B730B840BBA0BEE1F88F7E09508952D
S11322C004D06894B11137C108951AD188F09F578A
S11322D090F0B92F9927B751A0F0D1F0660F771F6E
S11322E0881F991F1AF0BA95C9F712C0B13081F04E
S11322F021D1B1E008951EC1672F782F8827B85FD8
S113230039F0B93FCCF3869577956795B395D9F7AE
S11323103EF490958095709561957F4F8F4F9F4FB8
S11323200895E89409C097FB3EF4909580957095C4
S113233061957F4F8F4F9F4F9923A9F0F92F96E90D
S1132340BB279395F695879577956795B795F11182
S1132350F8CFFAF4BB0F11F460FF1BC06F5F7F4F1F
S11323608F4F9F4F16C0882311F096E911C0772331
S113237021F09EE8872F762F05C0662371F096E83A
S1132380862F70E060E02AF09A95660F771F881F09
S1132390DAF7880F9695879597F90895990F0008AD
S11323A0550FAA0BE0E8FEEF16161706E807F90723
S11323B0C0F012161306E407F50798F0621B730BBE
S11323C0840B950B39F40A2661F0232B242B252B3F
S11323D021F408950A2609F4A140A6958FEF811DE2
S11323E0811D089597F99F6780E870E060E0089583
S11323F09FEF80EC0895DF93CF931F930F93FF9289
S1132400EF92DF927B018C01689405C0DA2EEF0114
S1132410ABD0FE01E894A591259135914591559154
S1132420AEF3EF018BDEFE019701A801DA9479F790
S1132430DF90EF90FF900F911F91CF91DF9108955E
S113244000240A941616170618060906089500248F
S11324500A9412161306140605060895C9CF50D01F
S1132460E8F3E894E0E0BB279F57F0F02AED3FE063
S113247049EC06C0EE0FBB0F661F771F881F28F0BC
S1132480B23A62077307840728F0B25A620B730BDF
S1132490840BE3959A9572F7803830F49A95BB0FC4
S11324A0661F771F881FD2F790483DC1092E0394F9
S11324B0000C11F4882352F0BB0F40F4BF2B11F42D
S11324C060FF04C06F5F7F4F8F4F9F4F0895EF935E
S11324D0E0FF06C0A2EA2AED3FE049EC5FEB2EDE06
S11324E0E5DF0F90039401FC9058E4EEF0E027C17F
S11324F057FD9058440F551F59F05F3F71F04795B1
S1132500880F97FB991F61F09F3F79F08795089595
S1132510121613061406551FF2CF4695F1DF08C0B4
S1132520161617061806991FF1CF869571056105D1
S113253008940895E894BB2766277727CB0197F979
S113254008959B01AC0160E070E080E89FE350CE09
S11325500BD0ACCF75DF28F07ADF18F0952309F0A3
S113256041CF46CF1124E7CFC3DFA0F3959FD1F32A
S1132570950F50E0551F629FF001729FBB27F00D2D
S1132580B11D639FAA27F00DB11DAA1F649F662782
S1132590B00DA11D661F829F2227B00DA11D621FD1
S11325A0739FB00DA11D621F839FA00D611D221F8B
S11325B0749F3327A00D611D231F849F600D211D6F
S11325C0822F762F6A2F11249F5750408AF0E1F012
S11325D088234AF0EE0FFF1FBB1F661F771F881F5B
S11325E091505040A9F79E3F510570F0FBCEA3CF08
S11325F05F3FECF3983EDCF3869577956795B79546
S1132600F795E7959F5FC1F7FE2B880F911D96956F
S1132610879597F90895FA01EE0FFF1F309621056B
S1132620310599F16115710561F48038BFE39B07A9
S113263049F168949038810561F08038BFEF9B07B9
S113264041F0992342F5FF3FE1053105210511F1E0
S1132650E8940894E795D901AA2329F4AB2FBE2F57
S1132660F85FD0F310C0FF5F70F4A695E0F7F73978
S113267050F019F0FF3A38F49F779F930CD00F90E5
S113268007FC905808953EF0B3CE60E070E080E817
S11326909FE308954FE79F775F934F933F932F9363
S11326A09AD02F913F914F915F9152DF0EC09F932B
S11326B0D6DE0F9007FCEE5F0ACF9B01AC0148CF3A
S11326C019F40EF08FCE36CF93CE1ADFC8F39638B6
S11326D0C0F707F80F92E8942BE33AEA48EB5FE778
S11326E045DF0F920F920F924DB75EB70F92B3D0A2
S11326F0E2E0F1E080DE4F915F91EF91FF91E5958B
S1132700EE1FFF1F49F0FE57E0684427EE0F441FF9
S1132710FA95E1F74195550B25D00F9007FE11CF9F
S113272008959F3F31F0915020F4879577956795F0
S1132730B795880F911D9695879597F908959F935E
S11327408F937F936F93FF93EF939B01AC0100DF13
S1132750EF91FF9150DE2F913F914F915F91F8CE11
S113276041CEDFCFCDDEE8F39923D9F3940F511D89
S1132770BBF39150504094F059F0882332F0660F27
S1132780771F881F91505040C1F79E3F510544F771
S1132790880F911D9695879597F908955F3FACF042
S11327A0983E9CF0BB27869577956795B79508F476
S11327B0B1609395C1F7BB0F58F711F460FFE8CFF0
S11327C06F5F7F4F8F4F9F4FE3CFB5CE0EF0A9CFF2
S11327D00FCE689407CE94DEC8F39923D1F3C6F3E1
S11327E0DF93CF931F930F93FF92C92FDD27882385
S11327F02AF02197660F771F881FDAF720E030E070
S113280040E85FEB9FE3883920F0803E30F021966A
S11328108F7783DCEAE2F1E003C07FDCE7E5F1E0F7
S1132820EADD8B01BE01EC01FB2E6F577109759532
S1132830771F880B990B77DD28E132E741E35FE3EB
S113284093DEAF2D9801AE01FF900F911F91CF91B0
S1132850DF9174DC2BCEFA01DC01AA0FBB1F9B01B4
S1132860AC01BF5728F422273327442750781FC0D0
S1132870B75188F4AB2F0024469537952795011C52
S1132880A395D2F3002069F0220F331F441FB395A0
S1132890DAF30DD041CC61307105A0E88A07B9465E
S11328A030F49B01AC01662777278827907830960F
S11328B021F020833183428353830895FC01918D59
S11328C0228D892F90E0805C9F4F821B91098F732A
S11328D099270895FC01918D828D981731F0828D8E
S11328E0E80FF11D858D90E008958FEF9FEF089517
S11328F0FC01918D828D981761F0828DDF01A80F04
S1132900B11D5D968C91928D9F5F9F73928F90E025
S113291008958FEF9FEF0895FC01538D448D252F6B
S113292030E0842F90E0821B930B541710F0CF9665
S11329300895019708958DE296E1892B39F080E09E
S113294090E0892B19F089D1811124C082EC96E1A1
S1132950892B39F080E090E0892B19F013D2811192
S11329601CC080E090E0892B41F080E090E0892B4E
S113297021F00E940000811113C080E090E0892BB7
S1132980A1F080E090E0892B81F00E940000811189
S11329900AC008950E940000D9CF0E940000E1CF30
S11329A00E940000EACF0C9400000895FC01848D7D
S11329B0DF01A80FB11DA35ABF4F2C91848D90E065
S11329C001968F739927848FA689B7892C93A08940
S11329D0B1898C91837080648C93938D848D9813CA
S11329E006C00288F389E02D80818F7D808308955D
S11329F0EF92FF920F931F93CF93DF93EC0181E04B
S1132A00888F9B8D8C8D981305C0E889F989808106
S1132A1085FD25C0F62E0B8D10E00F5F1F4F0F7341
S1132A201127E02E8C8DE8120BC00FB607FCFACFED
S1132A30E889F989808185FFF5CFCE01B7DFF2CF30
S1132A408B8DFE01E80FF11DE35AFF4FF0829FB713
S1132A50F8940B8FEA89FB89808180620AC09FB752
S1132A60F894EE89FF896083E889F989808183700D
S1132A70806480839FBF81E090E0DF91CF911F91BC
S1132A800F91FF90EF900895CF93DF93EC01888D21
S1132A908823C1F0EA89FB89808185FD05C0A88966
S1132AA0B9898C9186FD0EC00FB607FCF5CF8081E5
S1132AB085FFF2CFA889B9898C9185FFEDCFCE012E
S1132AC075DFE8CFDF91CF910895CF92DF92EF9237
S1132AD0FF921F93CF93DF93EC016A017B01122FC6
S1132AE0E889F98982E080834115514E61057105B9
S1132AF0B1F060E079E08DE390E0A70196010E94D7
S1132B00BF1EDA01C9010197A109B109B695A795BC
S1132B10979587959C01211580E13807A8F0E889ED
S1132B20F989108260E874E88EE190E0A7019601CB
S1132B300E94BF1EDA01C9010197A109B109B69526
S1132B40A795979587959C01EC85FD853083EE8547
S1132B50FF852083188EEC89FD891083EA89FB891F
S1132B60808180618083EA89FB8980818860808399
S1132B70EA89FB89808180688083EA89FB89808176
S1132B808F7D8083DF91CF911F91FF90EF90DF9035
S1132B90CF90089580E090E0089508951F920F92D9
S1132BA00FB60F9211240BB60F922F938F939F930E
S1132BB0EF93FF93E091B005F091B1058081E0912E
S1132BC0B605F091B70582FD12C090818091B905D8
S1132BD08F5F8F732091BA05821751F0E091B90588
S1132BE0F0E0E056FA4F958F8093B90501C08081DB
S1132BF0FF91EF919F918F912F910F900BBE0F90AA
S1132C000FBE0F901F9018951F920F920FB60F9240
S1132C1011240BB60F922F933F934F935F936F93AF
S1132C207F938F939F93AF93BF93EF93FF9380EA28
S1132C3095E0BCDEFF91EF91BF91AF919F918F9191
S1132C407F916F915F914F913F912F910F900BBEA8
S1132C500F900FBE0F901F90189580EA95E02EDE1E
S1132C6021E0892B09F420E0822F0895E0EAF5E0C1
S1132C701382128288EE93E0A0E0B0E0848395830F
S1132C80A683B7838EE994E09183808385EC90E0FA
S1132C909587848784EC90E09787868780EC90E022
S1132CA0918B808B81EC90E0938B828B82EC90E013
S1132CB0958B848B86EC90E0978B868B118E128E8D
S1132CC0138E148E08951F920F920FB60F92112433
S1132CD00BB60F922F938F939F93EF93FF93E091F3
S1132CE04D06F0914E068081E0915306F091540612
S1132CF082FD12C09081809156068F5F8F73209160
S1132D005706821751F0E0915606F0E0E35CF94F64
S1132D10958F8093560601C08081FF91EF919F911A
S1132D208F912F910F900BBE0F900FBE0F901F909D
S1132D3018951F920F920FB60F9211240BB60F9293
S1132D402F933F934F935F936F937F938F939F93AF
S1132D50AF93BF93EF93FF938DE396E027DEFF914C
S1132D60EF91BF91AF919F918F917F916F915F91FF
S1132D704F913F912F910F900BBE0F900FBE0F906C
S1132D801F9018958DE396E099DD21E0892B09F4D5
S1132D9020E0822F0895EDE3F6E01382128288EE9C
S1132DA093E0A0E0B0E084839583A683B7838EE9A3
S1132DB094E0918380838DEC90E0958784878CECFC
S1132DC090E09787868788EC90E0918B808B89ECE4
S1132DD090E0938B828B8AEC90E0958B848B8EECC5
S1132DE090E0978B868B118E128E138E148E08951D
S1132DF0089532D1FDDF0E94DB0ECBE9D4E10E94BD
S1132E00F50B2097E1F397DDFACFCF92DF92EF92A3
S1132E10FF920F931F93CF93DF936C017A018B0181
S1132E20C0E0D0E0CE15DF0581F0D8016D918D01B1
S1132E30D601ED91FC910190F081E02DC601199528
S1132E40892B11F02196EECF7E01C701DF91CF913E
S1132E501F910F91FF90EF90DF90CF90089561152F
S1132E60710579F0FB0101900020E9F73197AF017A
S1132E70461B570BDC01ED91FC910280F381E02DA0
S1132E80199480E090E00895DB0114964D915C91D3
S1132E9015976D917C91DC01ED91FC910280F38199
S1132EA0E02D1994DCCFDC01ED91FC910190F081CF
S1132EB0E02D19946CEA74E0D2CF0F931F93CF9353
S1132EC0DF93EC01E1DF8C01CE01F4DF800F911F71
S1132ED0DF91CF911F910F9108951F920F920FB61A
S1132EE00F9211242F933F938F939F93AF93BF938C
S1132EF08091DB069091DC06A091DD06B091DE06A0
S1132F003091DA0623E0230F2D3720F40196A11D1A
S1132F10B11D05C026E8230F0296A11DB11D209303
S1132F20DA068093DB069093DC06A093DD06B0936B
S1132F30DE068091DF069091E006A091E106B09153
S1132F40E2060196A11DB11D8093DF069093E00671
S1132F50A093E106B093E206BF91AF919F918F9148
S1132F603F912F910F900FBE0F901F9018952FB780
S1132F70F8946091DB067091DC068091DD069091F7
S1132F80DE062FBF08953FB7F8948091DF06909135
S1132F90E006A091E106B091E20626B5A89B05C023
S1132FA02F3F19F00196A11DB11D3FBFBA2FA92FC4
S1132FB0982F8827820F911DA11DB11DBC01CD0141
S1132FC042E0660F771F881F991F4A95D1F708952D
S1132FD08F929F92AF92BF92CF92DF92EF92FF9225
S1132FE06B017C01D0DF4B015C01C114D104E1040D
S1132FF0F104F1F0CED4C7DFDC01CB0188199909C3
S1133000AA09BB09883E9340A105B10570F321E0EC
S1133010C21AD108E108F10888EE880E83E0981EF0
S1133020A11CB11CC114D104E104F10421F7DDCFCA
S1133030FF90EF90DF90CF90BF90AF909F908F90D4
S113304008958230910538F0880F991F880F991FD1
S113305005970197F1F70895789484B5826084BD4B
S113306084B5816084BD85B5826085BD85B5816088
S113307085BDEEE6F0E0808181608083E1E8F0E0E8
S11330801082808182608083808181608083E0E817
S1133090F0E0808181608083E1EBF0E080818460F6
S11330A08083E0EBF0E0808181608083E1E9F0E0FF
S11330B0808182608083808181608083E0E9F0E0A8
S11330C0808181608083E1EAF0E080818260808396
S11330D0808181608083E0EAF0E080818160808388
S11330E0E1E2F1E08081826080838081816080837D
S11330F0E0E2F1E0808181608083EAE7F0E08081B2
S11331008460808380818260808380818160808309
S11331108081806880831092C100089590E0FC0152
S11331203197E231F10508F04DC08827EE53FF4F87
S11331308F4F47C6809180008F7703C080918000B5
S11331408F7D80938000089580918000877FF9CFE0
S113315084B58F7702C084B58F7D84BD0895809136
S1133160B0008F7703C08091B0008F7D8093B00052
S11331700895809190008F7707C0809190008F7D93
S113318003C080919000877F809390000895809180
S1133190A0008F7707C08091A0008F7D03C080912D
S11331A0A000877F8093A0000895809120018F77ED
S11331B007C0809120018F7D03C080912001877F0B
S11331C0809320010895CF93DF9390E0FC01E251B6
S11331D0FE4F2491FC01EC5CFD4F8491882361F146
S11331E090E0880F991FFC01EC56FD4FC591D491D6
S11331F0FC01E658FD4FA591B491611109C09FB738
S1133200F8948881209582238883EC912E230BC027
S1133210623061F49FB7F8948881322F309583230C
S11332208883EC912E2B2C939FBF06C08FB7F89404
S1133230E8812E2B28838FBFDF91CF9108951F93B0
S1133240CF93DF93282F30E0F901E855FE4F8491A6
S1133250F901E251FE4FD491F901EC5CFD4FC491A8
S1133260CC23B9F0162F811159DFEC2FF0E0EE0FCB
S1133270FF1FE658FD4FA591B4919FB7F894111123
S113328004C08C91D095D82302C0EC91DE2BDC9342
S11332909FBFDF91CF911F910895FC01808191819F
S11332A044C6CF93DF93EC0188819981009709F09C
S11332B03CD6198218821D821C821B821A82DF91DD
S11332C0CF9108950F931F93CF93DF93EC018B015C
S11332D06F5F7F4F88819981B1D6009731F09983D0
S11332E088831B830A8381E001C080E0DF91CF9152
S11332F01F910F910895CF93DF93EC0188819981F9
S1133300892B29F08A819B818617970758F4CE016F
S1133310D9DF882341F08C819D81892B19F4E881C0
S1133320F981108281E0DF91CF910895EF92FF92AD
S11333300F931F93CF93DF93EC017B018A01BA01B2
S1133340DADF811103C0CE01ACDF06C01D830C831C
S1133350B701888199815BD7CE01DF91CF911F910D
S11333600F91FF90EF900895FC0111821082138257
S11333701282158214826115710549F0FB010190D6
S11333800020E9F73197AF01461B570BCFCF0895C3
S1133390CF93DF93EC01FB018617970751F060810F
S11333A071816115710521F044815581BFDF01C030
S11333B078DFCE01DF91CF910895FC011182108254
S11333C01382128215821482E3CFCF93DF93EC0130
S11333D06115710551F0FB0101900020E9F7319767
S11333E0AF01461B570BA2DF01C05BDFCE01DF91AB
S11333F0CF9108950F931F93CF93DF93CDB7DEB78B
S1133400A1970FB6F894DEBF0FBECDBF8C01CB01E0
S1133410BA01F80111821082138212821582148279
S113342030E0AE014F5F5F4F03D7BE016F5F7F4F48
S1133430C801CBDFA1960FB6F894DEBF0FBECDBF97
S1133440DF91CF911F910F910895EF92FF920F9307
S11334501F93CF93DF936115710511F480E01AC0B7
S113346041155105B1F07B01EC018C819D818A01EC
S1133470080F191FB801CE013EDF882379F3288194
S113348039818C819D81B701820F931FC0D61D8322
S11334900C8381E0DF91CF911F910F91FF90EF900A
S11334A00895EF92FF920F931F93CF93DF93CDB7BD
S11334B0DEB728970FB6F894DEBF0FBECDBF7C01F0
S11334C0CB014AE08E010F5F1F4FB801A7D6F80168
S11334D001900020E9F73197AF01401B510BB8016F
S11334E0C701B3DF28960FB6F894DEBF0FBECDBF79
S11334F0DF91CF911F910F91FF90EF900895CF939B
S1133500DF93EC01FB0144815581608171819DDF72
S1133510811102C0CE01C5DECE01DF91CF910895A5
S1133520CF93DF93EC016115710559F0FB01019014
S11335300020E9F73197AF01461B570B86DF811155
S113354002C0CE01AEDECE01DF91CF910895CF93BC
S1133550DF93EC01A6DF811102C0CE01A2DECE0111
S1133560DF91CF910895FC01138212828FEB94E0D6
S113357091838083648341872287138608951F93F0
S1133580CF93DF93EC01162F6C8183EE96E0E0D1AC
S11335906B85612B83EE96E08ED183EE96E0DF910E
S11335A0CF911F91F1C128E0FC01238760E0E7CFB0
S11335B00F931F93CF938C01C62F6460E0DF81E0EB
S11335C090E03FDD6C2F6B7FC801D9DF82E390E090
S11335D0CF911F910F9135CD1F93CF93DF93EC01C2
S11335E0162FCDDF612FCE01DF91CF911F91E0CF58
S11335F00F931F93CF93DF938C01C62FD42F607F3B
S1133600642BEADF80E1C89FB00111246D2BC8014F
S1133610DF91CF911F910F91DFCF40E0E9CF61E0BF
S1133620FCDF80ED97E00DCD62E0F7DF80ED97E001
S113363008CDCF93DF93CDB7DEB728970FB6F894B4
S1133640DEBF0FBECDBF9C0188E0EAE1F2E0DE01FF
S1133650119601900D928A95E1F7F90180858417FE
S113366010F44FEF480FFE013196E40FF11DE40F03
S1133670F11D9081690F6068C90128960FB6F8940E
S1133680DEBF0FBECDBFDF91CF91C7CFFC016681F6
S1133690262F246026836C60C0CFEF92FF920F9395
S11336A01F93CF93DF938C017A01677088E0689F42
S11336B0B00111246064C801B0DFE701A8E0EA0E9C
S11336C0F11C6991D801ED91FC910190F081E02DFC
S11336D0C8011995CE15DF05A1F7DF91CF911F9190
S11336E00F91FF90EF90089541E082DF81E090E038
S11336F00895CF93DF93EC01423018F08D818860F8
S11337008D834887222329F0413019F48D81846008
S11337108D8362E370E080E090E05ADC6B85CE013B
S11337202EDF68EE73E080E090E052DC60E3CE01CF
S113373053DF84E991E185DC60E3CE014DDF84E968
S113374091E17FDC60E3CE0147DF86E990E079DC3C
S113375060E2CE0141DF6D816062CE015EDF84E014
S11337608E83CE0193DFCE015ADF82E08F8366E041
S1133770CE0153DFCE01DF91CF9156CFCF93DF93AC
S1133780EC0183EE96E0D5D01D8220E04A85698560
S1133790CE01DF91CF91ADCFF1CF8091170790E0AB
S11337A020911807821B9109089590911807809120
S11337B01707981750F4E92FF0E0E75EF84F2081DF
S11337C030E09F5F9093180702C02FEF3FEFC901CD
S11337D00895E091180780911707E81730F4F0E096
S11337E0E75EF84F808190E008958FEF9FEF089592
S11337F00895CF93DF93EC01E091EF06F091F0068A
S11338003097F1F090911807809117079817C0F03E
S113381090E0292F30E02617370754F4DE01A20F79
S1133820B31F4C91D901A75EB84F4C939F5FF1CF62
S11338301092180760931707CB01DF91CF91199469
S1133840DF91CF910895E091F106F091F20630975F
S113385029F01092F5061092F40619940895CF9267
S1133860DF92EF92FF920F931F93CF93DF937C012C
S1133870CB018A012091F306222389F0EB016B012D
S1133880C40ED51ECC15DD0561F06991D701ED910B
S1133890FC910190F081E02DC7011995F3CF642FBD
S11338A0EBD0C801DF91CF911F910F91FF90EF9062
S11338B0DF90CF900895CF93DF931F92CDB7DEB7FB
S11338C069832091F3062223D1F02091F40620325B
S11338D040F021E030E0FC013383228380E090E07B
S11338E014C08091F506E82FF0E0EA50F94F998171
S11338F090838F5F8093F5068093F40604C061E0A3
S1133900CE010196B9D081E090E00F90DF91CF9184
S11339100895FC011382128288EE93E0A0E0B0E0E7
S113392084839583A683B7838BEC94E0918380830F
S1133930089510921807109217071092F506109226
S1133940F40628D083E29CE1C4D089EF9BE1BCC09B
S113395081E08093F306609316071092F5061092A7
S1133960F40608950F93062F21E04091F40666EFC4
S113397076E0809116072AD01092F5061092F4068C
S11339801092F3060F91089561E0ECCF83EE96E078
S1133990C0CF08951092A60781E08093A4071092E7
S11339A0A30761E084E14BDC61E085E148DCE9EBFD
S11339B0F0E080818E7F808380818D7F808388E4A6
S11339C08093B80085E48093BC0008950F9341323E
S11339D008F04AC09091A6079111FCCF32E03093D1
S11339E0A6070093A4073FEF3093390710927E0790
S11339F040937D07562FAFE7B7E0FB013E2F351B01
S1133A00341718F431913D93F9CF1092A5073091F2
S1133A10A507880F832B8093A5078091A307813086
S1133A2061F41092A3078091A5078093BB00809155
S1133A30BC0083FDF8CF85EC01C085EE8093BC000B
S1133A40222321F08091A6078230D1F38091390797
S1133A508F3F79F080913907803241F080913907A6
S1133A60803331F094E005C091E003C092E001C0DE
S1133A7093E0892F0F91089540915B07262F30E042
S1133A80240F311D21323105DCF42091A6072430A6
S1133A90C9F4FC0180E090E0861758F430915B078C
S1133AA02191DC01A35AB84FA30FB11D2C930196A9
S1133AB0F3CF80915B07680F60935B0780E0089504
S1133AC081E0089582E008959093A00780939F0772
S1133AD008959093A2078093A107089585ED80939C
S1133AE0BC008091BC0084FDFCCF1092A607089511
S1133AF085EC8093BC001092A60708951F920F9244
S1133B000FB60F9211240BB60F922F933F934F933E
S1133B105F936F937F938F939F93AF93BF93EF9331
S1133B20FF938091B900887F803609F49DC070F5B9
S1133B30883209F45CC090F4803109F455C038F43B
S1133B40882309F4F3C0883009F44EC0F2C08831E8
S1133B5009F44DC0803209F45EC0EBC0803409F42E
S1133B6069C050F4803309F456C0883309F0E1C0C9
S1133B7080933907BDDFDDC0803509F44FC0883537
S1133B8009F45DC0883409F0D4C0D2C0883909F47E
S1133B90C3C0A8F4883709F467C038F4883609F438
S1133BA063C0803709F460C0C4C0883809F4B4C065
S1133BB0803909F45FC0803809F0BBC05BC0803B2A
S1133BC009F482C038F4803A09F466C0883A09F4EA
S1133BD07BC0AFC0803C09F4A3C0883C09F4A0C0FA
S1133BE0883B09F486C0A5C08091A50710C09091B8
S1133BF07E0780917D07981770F5E0917E0781E03C
S1133C008E0F80937E07F0E0E158F84F8081809317
S1133C10BB0085EC82C0809339078AC0E0917E079F
S1133C2081E08E0F80937E078091BB00F0E0E15825
S1133C30F84F808390917E0780917D076AC0E09160
S1133C407E0781E08E0F80937E078091BB00F0E0B9
S1133C50E158F84F80838091A407811169C081E005
S1133C608093A30784EA5DC083E08093A607109243
S1133C703A07CFCF80913A07803208F04DC0E091E7
S1133C803A0781E08E0F80933A078091BB00F0E001
S1133C90E55CF84F8083BDCF2BDF80913A078032FB
S1133CA030F4E0913A07F0E0E55CF84F108260915F
S1133CB03A0770E0E0919F07F091A0078BE397E04B
S1133CC0199510923A0735C084E08093A6071092A4
S1133CD05C0710925B07E091A107F091A207199588
S1133CE080915B07811105C081E080935B0710928E
S1133CF05D07E0915C0781E08E0F80935C07F0E044
S1133D00E35AF84F80818093BB0090915C078091C7
S1133D105B07981708F47DCF85E88093BC0009C041
S1133D2085EC8093BC001092A60703C0109239075B
S1133D30D5DEFF91EF91BF91AF919F918F917F91CC
S1133D406F915F914F913F912F910F900BBE0F9008
S1133D500FBE0F901F90189597FB072E16F4009432
S1133D6006D077FD08D035D007FC05D03EF49095F9
S1133D7081959F4F0895709561957F4F0895A1E2B5
S1133D801A2EAA1BBB1BFD010DC0AA1FBB1FEE1FD1
S1133D90FF1FA217B307E407F50720F0A21BB30B1C
S1133DA0E40BF50B661F771F881F991F1A9469F798
S1133DB060957095809590959B01AC01BD01CF01F4
S1133DC00895EE0FFF1F881F8BBF0790F691E02D1B
S1133DD01994AA1BBB1B51E107C0AA1FBB1FA6173E
S1133DE0B70710F0A61BB70B881F991F5A95A9F7A0
S1133DF080959095BC01CD0108950F931F93CF93A7
S1133E00DF938230910510F482E090E0E091A907FD
S1133E10F091AA0720E030E0A0E0B0E0309719F17B
S1133E20408151810281138148175907C8F08417D2
S1133E30950769F4109731F012960C931297139624
S1133E401C9327C00093A9071093AA0722C0211529
S1133E50310519F04217530718F49A01BD01EF0117
S1133E60DF01F801DBCF21153105F9F0281B390BEF
S1133E702430310580F48A819B816115710521F01C
S1133E80FB019383828304C09093AA078093A907BC
S1133E90FE01329644C0FE01E20FF31F8193919319
S1133EA022503109398328833AC02091A7073091E1
S1133EB0A807232B41F4209102023091030230938E
S1133EC0A8072093A7072091000230910102211531
S1133ED0310541F42DB73EB74091040250910502DB
S1133EE0241B350BE091A707F091A807E217F3070D
S1133EF0A0F42E1B3F0B2817390778F0AC014E5F56
S1133F005F4F2417350748F04E0F5F1F5093A807E3
S1133F104093A7078193919302C0E0E0F0E0CF01C2
S1133F20DF91CF911F910F910895CF93DF93009765
S1133F3009F481C0FC01329713821282A091A9076F
S1133F40B091AA07109781F420813181820F931FC9
S1133F502091A7073091A8072817390751F5F09346
S1133F60A807E093A70767C0ED0120E030E0CE1773
S1133F70DF0740F44A815B819E0141155105F1F050
S1133F80EA01F5CFD383C28340815181840F951F09
S1133F90C817D90759F488819981840F951F02960F
S1133FA0918380838A819B81938382832115310548
S1133FB029F4F093AA07E093A9073DC0E901FB8324
S1133FC0EA8349915991C40FD51FEC17FD0761F499
S1133FD080819181840F951F0296E90199838883DA
S1133FE0828193819B838A83E0E0F0E012968D9135
S1133FF09C911397009719F0FD01DC01F7CF8D9187
S11340009C9111979D012E5F3F4F820F931F20912A
S1134010A7073091A8072817390769F4309729F4BE
S11340201092AA071092A90702C013821282B093B9
S1134030A807A093A707DF91CF9108956F927F926D
S11340408F929F92AF92BF92CF92DF92EF92FF92A4
S11340500F931F93CF93DF93009781F4CB01DF91EC
S1134060CF911F910F91FF90EF90DF90CF90BF9071
S1134070AF909F908F907F906F90BFCEFC01E60F22
S1134080F71F9C0122503109E217F30708F4A5C079
S1134090EC01D9010D911C91119706171707A8F08F
S11340A00530110508F497C0C801049786179707CF
S11340B008F491C002501109061B170B01931193C8
S11340C06D937C93CF0131DF86C05B01A01AB10AE6
S11340D04C01800E911EA091A907B091AA07612CF2
S11340E0712CE12CF12C109709F446C08D919C9110
S11340F01197A815B905B1F56C0142E0C40ED11CA5
S1134100CA14DB0478F14C018A189B08640142E06C
S1134110C40ED11C1296BC9012971396AC91B5E0C4
S1134120CB16D10440F0B282A38391828082D9015C
S11341306D937C9309C00E5F1F4F800F911FF9018F
S113414091838083EB2DFA2FE114F10431F0D70130
S11341501396FC93EE9312973EC0F093AA07E09354
S1134160A90739C06816790608F43C017D01129646
S11341700D90BC91A02DB7CF8091A7079091A8076F
S113418088169906E1F466167706C8F48091000251
S113419090910102009741F48DB79EB740910402BB
S11341A050910502841B950BE817F907B0F4F093BE
S11341B0A807E093A707F901718360830CC0CB01C2
S11341C01CDE7C01009749F0A801BE0117D0CE0186
S11341D0ACDEC70104C0CE0102C080E090E0DF91F4
S11341E0CF911F910F91FF90EF90DF90CF90BF90F0
S11341F0AF909F908F907F906F900895FB01DC01AA
S113420002C001900D9241505040D8F70895FB012F
S1134210DC0101900D920020E1F70895BB274A309C
S113422031F4992322F4BDE2909581959F4F2CC0DF
S11342302532310518F4223008F004C0FA01108246
S1134240CA010895BB27FA01A62F621771058105DB
S11342509105330B30FB66F0AA27660F771F881F82
S1134260991FAA1FA21710F0A21B63953850A9F733
S1134270A05DAA3308F0A95DA19336F7B111B193FB
S11342801082CA015AC2BB27FB015527AA27880FEF
S1134290991FAA1FA41710F0A41B83955051B9F7B6
S11342A0A05DAA3308F0A95DA193009779F7B11135
S11342B0B1931192CB0141C20F931F93CF93DF931C
S11342C0CDB7DEB72E970FB6F894DEBF0FBECDBFC5
S11342D00E891F8986E08C831A8309838FEF9FE7F9
S11342E09E838D83AE01465E5F4F688D798DCE01CE
S11342F0019610D0EF81F885E00FF11F10822E9601
S11343000FB6F894DEBF0FBECDBFDF91CF911F91E2
S11343100F9108952F923F924F925F926F927F92E6
S11343208F929F92AF92BF92CF92DF92EF92FF92C1
S11343300F931F93CF93DF93CDB7DEB72B970FB6B1
S1134340F894DEBF0FBECDBF6C017B018A01FC0176
S113435017821682838181FFBFC1CE0101963C0181
S1134360F6019381F70193FD859193FF81917F017C
S1134370882309F4ADC1853239F493FD859193FF07
S113438081917F01853221F4B60190E0E6D1E8CF36
S1134390912C212C312CFFE1F315D8F08B3279F0DC
S11343A038F4803279F08332A1F4232D20611DC0CA
S11343B08D3261F0803369F4232D216016C0832D82
S11343C08260382EE32DE4603E2E2AC0F32DF8607F
S11343D01DC037FC2DC020ED280F2A3040F08E324E
S11343E0B9F436FC75C1232D2064322E19C036FE73
S11343F006C08AE0989E200D1124922E11C0EAE096
S11344002E9E200D1124222EF32DF0623F2E08C083
S11344108C3621F4832D8068382E02C0883641F40E
S1134420F70193FD859193FF81917F018111B3CFB2
S1134430982F9F7D9554933028F40C5F1F4F9FE372
S113444099830DC0833631F0833771F0833509F0D9
S113445055C020C0F801808189830E5F1F4F8824D6
S11344608394912C530112C02801F2E04F0E511C89
S1134470F801A080B18036FE03C0692D70E002C04F
S11344806FEF7FEFC5014ED14C018201F32DFF7711
S11344903F2E15C0280122E0420E511CF801A080D5
S11344A0B18036FE03C0692D70E002C06FEF7FEF6C
S11344B0C5012DD14C01F32DF0683F2E820133FC50
S11344C019C0822D90E088169906A0F4B60180E206
S11344D090E043D12A94F5CFF50137FC859137FE5E
S11344E081915F01B60190E038D121102A9421E036
S11344F0821A91088114910479F7E1C0843611F08D
S1134500893639F5F80137FE07C0608171818281EF
S113451093810C5F1F4F08C060817181072E000CCE
S1134520880B990B0E5F1F4FF32DFF763F2E97FFDD
S113453009C090958095709561957F4F8F4F9F4FDF
S1134540F0683F2E2AE030E0A30143D1882E86187C
S113455044C0853731F4232D2F7EB22E2AE030E07B
S113456025C0932D997FB92E8F36C1F018F4883564
S113457079F0AEC0803719F0883721F0A9C0E92F4F
S1134580E061BE2EB4FE0DC0FB2DF460BF2E09C049
S113459034FE0AC0292F2660B22E06C028E030E07F
S11345A005C020E130E002C020E132E0F801B7FEAE
S11345B007C060817181828193810C5F1F4F06C0A7
S11345C06081718180E090E00E5F1F4FA30101D1F3
S11345D0882E8618FB2DFF773F2E36FE0DC0232D27
S11345E02E7FA22E891458F434FE0BC032FC09C06D
S11345F0832D8E7EA82E05C0B82CA32C03C0B82C06
S113460001C0B92CA4FE0FC0FE01E80DF11D80818C
S1134610803321F49A2D997EA92E09C0A2FE06C0EA
S1134620B394B39404C08A2D867809F0B394A3FCA0
S113463010C0A0FE06C0B21480F4280C922C9B1863
S11346400DC0B21458F4B60180E290E086D0B39461
S1134650F8CFB21418F42B1802C0982C212CA4FE05
S11346600FC0B60180E390E078D0A2FE16C0A1FC92
S113467003C088E790E002C088E590E0B6010CC072
S11346808A2D867851F0A1FE02C08BE201C080E23F
S1134690A7FC8DE2B60190E060D0891430F4B60135
S11346A080E390E05AD09A94F8CF8A94F301E80D0D
S11346B0F11D8081B60190E050D08110F6CF222008
S11346C009F44ECEB60180E290E047D02A94F7CFA9
S11346D0F6018681978102C08FEF9FEF2B960FB66C
S11346E0F894DEBF0FBECDBFDF91CF911F910F9124
S11346F0FF90EF90DF90CF90BF90AF909F908F90FE
S11347007F906F905F904F903F902F900895FC01A1
S11347100590615070400110D8F7809590958E0FE8
S11347209F1F0895FC016150704001900110D8F75B
S1134730809590958E0F9F1F0895DC01FC01672FD3
S113474071917723E1F7329704C07C916D93708364
S11347506291AE17BF07C8F308950F931F93CF93C9
S1134760DF93FB01238121FD03C08FEF9FEF2CC05A
S113477022FF16C046815781248135814217530791
S113478044F4A081B1819D012F5F3F4F3183208389
S11347908C93268137812F5F3F4F3783268314C044
S11347A08B01EC01FB010084F185E02D1995892B27
S11347B0E1F6D80116968D919C911797019617965C
S11347C09C938E931697CE01DF91CF911F910F91F9
S11347D00895FA01AA27283051F1203181F1E89493
S11347E06F936E7F6E5F7F4F8F4F9F4FAF4FB1E0E0
S11347F03ED0B4E03CD0670F781F891F9A1FA11DDB
S1134800680F791F8A1F911DA11D6A0F711D811DDB
S1134810911DA11D20D009F468943F912AE0269FA0
S113482011243019305D3193DEF6CF010895462FFF
S11348304770405D4193B3E00FD0C9F7F6CF462FE0
S11348404F70405D4A3318F0495D31FD4052419349
S113485002D0A9F7EACFB4E0A69597958795779506
S11348606795BA95C9F700976105710508959B018D
S1134870AC010A2E06945795479537952795BA9516
S1134880C9F7620F731F841F951FA01D0895F89424
S1054890FFCF54
S11348920000AB0720000D01DC0504040404150E1E
S11348A20400040E15040404040000004000140073
S11348B2540049443A002C204D73674C6567746870
S11348C23A002C204572726F723A002C20446174B3
S11348D2613A002C204D7367436865636B53756DB1
S11348E23A002C2043616C436865636B53756D3ADF
S11348F2002525256464002C006F487400526E67FD
S113490200536F6D006F4C6400496E7300696B74E1
S113491268322829002C2000456C6170736564207C
S11349224D494E00456C6170736564204D415800D9
S1134932456C61707365642041564700494B20748D
S113494268657461203200494B2074686574612083
S113495231002323205072696E74204275666665A5
S1134962722053746172743A200020232323232378
S11349722323232323232323232323232323230024
S1134982417661696C61626C653A20002C20526543
S1134992616420446174613A2000232320507269C7
S11349A26E742042756666657220456E6420232308
S11349B223232323232323232323232323232323C1
S11349C2232323002C20506F73693A002C20537048
S11349D265643A002C204C6F61643A002E20476FC4
S11349E220746F20453D283230302C2D3338302945
S11349F220537461727473002E20476F20746F20E9
S1134A02453D283230302C2D3338302920456E6410
S1134A1273002E204D6F766520533520746F20313C
S1134A22353020537461727473002E204D6F766595
S1134A3220533520746F2031353020456E64730065
S1134A422E20476F20746F205859203120456E6400
S1134A5273002E20476F20746F205859203220454E
S1134A626E6473002E20476F20746F2058592033D0
S1134A7220456E6473002B002D004D0041002E2052
S1134A8253746F7070696E6720536572766F20314C
S1134A9220616E6420320053657420416E676C6538
S1134AA2204C696D697473004F4B00536574205335
S1134AB270656564730053657420546F7271756513
S1134AC2730055706461746520416E676C65732070
S1134AD200706F736974696F6E203400706F73694C
S1134AE274696F6E203500494423006D413A0061B8
S1134AF26E3A0073703A006C643A005570646174E3
S1134B026520416E676C65732053332D3520004D4B
S1134B12617820546F727175653A2000476F616C39
S1134B2220546F727175653A200000000000F81479
S1134B3205178C1444155E1478146A140D0A006E59
S1134B42616E00696E66006F766600000000007494
S1134B521B0517CA15CD15000000005B1C2F1CCACB
S10D4B6215F81BCD1BD51BE91B0041
S9030000FC
