S01600004D456E6750726F6A65637441726D2E73726563B0
S1130000D7C1000006C2000004C2000002C2000002
S113001000C20000FEC10000FCC10000FAC10000E3
S1130020F8C100000C94C20AF4C10000F2C100003F
S1130030F0C10000EEC10000ECC10000EAC1000004
S1130040E8C10000E6C10000E4C10000E2C1000014
S1130050E0C10000DEC10000DCC100000C94A51C5E
S1130060D8C100000C94061B0C943C1BD2C10000A8
S1130070D0C100000C946C0ACCC10000CAC10000BD
S1130080C8C10000C6C10000C4C10000C2C1000054
S11300900C949B1B0C94D11BBCC100000C949C239E
S11300A0B8C10000B6C10000B4C10000B2C1000074
S11300B0B0C10000AEC10000ACC10000AAC1000084
S11300C0A8C10000A6C10000A4C10000A2C1000094
S11300D0A0C100009EC100009CC100009AC10000A4
S11300E098C1000005A84CCDB2D44EB93836A90247
S11300F00C50B9918688083CA6AAAA2ABE00000022
S1130100803F07634236B79BD8A71A39685618AEA2
S1130110BAAB558C1D3CB7CC5763BD6DEDFD753E38
S1130120F6177231BF000000803F08000000BE9245
S11301302449123EABAAAA2ABECDCCCC4C3E000028
S11301400080BEABAAAAAA3E00000000BF000000C7
S1130150803F0000000000084178D3BB4387D113DF
S11301603D190E3CC3BD4282AD2B3E68EC8276BE87
S1130170D98FE1A93E4C80EFFFBE01C4FF7F3F0051
S113018000000000E01DE31DD21DD61DDC1D1A1E5B
S1130190E71DEB1DF11DF51DF91DFF1D031E071EB7
S11301A01A1E0D1E111E151E00407A10F35A00A0CF
S11301B0724E18090010A5D4E80000E8764817002C
S11301C000E40B54020000CA9A3B000000E1F5056C
S11301D0000080969800000040420F000000A086B6
S11301E001000000102700000000E80300000000E8
S11301F06400000000000A0000000000010000008C
S113020000002C76D888DC674F0823DFC1DFAE59A5
S1130210E1B1B796E5E3E453C63AE651997696E838
S1130220E6C28426EB898C9B62ED407C6FFCEFBCBC
S11302309C9F40F2BAA56FA5F490055A2AF75C93E7
S11302406B6CF9676DC11BFCE0E40D47FEF520E61D
S1130250B500D0ED902E0300943577050080841E00
S1130260080000204E0A000000C80C333333330F5B
S1130270986E12831141EF8D2114893BE65516CFF8
S1130280FEE6DB18D1844B381BF77C1D901DA4BB04
S1130290E424203284725E228100C9F124ECA1E5B9
S11302A03D2700000A0B02090C0D0E080703040188
S11302B0000000000000000000000000000000003A
S11302C00000000000000000000000000000121107
S11302D0100000000000000000000000000000000A
S11302E00000000000000000010210202008081097
S11302F02040102040800201020108040201010292
S1130300040810204080804020100804020180046A
S113031002018040201008040201080402010102C5
S113032004081020408001020408102040800505C4
S11303300505070508080808020202020A0A080857
S11303400404040401010101010101010303030385
S113035003030303040707070C0C0C0C0C0C0C0C14
S11303600202020206060606060606060B0B0B0B25
S11303700B0B0B0B00002200250028002B002E0085
S11303803100340002010000050108010B010000E6
S11303902100240027002A002D0030003300010131
S11303A00000040107010A01BA0B6E1B031CE422BE
S11303B011241FBECFEFD1E2DEBFCDBF00E00CBFE2
S11303C015E0A0E0B2E0EAE5F9E500E00BBF02C009
S11303D007900D92AC3CB107D9F728E0ACECB5E03E
S11303E001C01D92A13AB207E1F711E0C8EDD1E0D6
S11303F000E006C021970109802FFE010E94EC2431
S1130400C43DD10780E00807A9F70E94311C0C9471
S1130410AB2CF6CDDC01ED91FC910190F081E02D47
S11304201994CF92DF92EF92FF92CF93DF93EC0176
S113043025E1629FC00DD11D11245B8B4A8BBA014B
S1130440550F880B990B0E94C7166B017C0124ED94
S11304503FE049EC5AE30E94E0176C8B7D8B8E8B56
S11304609F8B20E030E044EB5DE3C701B6010E94BE
S1130470E0170E949416798F688FDF91CF91FF90D7
S1130480EF90DF90CF9008951F93CF93DF93EC010B
S1130490162F842F622FB0D6AC01612FCE01DF91CD
S11304A0CF911F91BECF70E0DA01411524E05207CD
S11304B00CF0B450E5E1E69F9001E79F300D112464
S11304C0FC01E20FF31FB48FA38F81E04115544068
S11304D00CF480E0878F089570E0DA01411524E080
S11304E052070CF0B450E5E1E69F9001E79F300D10
S11304F01124FC01E20FF31FB1A3A0A381E0411575
S113050054400CF480E082A308951F93CF93DF93AB
S1130510EC01162F842F622F6FD6AC01612FCE0110
S1130520DF91CF911F91D8CF4F925F926F927F92BC
S11305308F929F92AF92BF92CF92DF92EF92FF92EF
S11305400F931F93CF93DF93EC01CB01BA014801C2
S113055059012BED3FE049EC5FE30E94C0156B01AC
S11305607C01A50194010E94C1152BED3FE049E4F3
S113057050E40E94C0150E9429162B013C01C701BA
S1130580B6010E9429164B015C0120E030E04BE9E2
S113059053E4C301B2010E94E0176B017C0120E027
S11305A030E047E553E4C501B4010E94E0179B0124
S11305B0AC01C701B6010E94C1150E949416C2572E
S11305C0DF4F79836883CB01DF91CF911F910F9126
S11305D0FF90EF90DF90CF90BF90AF909F908F905F
S11305E07F906F905F904F9008958F929F92AF92FB
S11305F0BF92EF92FF920F931F93CF93DF936330D9
S113060030F4CA0157FF40C080E090E03DC0633041
S113061009F446C0EA017C016430E9F5FC01E558BF
S1130620FF4F60817181072E000C880B990B0E948B
S1130630C71624ED3FE049EC5AE30E94E0174B0152
S11306405C01BE010D2E000C880B990B0E94C7168D
S113065024ED3FE049EC5AE30E94E017AB01BC01F2
S113066095018401C70160DF8436910534F4F701F4
S1130670EA59FF4F8081918101C0CE01873023E088
S1130680920714F487E093E0853A26E092074CF051
S113069084EA96E006C0653081F38FEF9FEF01C0D6
S11306A0CA01DF91CF911F910F91FF90EF90BF90FE
S11306B0AF909F908F9008950F931F93FC01E35880
S11306C0FF4F0081118122813381759740815181CF
S11306D06281738129DF1F910F9108954F925F9278
S11306E06F927F928F929F92AF92BF92CF92DF923E
S11306F0EF92FF920F931F93CF93DF93EC01CB0103
S1130700BA01480159012BED3FE049EC5FE30E9437
S1130710C0156B017C01A50194010E94C1152BED4C
S11307203FE049E450E40E94C0150E948F182B0159
S11307303C01C701B6010E948F184B015C0120E007
S113074030E04BE953E4C301B2010E94E0176B01AE
S11307507C0120E030E047E553E4C501B4010E9488
S1130760E0179B01AC01C701B6010E94C1150E94AC
S11307709416C057DF4F79836883CB01DF91CF9103
S11307801F910F91FF90EF90DF90CF90BF90AF90AB
S11307909F908F907F906F905F904F9008950F93EC
S11307A01F93FC01E358FF4F0081118122813381A3
S11307B07597408151816281738190DF1F910F9100
S11307C00895EF92FF920F931F93CF93DF93162F09
S11307D0D42F7901C6E0C40FC00F602FC90114D50E
S11307E0C10F8C0FC82FC09583E397E00E94961920
S11307F0892B29F083E397E00E94B019F5CF61E0DB
S113080082E00E94571E61E083E00E94571E65E06B
S113081070E080E090E00E94201D6FEF70E083E3C1
S113082097E0F8DD6FEF70E083E397E0F3DD612F8D
S113083083E397E00E94301A10E0B8016D5F7F4FA8
S113084083E397E0E7DD63E070E083E397E0E2DDD4
S11308506D2F83E397E00E94301AA801B70183E368
S113086097E00E943D1C6C2F83E397E00E94301AAE
S113087083E397E00E947C1A60E082E00E94571EA6
S113088060E083E00E94571E65E070E080E090E045
S1130890DF91CF911F910F91FF90EF900C94201D49
S11308A00F93CF93DF931F92CDB7DEB7298301E077
S11308B09E012F5F3F4F85DF0F90DF91CF910F9106
S11308C00895242F46E1ECCF0F93CF93DF931F922B
S11308D01F92CDB7DEB749835A8302E09E012F5F92
S11308E03F4F4EE06EDF0F900F90DF91CF910F914D
S11308F008950F93CF93DF931F921F92CDB7DEB766
S113090049835A8302E09E012F5F3F4F42E259DF41
S11309100F900F90DF91CF910F910895DF92EF9296
S1130920FF920F931F93CF93DF9300D01F92CDB705
S1130930DEB77C01162FD42E81E0481305C019823E
S11309401A821B821C8209C082E0481311C09FEFE7
S113095099838FE08A839B838C8304E09E012F5FBD
S11309603F4F46E0612FC7012CDF1630A8F01BC0B3
S113097087E0898383E08A8384EA8B8386E08C839F
S113098004E09E012F5F3F4F46E0C7011ADF163097
S113099050F482E08D1538F0F70185E1189FE00DE1
S11309A0F11D1124D18A0F900F900F900F90DF91B9
S11309B0CF911F910F91FF90EF90DF90089541E048
S11309C0ADCF40E0ABCF42E0A9CFBF92CF92DF9250
S11309D0EF92FF920F931F93CF93DF93CDB7DEB7C0
S11309E02C970FB6F894DEBF0FBECDBF7C01162F37
S11309F06A01B22E032F62E272E0CE0107960E94D2
S1130A00ED1EBE01695F7F4FCE0101960E94161F45
S1130A10612FCE0101960E94952069E673E00E9441
S1130A207E20B6010E94A12069E673E00E947E2028
S1130A306B2D702F0E94AD206EE272E00E947E202A
S1130A40BC0186E996E00E94951CCE0101960E94A5
S1130A50851ECE0107960E94851EA601612FC7013F
S1130A60C4DD6C018983DA82BB820C8304E09E01BD
S1130A702F5F3F4F4EE1612FC701A3DEA601612F17
S1130A80C701CFDC2C960FB6F894DEBF0FBECDBFE6
S1130A90DF91CF911F910F91FF90EF90DF90CF9056
S1130AA0BF9008958F929F92AF92BF92DF92EF9280
S1130AB0FF920F931F93CF93DF937C01D62EEA010D
S1130AC0C901B80124E13EEA43E251E40E94E0177F
S1130AD00E9494164B015C01BE01DD0F880B990B3B
S1130AE00E94C71621E63BE046E351E40E94E0176A
S1130AF00E9494169401AB016D2DC701DF91CF9133
S1130B001F910F91FF90EF90DF90BF90AF909F9057
S1130B108F905BCF0F931F93CF93DF93062F142FE8
S1130B20D22FC6E0C20FC40FC60FC09583E397E06F
S1130B300E949619892B29F083E397E00E94B0194B
S1130B40F5CF61E082E00E94571E61E083E00E94DD
S1130B50571E65E070E080E090E00E94201D6FEF7A
S1130B6070E083E397E056DC6FEF70E083E397E097
S1130B7051DC602F83E397E00E94301A64E070E058
S1130B8083E397E047DC62E070E083E397E042DCD4
S1130B90612F83E397E00E94301A6D2F83E397E07F
S1130BA00E94301A6C2F83E397E00E94301A83E38B
S1130BB097E00E947C1A60E082E00E94571E60E089
S1130BC083E00E94571E65E070E080E090E0DF91D2
S1130BD0CF911F910F910C94201DBF92CF92DF9261
S1130BE0EF92FF920F931F93CF93DF9300D000D027
S1130BF0CDB7DEB76C01162FF42E61EA75E0CE0195
S1130C0001960E94ED1E21E04F2D612FC60182DF67
S1130C1065E070E080E090E00E94201D81E0F60134
S1130C20878783E397E00E94B019182F83E397E046
S1130C300E94B0191F3F11F48F3FE9F0F12C83E3B8
S1130C4097E00E949619892B29F083E397E00E948C
S1130C50B019F5CFF6011786FF2039F0002341F0D3
S1130C6010E011950195110928C001E01FEF25C07E
S1130C700E2D1B2D22C083E397E00E94B019F82E9D
S1130C8083E397E00E94B019182F83E397E00E9452
S1130C90B019082F83E397E00E94B019E82EB92E0B
S1130CA083E397E00E94B0191F0D100F1E0D1095DD
S1130CB0FF24F3941813C2CFC2CFCE0101960E9431
S1130CC0851EC80126960FB6F894DEBF0FBECDBFB1
S1130CD0DF91CF911F910F91FF90EF90DF90CF9014
S1130CE0BF9008959F92AF92BF92CF92DF92EF92FE
S1130CF0FF920F931F93CF93DF9300D000D0CDB713
S1130D00DEB76C01162FF42E61EA75E0CE01019670
S1130D100E94ED1E22E04F2D612FC601FBDE65E02F
S1130D2070E080E090E00E94201D81E0F60187875A
S1130D3083E397E00E94B019182F83E397E00E94A1
S1130D40B0191F3F11F48F3FE9F0F12C83E397E0D2
S1130D500E949619892B29F083E397E00E94B01929
S1130D60F5CFF6011786FF2039F0002341F010E09B
S1130D7011950195110932C001E01FEF2FC00B2D11
S1130D801A2D2CC083E397E00E94B019982E83E3B8
S1130D9097E00E94B019F82E83E397E00E94B019FF
S1130DA0082F83E397E00E94B019E82E83E397E0CD
S1130DB00E94B019182F682F8E2D1ED2B82EA92E7E
S1130DC083E397E00E94B019F90CF00EFE0C1F0D9E
S1130DD01095FF24F3941813B8CFB8CFCE01019621
S1130DE00E94851EC80126960FB6F894DEBF0FBE7A
S1130DF0CDBFDF91CF911F910F91FF90EF90DF90C6
S1130E00CF90BF90AF909F9008952F923F924F92B2
S1130E105F926F927F928F929F92AF92BF92CF9286
S1130E20DF92EF92FF920F931F93CF93DF93CDB78F
S1130E30DEB760970FB6F894DEBF0FBECDBF1C01BE
S1130E404A015B016801790161E372E0CE01079612
S1130E500E94ED1EBE01695F7F4FCE0101960E9484
S1130E60161FB501A401CE0101960E94B92069E6BE
S1130E7073E00E947E20B701A6010E94B9206EE2B1
S1130E8072E00E947E20BC0186E996E00E94951CD7
S1130E90CE0101960E94851ECE0107960E94851EF2
S1130EA044E264E0C1011EDFBC01990F880B990B79
S1130EB00E94C71624ED3FE049EC5AE30E94E01774
S1130EC02B013C0144E265E0C1010CDFBC01990F38
S1130ED0880B990B0E94C71624ED3FE049EC5AE3B6
S1130EE00E94E0176D877E878F87988B63E472E09A
S1130EF0CE0107960E94ED1EBE01695F7F4FCE01B1
S1130F0001960E94161FB301A201CE0101960E9410
S1130F10B92069E673E00E947E204D855E856F8569
S1130F2078890E94B920BC0186E996E00E94951C4C
S1130F30CE0101960E94851ECE0107960E94851E51
S1130F40A3019201C501B4010E94C0154B015C01CB
S1130F5020E030E0A9010E94D517181624F0B7FA52
S1130F60B094B7F8B0942D853E854F855889C70154
S1130F70B6010E94C0156B017C0120E030E0A9019C
S1130F800E94D517181624F0F7FAF094F7F8F094A5
S1130F9060E572E0CE0107960E94ED1EBE01695F16
S1130FA07F4FCE0101960E94161FB501A401CE0108
S1130FB001960E94B92069E673E00E947E20B70181
S1130FC0A6010E94B920BC0186E996E00E94951C06
S1130FD0CE0101960E94851ECE0107960E94851EB1
S1130FE0A7019601C501B4010E94D51718161CF07B
S1130FF02601370102C0240135019201A301C50174
S1131000B4010E942C164B015C01F101EE56FF4F16
S113101060837183828393839201A301C701B60124
S11310200E942C166B017C01F101EA56FF4F60838C
S11310307183828393836DE572E0CE0107960E94EB
S1131040ED1EBE01695F7F4FCE0101960E94161FFF
S1131050B501A401CE0101960E94B9206FE672E0A9
S11310600E947E20B701A6010E94B920BC0186E936
S113107096E00E94951CCE0101960E94851ECE0129
S113108007960E94851E60960FB6F894DEBF0FBEC9
S1131090CDBFDF91CF911F910F91FF90EF90DF9023
S11310A0CF90BF90AF909F908F907F906F905F9004
S11310B04F903F902F900895CF92DF92EF92FF923E
S11310C00F931F93CF93DF93EC016A017B010BED28
S11310D01FE029EC3FE3B901A80197DEFE01EA56BF
S11310E0FF4F2081318142815381C701B6010E94A3
S11310F0E0178B019C014AE550E065E0CE01D2DCAB
S1131100FE01EE56FF4F2081318142815381C70198
S1131110B6010E94E0178B019C014AE550E064E0AF
S1131120CE01C0DCDF91CF911F910F91FF90EF9022
S1131130DF90CF90089540E050E060E870E4BCCFC9
S11311408F929F92AF92BF92CF92DF92EF92FF92D3
S11311500F931F93CF93DF9300D01F921F92CDB7AD
S1131160DEB77C01962E872EADB6BEB68DB79EB780
S1131170841B91090FB6F8949EBF0FBE8DBF0DB7A7
S11311801EB70F5F1F4F1F924F9381E792E09F930B
S11311908F93CE0101966C019F938F930E947227C7
S11311A08F929F92DF92CF921F930F930E94722788
S11311B0B801C7010E94ED1E8DB79EB70C960FB6FD
S11311C0F8949EBF0FBE8DBFC7010FB6F894BEBE84
S11311D00FBEADBE0F900F900F900F900F90DF9148
S11311E0CF911F910F91FF90EF90DF90CF90BF9020
S11311F0AF909F908F90089570E0762F66279B01A3
S1131200280F311DC9010895382FFC0180E090E0BA
S11312102E2F231B261720F42191820F911DF8CF26
S11312200895CF92DF92EF92FF920F931F93CF9383
S1131230DF93CDB7DEB72C970FB6F894DEBF0FBEA1
S1131240CDBF7C01C42EFB01619171918F014AE0F5
S113125077DFDD24D394DC1430F5F80161917191CA
S11312608F0146E0CE0101966BDFB701CE010796F0
S11312700E94161F67E772E0CE0107960E947E2047
S1131280BE016F5F7F4F0E946D20BC01C7010E94A9
S1131290011FCE0107960E94851ECE0101960E9471
S11312A0851ED394D8CFC7012C960FB6F894DEBF11
S11312B00FBECDBFDF91CF911F910F91FF90EF90A3
S11312C0DF90CF900895CF93DF9300D000D0CDB7B7
S11312D0DEB7462FBC01CE010196A3DFBE016F5FCE
S11312E07F4F86E996E00E94951CCE0101960E94EC
S11312F0851E26960FB6F894DEBF0FBECDBFDF91D4
S1131300CF9108954F925F926F927F928F929F92A6
S1131310AF92BF92CF92DF92EF92FF920F931F93FF
S1131320CF93DF9300D01F921F92CDB7DEB7982ED4
S1131330862E8A01D22EADB6BEB68DB79EB7821B5D
S113134091090FB6F8949EBF0FBE8DBF01967C0124
S1131350622F70E080E090E00E94C5169B01AC0112
S113136060E070E080E291E40E9443182B013C01AC
S1131370B801012E000C880B990B0E94C716A3011B
S113138092010E94251687FD0BC020E030E040E862
S11313905FE3C301B2010E94C0150E9494168B0141
S11313A01F92DF9281E792E09F938F93CE01019683
S11313B06C019F938F930E9472271F930F93DF9268
S11313C0CF92FF92EF920E947227482D692D8EEDE5
S11313D095E00E943721B7018EED95E00E948A1CAA
S11313E08DB79EB70C960FB6F8949EBF0FBE8DBFF7
S11313F00FB6F894BEBE0FBEADBE0F900F900F9007
S11314000F900F90DF91CF911F910F91FF90EF906C
S1131410DF90CF90BF90AF909F908F907F906F9010
S11314205F904F900895CF93DF93EA01462F682F82
S11314308EED95E00E943721BE018EED95E0DF919F
S1131440CF910C948A1C8FEF84B984B1887F84B9BE
S1131450EBE6F0E0808187608083E8E6F0E080815D
S11314608160808378940895EAE0F1E080818D7F43
S11314708083E7E0F1E080818F7080830895ECE75A
S1131480F0E09081907E90839081282F2770922B9A
S11314909083887080937B00EAE7F0E08081806429
S11314A080830895ECE7F0E080818F7780838081EA
S11314B080648083EAE7F0E08081876080838081B4
S11314C08068808380818860808380E280937E004E
S11314D08091D905845FD3CF1F920F920FB60F92DC
S11314E011240BB60F922F933F934F935F936F93F7
S11314F07F938F939F93AF93BF93EF93FF938091C9
S1131500780090917900843F914038F420917800DC
S113151030917900245F31400FC080917800909120
S113152079008130924030F0209178003091790038
S1131530325002C020E030E08091D905E82FF0E07D
S1131540EE0FFF1FEF52FA4F31832083833010F4E4
S11315508F5F01C080E08093D905845F90DFFF91A5
S1131560EF91BF91AF919F918F917F916F915F9117
S11315704F913F912F910F900BBE0F900FBE0F9084
S11315801F9018951F920F920FB60F9211240BB64D
S11315900F92CF92DF92EF92FF920F931F932F93AC
S11315A03F934F935F936F937F938F939F93AF93E7
S11315B0BF93CF93EF93FF93C091F805189B36C068
S11315C02F9A25E1C29FC001112484519A4F7C01B6
S11315D0EDE1EE0EF11C8C010E5E1F4F189B1DC039
S11315E0C33020F480919306813021F0F701C0804C
S11315F0D18002C0C12CD12C64E670E080E090E080
S11316000E94201DF80140815181415051099601E9
S11316106C2F8CEE95E0D9D9E1CF8091910691E0C1
S1131620892780939106909393062F98199B3BC02A
S11316302F9AF5E1CF9FC001112484519A4F7C0168
S11316402DE1E20EF11C8C010E5E1F4F199B21C08F
S1131650C33048F480919306823049F0F701208129
S113166031813C5F06C0F7012081318102C020E056
S113167034E0F801408151814F5F5F4F6C2F8CEE55
S113168095E0A3D964E670E080E090E00E94201D1C
S1131690DDCF9091920681E089278093920682E0C3
S11316A0809393062F981A9B4BC01F9A64E170E0B5
S11316B080E090E00E94201D00E010E01A9B09C029
S11316C061E070E080E090E00E94201D0F5F1F4FFA
S11316D0F5CF093E134038F09091DA0581E089276F
S11316E08093DA0524C0C33078F425E1C29FF00169
S11316F01124E451FA4F4289538920E030E06C2FE1
S11317008CEE95E062D902C0C53018F461E06C0F2C
S113171001C061E06093F8058CEE95E0643010F050
S113172050D905C0633011F44ED901C048D9909105
S1131730930681E089278093930683E08093930640
S1131740FF91EF91CF91BF91AF919F918F917F9135
S11317506F915F914F913F912F911F910F91FF9046
S1131760EF90DF90CF900F900BBE0F900FBE0F90B5
S11317701F901895CF93DF938091080290910902EE
S1131780909395068093940660E070E087E593E477
S11317900E949518CCEED5E00E9494166883798354
S11317A08A839B8360E070E08BE993E40E94951840
S11317B00E9494166C837D838E839F8384EB98E0D0
S11317C0A2E0B0E088879987AA87BB871D861E861A
S11317D01F8624E144E067E28EED95E0DF91CF912E
S11317E00C94D1202F923F924F925F926F927F92EE
S11317F08F929F92AF92BF92CF92DF92EF92FF921D
S11318000F931F93CF93DF93CDB7DEB762970FB6D5
S1131810F894DEBF0FBECDBFD82E162F61EA75E057
S1131820CE010D960E94ED1E26E0412F6D2D8CEE0B
S113183095E070D96AE070E080E090E00E94201D9D
S113184081E08093DD0583E397E00E94B019182FAF
S113185083E397E00E94B0191F3F11F48F3FE9F032
S1131860E12C83E397E00E9496198C01892B29F0DF
S113187083E397E00E94B019F4CF1092DD05EE20C7
S113188049F0FF2009F485C10F2D10E01195019551
S113189011097FC101E01FEF7CC183E397E00E943F
S11318A0B0192C01BC01772746E0CE01079648DC2D
S11318B06BEE72E0CE0101960E94ED1EBE01695FDF
S11318C07F4FCE0101960E946D20BC01CE010D9682
S11318D00E94011FCE0101960E94851ECE0107962B
S11318E00E94851E83E397E00E94B0197C01BC012D
S11318F0772746E0CE01019623DCBE01635F7F4F6C
S1131900CE0107960E94161F6FEE72E0CE01079675
S11319100E947E20BE016F5F7F4F0E946D20BC013C
S1131920CE010D960E94011FCE0107960E94851ECE
S1131930CE0101960E94851E83E397E00E94B019B0
S11319408C01F82EBC01772746E0CE010196F8DB26
S1131950BE01635F7F4FCE0107960E94161F6BEF97
S113196072E0CE0107960E947E20BE016F5F7F4F1A
S11319700E946D20BC01CE010D960E94011FCE0174
S113198007960E94851ECE0101960E94851E83E360
S113199097E00E94B0194C0183E397E00E94B019CC
S11319A0282EB401772746E0CE010196C9DBBE019B
S11319B0635F7F4FCE0107960E94161F64E073E0B9
S11319C0CE0107960E947E20BE016F5F7F4F0E946A
S11319D06D20BC01CE010D960E94011FCE01079619
S11319E00E94851ECE0101960E94851E83E397E026
S11319F00E94B0195C0183E397E00E94B019382E6D
S1131A00B501772746E0CE0101969ADBBE01635FFC
S1131A107F4FCE0107960E94161F6CE073E0CE0143
S1131A2007960E947E20BE016F5F7F4F0E946D204B
S1131A30BC01CE010D960E94011FCE0107960E94A3
S1131A40851ECE0101960E94851E83E397E00E94C5
S1131A50B019C82E83E397E00E94B019582E46E0CF
S1131A6060E070E0CE0101966BDBBE01635F7F4FE7
S1131A70CE0107960E94161F64E173E0CE0107961B
S1131A800E947E20BE016F5F7F4F0E946D20BC01CB
S1131A90CE010D960E94011FCE0107960E94851E5D
S1131AA0CE0101960E94851E83E397E00E94B0193F
S1131AB03C01BC01772746E0CE01019641DBBE0123
S1131AC0635F7F4FCE0107960E94161F6CE173E09F
S1131AD0CE0107960E947E20BE016F5F7F4F0E9459
S1131AE06D20BC01CE010D960E94011FCE01079608
S1131AF00E94851ECE0101960E94851E142D1E0D86
S1131B00100F180D120D1A0D130D1C0D150D109537
S1131B10612F70E046E0CE01019612DBBE01635FE7
S1131B207F4FCE0107960E94161F6BE273E0CE0131
S1131B3007960E947E20BE016F5F7F4F0E946D203A
S1131B40BC01CE010D960E94011FCE0107960E9492
S1131B50851ECE0101960E94851E161181CE222D6E
S1131B60482D6D2D8CEE95E00E944402632D8A2D44
S1131B7043DBAC016D2D8CEE95E00E945302252DC4
S1131B804C2D6D2D8CEE95E00E948502EE24E3949D
S1131B9068CECE010D960E94851EC80162960FB6CE
S1131BA0F894DEBF0FBECDBFDF91CF911F910F918F
S1131BB0FF90EF90DF90CF90BF90AF909F908F9069
S1131BC07F906F905F904F903F902F9008953F9239
S1131BD04F925F926F927F928F929F92AF92BF9239
S1131BE0CF92DF92EF92FF920F931F93CF93DF93E5
S1131BF0CDB7DEB72C970FB6F894DEBF0FBECDBFBE
S1131C004DB65EB68091DA05882371F18091600645
S1131C1090916106C2971CF024EF31E002C020E0ED
S1131C2030E080916206811101C03C5F44E650E0DF
S1131C3061E08CEE95E00E94E50480917506909138
S1131C407606C2971CF024EF31E002C020E030E0B9
S1131C5080917706811101C03C5F44E650E062E068
S1131C608CEE95E00E94E5049091F90581E08927C6
S1131C709091DA05891355C0811153C00E94EF1C5D
S1131C800091CD051091CE052091CF053091D0055E
S1131C90AB01BC01401B510B620B730B2AE0CE015C
S1131CA007960E94331FBE01695F7F4FCE010196E4
S1131CB00E94161F60E473E0CE0101960E947E200C
S1131CC0BC0186E996E00E94951CCE0101960E9413
S1131CD0851ECE0107960E94851E8091DC05811128
S1131CE003C020E034E002C020E030E044E650E0ED
S1131CF061E08CEE95E00E94E5048091DB058111A2
S1131D0003C020E034E002C020E030E044E650E0CC
S1131D1062E08CEE95E00E94E5048091DA05809300
S1131D20F9058091F805833010F464E25BDD64E228
S1131D3083E058DD64E284E055DD64E285E052DD51
S1131D4046E261E08CEE95E00E94720697FD06C0C3
S1131D50AC0161E08CEE95E00E94530246E262E041
S1131D608CEE95E00E94720697FD06C0AC0162E01D
S1131D708CEE95E00E94530244E464E08CEE95E01E
S1131D800E94720697FD09C09850880F991F880F0A
S1131D90991F909364068093630644E465E08CEE97
S1131DA095E00E94720697FD09C09850880F991F0C
S1131DB0880F991F90937906809378064091F805CF
S1131DC050E021E060E083E09DDA40E068E08EEDE1
S1131DD095E00E94372180916206811103C061E47D
S1131DE075E002C06AE373E08EED95E00E948A1C00
S1131DF0409160065091610623E060E089E082DA58
S1131E0040E06DE08EED95E00E94372180917706E9
S1131E10811103C061E475E002C06AE373E08EEDF2
S1131E2095E00E948A1C409175065091760623E045
S1131E3060E08EE067DA8091EA059091EB058230EC
S1131E409105E4F09091CC0581E089278093CC053D
S1131E501092EB051092EA05882339F08091DA0597
S1131E60811106C04CE353E005C04CE252E002C0CD
S1131E704EE353E060E083E1D6DA05C00196909327
S1131E80EB058093EA05E091F805E330D1F4609125
S1131E903D0670913E06072E000C880B990B77D7F0
S1131EA020E030E044EB5DE30E94E01720E030E006
S1131EB040E450E4D1D620E030E040EF52E461D673
S1131EC013C025E1E29FF0011124E451FA4F628925
S1131ED07389072E000C880B990B59D720E030E04A
S1131EE044EB5DE30E94E0171FD7AB0124E061E0FF
S1131EF083E008DA6FED8EED95E00E948B1C609113
S1131F00520670915306072E000C880B990B3FD78D
S1131F1020E030E044EB5DE30E94E01705D724E0C5
S1131F20AB0161E088E0EED96FED8EED95E00E94A3
S1131F308B1C6091670670916806072E000C880B55
S1131F40990B25D720E030E044EB5DE30E94E017D5
S1131F50EBD624E0AB0161E08DE0D4D96FED8EEDDA
S1131F6095E00E948B1CE091F80515E11E9FF0019D
S1131F701124E451FA4F438D548D24E062E083E050
S1131F80C1D98091F805189FF0011124E451FA4F4A
S1131F90238D348D232B99F0978D992321F0833051
S1131FA031F061E007C0833021F060E003C06EE7E8
S1131FB001C06FE78EED95E00E948B1C06C06CE2B9
S1131FC072E08EED95E00E948A1C80911C0690912F
S1131FD01D06892B31F0609120068EED95E00E945C
S1131FE08B1C8091310690913206892B31F06091DF
S1131FF035068EED95E00E948B1C4091D5055091DD
S1132000D60524E062E082E07DD94091D705509165
S1132010D80524E062E087E075D9A090D505B0909A
S1132020D605E090D705F090D8058501B7FE04C029
S1132030002711270A191B09F6E015950795FA954B
S1132040E1F7802F3701F7FE04C0662477246E1869
S11320507F08E6E075946794EA95E1F7362C909151
S11320608E06911103C0882309F45EC08090520645
S1132070909053066801DD241A141B0434F4C6013D
S1132080880F991F880F991F07C02CEFA6012403FE
S1132090C001259F900D1124880E991E69E573E0F7
S11320A0CE0107960E94ED1EBE01695F7F4FCE01EF
S11320B001960E94161FB401CE0101960E94A12030
S11320C069E673E00E947E20602F0E9495206EE2F4
S11320D072E00E947E20BC0186E996E00E94951C75
S11320E0CE0101960E94851ECE0107960E94851E90
S11320F080915206909153061A141B0434F4A601DD
S1132100440F551F440F551F07C02CEFB60126037B
S1132110A001279F500D1124480F591F960164E018
S11321208CEE95E00E94E50480918F06811103C036
S1132130332009F45EC0A0906706B090680663017E
S1132140DD241E141F0434F4C601880F991F880F60
S1132150991F07C02CEFA6012403C001259F900DF1
S11321601124A80EB91E6CE673E0CE0107960E94F6
S1132170ED1EBE01695F7F4FCE0101960E94161FBE
S1132180B501CE0101960E94A12069E673E00E9488
S11321907E20662D0E9495206EE272E00E947E20D1
S11321A0BC0186E996E00E94951CCE0101960E942E
S11321B0851ECE0107960E94851E80916706909128
S11321C068061E141F0434F4A601440F551F440F5F
S11321D0551F07C02CEFB6012603A001279F500D01
S11321E01124480F591F960165E08CEE95E00E947A
S11321F0E50400938E0660928F068CEE95E00E94B3
S11322005C0390937B0680937A068CEE95E00E94A3
S1132210CF0390937D0680937C0640917A0650917B
S11322207B0624E063E082E06DD840917C06509107
S11322307D0624E063E087E065D80E94EF1C80916E
S11322400602E82EF12CC701880F991FEDB7FEB7DF
S1132250E81BF90B0FB6F894FEBF0FBEEDBF0DB728
S11322601EB70F5F1F4F4EE164E08CEE95E00E94B5
S11322707206F801918380838091580690915906E3
S1132280938382834EE165E08CEE95E00E947206B2
S1132290F8019583848380916D0690916E069783EF
S11322A086838091600690916106918780878091F2
S11322B0620690E09387828780916306909164061A
S11322C09587848780911C0690911D069787868741
S11322D08091200690E0918B808B8091750690917F
S11322E07606938B828B8091770690E0958B848B16
S11322F08091780690917906978B868B8091310630
S113230090913206918F808F8091350690E0938F63
S1132310828F80913D0690913E06958F848F4EE189
S113232063E08CEE95E00E947206F801978F868F29
S1132330B096C70101978F30910519F0119211924F
S1132340F9CF60910602C8010E9463090FB6F894A0
S11323505EBE0FBE4DBE2C960FB6F894DEBF0FBE08
S1132360CDBFDF91CF911F910F91FF90EF90DF9040
S1132370CF90BF90AF909F908F907F906F905F9021
S11323804F903F9008958F929F92AF92BF92CF92B9
S1132390DF92EF92FF921F93CF93DF93CDB7DEB717
S11323A0A2970FB6F894DEBF0FBECDBF61EA75E009
S11323B0CE014D960E94ED1E0E94EF1C6093CD0548
S11323C07093CE058093CF059093D0053CD84CD81C
S11323D069D88EED95E00E94EA2188E0EAE0F2E017
S11323E0DE01199601900D928A95E1F788E0E2E109
S11323F0F2E0DE01119601900D928A95E1F7AE01AB
S1132400475F5F4F60E08EED95E00E946B21AE0167
S11324104F5F5F4F61E08EED95E00E946B218EED82
S113242095E00E94F1208EED95E00E942D2161E05F
S113243082E00E941B1E61E083E00E941B1E26E0D6
S113244040E051EE60E070E086E996E00E949D1A5B
S113245026E047E35FED60E070E083E397E00E94ED
S11324609D1A83E397E00E947C1A81E08093F8052B
S11324704FE753E060E080E00E94130A61E08CEED5
S113248095E00E94DF0462E08CEE95E00E94DF0498
S113249063E08CEE95E00E94E30442E063E08CEE9E
S11324A095E00E94610464E08CEE95E00E94E104F2
S11324B065E08CEE95E00E94E10464EF71E080E059
S11324C090E00E94201D40E953E060E082E10E9418
S11324D0130A43E953E061E080E00E94130A88EEA6
S11324E093E090931F0680931E0690933406809386
S11324F033068AE090E0909349068093480685E08D
S113250090E090935E0680935D06909373068093AB
S1132510720664EF71E080E090E00E94201D40E9C3
S113252053E061E082E10E94130A4EE953E062E065
S113253080E00E94130A4FEF53E061E08CEE95E0D7
S11325400E9479044FEF53E062E08CEE95E00E9424
S1132550790440E051E063E08CEE95E00E9464046D
S113256040E051E063E08CEE95E00E9479044FEF87
S113257053E064E08CEE95E00E9479044FEF53E061
S113258065E08CEE95E00E94790464EF71E080E0F0
S113259090E00E94201D40E953E062E082E10E9445
S11325A0130A4AEA53E063E080E00E94130A44E21B
S11325B063E08CEE95E00E94720690933E06809351
S11325C03D0644E264E08CEE95E00E94720690932E
S11325D053068093520644E265E08CEE95E00E9437
S11325E07206909368068093670664EF71E080E05A
S11325F090E00E94201D40E953E063E082E10E94E4
S1132600130A64EF71E080E090E00E94201D8EEDDB
S113261095E00E942D2140E060E08EED95E00E945F
S113262037216EEB73E08EED95E00E948A1C40E04A
S113263065E08EED95E00E94372162EC73E08EED4B
S113264095E00E948A1C41E060E08EED95E00E94D6
S1132650372166EC73E08EED95E00E948A1C42E01F
S113266060E08EED95E00E9437216AEC73E08EED18
S113267095E00E948A1C43E060E08EED95E00E94A4
S113268037216EEC73E08EED95E00E948A1C8CEE8F
S1132690E82E85E0F82E11E062ED73E0CE01479656
S11326A00E94ED1EBE01695E7F4FCE0141960E94DD
S11326B0161F612FCE0141960E94952069ED73E0AB
S11326C00E947E20BC0186E996E00E94951CCE0102
S11326D041960E94851ECE0147960E94851E46E0C3
S11326E0612F8CEE95E00E9472064C0148E0612F48
S11326F08CEE95E00E9472065C018114910429F429
S1132700892BB1F461E074E015C08FEF88168FE077
S1132710980641F4EFEFAE16EFE0BE0619F46CE054
S113272074E008C0A114B10419F06CE174E002C0B3
S113273067E274E0CE014D960E941E1F65E374E0CB
S1132740CE0147960E94ED1EBE01695E7F4FCE0109
S113275041960E94161FB401CE0141960E94AD20FD
S11327606CE474E00E947E206C01B40180E090E08F
S11327700CD320E030E044EB5DE322D4AB01BC0198
S1132780C6010E94C52061E574E00E947E20BC0160
S113279086E996E00E94951CCE0141960E94851E12
S11327A0CE0147960E94851E64E574E0CE014796EB
S11327B00E94ED1EBE01695E7F4FCE0141960E94CC
S11327C0161FB501CE0141960E94AD206CE474E061
S11327D00E947E206C01B50180E090E0D6D220E01A
S11327E030E044EB5DE3ECD3AB01BC01C6010E94D5
S11327F0C52061E574E00E947E20BC0186E996E074
S11328000E94951CCE0141960E94851ECE014796DA
S11328100E94851E6BE674E0CE0147960E94ED1E71
S1132820BE01695E7F4FCE0141960E94161FBE0114
S1132830635E7F4FCE0141960E946D20BC0186E904
S113284096E00E94951CCE0141960E94851ECE0101
S113285047960E94851E4BE0612F8CEE95E00E9406
S1132860ED056C0162E874E0CE0147960E94ED1E0E
S1132870BE01695E7F4FCE0141960E94161FB601CC
S1132880CE0141960E94A12069E974E00E947E2055
S1132890BC0186E996E00E94951CCE0141960E94F7
S11328A0851ECE0147960E94851E4CE0612F8CEE5A
S11328B095E00E94ED056C016DE974E0CE01479648
S11328C00E94ED1EBE01695E7F4FCE0141960E94BB
S11328D0161FB601DD0C880B990B59D220E030E0AD
S11328E040E251E4B9D1AB01BC01CE0141960E9452
S11328F0B92064EB74E00E947E20BC0186E996E076
S11329000E94951CCE0141960E94851ECE014796D9
S11329100E94851E4DE0612F8CEE95E00E94ED052E
S11329206C0166EB74E0CE0147960E94ED1EBE0179
S1132930695E7F4FCE0141960E94161FB601DD0CE1
S1132940880B990B24D220E030E040E251E484D19A
S1132950AB01BC01CE0141960E94B92064EB74E046
S11329600E947E20BC0186E996E0DFD7CE01419625
S11329700E94851ECE0147960E94851E4EE0612F5F
S11329808CEE95E00E9472066C016DEC74E0CE0151
S113299047960E94ED1EBE01695E7F4FCE014196AF
S11329A00E94161FB601DD0C880B990BF0D12CE0A8
S11329B032E348EC5DE304D3AB01BC01CE014196A4
S11329C00E94C52064EE74E00E947E20BC0186E96A
S11329D096E0ABD7CE0141960E94851ECE01479664
S11329E00E94851E44E1612F8CEE95E00E947206E0
S11329F06C0166EE74E0CE0147960E94ED1EBE01A6
S1132A00695E7F4FCE0141960E94161FB601CE012A
S1132A1041960E94A120BC0186E996E086D7CE01AA
S1132A2041960E94851ECE0147960E94851E46E16E
S1132A30612F8CEE95E00E94ED056C016DEF74E062
S1132A40CE0147960E94ED1EBE01695E7F4FCE0106
S1132A5041960E94161FB601CE0141960E94A12004
S1132A60BC0186E996E061D7CE0141960E94851E9D
S1132A70CE0147960E94851E64E175E0CE01419621
S1132A800E94ED1EBE016F5E7F4F86E996E04DD732
S1132A90CE0141960E94851EF701C5A4D6A4A7A025
S1132AA0B0A444E2612F8CEE95E00E9472064C01C2
S1132AB063E475E0CE0147960E94ED1EBE01695E97
S1132AC07F4FCE0141960E94161FB401CE0141965C
S1132AD00E94A1206CE474E00E947E20B5010E9453
S1132AE0A1206AE575E00E947E20B6010E94A12023
S1132AF061E574E00E947E20BC0186E996E015D76A
S1132B00CE0141960E94851ECE0147960E94851EE5
S1132B101F5FF5E1EF0EF11C163009F0BDCD6EE537
S1132B2075E0CE0141960E94ED1EBE016F5E7F4F9F
S1132B3086E996E0FAD6CE0141960E94851E68EE9B
S1132B4073E080E090E07CD78CEE95E00E949B08D7
S1132B5010920702CE014D960E94851EA2960FB6D2
S1132B60F894DEBF0FBECDBFDF91CF911F91FF90D0
S1132B70EF90DF90CF90BF90AF909F908F9008958B
S1132B805058BB27AA270ED0C5C18ED130F093D19F
S1132B9020F031F49F3F11F41EF45EC10EF4E09571
S1132BA0E7FB54C1E92FD8D180F3BA176207730742
S1132BB08407950718F071F49EF5F0C10EF4E095C2
S1132BC00B2EBA2FA02D0B01B90190010C01CA01E3
S1132BD0A0011124FF27591B99F0593F50F4503E8E
S1132BE068F11A16F040A22F232F342F4427585F80
S1132BF0F3CF469537952795A795F0405395C9F798
S1132C007EF41F16BA0B620B730B840BBAF091504F
S1132C10A1F0FF0FBB1F661F771F881FC2F70EC0EE
S1132C20BA0F621F731F841F48F4879577956795C1
S1132C30B795F7959E3F08F0B3CF9395880F08F0AA
S1132C409927EE0F979587950895DCD008F481E0D5
S1132C50089539D1E3956FC10CD05CC12CD140F0FB
S1132C6023D130F021F45F3F19F0F0C0511197C126
S1132C70F3C072D198F39923C9F35523B1F3951B8B
S1132C80550BBB27AA2762177307840738F09F5F89
S1132C905F4F220F331F441FAA1FA9F333D00E2EF8
S1132CA03AF0E0E830D091505040E695001CCAF765
S1132CB029D0FE2F27D0660F771F881FBB1F26172A
S1132CC037074807AB07B0E809F0BB0B802DBF01FD
S1132CD0FF2793585F4F2AF09E3F510568F0B6C016
S1132CE05EC15F3FECF3983EDCF38695779567957C
S1132CF0B795F7959F5FC9F7880F911D96958795AE
S1132D0097F90895E1E0660F771F881FBB1F6217CC
S1132D1073078407BA0720F0621B730B840BBA0B8A
S1132D20EE1F88F7E095089504D06894B11137C177
S1132D3008951AD188F09F5790F0B92F9927B75169
S1132D40A0F0D1F0660F771F881F991F1AF0BA956B
S1132D50C9F712C0B13081F021D1B1E008951EC18C
S1132D60672F782F8827B85F39F0B93FCCF3869561
S1132D7077956795B395D9F73EF4909580957095BE
S1132D8061957F4F8F4F9F4F0895E89409C097FB3B
S1132D903EF490958095709561957F4F8F4F9F4F2E
S1132DA09923A9F0F92F96E9BB279395F695879572
S1132DB077956795B795F111F8CFFAF4BB0F11F435
S1132DC060FF1BC06F5F7F4F8F4F9F4F16C08823DC
S1132DD011F096E911C0772321F09EE8872F762F12
S1132DE005C0662371F096E8862F70E060E02AF053
S1132DF09A95660F771F881FDAF7880F969587953F
S1132E0097F90895990F0008550FAA0BE0E8FEEF13
S1132E1016161706E807F907C0F012161306E4079A
S1132E20F50798F0621B730B840B950B39F40A2693
S1132E3061F0232B242B252B21F408950A2609F471
S1132E40A140A6958FEF811D811D089597F99F6775
S1132E5080E870E060E008959FEF80EC0895DF93D0
S1132E60CF931F930F93FF92EF92DF927B018C011C
S1132E70689405C0DA2EEF01AFD0FE01E894A59165
S1132E802591359145915591AEF3EF018BDEFE010D
S1132E909701A801DA9479F7DF90EF90FF900F91F2
S1132EA01F91CF91DF91089500240A9416161706F6
S1132EB018060906089500240A9412161306140627
S1132EC005060895C9CF50D0E8F3E894E0E0BB27A5
S1132ED09F57F0F02AED3FE049EC06C0EE0FBB0F20
S1132EE0661F771F881F28F0B23A620773078407AA
S1132EF028F0B25A620B730B840BE3959A9572F720
S1132F00803830F49A95BB0F661F771F881FD2F75D
S1132F10904841C1092E0394000C11F4882352F007
S1132F20BB0F40F4BF2B11F460FF04C06F5F7F4FF1
S1132F308F4F9F4F0895EF93E0FF06C0A2EA2AED5A
S1132F403FE049EC5FEB2EDEE5DF0F90039401FCDC
S1132F509058E4EEF0E02BC157FD9058440F551FF4
S1132F6059F05F3F71F04795880F97FB991F61F007
S1132F709F3F79F087950895121613061406551F7E
S1132F80F2CF4695F1DF08C0161617061806991FEA
S1132F90F1CF86957105610508940895E894BB27DF
S1132FA066277727CB0197F908952CDF08F48FEF74
S1132FB008959B01AC0160E070E080E89FE34CCE93
S1132FC00BD0A8CF71DF28F076DF18F0952309F035
S1132FD03DCF42CF1124E3CFBFDFA0F3959FD1F3C0
S1132FE0950F50E0551F629FF001729FBB27F00DB3
S1132FF0B11D639FAA27F00DB11DAA1F649F662708
S1133000B00DA11D661F829F2227B00DA11D621F56
S1133010739FB00DA11D621F839FA00D611D221F10
S1133020749F3327A00D611D231F849F600D211DF4
S1133030822F762F6A2F11249F5750408AF0E1F097
S113304088234AF0EE0FFF1FBB1F661F771F881FE0
S113305091505040A9F79E3F510570F0F7CE9FCF95
S11330605F3FECF3983EDCF3869577956795B795CB
S1133070F795E7959F5FC1F7FE2B880F911D9695F5
S1133080879597F90895FA01EE0FFF1F30962105F1
S1133090310599F16115710561F48038BFE39B072F
S11330A049F168949038810561F08038BFEF9B073F
S11330B041F0992342F5FF3FE1053105210511F166
S11330C0E8940894E795D901AA2329F4AB2FBE2FDD
S11330D0F85FD0F310C0FF5F70F4A695E0F7F739FE
S11330E050F019F0FF3A38F49F779F930CD00F906B
S11330F007FC905808953EF0AFCE60E070E080E8A1
S11331009FE308954FE79F775F934F933F932F93E8
S11331109AD02F913F914F915F9152DF0EC09F93B0
S1133120D2DE0F9007FCEE5F06CF9B01AC0148CFC7
S113313019F40EF08BCE32CF8FCE16DFC8F396384B
S1133140C0F707F80F92E8942BE33AEA48EB5FE7FD
S113315045DF0F920F920F924DB75EB70F92B3D027
S1133160E2E0F1E07CDE4F915F91EF91FF91E59514
S1133170EE1FFF1F49F0FE57E0684427EE0F441F7F
S1133180FA95E1F74195550B25D00F9007FE11CF25
S113319008959F3F31F0915020F487957795679576
S11331A0B795880F911D9695879597F908959F93E4
S11331B08F937F936F93FF93EF939B01AC0100DF99
S11331C0EF91FF914CDE2F913F914F915F91F8CE9B
S11331D03DCEDFCFC9DEE8F39923D9F3940F511D17
S11331E0BBF39150504094F059F0882332F0660FAD
S11331F0771F881F91505040C1F79E3F510544F7F7
S1133200880F911D9695879597F908955F3FACF0C7
S1133210983E9CF0BB27869577956795B79508F4FB
S1133220B1609395C1F7BB0F58F711F460FFE8CF75
S11332306F5F7F4F8F4F9F4FE3CFB1CE0EF0A9CF7B
S11332400BCE689403CE90DEC8F39923D1F3C6F372
S1133250DF93CF931F930F93FF92C92FDD2788230A
S11332602AF02197660F771F881FDAF720E030E0F5
S113327040E85FEB9FE3883920F0803E30F02196F0
S11332808F777FDCEAE2F1E003C07BDCE7E5F1E085
S1133290E6DD8B01BE01EC01FB2E6F5771097595BC
S11332A0771F880B990B73DD28E132E741E35FE375
S11332B093DEAF2D9801AE01FF900F911F91CF9136
S11332C0DF9170DC27CEFA01DC01AA0FBB1F9B0142
S11332D0AC01BF5728F422273327442750781FC056
S11332E0B75188F4AB2F0024469537952795011CD8
S11332F0A395D2F3002069F0220F331F441FB39526
S1133300DAF30DD03DCC61307105A0E88A07B946E7
S113331030F49B01AC016627772788279078309694
S113332021F020833183428353830895FC01918DDE
S1133330228D892F90E0805C9F4F821B91098F73AF
S113334099270895FC01918D828D981731F0828D13
S1133350E80FF11D858D90E008958FEF9FEF08959C
S1133360FC01918D828D981761F0828DDF01A80F89
S1133370B11D5D968C91928D9F5F9F73928F90E0AB
S113338008958FEF9FEF0895FC01538D448D252FF1
S113339030E0842F90E0821B930B541710F0CF96EB
S11333A008950197089585E69BE1892B39F080E023
S11333B090E0892B19F089D1811124C08AEF9BE117
S11333C0892B39F080E090E0892B19F013D2811118
S11333D01CC080E090E0892B41F080E090E0892BD4
S11333E021F00E940000811113C080E090E0892B3D
S11333F0A1F080E090E0892B81F00E94000081110F
S11334000AC008950E940000D9CF0E940000E1CFB5
S11334100E940000EACF0C9400000895FC01848D02
S1133420DF01A80FB11DA35ABF4F2C91848D90E0EA
S113343001968F739927848FA689B7892C93A089C5
S1133440B1898C91837080648C93938D848D98134F
S113345006C00288F389E02D80818F7D80830895E2
S1133460EF92FF920F931F93CF93DF93EC0181E0D0
S1133470888F9B8D8C8D981305C0E889F98980818C
S113348085FD25C0F62E0B8D10E00F5F1F4F0F73C7
S11334901127E02E8C8DE8120BC00FB607FCFACF73
S11334A0E889F989808185FFF5CFCE01B7DFF2CFB6
S11334B08B8DFE01E80FF11DE35AFF4FF0829FB799
S11334C0F8940B8FEA89FB89808180620AC09FB7D8
S11334D0F894EE89FF896083E889F9898081837093
S11334E0806480839FBF81E090E0DF91CF911F9142
S11334F00F91FF90EF900895CF93DF93EC01888DA7
S11335008823C1F0EA89FB89808185FD05C0A889EB
S1133510B9898C9186FD0EC00FB607FCF5CF80816A
S113352085FFF2CFA889B9898C9185FFEDCFCE01B3
S113353075DFE8CFDF91CF910895CF92DF92EF92BC
S1133540FF921F93CF93DF93EC016A017B01122F4B
S1133550E889F98982E080834115514E610571053E
S1133560B1F060E079E08DE390E0A70196010E945C
S1133570CA24DA01C9010197A109B109B695A79531
S1133580979587959C01211580E13807A8F0E88973
S1133590F989108260E874E88EE190E0A701960151
S11335A00E94CA24DA01C9010197A109B109B6959B
S11335B0A795979587959C01EC85FD853083EE85CD
S11335C0FF852083188EEC89FD891083EA89FB89A5
S11335D0808180618083EA89FB898081886080831F
S11335E0EA89FB89808180688083EA89FB898081FC
S11335F08F7D8083DF91CF911F91FF90EF90DF90BB
S1133600CF90089580E090E0089508951F920F925E
S11336100FB60F9211240BB60F922F938F939F9393
S1133620EF93FF93E091A606F091A7068081E091C5
S1133630AC06F091AD0682FD12C090818091AF0678
S11336408F5F8F732091B006821751F0E091AF061F
S1133650F0E0EA56F94F958F8093AF0601C0808160
S1133660FF91EF919F918F912F910F900BBE0F902F
S11336700FBE0F901F9018951F920F920FB60F92C6
S113368011240BB60F922F933F934F935F936F9335
S11336907F938F939F93AF93BF93EF93FF9386E9A9
S11336A096E0BCDEFF91EF91BF91AF919F918F9116
S11336B07F916F915F914F913F912F910F900BBE2E
S11336C00F900FBE0F901F90189586E996E02EDE9E
S11336D021E0892B09F420E0822F0895E6E9F6E041
S11336E01382128288EE93E0A0E0B0E08483958395
S11336F0A683B78381E995E09183808385EC90E08C
S11337009587848784EC90E09787868780EC90E0A7
S1133710918B808B81EC90E0938B828B82EC90E098
S1133720958B848B86EC90E0978B868B118E128E12
S1133730138E148E08951F920F920FB60F921124B8
S11337400BB60F922F938F939F93EF93FF93E09178
S11337504307F09144078081E0914907F0914A07BB
S113376082FD12C0908180914C078F5F8F732091EE
S11337704D07821751F0E0914C07F0E0ED5CF84FF3
S1133780958F80934C0701C08081FF91EF919F91A9
S11337908F912F910F900BBE0F900FBE0F901F9023
S11337A018951F920F920FB60F9211240BB60F9219
S11337B02F933F934F935F936F937F938F939F9335
S11337C0AF93BF93EF93FF9383E397E027DEFF91DB
S11337D0EF91BF91AF919F918F917F916F915F9185
S11337E04F913F912F910F900BBE0F900FBE0F90F2
S11337F01F90189583E397E099DD21E0892B09F464
S113380020E0822F0895E3E3F7E01382128288EE2A
S113381093E0A0E0B0E084839583A683B78381E935
S113382095E0918380838DEC90E0958784878CEC80
S113383090E09787868788EC90E0918B808B89EC69
S113384090E0938B828B8AEC90E0958B848B8EEC4A
S113385090E0978B868B118E128E138E148E0895A2
S1133860089532D1FDDF0E94C311C3EDD9E10E9456
S1133870E70D2097E1F397DDFACFCF92DF92EF9235
S1133880FF920F931F93CF93DF936C017A018B0107
S1133890C0E0D0E0CE15DF0581F0D8016D918D0137
S11338A0D601ED91FC910190F081E02DC6011995AE
S11338B0892B11F02196EECF7E01C701DF91CF91C4
S11338C01F910F91FF90EF90DF90CF9008956115B5
S11338D0710579F0FB0101900020E9F73197AF0100
S11338E0461B570BDC01ED91FC910280F381E02D26
S11338F0199480E090E00895DB0114964D915C9159
S113390015976D917C91DC01ED91FC910280F3811E
S1133910E02D1994DCCFDC01ED91FC910190F08154
S1133920E02D19946FE975E0D2CF0F931F93CF93D5
S1133930DF93EC01E1DF8C01CE01F4DF800F911FF6
S1133940DF91CF911F910F9108951F920F920FB69F
S11339500F9211242F933F938F939F93AF93BF9311
S11339608091D1079091D207A091D307B091D40749
S11339703091D00723E0230F2D3720F40196A11DA9
S1133980B11D05C026E8230F0296A11DB11D209389
S1133990D0078093D1079093D207A093D307B09315
S11339A0D4078091D5079091D607A091D707B091FD
S11339B0D8070196A11DB11D8093D5079093D60712
S11339C0A093D707B093D807BF91AF919F918F91E0
S11339D03F912F910F900FBE0F901F9018952FB706
S11339E0F8946091D1077091D2078091D307909198
S11339F0D4072FBF08953FB7F8948091D5079091CD
S1133A00D607A091D707B091D80726B5A89B05C0C3
S1133A102F3F19F00196A11DB11D3FBFBA2FA92F49
S1133A20982F8827820F911DA11DB11DBC01CD01C6
S1133A3042E0660F771F881F991F4A95D1F70895B2
S1133A408F929F92AF92BF92CF92DF92EF92FF92AA
S1133A506B017C01D0DF4B015C01C114D104E10492
S1133A60F104F1F0B4D5C7DFDC01CB018819990961
S1133A70AA09BB09883E9340A105B10570F321E072
S1133A80C21AD108E108F10888EE880E83E0981E76
S1133A90A11CB11CC114D104E104F10421F7DDCF50
S1133AA0FF90EF90DF90CF90BF90AF909F908F905A
S1133AB008958230910538F0880F991F880F991F57
S1133AC005970197F1F70895789484B5826084BDD1
S1133AD084B5816084BD85B5826085BD85B581600E
S1133AE085BDEEE6F0E0808181608083E1E8F0E06E
S1133AF01082808182608083808181608083E0E89D
S1133B00F0E0808181608083E1EBF0E0808184607B
S1133B108083E0EBF0E0808181608083E1E9F0E084
S1133B20808182608083808181608083E0E9F0E02D
S1133B30808181608083E1EAF0E08081826080831B
S1133B40808181608083E0EAF0E08081816080830D
S1133B50E1E2F1E080818260808380818160808302
S1133B60E0E2F1E0808181608083EAE7F0E0808137
S1133B70846080838081826080838081816080838F
S1133B808081806880831092C100089590E0FC01D8
S1133B903197E231F10508F04DC08827EE53FF4F0D
S1133BA08F4F1AC7809180008F7703C08091800067
S1133BB08F7D80938000089580918000877FF9CF66
S1133BC084B58F7702C084B58F7D84BD08958091BC
S1133BD0B0008F7703C08091B0008F7D8093B000D8
S1133BE00895809190008F7707C0809190008F7D19
S1133BF003C080919000877F809390000895809106
S1133C00A0008F7707C08091A0008F7D03C08091B2
S1133C10A000877F8093A0000895809120018F7772
S1133C2007C0809120018F7D03C080912001877F90
S1133C30809320010895CF93DF9390E0FC01E85135
S1133C40FD4F2491FC01E25DFC4F8491882361F1D6
S1133C5090E0880F991FFC01E257FC4FC591D49165
S1133C60FC01EC58FC4FA591B491611109C09FB7B8
S1133C70F8948881209582238883EC912E230BC0AD
S1133C80623061F49FB7F8948881322F3095832392
S1133C908883EC912E2B2C939FBF06C08FB7F8948A
S1133CA0E8812E2B28838FBFDF91CF9108951F9336
S1133CB0CF93DF93282F30E0F901EE55FD4F849127
S1133CC0F901E851FD4FD491F901E25DFC4FC49133
S1133CD0CC23B9F0162F811159DFEC2FF0E0EE0F51
S1133CE0FF1FEC58FC4FA591B4919FB7F8941111A4
S1133CF004C08C91D095D82302C0EC91DE2BDC93C8
S1133D009FBFDF91CF911F910895FC018081918124
S1133D1022C7CF93DF93EC0188819981009709F042
S1133D201AD7198218821D821C821B821A82DF9183
S1133D30CF9108950F931F93CF93DF93EC018B01E1
S1133D406F5F7F4F888199818FD7009731F0998376
S1133D5088831B830A8381E001C080E0DF91CF91D7
S1133D601F910F910895CF93DF93EC01888199817E
S1133D70892B29F08A819B818617970758F4CE01F5
S1133D80D9DF882341F08C819D81892B19F4E88146
S1133D90F981108281E0DF91CF910895EF92FF9233
S1133DA00F931F93CF93DF93EC017B018A01BA0138
S1133DB0DADF811103C0CE01ACDF07C01D830C83A1
S1133DC0B701888199810E941D27CE01DF91CF918F
S1133DD01F910F91FF90EF900895FC0111821082C2
S1133DE013821282158214826115710549F0FB0158
S1133DF001900020E9F73197AF01461B570BCECF56
S1133E000895CF93DF93EC01FB018617970751F0D8
S1133E10608171816115710521F044815581BEDF96
S1133E2001C077DFCE01DF91CF910895FC011182AB
S1133E3010821382128215821482E3CFCF93DF9310
S1133E40EC016115710551F0FB0101900020E9F7C7
S1133E503197AF01461B570BA1DF01C05ADFCE01DA
S1133E60DF91CF9108950F931F93CF93DF93CDB735
S1133E70DEB7A1970FB6F894DEBF0FBECDBF8C019D
S1133E80CB01BA01F80111821082138212821582C9
S1133E90148230E0AE014F5F5F4FE0D7BE016F5F29
S1133EA07F4FC801CBDFA1960FB6F894DEBF0FBEDB
S1133EB0CDBFDF91CF911F910F910895EF92FF92A3
S1133EC00F931F93CF93DF936115710511F480E075
S1133ED01AC041155105B1F07B01EC018C819D8123
S1133EE08A01080F191FB801CE013DDF882379F339
S1133EF0288139818C819D81B701820F931F9DD7C1
S1133F001D830C8381E0DF91CF911F910F91FF906E
S1133F10EF900895EF92FF920F931F93CF93DF9347
S1133F2000D01F92CDB7DEB77C01862F4AE08E0108
S1133F300F5F1F4FB80190E087D7F8010190002070
S1133F40E9F73197AF01401B510BB801C701B6DF48
S1133F500F900F900F900F90DF91CF911F910F91C1
S1133F60FF90EF900895EF92FF920F931F93CF93DA
S1133F70DF93CDB7DEB728970FB6F894DEBF0FBE38
S1133F80CDBF7C01CB014AE08E010F5F1F4FB8010A
S1133F905BD7F80101900020E9F73197AF01401B8E
S1133FA0510BB801C7018ADF28960FB6F894DEBF1B
S1133FB00FBECDBFDF91CF911F910F91FF90EF9076
S1133FC00895EF92FF920F931F93CF93DF93CDB792
S1133FD0DEB727970FB6F894DEBF0FBECDBF7C01C6
S1133FE0CB014AE08E010F5F1F4FB80162D7F80181
S1133FF001900020E9F73197AF01401B510BB80144
S1134000C7015CDF27960FB6F894DEBF0FBECDBFA5
S1134010DF91CF911F910F91FF90EF900895EF9250
S1134020FF920F931F93CF93DF93CDB7DEB76497BF
S11340300FB6F894DEBF0FBECDBF7C01CB01BA0131
S11340408E010F5F1F4F22E044E0CED4FC010190AB
S11340500020E9F73197AF01481B590BBC01C70198
S11340602DDF64960FB6F894DEBF0FBECDBFDF918F
S1134070CF911F910F91FF90EF900895EF92FF92CF
S11340800F931F93CF93DF93CDB7DEB764970FB62B
S1134090F894DEBF0FBECDBF7C01CB01BA018E0107
S11340A00F5F1F4F22E044E09FD4FC0101900020E9
S11340B0E9F73197AF01481B590BBC01C701FEDE7C
S11340C064960FB6F894DEBF0FBECDBFDF91CF91DB
S11340D01F910F91FF90EF900895CF93DF93EC0120
S11340E0FB014481558160817181E8DE811102C048
S11340F0CE010FDECE01DF91CF910895CF93DF93F0
S1134100EC016115710559F0FB0101900020E9F7FC
S11341103197AF01461B570BD1DE811102C0CE018E
S1134120F8DDCE01DF91CF910895CF93DF93EC01B9
S1134130F1DE811102C0CE01ECDDCE01DF91CF9121
S11341400895CF93DF93EC010EDF811102C0CE01FD
S1134150E0DDCE01DF91CF910895CF93DF93EC01A1
S113416030DF811102C0CE01D4DDCE01DF91CF91C9
S11341700895CF93DF93EC0152DF811102C0CE0189
S1134180C8DDCE01DF91CF910895CF93DF93EC0189
S113419075DF811102C0CE01BCDDCE01DF91CF916C
S11341A00895FC011382128282EB95E0918380834F
S11341B0648341872287138608951F93CF93DF93E7
S11341C0EC01162F6C8189ED97E0E0D16B85612BB2
S11341D089ED97E08ED189ED97E0DF91CF911F9122
S11341E0F1C128E0FC01238760E0E7CF0F931F9320
S11341F0CF938C01C62F6460E0DF81E090E059DC4E
S11342006C2F6B7FC801D9DF82E390E0CF911F91BF
S11342100F914FCC1F93CF93DF93EC01162FCDDF7B
S1134220612FCE01DF91CF911F91E0CF0F931F93A8
S1134230CF93DF938C01C62FD42F607F642BEADFEA
S113424080E1C89FB00111246D2BC801DF91CF918B
S11342501F910F91DFCF40E0E9CF61E0FCDF80EDFB
S113426097E027CC62E0F7DF80ED97E022CCCF9394
S1134270DF93CDB7DEB728970FB6F894DEBF0FBE35
S1134280CDBF9C0188E0EAE1F2E0DE0111960190E5
S11342900D928A95E1F7F9018085841710F44FEFA8
S11342A0480FFE013196E40FF11DE40FF11D9081DA
S11342B0690F6068C90128960FB6F894DEBF0FBE77
S11342C0CDBFDF91CF91C7CFFC016681262F24603B
S11342D026836C60C0CFEF92FF920F931F93CF930E
S11342E0DF938C017A01677088E0689FB001112424
S11342F06064C801B0DFE701A8E0EA0EF11C69912F
S1134300D801ED91FC910190F081E02DC80119953F
S1134310CE15DF05A1F7DF91CF911F910F91FF908B
S1134320EF90089541E082DF81E090E00895CF931B
S1134330DF93EC01423018F08D8188608D834887CB
S1134340222329F0413019F48D8184608D8362E346
S113435070E080E090E074DB6B85CE012EDF68EEC8
S113436073E080E090E06CDB60E3CE0153DF84E92E
S113437091E19FDB60E3CE014DDF84E991E199DBBC
S113438060E3CE0147DF86E990E093DB60E2CE0193
S113439041DF6D816062CE015EDF84E08E83CE01F9
S11343A093DFCE015ADF82E08F8366E0CE0153DFD4
S11343B0CE01DF91CF9156CFCF93DF93EC0189EDFE
S11343C097E0D5D01D8220E04A856985CE01DF9132
S11343D0CF91ADCFF1CF80910D0890E020910E08E0
S11343E0821B9109089590910E0880910D089817E9
S11343F050F4E92FF0E0E15FF74F208130E09F5F58
S113440090930E0802C02FEF3FEFC9010895E09189
S11344100E0880910D08E81730F4F0E0E15FF74FE3
S1134420808190E008958FEF9FEF08950895CF93D2
S1134430DF93EC01E091E507F091E6073097F1F0A6
S113444090910E0880910D089817C0F090E0292FE4
S113445030E02617370754F4DE01A20FB31F4C9146
S1134460D901A15FB74F4C939F5FF1CF10920E0813
S113447060930D08CB01DF91CF911994DF91CF9117
S11344800895E091E707F091E807309729F010923A
S1134490EB071092EA0719940895CF92DF92EF92F6
S11344A0FF920F931F93CF93DF937C01CB018A017B
S11344B02091E907222389F0EB016B01C40ED51E7C
S11344C0CC15DD0561F06991D701ED91FC91019066
S11344D0F081E02DC7011995F3CF642FEBD0C8010B
S11344E0DF91CF911F910F91FF90EF90DF90CF90CC
S11344F00895CF93DF931F92CDB7DEB769832091E0
S1134500E9072223D1F02091EA07203240F021E08C
S113451030E0FC013383228380E090E014C080917A
S1134520EB07E82FF0E0E451F84F998190838F5F17
S11345308093EB078093EA0704C061E0CE01019603
S1134540B9D081E090E00F90DF91CF910895FC0104
S11345501382128288EE93E0A0E0B0E08483958316
S1134560A683B7838EEB95E09183808308951092A0
S11345700E0810920D081092EB071092EA0728D04B
S113458081E492E2C4D087E192E2BCC081E08093EE
S1134590E90760930C081092EB071092EA0708955C
S11345A00F93062F21E04091EA076CEE77E08091AB
S11345B00C082AD01092EB071092EA071092E90730
S11345C00F91089561E0ECCF89ED97E0C0CF089595
S11345D010929C0881E080939A081092990861E0F7
S11345E084E165DB61E085E162DBE9EBF0E0808199
S11345F08E7F808380818D7F808388E48093B80060
S113460085E48093BC0008950F93413208F04AC0BA
S113461090919C089111FCCF32E030939C08009358
S11346209A083FEF30932F08109274084093730850
S1134630562FA5E7B8E0FB013E2F351B341718F4BD
S113464031913D93F9CF10929B0830919B08880FCC
S1134650832B80939B0880919908813061F4109298
S1134660990880919B088093BB008091BC0083FDD6
S1134670F8CF85EC01C085EE8093BC00222321F0A5
S113468080919C088230D1F380912F088F3F79F07C
S113469080912F08803241F080912F08803331F0CF
S11346A094E005C091E003C092E001C093E0892F3B
S11346B00F91089540915108262F30E0240F311DA9
S11346C021323105DCF420919C082430C9F4FC012A
S11346D080E090E0861758F4309151082191DC0174
S11346E0AD5AB74FA30FB11D2C930196F3CF809110
S11346F05108680F6093510880E0089581E008959F
S113470082E0089590939608809395080895909375
S1134710980880939708089585ED8093BC00809154
S1134720BC0084FDFCCF10929C08089585EC809316
S1134730BC0010929C0808951F920F920FB60F921E
S113474011240BB60F922F933F934F935F936F9364
S11347507F938F939F93AF93BF93EF93FF93809136
S1134760B900887F803609F49DC070F5883209F459
S11347705CC090F4803109F455C038F4882309F4FE
S1134780F3C0883009F44EC0F2C0883109F44DC03A
S1134790803209F45EC0EBC0803409F469C050F47F
S11347A0803309F456C0883309F0E1C080932F08A0
S11347B0BDDFDDC0803509F44FC0883509F45DC024
S11347C0883409F0D4C0D2C0883909F4C3C0A8F42D
S11347D0883709F467C038F4883609F463C0803731
S11347E009F460C0C4C0883809F4B4C0803909F43D
S11347F05FC0803809F0BBC05BC0803B09F482C055
S113480038F4803A09F466C0883A09F47BC0AFC032
S1134810803C09F4A3C0883C09F4A0C0883B09F497
S113482086C0A5C080919B0810C0909174088091A7
S11348307308981770F5E091740881E08E0F8093E7
S11348407408F0E0EB58F74F80818093BB0085EC4F
S113485082C080932F088AC0E091740881E08E0F93
S1134860809374088091BB00F0E0EB58F74F80838D
S113487090917408809173086AC0E091740881E093
S11348808E0F809374088091BB00F0E0EB58F74FD3
S1134890808380919A08811169C081E0809399088E
S11348A084EA5DC083E080939C0810923008CFCFE7
S11348B080913008803208F04DC0E091300881E0EA
S11348C08E0F809330088091BB00F0E0EF5CF74FCF
S11348D08083BDCF2BDF80913008803230F4E091AB
S11348E03008F0E0EF5CF74F10826091300870E020
S11348F0E0919508F091960881E398E0199510925B
S1134900300835C084E080939C08109252081092BD
S11349105108E0919708F0919808199580915108F1
S1134920811105C081E08093510810925308E091F1
S1134930520881E08E0F80935208F0E0ED5AF74F51
S113494080818093BB009091520880915108981700
S113495008F47DCF85E88093BC0009C085EC809382
S1134960BC0010929C0803C010922F08D5DEFF9162
S1134970EF91BF91AF919F918F917F916F915F91D3
S11349804F913F912F910F900BBE0F900FBE0F9040
S11349901F901895A1E21A2EAA1BBB1BFD010DC086
S11349A0AA1FBB1FEE1FFF1FA217B307E407F507DB
S11349B020F0A21BB30BE40BF50B661F771F881FB7
S11349C0991F1A9469F760957095809590959B014D
S11349D0AC01BD01CF010895EE0FFF1F881F8BBFEF
S11349E00790F691E02D1994EF920F931F93CF93B4
S11349F0DF93E80147FD02C034E001C034E1042E36
S1134A00000C550B57FF03C0519541955109E32EF6
S1134A10022F242FAE0191D4CE01DF91CF911F91AB
S1134A200F91EF9008950F931F93CF93DF938230EC
S1134A30910510F482E090E0E0919F08F091A008C5
S1134A4020E030E0A0E0B0E0309719F140815181DE
S1134A500281138148175907C8F08417950769F430
S1134A60109731F012960C93129713961C9327C04B
S1134A7000939F081093A00822C02115310519F056
S1134A804217530718F49A01BD01EF01DF01F80141
S1134A90DBCF21153105F9F0281B390B2430310502
S1134AA080F48A819B816115710521F0FB01938358
S1134AB0828304C09093A00880939F08FE013296DD
S1134AC044C0FE01E20FF31F8193919322503109F8
S1134AD0398328833AC020919D0830919E08232B66
S1134AE041F4209102023091030230939E082093F6
S1134AF09D0820910002309101022115310541F4F5
S1134B002DB73EB74091040250910502241B350B8A
S1134B10E0919D08F0919E08E217F307A0F42E1B84
S1134B203F0B2817390778F0AC014E5F5F4F24170D
S1134B30350748F04E0F5F1F50939E0840939D0821
S1134B408193919302C0E0E0F0E0CF01DF91CF9137
S1134B501F910F910895CF93DF93009709F481C0BB
S1134B60FC01329713821282A0919F08B091A00891
S1134B70109781F420813181820F931F20919D0829
S1134B8030919E082817390751F5F0939E08E09359
S1134B909D0867C0ED0120E030E0CE17DF0740F448
S1134BA04A815B819E0141155105F1F0EA01F5CF7F
S1134BB0D383C28340815181840F951FC817D907BD
S1134BC059F488819981840F951F0296918380837B
S1134BD08A819B81938382832115310529F4F09383
S1134BE0A008E0939F083DC0E901FB83EA83499153
S1134BF05991C40FD51FEC17FD0761F48081918191
S1134C00840F951F0296E901998388838281938199
S1134C109B838A83E0E0F0E012968D919C91139738
S1134C20009719F0FD01DC01F7CF8D919C9111974C
S1134C309D012E5F3F4F820F931F20919D0830915D
S1134C409E082817390769F4309729F41092A008B0
S1134C5010929F0802C013821282B0939E08A09300
S1134C609D08DF91CF9108956F927F928F929F92CA
S1134C70AF92BF92CF92DF92EF92FF920F931F9366
S1134C80CF93DF93009781F4CB01DF91CF911F91F4
S1134C900F91FF90EF90DF90CF90BF90AF909F90D7
S1134CA08F907F906F90BFCEFC01E60FF71F9C01A1
S1134CB022503109E217F30708F4A5C0EC01D90129
S1134CC00D911C91119706171707A8F005301105CF
S1134CD008F497C0C80104978617970708F491C091
S1134CE002501109061B170B019311936D937C93CA
S1134CF0CF0131DF86C05B01A01AB10A4C01800EDE
S1134D00911EA0919F08B091A008612C712CE12CF8
S1134D10F12C109709F446C08D919C911197A81518
S1134D20B905B1F56C0142E0C40ED11CCA14DB0410
S1134D3078F14C018A189B08640142E0C40ED11C2E
S1134D401296BC9012971396AC91B5E0CB16D10491
S1134D5040F0B282A38391828082D9016D937C93C7
S1134D6009C00E5F1F4F800F911FF901918380834B
S1134D70EB2DFA2FE114F10431F0D7011396FC93D3
S1134D80EE9312973EC0F093A008E0939F0839C0B9
S1134D906816790608F43C017D0112960D90BC91C9
S1134DA0A02DB7CF80919D0890919E0888169906F2
S1134DB0E1F466167706C8F480910002909101022E
S1134DC0009741F48DB79EB74091040250910502BB
S1134DD0841B950BE817F907B0F4F0939E08E09351
S1134DE09D08F901718360830CC0CB011CDE7C013A
S1134DF0009749F0A801BE0117D0CE01ACDEC7016F
S1134E0004C0CE0102C080E090E0DF91CF911F91F9
S1134E100F91FF90EF90DF90CF90BF90AF909F9055
S1134E208F907F906F900895FB01DC0102C0019088
S1134E300D9241505040D8F70895FB01DC010190D8
S1134E400D920020E1F70895BB274A3031F49923ED
S1134E5022F4BDE2909581959F4F2CC025323105F7
S1134E6018F4223008F004C0FA011082CA0108952F
S1134E70BB27FA01A62F6217710581059105330B33
S1134E8030FB66F0AA27660F771F881F991FAA1F99
S1134E90A21710F0A21B63953850A9F7A05DAA339E
S1134EA008F0A95DA19336F7B111B1931082CA013C
S1134EB0A8C4BB27FB015527AA27880F991FAA1F3F
S1134EC0A41710F0A41B83955051B9F7A05DAA3321
S1134ED008F0A95DA193009779F7B111B1931192EC
S1134EE0CB018FC40F931F93CF93DF93CDB7DEB75E
S1134EF02E970FB6F894DEBF0FBECDBF0E891F8963
S1134F0086E08C831A8309838FEF9FE79E838D83CA
S1134F10AE01465E5F4F688D798DCE01019610D04B
S1134F20EF81F885E00FF11F10822E960FB6F894EA
S1134F30DEBF0FBECDBFDF91CF911F910F910895BA
S1134F402F923F924F925F926F927F928F929F9295
S1134F50AF92BF92CF92DF92EF92FF920F931F9383
S1134F60CF93DF93CDB7DEB72B970FB6F894DEBFA0
S1134F700FBECDBF6C017B018A01FC011782168232
S1134F80838181FFBFC1CE0101963C01F60193816B
S1134F90F70193FD859193FF81917F01882309F4A3
S1134FA0ADC1853239F493FD859193FF81917F01E1
S1134FB0853221F4B60190E034D4E8CF912C212C31
S1134FC0312CFFE1F315D8F08B3279F038F48032CC
S1134FD079F08332A1F4232D20611DC08D3261F05C
S1134FE0803369F4232D216016C0832D8260382E0E
S1134FF0E32DE4603E2E2AC0F32DF8601DC037FC7B
S11350002DC020ED280F2A3040F08E32B9F436FC42
S113501075C1232D2064322E19C036FE06C08AE0E5
S1135020989E200D1124922E11C0EAE02E9E200D90
S11350301124222EF32DF0623F2E08C08C3621F469
S1135040832D8068382E02C0883641F4F70193FD21
S1135050859193FF81917F018111B3CF982F9F7D1B
S11350609554933028F40C5F1F4F9FE399830DC030
S1135070833631F0833771F0833509F055C020C091
S1135080F801808189830E5F1F4F88248394912CBB
S1135090530112C02801F2E04F0E511CF801A08008
S11350A0B18036FE03C0692D70E002C06FEF7FEF60
S11350B0C5019CD34C018201F32DFF773F2E15C00F
S11350C0280122E0420E511CF801A080B18036FE76
S11350D003C0692D70E002C06FEF7FEFC5017BD381
S11350E04C01F32DF0683F2E820133FC19C0822D50
S11350F090E088169906A0F4B60180E290E091D37E
S11351002A94F5CFF50137FC859137FE81915F0133
S1135110B60190E086D321102A9421E0821A9108E6
S11351208114910479F7E1C0843611F0893639F598
S1135130F80137FE07C060817181828193810C5F21
S11351401F4F08C060817181072E000C880B990BDA
S11351500E5F1F4FF32DFF763F2E97FF09C09095EA
S11351608095709561957F4F8F4F9F4FF0683F2ECC
S11351702AE030E0A30191D3882E861844C08537F5
S113518031F4232D2F7EB22E2AE030E025C0932D5A
S1135190997FB92E8F36C1F018F4883579F0AEC0F6
S11351A0803719F0883721F0A9C0E92FE061BE2EBD
S11351B0B4FE0DC0FB2DF460BF2E09C034FE0AC03E
S11351C0292F2660B22E06C028E030E005C020E179
S11351D030E002C020E132E0F801B7FE07C0608190
S11351E07181828193810C5F1F4F06C06081718140
S11351F080E090E00E5F1F4FA3014FD3882E8618E6
S1135200FB2DFF773F2E36FE0DC0232D2E7FA22EC1
S1135210891458F434FE0BC032FC09C0832D8E7EF1
S1135220A82E05C0B82CA32C03C0B82C01C0B92CDF
S1135230A4FE0FC0FE01E80DF11D8081803321F42E
S11352409A2D997EA92E09C0A2FE06C0B394B394E8
S113525004C08A2D867809F0B394A3FC10C0A0FE84
S113526006C0B21480F4280C922C9B180DC0B21402
S113527058F4B60180E290E0D4D2B394F8CFB214DB
S113528018F42B1802C0982C212CA4FE0FC0B601D0
S113529080E390E0C6D2A2FE16C0A1FC03C088E75A
S11352A090E002C088E590E0B6010CC08A2D8678B3
S11352B051F0A1FE02C08BE201C080E2A7FC8DE2A6
S11352C0B60190E0AED2891430F4B60180E390E0E8
S11352D0A8D29A94F8CF8A94F301E80DF11D808145
S11352E0B60190E09ED28110F6CF222009F44ECE72
S11352F0B60180E290E095D22A94F7CFF601868138
S1135300978102C08FEF9FEF2B960FB6F894DEBF04
S11353100FBECDBFDF91CF911F910F91FF90EF9002
S1135320DF90CF90BF90AF909F908F907F906F90C1
S11353305F904F903F902F9008958F929F92AF92DD
S1135340BF92CF92DF92EF92FF920F931F93CF936E
S1135350DF93CDB7DEB729970FB6F894DEBF0FBE43
S1135360CDBF6A01122FB02E2BE3201720F0FF24AB
S1135370F394F00E02C02CE3F22E0F2D27E0AE01C1
S11353804F5F5F4F50D1BC014981842F89708130B8
S113539031F0E1FC06C0E0FE06C090E205C09DE2EB
S11353A003C09BE201C090E05E2D507143FF3CC0FE
S11353B0911102C083E001C084E0811718F4212F09
S11353C0281B01C020E051110BC0F601822F30E2EE
S11353D0882319F031938150FBCFC20ED11C20E0F9
S11353E0992329F0D6019C93F60131966F01C601E9
S11353F00396E2FE0AC03EE4D6013C9341E41196D2
S11354004C93119712963C9306C03EE6F601308306
S113541041E641833283FC01322F40E2332309F415
S113542042C041933150FACF42FF44C0911102C0AF
S113543083E001C084E0811718F4212F281B01C0E8
S113544020E051110BC0F601822F30E2882319F0BD
S113545031938150FBCFC20ED11C20E0992329F057
S1135460D6019C93F60131966F01C6010396E2FEC4
S11354700BC039E4D6013C933EE411963C9311975A
S113548036E412963C9307C039E6F60130833EE6D3
S1135490318336E63283FC01322F40E2332319F0A4
S11354A041933150FBCFFC01E20FF11D10828EEFCE
S11354B09FEFA6C021E030E0911102C020E030E06F
S11354C0161617061CF4FB01319602C0E1E0F0E069
S11354D02E0F3F1FBB2021F0EB2DF0E0319602C0D0
S11354E0E0E0F0E02E0F3F1FE12FF0E02E173F0722
S11354F01CF4121B212F01C020E08E2D887159F459
S1135500F601822F30E2882319F031938150FBCFCA
S1135510C20ED11C20E0992329F0D6019C93F601F8
S113552031966F0151110BC0F601822F90E388234D
S113553019F091938150FBCFC20ED11C20E00F2DA6
S1135540060F9A81342F307144FF03C0913309F45C
S11355500150101624F4093018F008E001C001E0ED
S1135560AB0177FF02C040E050E0FB01E41BF50B08
S1135570A1E0B0E0AC0FBD1FEA0FFB1F8EE2A82E26
S11355804B01801A91080B2D10E01195019511091A
S11355904F3FBFEF5B0721F4D601AC9211966D012A
S11355A0641775072CF08416950614F4818101C0E4
S11355B080E3415051093196D60111967D0140177F
S11355C0510724F0D6018C936701E2CF6417750765
S11355D039F4963320F4953319F4311101C081E381
S11355E0F6018083F701822F90E2882319F09193CA
S11355F08150FBCFF701E20FF11D108280E090E0B3
S113560029960FB6F894DEBF0FBECDBFDF91CF91C0
S11356101F910F91FF90EF90DF90CF90BF90AF90CC
S11356209F908F900895283008F027E03327DA01FF
S1135630990F311D87FD916000966105710539F45C
S113564032602E5F3D9330E32A95E1F708959F3F42
S113565030F080387105610509F03C5F3C5F3D9393
S1135660913008F08068911DDF93CF931F930F93BF
S1135670FF92EF92192F987F9695E92F969596951C
S1135680E90FFF27EE5FFD4F99273327EE24FF2410
S1135690A701E70105900894079428F4360FE71E44
S11356A0F81E491F511D660F771F881F991F069406
S11356B0A1F70590079428F4E70EF81E491F561F1A
S11356C0C11D770F881F991F661F0694A1F70590C7
S11356D0079428F4F80E491F561FC71FD11D880FC1
S11356E0991F661F771F0694A1F70590079420F46D
S11356F0490F561FC71FD81F990F661F771F881F92
S11357000694A9F784911095177041F0D695C79522
S113571057954795F794E7941A95C1F7E8EAF1E0AD
S113572068941590159135916591959105907FE256
S11357307395E118F10A430B560BC90BD009C0F756
S1135740E10CF11E431F561FC91FD01D7EF4703398
S113575011F48A95E6CFE894015030F0080F0AF46A
S11357600027021708F4202F2395022F7A3328F0FC
S113577079E37D932A95E9F710C07D932A9589F6FC
S1135780069497956795379517951794E118F10A3C
S1135790430B560BC90BD00998F023957E91739552
S11357A07A3308F070E37C932013B8F77E9170612C
S11357B07D9330F0839571E37D9370E32A95E1F74F
S11357C01124EF90FF900F911F91CF91DF919927B2
S11357D087FD90950895FC0105906150704001107B
S11357E0D8F7809590958E0F9F1F0895FC01615006
S11357F0704001900110D8F7809590958E0F9F1FEF
S11358000895DC01FC01672F71917723E1F732974A
S113581004C07C916D9370836291AE17BF07C8F387
S113582008950F931F93CF93DF93FB01238121FDF1
S113583003C08FEF9FEF2CC022FF16C04681578113
S1135840248135814217530744F4A081B1819D011D
S11358502F5F3F4F318320838C93268137812F5FC5
S11358603F4F3783268314C08B01EC01FB01008476
S1135870F185E02D1995892BE1F6D80116968D91C5
S11358809C911797019617969C938E931697CE0129
S1135890DF91CF911F910F910895FA01AA27283023
S11358A051F1203181F1E8946F936E7F6E5F7F4FE9
S11358B08F4F9F4FAF4FB1E03ED0B4E03CD0670F65
S11358C0781F891F9A1FA11D680F791F8A1F911DB8
S11358D0A11D6A0F711D811D911DA11D20D009F408
S11358E068943F912AE0269F11243019305D31934A
S11358F0DEF6CF010895462F4770405D4193B3E033
S11359000FD0C9F7F6CF462F4F70405D4A3318F0D9
S1135910495D31FD4052419302D0A9F7EACFB4E08A
S1135920A6959795879577956795BA95C9F7009742
S11359306105710508959B01AC010A2E06945795E3
S1135940479537952795BA95C9F7620F731F841F3A
S10D5950951FA01D0895F894FFCFE1
S113595A0000A10820001001DC0504040404150E4B
S113596A0400040E1504040404000000400014009A
S113597A54006D6F7665537065656428200020298C
S113598A0063616C63756C617465416E676C657301
S113599A282000416E676C6573204E6F773A2000A9
S11359AA416E676C6573204469663A2000526174DB
S11359BA696F206F6620416E676C65733A20002F09
S11359CA002525256464002C002323205072696E67
S11359DA74204275666665722053746172743A2043
S11359EA002023232323232323232323232323239F
S11359FA23232323232300417661696C61626C6546
S1135A0A3A20002C205265616420446174613A2072
S1135A1A002323205072696E74204275666665728B
S1135A2A20456E6420232323232323232323232390
S1135A3A232323232323232323230049443A002C07
S1135A4A204D73674C656774683A002C204572725E
S1135A5A6F723A002C20506F73693A002C205370ED
S1135A6A65643A002C204C6F61643A002C204D7313
S1135A7A67436865636B53756D3A002C2043616C08
S1135A8A436865636B53756D3A002B004D00410002
S1135A9A2E2053746F7070696E6720536572766F27
S1135AAA203120616E6420320061726D2E6D6F7632
S1135ABA6553706565642820342C200061726D2E4C
S1135ACA6D6F766553706565642820352C20005304
S1135ADA657420416E676C65204C696D6974730046
S1135AEA4F4B0053657420537065656473005365A6
S1135AFA7420546F727175657300557064617465AE
S1135B0A20416E676C65732053332D352000494458
S1135B1A23006D413A00616E3A0073703A006C6476
S1135B2A3A00536572766F2000202323232323230C
S1135B3A2323232323232323232323232323232327
S1135B4A2323232323232323232323232323232317
S1135B5A00576865656C204D6F6465004D756C74FB
S1135B6A692D7475726E204D6F6465004A6F696E93
S1135B7A74204D6F64650057726F6E67204D6F64B1
S1135B8A65212121002E2020202020435720416E08
S1135B9A676C65204C696D69743A2000203D3E208B
S1135BAA00C2B0002E2020202043435720416E67B4
S1135BBA6C65204C696D69743A20002E20202020DF
S1135BCA2020202020536572766F204D6F64653A39
S1135BDA20002E202020204D61782054656D702EDF
S1135BEA204C696D69743A2000C2B043002E20200B
S1135BFA2020204D696E20566F6C74204C696D69A3
S1135C0A743A200056002E20202020204D6178204E
S1135C1A566F6C74204C696D69743A20002E2020EA
S1135C2A202020202020204D617820546F72717525
S1135C3A653A200025002E20204D756C74692D7458
S1135C4A75726E204F66667365743A20002E205270
S1135C5A65736F6C7574696F6E20446976696465DF
S1135C6A723A20002D2D2D2D2D2D2D2D2D2D2D2D3E
S1135C7A2D2D2D2D2D2D2D2D2D2D2D2D2D2D2D2D46
S1135C8A2D2D2D2D2D2D2D2D2D2D2D2D2D2D2D2D36
S1135C9A2D2D002E20202050726573656E742050BD
S1135CAA6F736974696F6E3A2000203A20002323C7
S1135CBA23232323232323232323232323232323A6
S1135CCA2323232323232323232323232323232396
S1135CDA2323232323232323232323230000000012
