:100000000AC1000038C1000036C1000034C1000040
:1000100032C1000030C100002EC100002CC1000020
:100020002AC1000028C1000026C1000024C1000030
:1000300022C1000020C100001EC100001CC1000040
:100040001AC1000018C1000016C1000014C1000050
:1000500012C1000010C100000EC100000C94CC09B8
:100060000AC1000079C70000ADC7000004C100004C
:1000700002C1000000C10000FEC00000FCC0000082
:10008000FAC00000F8C00000F6C00000F4C0000094
:10009000F8C700000C947708EEC000000C94500ED6
:1000A000EAC00000E8C00000E6C00000E4C00000B4
:1000B000E2C00000E0C00000DEC00000DCC00000C4
:1000C000DAC00000D8C00000D6C00000D4C00000D4
:1000D000D2C00000D0C00000CEC00000CCC00000E4
:1000E000CAC00000070B0A0BF90AFD0A030B410BFB
:1000F0000E0B120B180B1C0B200B260B2A0B2E0BB6
:10010000410B340B380B3C0B00000A0B02090C0DA1
:100110000E080703040100000000000000000000BA
:1001200000000000000000000000000000000000CF
:10013000000000001211100000000000000000008C
:1001400000000000000000000000000000000102AC
:1001500010202008081020401020408002010201D9
:100160000804020101020408102040808040201091
:1001700008040201800402018040201008040201EA
:100180000804020101020408102040800102040852
:10019000102040800505050507050808080802022B
:1001A00002020A0A08080404040401010101010111
:1001B00001010303030303030303040707070C0CF4
:1001C0000C0C0C0C0C0C02020202060606060606BB
:1001D00006060B0B0B0B0B0B0B0B00002200250074
:1001E00028002B002E003100340002010000050120
:1001F00008010B0100002100240027002A002D0027
:100200003000330001010000040107010A01500120
:100210001408A908980D11241FBECFEFD1E2DEBF4C
:10022000CDBF00E00CBF12E0A0E0B2E0E4E5FFE1EA
:1002300000E00BBF02C007900D92A839B107D9F7B3
:1002400024E0A8E9B2E001C01D92A33BB207E1F7A8
:1002500011E0CBE0D1E000E006C021970109802F3A
:10026000FE010E94A00FC730D10780E00807A9F760
:100270009ED70C94A80FC4CEDC01ED91FC910190A7
:10028000F081E02D1994382FFC0180E090E02E2FB2
:10029000231B261720F42191820F911DF8CF08957A
:1002A0000E94160A6093A8027093A9028093AA0282
:1002B0009093AB0224E044E167E288E992E00C9479
:1002C000AC0BCF92DF92EF92FF920F931F93CF93DD
:1002D000DF93F82EE62E6A01022F66E06E0DD62F10
:1002E000D20F622FCA01CFDFC82F61E082E00E94E7
:1002F0007E0B61E083E00E947E0B61E070E080E0B5
:1003000090E00E94470A6FEF70E089E493E0B4DF69
:100310006FEF70E089E493E0AFDF6F2D89E493E045
:1003200045D510E0B8016D5F7F4F89E493E0A4DF0D
:1003300063E070E089E493E09FDF6E2D89E493E051
:1003400035D5A801B60189E493E03BD7DF0DCD0F89
:10035000C0956C2F70E089E493E08EDF89E493E030
:1003600071D560E082E00E947E0B60E083E00E9435
:100370007E0B61E070E080E090E0DF91CF911F9113
:100380000F91FF90EF90DF90CF900C94470ACF939E
:10039000DF9300D01F92CDB7DEB769837A834B839A
:1003A0005C8324E0AE014F5F5F4F6EE18ADF0F9008
:1003B0000F900F900F90DF91CF9108951F93CF93DF
:1003C000DF93C82FD62F142F61E082E00E947E0BAE
:1003D00061E083E00E947E0B61E070E080E090E0ED
:1003E0000E94470A6FEF70E089E493E045DF6FEF0A
:1003F00070E089E493E040DF6C2F89E493E0D6D489
:1004000064E070E089E493E037DF62E070E089E463
:1004100093E032DF6D2F89E493E0C8D4612F89E443
:1004200093E0C4D41A5FD10FCD0FC0956C2F70E04C
:1004300089E493E021DF89E493E004D560E082E081
:100440000E947E0B60E083E00E947E0B61E070E022
:1004500080E090E0DF91CF911F910C94470A1F93A9
:10046000CF93DF93182FD42F611102C0C52F02C084
:10047000C4E0C50F61E082E00E947E0B61E083E092
:100480000E947E0B61E070E080E090E00E94470AED
:100490006FEF70E089E493E0EFDE6FEF70E089E4E6
:1004A00093E0EADE612F89E493E080D465E070E0B8
:1004B00089E493E0E1DE63E070E089E493E0DCDE70
:1004C00060E270E089E493E0D7DE6D2F89E493E089
:1004D0006DD46C2F89E493E069D4185DC10FCD0F02
:1004E0006C2F609589E493E061D489E493E0AAD409
:1004F00060E082E00E947E0B60E083E00E947E0B61
:1005000061E070E080E090E0DF91CF911F91BFC784
:10051000CF93C82F662309F439C061E082E00E94BE
:100520007E0B61E083E00E947E0B61E070E080E082
:1005300090E0ADD76FEF70E089E493E09DDE6FEF60
:1005400070E089E493E098DE6C2F89E493E02ED488
:1005500065E070E089E493E08FDE63E070E089E4B9
:1005600093E08ADE68E070E089E493E085DE60E095
:1005700089E493E01BD460E089E493E017D460E160
:100580006C0F609589E493E011D43FC040E050E0E7
:1005900060E065DF61E082E00E947E0B61E083E065
:1005A0000E947E0B61E070E080E090E070D76FEF1A
:1005B00070E089E493E060DE6FEF70E089E493E03F
:1005C0005BDE6C2F89E493E0F1D365E070E089E4B1
:1005D00093E052DE63E070E089E493E04DDE68E092
:1005E00070E089E493E048DE6FEF70E089E493E027
:1005F00043DE63E070E089E493E03EDECE5EC095CA
:100600006C2F70E089E493E037DE89E493E01AD43C
:1006100060E082E00E947E0B60E083E00E947E0B3F
:1006200061E070E080E090E0CF9131C7FF920F93DE
:100630001F93CF93DF93F82E8B01C72FDD27C7FDC4
:10064000DA9561E082E00E947E0B61E083E00E9427
:100650007E0B61E070E080E090E019D76FEF70E012
:1006600089E493E009DE6FEF70E089E493E004DE53
:100670006F2D89E493E09AD365E070E089E493E01C
:10068000FBDD63E070E089E493E0F6DD6EE070E0AE
:1006900089E493E0F1DDB801772789E493E0ECDDAC
:1006A000BE01772789E493E0E7DD66E16F0D060F71
:1006B000C00FC0956C2F70E089E493E0DDDD89E424
:1006C00093E0C0D360E082E00E947E0B60E083E0B4
:1006D0000E947E0B61E070E080E090E0DF91CF91BE
:1006E0001F910F91FF90D3C688E992E00E949E0C63
:1006F00088E992E00E949E0C88E992E00E94CC0B6F
:1007000088E992E00E94080C61E082E0BBD761E0DA
:1007100083E0B8D726E040E051EE60E070E08CEA7C
:1007200092E0B1D326E047E35FED60E070E089E45A
:1007300093E0A9D389E493E085D3809102029CEFF2
:10074000980F9230A0F42091000230910102243ED3
:1007500092E0390714F424EE32E0253A96E03907A6
:1007600014F024EA36E0309301022093000260E0A6
:10077000CFDE6FEF73E08091020258DF60910002DC
:10078000709101024CED55E08091020200DE40E0E4
:1007900060E088E992E00E94120C61E272E088E970
:1007A00092E04ED541E060E088E992E00E94120CB0
:1007B00066E272E088E992E043D542E060E088E9D1
:1007C00092E00E94120C6BE272E088E992E038D568
:1007D00043E060E088E992E00E94120C60E372E07E
:1007E00088E992E02DD562E070E080E090E04FC6AD
:1007F000BF92CF92DF92EF92FF920F931F93CF930E
:10080000DF936AE070E080E090E041D689E493E015
:1008100033D2181619060CF0F3C089E493E046D2DF
:100820008F3F910509F0ECC089E493E03FD28F3F00
:10083000910509F0E5C089E493E038D2B82E89E447
:1008400093E034D289E493E031D289E493E02ED26C
:10085000EC0189E493E02AD22FEFAC01249FC00180
:10086000259F900D11247C01EC0EFD1E2091A60207
:100870003091A7028091A4029091A502E216F3069E
:100880000CF401969093A5028093A402F092A70223
:10089000E092A60289E493E009D28C0189E493E016
:1008A00005D2DFEF9C01D29FC001D39F900D112490
:1008B000080F191F89E493E0F9D16C0189E493E0F2
:1008C000F5D1AC01D49FC001D59F900D1124EC014E
:1008D000CC0DDD1D011554E0150724F01450CC2477
:1008E000C39401C0C12CC11584E0D80724F0D450B2
:1008F000DD24D39401C0D12C89E493E0BDD1181636
:10090000190624F489E493E0D1D1F6CF40E064E005
:1009100088E992E087D74AE050E06B2D88E992E0C1
:10092000EAD460E572E088E992E08AD441E064E0CC
:1009300088E992E077D74AE050E0B70188E992E091
:1009400025D52AE0E216F1043CF034E6E316F10482
:1009500034F46FE472E005C060E572E002C06EE45A
:1009600072E088E992E06CD442E064E088E992E0C9
:1009700059D7B801110F880B990B8FD02EEA37E4A5
:1009800041EE5DE3EED056D04AE050E088E992E0D7
:10099000FDD4C11003C069E572E002C063E572E0F6
:1009A00088E992E04DD443E064E088E992E03AD7E8
:1009B000BE01DD0F880B990B70D02EE53BE448ECAF
:1009C0005DE3CFD037D04AE050E088E992E0DED452
:1009D000D11003C069E572E002C060E672E088E908
:1009E00092E02ED461E070E080E090E0DF91CF9162
:1009F0001F910F91FF90EF90DF90CF90BF9047C570
:100A0000DF91CF911F910F91FF90EF90DF90CF90EA
:100A1000BF90089562E070E080E090E038D546E055
:100A200064E280910202CADCE3DE68EC70E080E000
:100A300090E02DC504D06894B1118DC0089570D098
:100A400088F09F5790F0B92F9927B751A0F0D1F0B7
:100A5000660F771F881F991F1AF0BA95C9F712C041
:100A6000B13081F077D0B1E0089574C0672F782F4E
:100A70008827B85F39F0B93FCCF3869577956795AD
:100A8000B395D9F73EF490958095709561957F4F19
:100A90008F4F9F4F0895E89409C097FB3EF49095BF
:100AA0008095709561957F4F8F4F9F4F9923A9F047
:100AB000F92F96E9BB279395F695879577956795D6
:100AC000B795F111F8CFFAF4BB0F11F460FF1BC01A
:100AD0006F5F7F4F8F4F9F4F16C0882311F096E9AD
:100AE00011C0772321F09EE8872F762F05C066235B
:100AF00071F096E8862F70E060E02AF09A95660F14
:100B0000771F881FDAF7880F9695879597F90895CC
:100B100057FD9058440F551F59F05F3F71F04795AE
:100B2000880F97FB991F61F09F3F79F08795089593
:100B3000121613061406551FF2CF4695F1DF08C0B2
:100B4000161617061806991FF1CF869571056105CF
:100B500008940895E894BB2766277727CB0197F977
:100B600008950BD078C069D028F06ED018F0952386
:100B700009F05AC05FC01124EECFCADFA0F3959FE1
:100B8000D1F3950F50E0551F629FF001729FBB2774
:100B9000F00DB11D639FAA27F00DB11DAA1F649F20
:100BA0006627B00DA11D661F829F2227B00DA11DD3
:100BB000621F739FB00DA11D621F839FA00D611D59
:100BC000221F749F3327A00D611D231F849F600D7A
:100BD000211D822F762F6A2F11249F5750408AF0B3
:100BE000E1F088234AF0EE0FFF1FBB1F661F771F3F
:100BF000881F91505040A9F79E3F510570F014C0D6
:100C0000AACF5F3FECF3983EDCF386957795679526
:100C1000B795F795E7959F5FC1F7FE2B880F911D5C
:100C20009695879597F9089597F99F6780E870E002
:100C300060E008959FEF80EC089500240A94161652
:100C4000170618060906089500240A9412161306BA
:100C5000140605060895092E0394000C11F4882348
:100C600052F0BB0F40F4BF2B11F460FF04C06F5F64
:100C70007F4F8F4F9F4F0895FC01918D228D892FBB
:100C800090E0805C9F4F821B91098F739927089594
:100C9000FC01918D828D981731F0828DE80FF11D46
:100CA000858D90E008958FEF9FEF0895FC01918D61
:100CB000828D981761F0828DDF01A80FB11D5D96BE
:100CC0008C91928D9F5F9F73928F90E008958FEF2C
:100CD0009FEF0895FC01538D448D252F30E0842F24
:100CE00090E0821B930B541710F0CF960895019754
:100CF00008958BE098E0892B39F080E090E0892B13
:100D000019F089D1811124C080EA98E0892B39F04B
:100D100080E090E0892B19F013D281111CC080E093
:100D200090E0892B41F080E090E0892B21F00E9437
:100D30000000811113C080E090E0892BA1F080E0D9
:100D400090E0892B81F00E94000081110AC0089573
:100D50000E940000D9CF0E940000E1CF0E94000055
:100D6000EACF0C9400000895FC01848DDF01A80FE8
:100D7000B11DA35ABF4F2C91848D90E001968F73C3
:100D80009927848FA689B7892C93A089B1898C91E2
:100D9000837080648C93938D848D981306C0028831
:100DA000F389E02D80818F7D80830895EF92FF92FB
:100DB0000F931F93CF93DF93EC0181E0888F9B8D7E
:100DC0008C8D981305C0E889F989808185FD25C03F
:100DD000F62E0B8D10E00F5F1F4F0F731127E02EC3
:100DE0008C8DE8120BC00FB607FCFACFE889F989A1
:100DF000808185FFF5CFCE01B7DFF2CF8B8DFE016D
:100E0000E80FF11DE35AFF4FF0829FB7F8940B8F64
:100E1000EA89FB89808180620AC09FB7F894EE89D5
:100E2000FF896083E889F989808183708064808389
:100E30009FBF81E090E0DF91CF911F910F91FF90D4
:100E4000EF900895CF93DF93EC01888D8823C1F054
:100E5000EA89FB89808185FD05C0A889B9898C91C3
:100E600086FD0EC00FB607FCF5CF808185FFF2CF5F
:100E7000A889B9898C9185FFEDCFCE0175DFE8CFC8
:100E8000DF91CF910895CF92DF92EF92FF921F935F
:100E9000CF93DF93EC016A017B01122FE889F98976
:100EA00082E080834115514E61057105B1F060E02B
:100EB00079E08DE390E0A70196010E947E0FDA01B0
:100EC000C9010197A109B109B695A795979587958D
:100ED0009C01211580E13807A8F0E889F989108282
:100EE00060E874E88EE190E0A70196010E947E0F11
:100EF000DA01C9010197A109B109B695A79597959E
:100F000087959C01EC85FD853083EE85FF852083E8
:100F1000188EEC89FD891083EA89FB8980818061C4
:100F20008083EA89FB89808188608083EA89FB89E4
:100F3000808180688083EA89FB8980818F7D8083BE
:100F4000DF91CF911F91FF90EF90DF90CF900895A8
:100F500080E090E0089508951F920F920FB60F92CF
:100F600011240BB60F922F938F939F93EF93FF93C0
:100F7000E091BC02F091BD028081E091C202F0914B
:100F8000C30282FD12C090818091C5028F5F8F7372
:100F90002091C602821751F0E091C502F0E0E455BD
:100FA000FD4F958F8093C50201C08081FF91EF9125
:100FB0009F918F912F910F900BBE0F900FBE0F90AE
:100FC0001F9018951F920F920FB60F9211240BB617
:100FD0000F922F933F934F935F936F937F938F93D2
:100FE0009F93AF93BF93EF93FF938CEA92E0BCDEA5
:100FF000FF91EF91BF91AF919F918F917F916F91F1
:101000005F914F913F912F910F900BBE0F900FBEAC
:101010000F901F9018958CEA92E02EDE21E0892B2C
:1010200009F420E0822F0895ECEAF2E013821282A4
:1010300088EE93E0A0E0B0E084839583A683B78335
:101040008BE692E09183808385EC90E0958784879E
:1010500084EC90E09787868780EC90E0918B808B82
:1010600081EC90E0938B828B82EC90E0958B848B6B
:1010700086EC90E0978B868B118E128E138E148ED9
:1010800008951F920F920FB60F9211240BB60F9274
:101090002F938F939F93EF93FF93E0915903F091D8
:1010A0005A038081E0915F03F091600382FD12C0DA
:1010B0009081809162038F5F8F7320916303821709
:1010C00051F0E0916203F0E0E75BFC4F958F809375
:1010D000620301C08081FF91EF919F918F912F91C9
:1010E0000F900BBE0F900FBE0F901F9018951F9280
:1010F0000F920FB60F9211240BB60F922F933F93BE
:101100004F935F936F937F938F939F93AF93BF930F
:10111000EF93FF9389E493E027DEFF91EF91BF9176
:10112000AF919F918F917F916F915F914F913F917F
:101130002F910F900BBE0F900FBE0F901F90189520
:1011400089E493E099DD21E0892B09F420E0822FE6
:101150000895E9E4F3E01382128288EE93E0A0E0C0
:10116000B0E084839583A683B7838BE692E0918376
:1011700080838DEC90E0958784878CEC90E0978756
:10118000868788EC90E0918B808B89EC90E0938B44
:10119000828B8AEC90E0958B848B8EEC90E0978B21
:1011A000868B118E128E138E148E08950895B3D1EE
:1011B000FDDF9ADAC9E7D6E02DDC2097E9F399DD67
:1011C000FBCFCF92DF92EF92FF920F931F93CF93BB
:1011D000DF936C017A018B01C0E0D0E0CE15DF0512
:1011E00081F0D8016D918D01D601ED91FC910190B6
:1011F000F081E02DC6011995892B11F02196EECFD3
:101200007E01C701DF91CF911F910F91FF90EF9069
:10121000DF90CF9008956115710579F0FB01019081
:101220000020E9F73197AF01461B570BDC01ED9128
:10123000FC910280F381E02D199480E090E0089504
:10124000EACFDC01ED91FC910190F081E02D199441
:101250008F929F92AF92BF92EF92FF920F931F9344
:10126000CF93DF93CDB7DEB7A1970FB6F894DEBF6B
:101270000FBECDBF7C01FA01CB0119A2223008F4C8
:101280002AE08E010F5D1F4F822E912CA12CB12CD4
:10129000BF01A501940132D6F901CA01015011091B
:1012A0006A3010F4605D01C0695CD8016C93232B37
:1012B000242B252B69F7B801C701ADDFA1960FB626
:1012C000F894DEBF0FBECDBFDF91CF911F910F917C
:1012D000FF90EF90BF90AF909F908F900895211551
:1012E000310541F4DC01ED91FC910190F081E02D9C
:1012F000642F1994ADCF9A01462F50E060E070E062
:10130000EECFCF92DF92EF92FF920F931F93CF9386
:10131000DF932115310581F4DC01ED91FC91019001
:10132000F081E02D642FDF91CF911F910F91FF90FD
:10133000EF90DF90CF9019942A303105F1F477FFC8
:101340001BC06A017B01EC016DE27BDF8C0144274D
:101350005527BA014C195D096E097F092AE0CE01B3
:1013600077DF800F911FDF91CF911F910F91FF9039
:10137000EF90DF90CF9008952AE0DF91CF911F91F9
:101380000F91FF90EF90DF90CF9062CF9A01AB0169
:10139000770F660B770BB5CF1F920F920FB60F9298
:1013A00011242F933F938F939F93AF93BF9380917B
:1013B000E7039091E803A091E903B091EA0330912B
:1013C000E60323E0230F2D3720F40196A11DB11D64
:1013D00005C026E8230F0296A11DB11D2093E60348
:1013E0008093E7039093E803A093E903B093EA03A3
:1013F0008091EB039091EC03A091ED03B091EE038B
:101400000196A11DB11D8093EB039093EC03A09373
:10141000ED03B093EE03BF91AF919F918F913F91F8
:101420002F910F900FBE0F901F9018952FB7F89423
:101430006091E7037091E8038091E9039091EA03DA
:101440002FBF08953FB7F8948091EB039091EC0380
:10145000A091ED03B091EE0326B5A89B05C02F3FE8
:1014600019F00196A11DB11D3FBFBA2FA92F982FCA
:101470008827820F911DA11DB11DBC01CD0142E045
:10148000660F771F881F991F4A95D1F708958F928D
:101490009F92AF92BF92CF92DF92EF92FF926B0139
:1014A0007C01D0DF4B015C01C114D104E104F104E3
:1014B000F1F041D3C7DFDC01CB0188199909AA09F2
:1014C000BB09883E9340A105B10570F321E0C21A23
:1014D000D108E108F10888EE880E83E0981EA11C6F
:1014E000B11CC114D104E104F10421F7DDCFFF9058
:1014F000EF90DF90CF90BF90AF909F908F90089526
:101500008230910538F0880F991F880F991F059731
:101510000197F1F70895789484B5826084BD84B50D
:10152000816084BD85B5826085BD85B5816085BDDE
:10153000EEE6F0E0808181608083E1E8F0E01082F7
:10154000808182608083808181608083E0E8F0E038
:10155000808181608083E1EBF0E080818460808322
:10156000E0EBF0E0808181608083E1E9F0E0808160
:1015700082608083808181608083E0E9F0E0808107
:1015800081608083E1EAF0E08081826080838081F5
:1015900081608083E0EAF0E0808181608083E1E225
:1015A000F1E0808182608083808181608083E0E2DD
:1015B000F1E0808181608083EAE7F0E080818460EF
:1015C000808380818260808380818160808380814C
:1015D000806880831092C100089590E0FC013197EB
:1015E000E231F10508F04DC08827EE58FF4F8F4FCC
:1015F000A7C4809180008F7703C0809180008F7D89
:1016000080938000089580918000877FF9CF84B512
:101610008F7702C084B58F7D84BD08958091B0001E
:101620008F7703C08091B0008F7D8093B0000895C4
:10163000809190008F7707C0809190008F7D03C0CC
:1016400080919000877F8093900008958091A00002
:101650008F7707C08091A0008F7D03C08091A0008C
:10166000877F8093A0000895809120018F7707C025
:10167000809120018F7D03C080912001877F80931E
:1016800020010895CF93DF9390E0FC01E25BFE4FD1
:101690002491FC01EC56FE4F8491882361F190E087
:1016A000880F991FFC01EC50FE4FC591D491FC01AD
:1016B000E652FE4FA591B491611109C09FB7F8940D
:1016C0008881209582238883EC912E230BC0623081
:1016D00061F49FB7F8948881322F309583238883F3
:1016E000EC912E2B2C939FBF06C08FB7F894E88106
:1016F0002E2B28838FBFDF91CF9108951F93CF9317
:10170000DF93282F30E0F901E85FFE4F8491F90163
:10171000E25BFE4FD491F901EC56FE4FC491CC230D
:10172000B9F0162F811159DFEC2FF0E0EE0FFF1FFB
:10173000E652FE4FA591B4919FB7F894111104C0E1
:101740008C91D095D82302C0EC91DE2BDC939FBF07
:10175000DF91CF911F910895FC01138212828DE7D2
:1017600092E0918380836483418722871386089562
:101770001F93CF93DF93EC01162F6C818FEE93E0D4
:10178000B9D16B85612B8FEE93E067D18FEE93E03B
:10179000DF91CF911F91CAC128E0FC01238760E04F
:1017A000E7CF0F931F93CF938C01C62F6460E0DFC8
:1017B00081E090E0A5DE6C2F6B7FC801D9DF82E36A
:1017C00090E0CF911F910F919BCE1F93CF93DF930A
:1017D000EC01162FCDDF612FCE01DF91CF911F914C
:1017E000E0CF0F931F93CF93DF938C01C62FD42F9D
:1017F000607F642BEADF80E1C89FB00111246D2B6C
:10180000C801DF91CF911F910F91DFCF40E0E9CF69
:1018100061E0FCDF80ED97E073CE62E0F7DF80ED02
:1018200097E06ECECF93DF93CDB7DEB728970FB694
:10183000F894DEBF0FBECDBF9C0188E0E3E0F2E08C
:10184000DE01119601900D928A95E1F7F9018085EC
:10185000841710F44FEF480FFE013196E40FF11D8D
:10186000E40FF11D9081690F6068C90128960FB6D9
:10187000F894DEBF0FBECDBFDF91CF91C7CFFC0183
:101880006681262F246026836C60C0CF41E0A9DFEB
:1018900081E090E00895CF93DF93EC01423018F09F
:1018A0008D8188608D834887222329F0413019F487
:1018B0008D8184608D8362E370E080E090E0E7DDFD
:1018C0006B85CE0155DF68EE73E080E090E0DFDDF0
:1018D00060E3CE017ADF84E991E112DE60E3CE01BC
:1018E00074DF84E991E10CDE60E3CE016EDF86E90E
:1018F00090E006DE60E2CE0168DF6D816062CE01BD
:1019000085DF84E08E83CE01BADFCE0181DF82E005
:101910008F8366E0CE017ADFCE01DF91CF917DCF5C
:10192000CF93DF93EC018FEE93E0D5D01D8220E0C2
:101930004A856985CE01DF91CF91ADCFF1CF8091FE
:10194000230490E020912404821B91090895909132
:10195000240480912304981750F4E92FF0E0EB5D04
:10196000FB4F208130E09F5F9093240402C02FEF53
:101970003FEFC9010895E091240480912304E81702
:1019800030F4F0E0EB5DFB4F808190E008958FEF45
:101990009FEF08950895CF93DF93EC01E091FB034F
:1019A000F091FC033097F1F090912404809123048E
:1019B0009817C0F090E0292F30E02617370754F42D
:1019C000DE01A20FB31F4C91D901AB5DBB4F4C930D
:1019D0009F5FF1CF1092240460932304CB01DF9129
:1019E000CF911994DF91CF910895E091FD03F0918B
:1019F000FE03309729F0109201041092000419940C
:101A00000895CF92DF92EF92FF920F931F93CF939F
:101A1000DF937C01CB018A012091FF03222389F00F
:101A2000EB016B01C40ED51ECC15DD0561F069918B
:101A3000D701ED91FC910190F081E02DC70119953E
:101A4000F3CF642FEBD0C801DF91CF911F910F919D
:101A5000FF90EF90DF90CF900895CF93DF931F9288
:101A6000CDB7DEB769832091FF032223D1F0209107
:101A70000004203240F021E030E0FC013383228377
:101A800080E090E014C080910104E82FF0E0EE5F68
:101A9000FB4F998190838F5F8093010480930004B2
:101AA00004C061E0CE010196B9D081E090E00F90D2
:101AB000DF91CF910895FC011382128288EE93E0AA
:101AC000A0E0B0E084839583A683B78389E892E0A1
:101AD000918380830895109224041092230410921D
:101AE00001041092000428D085EF9CE0C4D08BEC58
:101AF0009CE0BCC081E08093FF03609322041092BD
:101B000001041092000408950F93062F21E04091E4
:101B1000000462E074E0809122042AD01092010453
:101B2000109200041092FF030F91089561E0ECCF32
:101B30008FEE93E0C0CF08951092B20481E08093BD
:101B4000B0041092AF0461E084E1D8DD61E085E18A
:101B5000D5DDE9EBF0E080818E7F808380818D7F11
:101B6000808388E48093B80085E48093BC00089566
:101B70000F93413208F04AC09091B2049111FCCF0A
:101B800032E03093B2040093B0043FEF3093450449
:101B900010928A0440938904562FABE8B4E0FB010D
:101BA0003E2F351B341718F431913D93F9CF109225
:101BB000B1043091B104880F832B8093B1048091DC
:101BC000AF04813061F41092AF048091B10480932E
:101BD000BB008091BC0083FDF8CF85EC01C085EE91
:101BE0008093BC00222321F08091B2048230D1F393
:101BF000809145048F3F79F080914504803241F017
:101C000080914504803331F094E005C091E003C039
:101C100092E001C093E0892F0F91089540916704ED
:101C2000262F30E0240F311D21323105DCF42091C4
:101C3000B2042430C9F4FC0180E090E0861758F427
:101C4000309167042191DC01A759BB4FA30FB11D4F
:101C50002C930196F3CF80916704680F609367041B
:101C600080E0089581E0089582E008959093AC04A7
:101C70008093AB0408959093AE048093AD040895CF
:101C800085ED8093BC008091BC0084FDFCCF109258
:101C9000B204089585EC8093BC001092B2040895BC
:101CA0001F920F920FB60F9211240BB60F922F9323
:101CB0003F934F935F936F937F938F939F93AF93D4
:101CC000BF93EF93FF938091B900887F803609F42A
:101CD0009DC070F5883209F45CC090F4803109F43D
:101CE00055C038F4882309F4F3C0883009F44EC095
:101CF000F2C0883109F44DC0803209F45EC0EBC0F7
:101D0000803409F469C050F4803309F456C0883334
:101D100009F0E1C080934504BDDFDDC0803509F4E2
:101D20004FC0883509F45DC0883409F0D4C0D2C0F2
:101D3000883909F4C3C0A8F4883709F467C038F4B7
:101D4000883609F463C0803709F460C0C4C088389D
:101D500009F4B4C0803909F45FC0803809F0BBC011
:101D60005BC0803B09F482C038F4803A09F466C055
:101D7000883A09F47BC0AFC0803C09F4A3C0883C1A
:101D800009F4A0C0883B09F486C0A5C08091B104C5
:101D900010C090918A0480918904981770F5E091A1
:101DA0008A0481E08E0F80938A04F0E0E557FB4FB0
:101DB00080818093BB0085EC82C0809345048AC0FB
:101DC000E0918A0481E08E0F80938A048091BB00A9
:101DD000F0E0E557FB4F808390918A04809189045D
:101DE0006AC0E0918A0481E08E0F80938A0480911A
:101DF000BB00F0E0E557FB4F80838091B004811178
:101E000069C081E08093AF0484EA5DC083E0809381
:101E1000B20410924604CFCF80914604803208F07D
:101E20004DC0E091460481E08E0F8093460480917E
:101E3000BB00F0E0E95BFB4F8083BDCF2BDF8091DF
:101E40004604803230F4E0914604F0E0E95BFB4F59
:101E500010826091460470E0E091AB04F091AC0414
:101E600087E494E019951092460435C084E080938D
:101E7000B2041092680410926704E091AD04F091EE
:101E8000AE04199580916704811105C081E08093AB
:101E9000670410926904E091680481E08E0F8093DA
:101EA0006804F0E0E759FB4F80818093BB0090917C
:101EB000680480916704981708F47DCF85E88093C3
:101EC000BC0009C085EC8093BC001092B20403C032
:101ED00010924504D5DEFF91EF91BF91AF919F9194
:101EE0008F917F916F915F914F913F912F910F90C3
:101EF0000BBE0F900FBE0F901F901895A1E21A2EE7
:101F0000AA1BBB1BFD010DC0AA1FBB1FEE1FFF1F9D
:101F1000A217B307E407F50720F0A21BB30BE40BED
:101F2000F50B661F771F881F991F1A9469F7609534
:101F30007095809590959B01AC01BD01CF010895EE
:101F4000EE0FFF1F881F8BBF0790F691E02D1994AD
:041F5000F894FFCF33
:101F54000A000300004000140054002A2A2A2A2AF6
:101F64002A2A2A2A2A2A2A2A2A2A2A2A2A2A2A2ACD
:101F7400007349443A006465673A0072706D3A0030
:101F84006C64253A0023232323232323232323239D
:101F94002323232323232323232323232300202036
:101FA40020200020435720200020434357202000B6
:101FB4002043572020200000000000D606E1086AD4
:101FC4000622073C065606480600000000460CE1BF
:101FD40008A807AB07000000002D0D010DA807CAD3
:081FE4000C9F0CA70CBB0C00C4
:00000001FF
