:100000000AC1000038C1000036C1000034C1000040
:1000100032C1000030C100002EC100002CC1000020
:100020002AC1000028C1000026C1000024C1000030
:1000300022C1000020C100001EC100001CC1000040
:100040001AC1000018C1000016C1000014C1000050
:1000500012C1000010C100000EC100000C94130A70
:100060000AC10000C0C70000F4C7000004C10000BE
:1000700002C1000000C10000FEC00000FCC0000082
:10008000FAC00000F8C00000F6C00000F4C0000094
:100090000C9488080C94BE08EEC000000C94970ED7
:1000A000EAC00000E8C00000E6C00000E4C00000B4
:1000B000E2C00000E0C00000DEC00000DCC00000C4
:1000C000DAC00000D8C00000D6C00000D4C00000D4
:1000D000D2C00000D0C00000CEC00000CCC00000E4
:1000E000CAC000004E0B510B400B440B4A0B880B4F
:1000F000550B590B5F0B630B670B6D0B710B750B7E
:10010000880B7B0B7F0B830B00000A0B02090C0D85
:100110000E080703040100000000000000000000BA
:1001200000000000000000000000000000000000CF
:10013000000000001211100000000000000000008C
:1001400000000000000000000000000000000102AC
:1001500010202008081020401020408002010201D9
:100160000804020101020408102040808040201091
:1001700008040201800402018040201008040201EA
:100180000804020101020408102040800102040852
:10019000102040800505050507050808080802022B
:1001A00002020A0A08080404040401010101010111
:1001B00001010303030303030303040707070C0CF4
:1001C0000C0C0C0C0C0C02020202060606060606BB
:1001D00006060B0B0B0B0B0B0B0B00002200250074
:1001E00028002B002E003100340002010000050120
:1001F00008010B0100002100240027002A002D0027
:100200003000330001010000040107010A01500120
:100210005B08F008DF0D11241FBECFEFD1E2DEBF77
:10022000CDBF00E00CBF12E0A0E0B2E0E2EEFFE1E3
:1002300000E00BBF02C007900D92A439B107D9F7B7
:1002400024E0A4E9B2E001C01D92AF3AB207E1F7A1
:1002500011E0CBE0D1E000E006C021970109802F3A
:10026000FE010E94E70FC730D10780E00807A9F719
:10027000E5D70C94EF0FC4CEDC01ED91FC91019019
:10028000F081E02D1994382FFC0180E090E02E2FB2
:10029000231B261720F42191820F911DF8CF08957A
:1002A0000E945D0A6093A4027093A5028093A60247
:1002B0009093A70224E044E167E284E992E00C9481
:1002C000F30BCF92DF92EF92FF920F931F93CF9396
:1002D000DF93F82EE62E6A01022F66E06E0DD62F10
:1002E000D20F622FCA01CFDFC82F61E082E00E94E7
:1002F000C50B61E083E00E94C50B61E070E080E027
:1003000090E00E948E0A6FEF70E085E493E0B4DF26
:100310006FEF70E085E493E0AFDF6F2D85E493E04D
:100320008CD510E0B8016D5F7F4F85E493E0A4DFCA
:1003300063E070E085E493E09FDF6E2D85E493E059
:100340007CD5A801B60185E493E082D7DF0DCD0FFF
:10035000C0956C2F70E085E493E08EDF85E493E038
:10036000B8D560E082E00E94C50B60E083E00E94A7
:10037000C50B61E070E080E090E0DF91CF911F91CC
:100380000F91FF90EF90DF90CF900C948E0ACF9357
:10039000DF9300D01F92CDB7DEB769837A834B839A
:1003A0005C8324E0AE014F5F5F4F6EE18ADF0F9008
:1003B0000F900F900F90DF91CF9108951F93CF93DF
:1003C000DF93C82FD62F142F61E082E00E94C50B67
:1003D00061E083E00E94C50B61E070E080E090E0A6
:1003E0000E948E0A6FEF70E085E493E045DF6FEFC7
:1003F00070E085E493E040DF6C2F85E493E01DD549
:1004000064E070E085E493E037DF62E070E085E46B
:1004100093E032DF6D2F85E493E00FD5612F85E403
:1004200093E00BD51A5FD10FCD0FC0956C2F70E004
:1004300085E493E021DF85E493E04BD560E082E042
:100440000E94C50B60E083E00E94C50B61E070E094
:1004500080E090E0DF91CF911F910C948E0ACF93B2
:10046000C82F61E082E00E94C50B61E083E00E943A
:10047000C50B61E070E080E090E00E948E0A6FEFB3
:1004800070E085E493E0F8DE6FEF70E085E493E0E0
:10049000F3DE6EEF70E085E493E0EEDE64E070E0A2
:1004A00085E493E0E9DE63E070E085E493E0E4DE78
:1004B00063E070E085E493E0DFDE6C2F85E493E099
:1004C000BCD4C85FC0956C2F70E085E493E0D4DEA7
:1004D00085E493E0FED460E082E00E94C50B60E01A
:1004E00083E00E94C50B61E070E080E090E0CF9176
:1004F0000C948E0A1F93CF93DF93182FD42F611182
:1005000002C0C52F02C0C4E0C50F61E082E00E94B6
:10051000C50B61E083E00E94C50B61E070E080E004
:1005200090E0FCD76FEF70E085E493E0A5DE6FEF1D
:1005300070E085E493E0A0DE612F85E493E07DD454
:1005400065E070E085E493E097DE63E070E085E4C9
:1005500093E092DE60E270E085E493E08DDE6D2F43
:1005600085E493E06AD46C2F85E493E066D4185D4B
:10057000C10FCD0F6C2F609585E493E05ED485E4C8
:1005800093E0A7D460E082E00E94C50B60E083E0C6
:100590000E94C50B61E070E080E090E0DF91CF91B8
:1005A0001F91BCC7CF93C82F662309F439C061E0FF
:1005B00082E00E94C50B61E083E00E94C50B61E010
:1005C00070E080E090E0AAD76FEF70E085E493E000
:1005D00053DE6FEF70E085E493E04EDE6C2F85E430
:1005E00093E02BD465E070E085E493E045DE63E0C2
:1005F00070E085E493E040DE68E070E085E493E03D
:100600003BDE60E085E493E018D460E085E493E0AD
:1006100014D460E16C0F609585E493E00ED43FC084
:1006200040E050E060E066DF61E082E00E94C50BE0
:1006300061E083E00E94C50B61E070E080E090E043
:100640006DD76FEF70E085E493E016DE6FEF70E03A
:1006500085E493E011DE6C2F85E493E0EED365E052
:1006600070E085E493E008DE63E070E085E493E009
:1006700003DE68E070E085E493E0FEDD6FEF70E09C
:1006800085E493E0F9DD63E070E085E493E0F4DD78
:10069000CE5EC0956C2F70E085E493E0EDDD85E4DF
:1006A00093E017D460E082E00E94C50B60E083E035
:1006B0000E94C50B61E070E080E090E0CF912EC712
:1006C000FF920F931F93CF93DF93F82E8B01C72FC9
:1006D000DD27C7FDDA9561E082E00E94C50B61E08D
:1006E00083E00E94C50B61E070E080E090E016D7E7
:1006F0006FEF70E085E493E0BFDD6FEF70E085E4BD
:1007000093E0BADD6F2D85E493E097D365E070E068
:1007100085E493E0B1DD63E070E085E493E0ACDD77
:100720006EE070E085E493E0A7DDB801772785E40B
:1007300093E0A2DDBE01772785E493E09DDD66E1CD
:100740006F0D060FC00FC0956C2F70E085E493E02D
:1007500093DD85E493E0BDD360E082E00E94C50BA9
:1007600060E083E00E94C50B61E070E080E090E013
:10077000DF91CF911F910F91FF90D0C684E992E055
:100780000E94E50C84E992E00E94E50C84E992E085
:100790000E94130C84E992E00E944F0C61E082E019
:1007A000B8D761E083E0B5D726E040E051EE60E0E5
:1007B00070E088EA92E0AED326E047E35FED60E0C8
:1007C00070E085E493E0A6D385E493E082D361E012
:1007D00082E0E8DE6FEF73E080E072DF4CED55E021
:1007E00060E070E082E0D3DD40E060E084E992E028
:1007F0000E94590C6EE172E084E992E068D541E014
:1008000060E084E992E00E94590C63E272E084E9BE
:1008100092E05DD542E060E084E992E00E94590CEC
:1008200068E272E084E992E052D543E060E084E956
:1008300092E00E94590C6DE272E084E992E047D5A3
:1008400084E00DDE62E070E080E090E067C6BF9279
:10085000CF92DF92EF92FF920F931F93CF93DF938C
:100860006AE070E080E090E059D685E493E04BD2F6
:10087000181619060CF00CC185E493E05ED28F3F88
:10088000910509F005C185E493E057D28F3F9105AA
:1008900009F0FEC085E493E050D2B82E85E493E0E1
:1008A0004CD285E493E049D285E493E046D2EC0152
:1008B00085E493E042D22FEFAC01249FC001259F35
:1008C000900D11247C01EC0EFD1E2091A2023091AE
:1008D000A3028091A0029091A102E216F3060CF40B
:1008E00001969093A1028093A002F092A302E0925D
:1008F000A20285E493E021D28C0185E493E01DD22D
:10090000DFEF9C01D29FC001D39F900D1124080FEF
:10091000191F85E493E011D26C0185E493E00DD2B8
:10092000AC01D49FC001D59F900D1124EC01CC0DDA
:10093000DD1D011554E0150724F01450CC24C39498
:1009400001C0C12CC11584E0D80724F0D450DD24A7
:10095000D39401C0D12C85E493E0D5D118161906A3
:1009600024F485E493E0E9D1F6CF40E064E084E943
:1009700092E09FD74AE050E06B2D84E992E002D5E7
:100980006DE472E084E992E0A2D441E064E084E99D
:1009900092E08FD7B7010F2C000C880B990BC4D0B5
:1009A00028E539E344EB5DE323D18BD04AE050E006
:1009B00084E992E032D52AE0E216F1043CF034E614
:1009C000E316F10434F46CE472E005C06DE472E007
:1009D00002C06BE472E084E992E079D441E06AE01D
:1009E00084E992E066D76091A0027091A1024AE08A
:1009F00050E084E992E011D542E064E084E992E0BD
:100A000058D7B801110F880B990B8ED02EEA37E416
:100A100041EE5DE3EDD055D04AE050E084E992E04C
:100A2000FCD4C11003C066E572E002C060E572E06C
:100A300084E992E04CD443E064E084E992E039D761
:100A4000BE01DD0F880B990B6FD02EE53BE448EC1F
:100A50005DE3CED036D04AE050E084E992E0DDD4C8
:100A6000D11003C066E572E002C06DE572E084E972
:100A700092E02DD461E070E080E090E0DF91CF91D2
:100A80001F910F91FF90EF90DF90CF90BF9046C5E0
:100A9000DF91CF911F910F91FF90EF90DF90CF905A
:100AA000BF90089562E070E080E090E037D546E0C6
:100AB00064E284E083DCCBDE68EC70E080E090E010
:100AC0002DC504D06894B1118DC0089570D088F000
:100AD0009F5790F0B92F9927B751A0F0D1F0660F2A
:100AE000771F881F991F1AF0BA95C9F712C0B13045
:100AF00081F077D0B1E0089574C0672F782F8827F0
:100B0000B85F39F0B93FCCF3869577956795B39583
:100B1000D9F73EF490958095709561957F4F8F4FF2
:100B20009F4F0895E89409C097FB3EF490958095F7
:100B3000709561957F4F8F4F9F4F9923A9F0F92FA3
:100B400096E9BB279395F695879577956795B79521
:100B5000F111F8CFFAF4BB0F11F460FF1BC06F5F07
:100B60007F4F8F4F9F4F16C0882311F096E911C019
:100B7000772321F09EE8872F762F05C0662371F03A
:100B800096E8862F70E060E02AF09A95660F771F4E
:100B9000881FDAF7880F9695879597F9089557FD7E
:100BA0009058440F551F59F05F3F71F04795880FDB
:100BB00097FB991F61F09F3F79F087950895121672
:100BC00013061406551FF2CF4695F1DF08C016161E
:100BD00017061806991FF1CF8695710561050894CF
:100BE0000895E894BB2766277727CB0197F90895E6
:100BF0000BD078C069D028F06ED018F0952309F09A
:100C00005AC05FC01124EECFCADFA0F3959FD1F385
:100C1000950F50E0551F629FF001729FBB27F00DAA
:100C2000B11D639FAA27F00DB11DAA1F649F6627FF
:100C3000B00DA11D661F829F2227B00DA11D621F4E
:100C4000739FB00DA11D621F839FA00D611D221F08
:100C5000749F3327A00D611D231F849F600D211DEC
:100C6000822F762F6A2F11249F5750408AF0E1F08F
:100C700088234AF0EE0FFF1FBB1F661F771F881FD8
:100C800091505040A9F79E3F510570F014C0AACF73
:100C90005F3FECF3983EDCF3869577956795B795C3
:100CA000F795E7959F5FC1F7FE2B880F911D9695ED
:100CB000879597F9089597F99F6780E870E060E05D
:100CC00008959FEF80EC089500240A9416161706E5
:100CD00018060906089500240A941216130614062D
:100CE00005060895092E0394000C11F4882352F090
:100CF000BB0F40F4BF2B11F460FF04C06F5F7F4F48
:100D00008F4F9F4F0895FC01918D228D892F90E088
:100D1000805C9F4F821B91098F7399270895FC0176
:100D2000918D828D981731F0828DE80FF11D858DA0
:100D300090E008958FEF9FEF0895FC01918D828DD3
:100D4000981761F0828DDF01A80FB11D5D968C911F
:100D5000928D9F5F9F73928F90E008958FEF9FEF2A
:100D60000895FC01538D448D252F30E0842F90E0B1
:100D7000821B930B541710F0CF9608950197089596
:100D800082E598E0892B39F080E090E0892B19F01A
:100D900089D1811124C087EE98E0892B39F080E059
:100DA00090E0892B19F013D281111CC080E090E0F3
:100DB000892B41F080E090E0892B21F00E94000017
:100DC000811113C080E090E0892BA1F080E090E0D9
:100DD000892B81F00E94000081110AC008950E94B1
:100DE0000000D9CF0E940000E1CF0E940000EACFAE
:100DF0000C9400000895FC01848DDF01A80FB11D43
:100E0000A35ABF4F2C91848D90E001968F73992740
:100E1000848FA689B7892C93A089B1898C9183701E
:100E200080648C93938D848D981306C00288F38917
:100E3000E02D80818F7D80830895EF92FF920F9344
:100E40001F93CF93DF93EC0181E0888F9B8D8C8D76
:100E5000981305C0E889F989808185FD25C0F62EA3
:100E60000B8D10E00F5F1F4F0F731127E02E8C8D3D
:100E7000E8120BC00FB607FCFACFE889F989808128
:100E800085FFF5CFCE01B7DFF2CF8B8DFE01E80FE6
:100E9000F11DE35AFF4FF0829FB7F8940B8FEA8958
:100EA000FB89808180620AC09FB7F894EE89FF8930
:100EB0006083E889F98980818370806480839FBF23
:100EC00081E090E0DF91CF911F910F91FF90EF9023
:100ED0000895CF93DF93EC01888D8823C1F0EA89D0
:100EE000FB89808185FD05C0A889B9898C9186FD23
:100EF0000EC00FB607FCF5CF808185FFF2CFA88921
:100F0000B9898C9185FFEDCFCE0175DFE8CFDF91F8
:100F1000CF910895CF92DF92EF92FF921F93CF93DC
:100F2000DF93EC016A017B01122FE889F98982E0E5
:100F300080834115514E61057105B1F060E079E0A3
:100F40008DE390E0A70196010E94C50FDA01C90167
:100F50000197A109B109B695A795979587959C0129
:100F6000211580E13807A8F0E889F989108260E846
:100F700074E88EE190E0A70196010E94C50FDA01A6
:100F8000C9010197A109B109B695A79597958795CC
:100F90009C01EC85FD853083EE85FF852083188ECE
:100FA000EC89FD891083EA89FB89808180618083D7
:100FB000EA89FB89808188608083EA89FB89808156
:100FC00080688083EA89FB8980818F7D8083DF91BF
:100FD000CF911F91FF90EF90DF90CF90089580E028
:100FE00090E0089508951F920F920FB60F9211246A
:100FF0000BB60F922F938F939F93EF93FF93E091F4
:10100000B802F091B9028081E091BE02F091BF0276
:1010100082FD12C090818091C1028F5F8F732091F9
:10102000C202821751F0E091C102F0E0E855FD4F95
:10103000958F8093C10201C08081FF91EF919F91B4
:101040008F912F910F900BBE0F900FBE0F901F909E
:1010500018951F920F920FB60F9211240BB60F9294
:101060002F933F934F935F936F937F938F939F93B0
:10107000AF93BF93EF93FF9388EA92E0BCDEFF91BA
:10108000EF91BF91AF919F918F917F916F915F9100
:101090004F913F912F910F900BBE0F900FBE0F906D
:1010A0001F90189588EA92E02EDE21E0892B09F442
:1010B00020E0822F0895E8EAF2E01382128288EE9F
:1010C00093E0A0E0B0E084839583A683B78388E6AD
:1010D00092E09183808385EC90E09587848784EC0F
:1010E00090E09787868780EC90E0918B808B81ECF5
:1010F00090E0938B828B82EC90E0958B848B86ECD6
:1011000090E0978B868B118E128E138E148E08951D
:101110001F920F920FB60F9211240BB60F922F93BE
:101120008F939F93EF93FF93E0915503F0915603B4
:101130008081E0915B03F0915C0382FD12C090819D
:1011400080915E038F5F8F7320915F03821751F050
:10115000E0915E03F0E0EB5BFC4F958F80935E03C4
:1011600001C08081FF91EF919F918F912F910F90FE
:101170000BBE0F900FBE0F901F9018951F920F92ED
:101180000FB60F9211240BB60F922F933F934F93EC
:101190005F936F937F938F939F93AF93BF93EF93DF
:1011A000FF9385E493E027DEFF91EF91BF91AF912C
:1011B0009F918F917F916F915F914F913F912F916F
:1011C0000F900BBE0F900FBE0F901F90189585E4E7
:1011D00093E099DD21E0892B09F420E0822F089526
:1011E000E5E4F3E01382128288EE93E0A0E0B0E041
:1011F00084839583A683B78388E692E09183808376
:101200008DEC90E0958784878CEC90E097878687BB
:1012100088EC90E0918B808B89EC90E0938B828BB3
:101220008AEC90E0958B848B8EEC90E0978B868B8C
:10123000118E128E138E148E08950895B3D1FDDF92
:101240009DDAC0ECD6E02EDC2097E9F399DDFBCFE8
:10125000CF92DF92EF92FF920F931F93CF93DF9382
:101260006C017A018B01C0E0D0E0CE15DF0581F082
:10127000D8016D918D01D601ED91FC910190F08125
:10128000E02DC6011995892B11F02196EECF7E0134
:10129000C701DF91CF911F910F91FF90EF90DF90E9
:1012A000CF9008956115710579F0FB010190002040
:1012B000E9F73197AF01461B570BDC01ED91FC912B
:1012C0000280F381E02D199480E090E00895EACF48
:1012D000DC01ED91FC910190F081E02D19948F9249
:1012E0009F92AF92BF92EF92FF920F931F93CF9373
:1012F000DF93CDB7DEB7A1970FB6F894DEBF0FBE70
:10130000CDBF7C01FA01CB0119A2223008F42AE0FA
:101310008E010F5D1F4F822E912CA12CB12CBF018D
:10132000A501940132D6F901CA01015011096A30B0
:1013300010F4605D01C0695CD8016C93232B242BF1
:10134000252B69F7B801C701ADDFA1960FB6F89458
:10135000DEBF0FBECDBFDF91CF911F910F91FF90E8
:10136000EF90BF90AF909F908F9008952115310519
:1013700041F4DC01ED91FC910190F081E02D642FAE
:101380001994ADCF9A01462F50E060E070E0EECFA7
:10139000CF92DF92EF92FF920F931F93CF93DF9341
:1013A0002115310581F4DC01ED91FC910190F08172
:1013B000E02D642FDF91CF911F910F91FF90EF905F
:1013C000DF90CF9019942A303105F1F477FF1BC0DC
:1013D0006A017B01EC016DE27BDF8C01442755271C
:1013E000BA014C195D096E097F092AE0CE0177DF49
:1013F000800F911FDF91CF911F910F91FF90EF9080
:10140000DF90CF9008952AE0DF91CF911F910F9147
:10141000FF90EF90DF90CF9062CF9A01AB01770FF2
:10142000660B770BB5CF1F920F920FB60F92112458
:101430002F933F938F939F93AF93BF938091E30339
:101440009091E403A091E503B091E6033091E203AB
:1014500023E0230F2D3720F40196A11DB11D05C0F7
:1014600026E8230F0296A11DB11D2093E20380936D
:10147000E3039093E403A093E503B093E603809124
:10148000E7039091E803A091E903B091EA03019684
:10149000A11DB11D8093E7039093E803A093E90396
:1014A000B093EA03BF91AF919F918F913F912F919C
:1014B0000F900FBE0F901F9018952FB7F894609162
:1014C000E3037091E4038091E5039091E6032FBF5D
:1014D00008953FB7F8948091E7039091E803A091B5
:1014E000E903B091EA0326B5A89B05C02F3F19F088
:1014F0000196A11DB11D3FBFBA2FA92F982F882794
:10150000820F911DA11DB11DBC01CD0142E0660FEE
:10151000771F881F991F4A95D1F708958F929F9240
:10152000AF92BF92CF92DF92EF92FF926B017C015C
:10153000D0DF4B015C01C114D104E104F104F1F0EE
:1015400041D3C7DFDC01CB0188199909AA09BB097E
:10155000883E9340A105B10570F321E0C21AD1087D
:10156000E108F10888EE880E83E0981EA11CB11CEA
:10157000C114D104E104F10421F7DDCFFF90EF9015
:10158000DF90CF90BF90AF909F908F900895823062
:10159000910538F0880F991F880F991F05970197BB
:1015A000F1F70895789484B5826084BD84B5816034
:1015B00084BD85B5826085BD85B5816085BDEEE65B
:1015C000F0E0808181608083E1E8F0E0108280813A
:1015D00082608083808181608083E0E8F0E08081A8
:1015E00081608083E1EBF0E0808184608083E0EBC8
:1015F000F0E0808181608083E1E9F0E080818260B9
:101600008083808181608083E0E9F0E08081816077
:101610008083E1EAF0E08081826080838081816064
:101620008083E0EAF0E0808181608083E1E2F1E0A4
:10163000808182608083808181608083E0E2F1E04C
:10164000808181608083EAE7F0E08081846080832C
:1016500080818260808380818160808380818068D6
:1016600080831092C100089590E0FC013197E2312F
:10167000F10508F04DC08827EE58FF4F8F4FA7C4E3
:10168000809180008F7703C0809180008F7D809350
:101690008000089580918000877FF9CF84B58F778F
:1016A00002C084B58F7D84BD08958091B0008F778E
:1016B00003C08091B0008F7D8093B0000895809129
:1016C00090008F7707C0809190008F7D03C080913C
:1016D0009000877F8093900008958091A0008F777D
:1016E00007C08091A0008F7D03C08091A000877FFC
:1016F0008093A0000895809120018F7707C080918A
:1017000020018F7D03C080912001877F809320017D
:101710000895CF93DF9390E0FC01E25BFE4F2491AC
:10172000FC01EC56FE4F8491882361F190E0880F14
:10173000991FFC01EC50FE4FC591D491FC01E6527B
:10174000FE4FA591B491611109C09FB7F8948881AB
:10175000209582238883EC912E230BC0623061F4A4
:101760009FB7F8948881322F309583238883EC913A
:101770002E2B2C939FBF06C08FB7F894E8812E2B99
:1017800028838FBFDF91CF9108951F93CF93DF936D
:10179000282F30E0F901E85FFE4F8491F901E25B08
:1017A000FE4FD491F901EC56FE4FC491CC23B9F011
:1017B000162F811159DFEC2FF0E0EE0FFF1FE652DC
:1017C000FE4FA591B4919FB7F894111104C08C916C
:1017D000D095D82302C0EC91DE2BDC939FBFDF9124
:1017E000CF911F910895FC01138212828AE792E043
:1017F00091838083648341872287138608951F9392
:10180000CF93DF93EC01162F6C818BEE93E0B9D16F
:101810006B85612B8BEE93E067D18BEE93E0DF91CC
:10182000CF911F91CAC128E0FC01238760E0E7CF78
:101830000F931F93CF938C01C62F6460E0DF81E08C
:1018400090E0A5DE6C2F6B7FC801D9DF82E390E0CA
:10185000CF911F910F919BCE1F93CF93DF93EC01FC
:10186000162FCDDF612FCE01DF91CF911F91E0CFF9
:101870000F931F93CF93DF938C01C62FD42F607FDC
:10188000642BEADF80E1C89FB00111246D2BC801F1
:10189000DF91CF911F910F91DFCF40E0E9CF61E061
:1018A000FCDF80ED97E073CE62E0F7DF80ED97E03C
:1018B0006ECECF93DF93CDB7DEB728970FB6F894EF
:1018C000DEBF0FBECDBF9C0188E0E0E0F2E0DE01AC
:1018D000119601900D928A95E1F7F90180858417A0
:1018E00010F44FEF480FFE013196E40FF11DE40FA5
:1018F000F11D9081690F6068C90128960FB6F894B0
:10190000DEBF0FBECDBFDF91CF91C7CFFC01668197
:10191000262F246026836C60C0CF41E0A9DF81E0E0
:1019200090E00895CF93DF93EC01423018F08D8161
:1019300088608D834887222329F0413019F48D81F6
:1019400084608D8362E370E080E090E0E7DD6B858A
:10195000CE0155DF68EE73E080E090E0DFDD60E30C
:10196000CE017ADF84E991E112DE60E3CE0174DF1B
:1019700084E991E10CDE60E3CE016EDF86E990E060
:1019800006DE60E2CE0168DF6D816062CE0185DF38
:1019900084E08E83CE01BADFCE0181DF82E08F83C7
:1019A00066E0CE017ADFCE01DF91CF917DCFCF937C
:1019B000DF93EC018BEE93E0D5D01D8220E04A85C9
:1019C0006985CE01DF91CF91ADCFF1CF80911F041A
:1019D00090E020912004821B9109089590912004A9
:1019E00080911F04981750F4E92FF0E0EF5DFB4F52
:1019F000208130E09F5F9093200402C02FEF3FEFE3
:101A0000C9010895E091200480911F04E81730F483
:101A1000F0E0EF5DFB4F808190E008958FEF9FEF46
:101A200008950895CF93DF93EC01E091F703F091CF
:101A3000F8033097F1F09091200480911F049817DB
:101A4000C0F090E0292F30E02617370754F4DE016C
:101A5000A20FB31F4C91D901AF5DBB4F4C939F5F59
:101A6000F1CF1092200460931F04CB01DF91CF913E
:101A70001994DF91CF910895E091F903F091FA0361
:101A8000309729F01092FD031092FC0319940895E9
:101A9000CF92DF92EF92FF920F931F93CF93DF933A
:101AA0007C01CB018A012091FB03222389F0EB0109
:101AB0006B01C40ED51ECC15DD0561F06991D7010F
:101AC000ED91FC910190F081E02DC7011995F3CFC4
:101AD000642FEBD0C801DF91CF911F910F91FF9040
:101AE000EF90DF90CF900895CF93DF931F92CDB703
:101AF000DEB769832091FB032223D1F02091FC0300
:101B0000203240F021E030E0FC013383228380E08A
:101B100090E014C08091FD03E82FF0E0E250FC4F0C
:101B2000998190838F5F8093FD038093FC0304C0B1
:101B300061E0CE010196B9D081E090E00F90DF9195
:101B4000CF910895FC011382128288EE93E0A0E009
:101B5000B0E084839583A683B78386E892E091837F
:101B6000808308951092200410921F041092FD03A8
:101B70001092FC0328D08CE39DE0C4D082E19DE06C
:101B8000BCC081E08093FB0360931E041092FD03B0
:101B90001092FC0308950F93062F21E04091FC035F
:101BA0006EEF73E080911E042AD01092FD03109214
:101BB000FC031092FB030F91089561E0ECCF8BEED4
:101BC00093E0C0CF08951092AE0481E08093AC04FE
:101BD0001092AB0461E084E1D8DD61E085E1D5DD00
:101BE000E9EBF0E080818E7F808380818D7F808330
:101BF00088E48093B80085E48093BC0008950F9337
:101C0000413208F04AC09091AE049111FCCF32E00D
:101C10003093AE040093AC043FEF30934104109234
:101C2000860440938504562FA7E8B4E0FB013E2FBD
:101C3000351B341718F431913D93F9CF1092AD0450
:101C40003091AD04880F832B8093AD048091AB0459
:101C5000813061F41092AB048091AD048093BB009D
:101C60008091BC0083FDF8CF85EC01C085EE8093A8
:101C7000BC00222321F08091AE048230D1F3809108
:101C800041048F3F79F080914104803241F080918E
:101C90004104803331F094E005C091E003C092E04C
:101CA00001C093E0892F0F91089540916304262F7E
:101CB00030E0240F311D21323105DCF42091AE04D7
:101CC0002430C9F4FC0180E090E0861758F430918C
:101CD00063042191DC01AB59BB4FA30FB11D2C93C1
:101CE0000196F3CF80916304680F6093630480E0F2
:101CF000089581E0089582E008959093A804809368
:101D0000A70408959093AA048093A904089585EDEB
:101D10008093BC008091BC0084FDFCCF1092AE0487
:101D2000089585EC8093BC001092AE0408951F9234
:101D30000F920FB60F9211240BB60F922F933F9371
:101D40004F935F936F937F938F939F93AF93BF93C3
:101D5000EF93FF938091B900887F803609F49DC08E
:101D600070F5883209F45CC090F4803109F455C0F4
:101D700038F4882309F4F3C0883009F44EC0F2C067
:101D8000883109F44DC0803209F45EC0EBC0803464
:101D900009F469C050F4803309F456C0883309F05F
:101DA000E1C080934104BDDFDDC0803509F44FC040
:101DB000883509F45DC0883409F0D4C0D2C08839B0
:101DC00009F4C3C0A8F4883709F467C038F488362A
:101DD00009F463C0803709F460C0C4C0883809F4CE
:101DE000B4C0803909F45FC0803809F0BBC05BC063
:101DF000803B09F482C038F4803A09F466C0883A1E
:101E000009F47BC0AFC0803C09F4A3C0883C09F44E
:101E1000A0C0883B09F486C0A5C08091AD0410C065
:101E20009091860480918504981770F5E09186045E
:101E300081E08E0F80938604F0E0E957FB4F8081AC
:101E40008093BB0085EC82C0809341048AC0E091FE
:101E5000860481E08E0F809386048091BB00F0E0C1
:101E6000E957FB4F808390918604809185046AC076
:101E7000E091860481E08E0F809386048091BB0000
:101E8000F0E0E957FB4F80838091AC04811169C079
:101E900081E08093AB0484EA5DC083E08093AE046C
:101EA00010924204CFCF80914204803208F04DC09E
:101EB000E091420481E08E0F809342048091BB0048
:101EC000F0E0ED5BFB4F8083BDCF2BDF80914204C0
:101ED000803230F4E0914204F0E0ED5BFB4F108281
:101EE0006091420470E0E091A704F091A80483E4BB
:101EF00094E019951092420435C084E08093AE04BA
:101F00001092640410926304E091A904F091AA0471
:101F1000199580916304811105C081E08093630469
:101F200010926504E091640481E08E0F8093640454
:101F3000F0E0EB59FB4F80818093BB0090916404EB
:101F400080916304981708F47DCF85E88093BC00E6
:101F500009C085EC8093BC001092AE0403C01092BF
:101F60004104D5DEFF91EF91BF91AF919F918F9189
:101F70007F916F915F914F913F912F910F900BBE89
:101F80000F900FBE0F901F901895A1E21A2EAA1B5A
:101F9000BB1BFD010DC0AA1FBB1FEE1FFF1FA21719
:101FA000B307E407F50720F0A21BB30BE40BF50B16
:101FB000661F771F881F991F1A9469F7609570959F
:101FC000809590959B01AC01BD01CF010895EE0F66
:101FD000FF1F881F8BBF0790F691E02D1994F8948E
:021FE000FFCF31
:101FE20000004000140054002A2A2A2A2A2A2A2AF7
:101FF2002A2A2A2A2A2A2A2A2A2A2A2A2A00734901
:10200200443A006465673A0072706D3A006C642568
:102012003A0023232323232323232323232323239A
:1020220023232323232323232323002020202000D0
:1020320020435720200020434357202000204357AD
:1020420020202000000000001D072809B1066907B2
:1020520083069D068F06000000008D0C2809EF07FD
:10206200F20700000000740D480DEF07110DE60C99
:04207200EE0C020D61
:00000001FF
