:100000000AC1000039C1000037C1000035C100003D
:1000100033C1000031C100002FC100002DC100001C
:100020002BC1000083C2000027C1000025C10000D1
:1000300023C1000021C100001FC100001DC100003C
:100040001BC1000019C1000017C1000015C100004C
:1000500013C1000011C100000FC100000C94640A1C
:100060000BC10000EEC700000C94570805C100004A
:1000700003C1000001C10000FFC00000FDC000007E
:10008000FBC00000F9C00000F7C00000F5C0000090
:100090000C94B6080C94EC08EFC000000C94E80E29
:1000A000EBC00000E9C00000E7C00000E5C00000B0
:1000B000E3C00000E1C00000DFC00000DDC00000C0
:1000C000DBC00000D9C00000D7C00000D5C00000D0
:1000D000D3C00000D1C00000CFC00000CDC00000E0
:1000E000CBC000009F0BA20B910B950B9B0BD90B68
:1000F000A60BAA0BB00BB40BB80BBE0BC20BC60BF6
:10010000D90BCC0BD00BD40B00000A0B02090C0D41
:100110000E080703040100000000000000000000BA
:1001200000000000000000000000000000000000CF
:10013000000000001211100000000000000000008C
:1001400000000000000000000000000000000102AC
:1001500010202008081020401020408002010201D9
:100160000804020101020408102040808040201091
:1001700008040201800402018040201008040201EA
:100180000804020101020408102040800102040852
:10019000102040800505050507050808080802022B
:1001A00002020A0A08080404040401010101010111
:1001B00001010303030303030303040707070C0CF4
:1001C0000C0C0C0C0C0C02020202060606060606BB
:1001D00006060B0B0B0B0B0B0B0B00002200250074
:1001E00028002B002E003100340002010000050120
:1001F00008010B0100002100240027002A002D0027
:100200003000330001010000040107010A01E80188
:1002100089081E09300E11241FBECFEFD1E2DEBFC8
:10022000CDBF00E00CBF13E0A0E0B2E0EAE3F6E2ED
:1002300000E00BBF02C007900D92AE32B107D9F7B4
:1002400025E0AEE2B3E001C01D92A035B207E1F7B0
:1002500011E0CBE0D1E000E006C021970109802F3A
:10026000FE010E943810C730D10780E00807A9F7C7
:100270000E944C090C941B13C3CEDC01ED91FC9140
:100280000190F081E02D1994EF92FF920F931F934C
:10029000CF93DF931F92CDB7DEB7F82EE62E5F9394
:1002A0004F9389E592E09F938F938E010F5F1F4FCD
:1002B0001F930F930E9440104E2D6F2D8EE293E0FE
:1002C0000E94AA0CB8018EE293E00E9495090F905B
:1002D0000F900F900F900F900F900F90DF91CF9194
:1002E0001F910F91FF90EF900895EF92FF920F935F
:1002F0001F93CF93DF9300D0CDB7DEB7F82EE62E55
:100300005F934F9381E692E09F938F938E010F5FEF
:100310001F4F1F930F930E9440104E2D6F2D8EE2A2
:1003200093E00E94AA0CB8018EE293E0FED70F90F2
:100330000F900F900F900F900F900F900F900F90C5
:10034000DF91CF911F910F91FF90EF900895EF9261
:10035000FF920F931F93CF93DF9300D01F92CDB7DF
:10036000DEB7F82EE62E5F934F9385E692E09F93DB
:100370008F938E010F5F1F4F1F930F930E944010AA
:100380004E2D6F2D8EE293E00E94AA0CB8018EE2F2
:1003900093E0CBD70F900F900F900F900F900F908E
:1003A0000F900F900F900F90DF91CF911F910F91B1
:1003B000FF90EF900895382FFC0180E090E02E2F01
:1003C000231B261720F42191820F911DF8CF089549
:1003D0000E94AE0A609345037093460380934703DF
:1003E0009093480380910002909101029093400302
:1003F00080933F0324E044E167E28EE293E00C94B3
:10040000440CCF92DF92EF92FF920F931F93CF9302
:10041000DF93F82EE62E6A01022F66E06E0DD62FCE
:10042000D20F622FCA01C7DFC82F61E082E00E94AD
:10043000160C61E083E00E94160C61E070E080E041
:1004400090E00E94DF0A6FEF70E086EE93E015DF28
:100450006FEF70E086EE93E010DF6F2D86EE93E095
:100460001AD510E0B8016D5F7F4F86EE93E005DF8F
:1004700063E070E086EE93E000DF6E2D86EE93E0A1
:100480000AD5A801B60186EE93E010D7DF0DCD0F97
:10049000C0956C2F70E086EE93E0EFDE86EE93E081
:1004A00046D560E082E00E94160C60E083E00E9486
:1004B000160C61E070E080E090E0DF91CF911F9139
:1004C0000F91FF90EF90DF90CF900C94DF0A0F9385
:1004D0001F93CF93DF9300D01F92CDB7DEB78B0170
:1004E0009CEF980F923058F4643E724014F404EE7E
:1004F00012E0053A96E0190714F004EA16E00983C1
:100500001A834B835C8324E0AE014F5F5F4F6EE143
:1005100078DF1093400300933F030F900F900F90EC
:100520000F90DF91CF911F910F9108951F920F921D
:100530000FB60F9211240BB60F922F933F934F9348
:100540005F936F937F938F939F93AF93BF93EF933B
:10055000FF93189B1CC01F9A189B19C060913F0302
:1005600070914003653E82E078071CF0615071098C
:1005700002C064EE72E044E150E080910202A7DF25
:1005800068EC70E080E090E00E94DF0AE5CF199B04
:100590001BC02F98199B18C060913F0370914003B6
:1005A000643A86E078071CF46F5F7F4F02C064EA0C
:1005B00076E044E150E08091020289DF68EC70E06F
:1005C00080E090E0FCD7E6CF1A992F9AFF91EF9147
:1005D000BF91AF919F918F917F916F915F914F915B
:1005E0003F912F910F900BBE0F900FBE0F901F9059
:1005F00018951F93CF93DF93C82FD62F142F61E048
:1006000082E00E94160C61E083E00E94160C61E01B
:1006100070E080E090E0D3D76FEF70E086EE93E07B
:100620002CDE6FEF70E086EE93E027DE6C2F86EE17
:1006300093E031D464E070E086EE93E01EDE62E089
:1006400070E086EE93E019DE6D2F86EE93E023D402
:10065000612F86EE93E01FD41A5FD10FCD0FC095A6
:100660006C2F70E086EE93E008DE86EE93E05FD4B8
:1006700060E082E00E94160C60E083E00E94160CAD
:1006800061E070E080E090E0DF91CF911F9197C72B
:1006900064E170E080E090E092D76FE772E089E477
:1006A00093E043D686EE93E05CD34AE050E0BC0191
:1006B00089E493E0F3D66AE872E089E493E040D6F7
:1006C00086EE93E04ED3892BE9F086EE93E049D392
:1006D0004AE050E0BC0189E493E0E0D660EA72E0D1
:1006E00089E493E022D686EE93E055D34AE050E0C9
:1006F000BC0189E493E0D8D661E070E080E090E04E
:100700005ED7DECF63EA72E089E493E019C6CF9347
:10071000DF931F921F92CDB7DEB72F988FEF84B96A
:1007200084B18C7F84B9EBE6F0E0808183608083C4
:10073000E8E6F0E080818160808378948EE293E047
:100740000E94360D8EE293E00E94360D8EE293E019
:100750000E94640C8EE293E00E94A00C61E082E0B3
:100760000E94DA0B61E083E00E94DA0B26E040E0B1
:1007700051EE60E070E089E493E0FAD326E047E3CD
:100780005FED60E070E086EE93E0F2D386EE93E0FA
:10079000CED360910002709101024AE050E0809156
:1007A000020295DE40E060E08EE293E00E94AA0C37
:1007B00060EC72E08EE293E0B8D541E060E08EE25A
:1007C00093E00E94AA0C65EC72E08EE293E0ADD556
:1007D00042E060E08EE293E00E94AA0C6AEC72E0D4
:1007E0008EE293E0A2D543E060E08EE293E00E94C7
:1007F000AA0C6FEC72E08EE293E097D584EA8983CD
:1008000086E08A8322E0AE014F5F5F4F68E080910F
:100810000202F7DD40E160E080910202EADE38DFAB
:1008200062E070E080E090E0CAD60F900F90DF9118
:10083000CF9108958F929F92AF92BF92CF92DF9205
:10084000EF92FF920F931F93CF93DF936AE070E0D4
:1008500080E090E0B4D686EE93E083D218161906B5
:100860000CF04AC186EE93E096D28F3F910509F0D5
:1008700043C186EE93E08FD28F3F910509F03CC1D2
:1008800086EE93E088D26C0186EE93E084D2D82F76
:1008900086EE93E080D2C82F811103C080913E0381
:1008A00001C08C2F80933E0340E067E08EE293E02E
:1008B0000E94AA0C80913C0390913D03C11102C09B
:1008C0000097D1F08B30910514F4019602C080E0BE
:1008D00090E090933D0380933C036CED72E08EE2D8
:1008E00093E023D54AE050E060913E038EE293E02E
:1008F0008AD56AEE72E002C063EE72E08EE293E0A7
:1009000014D5D33008F4C9C086EE93E044D2EC018C
:1009100086EE93E040D22FEFAC01249FC001259FCB
:10092000900D11244C018C0E9D1E2091430330919B
:1009300044038091410390914203821693060CF484
:1009400001969093420380934103909244038092D6
:10095000430386EE93E01FD2EC0186EE93E01BD2B8
:100960001FEF9C01129FC001139F900D11247C0169
:10097000EC0EFD1E86EE93E00ED2EC0186EE93E0C7
:100980000AD2AC01149FC001159F900D1124C80F0D
:10099000D91F86EE93E0FFD186EE93E0FCD186EE80
:1009A00093E0F9D186EE93E0F6D186EE93E0F3D1B1
:1009B00086EE93E0F0D186EE93E0EDD186EE93E003
:1009C000EAD15C0186EE93E0E6D19C01129FC00162
:1009D000139F900D11248C010A0D1B1DE11434E0AE
:1009E000F3062CF044E0F41AAA24A39401C0A12C2D
:1009F000C11554E0D50724F0D450BB24B39401C0F2
:100A0000B12CA601552760E084E03EDCA40161E042
:100A100084E09DDC40913F035091400361E08AE017
:100A200096DCB701FF0C880B990BACD02EEA37E4AB
:100A300041EE5DE30BD173D0AB0162E084E055DCA5
:100A4000A11003C068ED72E002C064ED72E08EE2B6
:100A500093E06BD4BE01DD0F880B990B93D02EE58C
:100A60003BE448EC5DE3F2D05AD0AB0163E084E0B4
:100A70003CDCB11003C068ED72E002C064ED72E0CE
:100A80008EE293E052D418508DE2809FA001819FA6
:100A9000500D112463E08AE028DC86EE93E061D1FA
:100AA0001816190624F486EE93E075D1F6CF61E0AE
:100AB00070E080E090E083D540913A0350913B0391
:100AC000403187E258071CF44F5F5F4F02C040E09F
:100AD00050E050933B0340933A0360E080E1DF91A4
:100AE000CF911F910F91FF90EF90DF90CF90BF902B
:100AF000AF909F908F902BCCDF91CF911F910F9152
:100B0000FF90EF90DF90CF90BF90AF909F908F902D
:100B1000089542E264E2809102026BDD8BCE04D044
:100B20006894B1118DC0089570D088F09F5790F0EF
:100B3000B92F9927B751A0F0D1F0660F771F881F02
:100B4000991F1AF0BA95C9F712C0B13081F077D069
:100B5000B1E0089574C0672F782F8827B85F39F007
:100B6000B93FCCF3869577956795B395D9F73EF461
:100B700090958095709561957F4F8F4F9F4F089509
:100B8000E89409C097FB3EF4909580957095619527
:100B90007F4F8F4F9F4F9923A9F0F92F96E9BB27DD
:100BA0009395F695879577956795B795F111F8CF59
:100BB000FAF4BB0F11F460FF1BC06F5F7F4F8F4FC4
:100BC0009F4F16C0882311F096E911C0772321F0BA
:100BD0009EE8872F762F05C0662371F096E8862F52
:100BE00070E060E02AF09A95660F771F881FDAF7A9
:100BF000880F9695879597F9089557FD9058440F5B
:100C0000551F59F05F3F71F04795880F97FB991F6B
:100C100061F09F3F79F08795089512161306140628
:100C2000551FF2CF4695F1DF08C0161617061806B5
:100C3000991FF1CF86957105610508940895E89490
:100C4000BB2766277727CB0197F908950BD078C08B
:100C500069D028F06ED018F0952309F05AC05FC013
:100C60001124EECFCADFA0F3959FD1F3950F50E08A
:100C7000551F629FF001729FBB27F00DB11D639F4E
:100C8000AA27F00DB11DAA1F649F6627B00DA11DF4
:100C9000661F829F2227B00DA11D621F739FB00D9A
:100CA000A11D621F839FA00D611D221F749F33270A
:100CB000A00D611D231F849F600D211D822F762FA3
:100CC0006A2F11249F5750408AF0E1F088234AF0A0
:100CD000EE0FFF1FBB1F661F771F881F91505040EC
:100CE000A9F79E3F510570F014C0AACF5F3FECF307
:100CF000983EDCF3869577956795B795F795E795D8
:100D00009F5FC1F7FE2B880F911D9695879597F9E8
:100D1000089597F99F6780E870E060E008959FEF7D
:100D200080EC089500240A94161617061806090682
:100D3000089500240A941216130614060506089551
:100D4000092E0394000C11F4882352F0BB0F40F4D9
:100D5000BF2B11F460FF04C06F5F7F4F8F4F9F4F19
:100D60000895FC01918D228D892F90E0805C9F4F2A
:100D7000821B91098F7399270895FC01918D828DB3
:100D8000981731F0828DE80FF11D858D90E0089560
:100D90008FEF9FEF0895FC01918D828D981761F080
:100DA000828DDF01A80FB11D5D968C91928D9F5FA2
:100DB0009F73928F90E008958FEF9FEF0895FC014D
:100DC000538D448D252F30E0842F90E0821B930BB0
:100DD000541710F0CF9608950197089580E898E091
:100DE000892B39F080E090E0892B19F089D18111AD
:100DF00024C085E199E0892B39F080E090E0892BCF
:100E000019F013D281111CC080E090E0892B41F0D1
:100E100080E090E0892B21F00E940000811113C036
:100E200080E090E0892BA1F080E090E0892B81F0B8
:100E30000E94000081110AC008950E940000D9CFCD
:100E40000E940000E1CF0E940000EACF0C94000055
:100E50000895FC01848DDF01A80FB11DA35ABF4F77
:100E60002C91848D90E001968F739927848FA689A9
:100E7000B7892C93A089B1898C91837080648C93FD
:100E8000938D848D981306C00288F389E02D8081AC
:100E90008F7D80830895EF92FF920F931F93CF93DE
:100EA000DF93EC0181E0888F9B8D8C8D981305C0BA
:100EB000E889F989808185FD25C0F62E0B8D10E02B
:100EC0000F5F1F4F0F731127E02E8C8DE8120BC0A0
:100ED0000FB607FCFACFE889F989808185FFF5CF45
:100EE000CE01B7DFF2CF8B8DFE01E80FF11DE35A83
:100EF000FF4FF0829FB7F8940B8FEA89FB898081BE
:100F000080620AC09FB7F894EE89FF896083E88900
:100F1000F98980818370806480839FBF81E090E045
:100F2000DF91CF911F910F91FF90EF900895CF9394
:100F3000DF93EC01888D8823C1F0EA89FB898081E9
:100F400085FD05C0A889B9898C9186FD0EC00FB6B4
:100F500007FCF5CF808185FFF2CFA889B9898C91F4
:100F600085FFEDCFCE0175DFE8CFDF91CF910895FA
:100F7000CF92DF92EF92FF921F93CF93DF93EC011A
:100F80006A017B01122FE889F98982E0808341158B
:100F9000514E61057105B1F060E079E08DE390E0BC
:100FA000A70196010E941610DA01C9010197A10953
:100FB000B109B695A795979587959C01211580E174
:100FC0003807A8F0E889F989108260E874E88EE1B2
:100FD00090E0A70196010E941610DA01C90101975D
:100FE000A109B109B695A795979587959C01EC85C0
:100FF000FD853083EE85FF852083188EEC89FD8981
:101000001083EA89FB89808180618083EA89FB897A
:10101000808188608083EA89FB8980818068808301
:10102000EA89FB8980818F7D8083DF91CF911F9139
:10103000FF90EF90DF90CF90089580E090E00895CA
:1010400008951F920F920FB60F9211240BB60F92B4
:101050002F938F939F93EF93FF93E0915903F09118
:101060005A038081E0915F03F091600382FD12C01A
:101070009081809162038F5F8F7320916303821749
:1010800051F0E0916203F0E0E75BFC4F958F8093B5
:10109000620301C08081FF91EF919F918F912F9109
:1010A0000F900BBE0F900FBE0F901F9018951F92C0
:1010B0000F920FB60F9211240BB60F922F933F93FE
:1010C0004F935F936F937F938F939F93AF93BF9350
:1010D000EF93FF9389E493E0BCDEFF91EF91BF9122
:1010E000AF919F918F917F916F915F914F913F91C0
:1010F0002F910F900BBE0F900FBE0F901F90189561
:1011000089E493E02EDE21E0892B09F420E0822F90
:101110000895E9E4F3E01382128288EE93E0A0E000
:10112000B0E084839583A683B78382EF92E09183B6
:10113000808385EC90E09587848784EC90E09787A6
:10114000868780EC90E0918B808B81EC90E0938B94
:10115000828B82EC90E0958B848B86EC90E0978B71
:10116000868B118E128E138E148E08951F920F92FD
:101170000FB60F9211240BB60F922F938F939F935C
:10118000EF93FF93E091F603F091F7038081E091F4
:10119000FC03F091FD0382FD12C090818091FF035A
:1011A0008F5F8F7320910004821751F0E091FF034D
:1011B000F0E0EA51FC4F958F8093FF0301C08081DE
:1011C000FF91EF919F918F912F910F900BBE0F90F8
:1011D0000FBE0F901F9018951F920F920FB60F928F
:1011E00011240BB60F922F933F934F935F936F93FE
:1011F0007F938F939F93AF93BF93EF93FF9386EE6D
:1012000093E027DEFF91EF91BF91AF919F918F9176
:101210007F916F915F914F913F912F910F900BBEF6
:101220000F900FBE0F901F90189586EE93E099DDFA
:1012300021E0892B09F420E0822F0895E6EEF3E007
:101240001382128288EE93E0A0E0B0E0848395835D
:10125000A683B78382EF92E0918380838DEC90E048
:10126000958784878CEC90E09787868788EC90E060
:10127000918B808B89EC90E0938B828B8AEC90E051
:10128000958B848B8EEC90E0978B868B118E128ED3
:10129000138E148E08950895D6D1FDDF38DACEEE80
:1012A000D6E037DC2097E9F399DDFBCFCF92DF92D0
:1012B000EF92FF920F931F93CF93DF936C017A010C
:1012C0008B01C0E0D0E0CE15DF0581F0D8016D9133
:1012D0008D01D601ED91FC910190F081E02DC601C8
:1012E0001995892B11F02196EECF7E01C701DF9170
:1012F000CF911F910F91FF90EF90DF90CF900895C5
:101300006115710579F0FB0101900020E9F7319733
:10131000AF01461B570BDC01ED91FC910280F3817C
:10132000E02D199480E090E00895EACFDC01ED9182
:10133000FC910190F081E02D199460E073E0E0CF22
:101340000F931F93CF93DF93EC01DADF8C01CE0173
:10135000F4DF800F911FDF91CF911F910F910895BE
:101360008F929F92AF92BF92EF92FF920F931F9333
:10137000CF93DF93CDB7DEB7A1970FB6F894DEBF5A
:101380000FBECDBF7C01FA01CB0119A2223008F4B7
:101390002AE08E010F5D1F4F822E912CA12CB12CC3
:1013A000BF01A501940142D6F901CA0101501109FA
:1013B0006A3010F4605D01C0695CD8016C93232B26
:1013C000242B252B69F7B801C7019ADFA1960FB628
:1013D000F894DEBF0FBECDBFDF91CF911F910F916B
:1013E000FF90EF90BF90AF909F908F900895211540
:1013F000310541F4DC01ED91FC910190F081E02D8B
:10140000642F1994ADCF9A01462F50E060E070E050
:10141000EECFCF92DF92EF92FF920F931F93CF9375
:10142000DF932115310581F4DC01ED91FC910190F0
:10143000F081E02D642FDF91CF911F910F91FF90EC
:10144000EF90DF90CF9019942A303105F1F477FFB7
:101450001BC06A017B01EC016DE268DF8C0144274F
:101460005527BA014C195D096E097F092AE0CE01A2
:1014700077DF800F911FDF91CF911F910F91FF9028
:10148000EF90DF90CF9008952AE0DF91CF911F91E8
:101490000F91FF90EF90DF90CF9062CF9A01AB0158
:1014A000770F660B770BB5CF0F931F93CF93DF9317
:1014B000EC01F4DF8C01CE0140DF800F911FDF9142
:1014C000CF911F910F9108951F920F920FB60F9217
:1014D00011242F933F938F939F93AF93BF9380914A
:1014E000840490918504A0918604B0918704309182
:1014F000830423E0230F2D3720F40196A11DB11D95
:1015000005C026E8230F0296A11DB11D2093830478
:101510008093840490938504A0938604B0938704F9
:101520008091880490918904A0918A04B0918B04E1
:101530000196A11DB11D8093880490938904A09306
:101540008A04B0938B04BF91AF919F918F913F918B
:101550002F910F900FBE0F901F9018952FB7F894F2
:101560006091840470918504809186049091870431
:101570002FBF08953FB7F894809188049091890413
:10158000A0918A04B0918B0426B5A89B05C02F3F7B
:1015900019F00196A11DB11D3FBFBA2FA92F982F99
:1015A0008827820F911DA11DB11DBC01CD0142E014
:1015B000660F771F881F991F4A95D1F708958F925C
:1015C0009F92AF92BF92CF92DF92EF92FF926B0108
:1015D0007C01D0DF4B015C01C114D104E104F104B2
:1015E000F1F041D3C7DFDC01CB0188199909AA09C1
:1015F000BB09883E9340A105B10570F321E0C21AF2
:10160000D108E108F10888EE880E83E0981EA11C3D
:10161000B11CC114D104E104F10421F7DDCFFF9026
:10162000EF90DF90CF90BF90AF909F908F900895F4
:101630008230910538F0880F991F880F991F059700
:101640000197F1F70895789484B5826084BD84B5DC
:10165000816084BD85B5826085BD85B5816085BDAD
:10166000EEE6F0E0808181608083E1E8F0E01082C6
:10167000808182608083808181608083E0E8F0E007
:10168000808181608083E1EBF0E0808184608083F1
:10169000E0EBF0E0808181608083E1E9F0E080812F
:1016A00082608083808181608083E0E9F0E08081D6
:1016B00081608083E1EAF0E08081826080838081C4
:1016C00081608083E0EAF0E0808181608083E1E2F4
:1016D000F1E0808182608083808181608083E0E2AC
:1016E000F1E0808181608083EAE7F0E080818460BE
:1016F000808380818260808380818160808380811B
:10170000806880831092C100089590E0FC013197B9
:10171000E231F10508F04DC08827EE58FF4F8F4F9A
:10172000A7C4809180008F7703C0809180008F7D57
:1017300080938000089580918000877FF9CF84B5E1
:101740008F7702C084B58F7D84BD08958091B000ED
:101750008F7703C08091B0008F7D8093B000089593
:10176000809190008F7707C0809190008F7D03C09B
:1017700080919000877F8093900008958091A000D1
:101780008F7707C08091A0008F7D03C08091A0005B
:10179000877F8093A0000895809120018F7707C0F4
:1017A000809120018F7D03C080912001877F8093ED
:1017B00020010895CF93DF9390E0FC01E25BFE4FA0
:1017C0002491FC01EC56FE4F8491882361F190E056
:1017D000880F991FFC01EC50FE4FC591D491FC017C
:1017E000E652FE4FA591B491611109C09FB7F894DC
:1017F0008881209582238883EC912E230BC0623050
:1018000061F49FB7F8948881322F309583238883C1
:10181000EC912E2B2C939FBF06C08FB7F894E881D4
:101820002E2B28838FBFDF91CF9108951F93CF93E5
:10183000DF93282F30E0F901E85FFE4F8491F90132
:10184000E25BFE4FD491F901EC56FE4FC491CC23DC
:10185000B9F0162F811159DFEC2FF0E0EE0FFF1FCA
:10186000E652FE4FA591B4919FB7F894111104C0B0
:101870008C91D095D82302C0EC91DE2BDC939FBFD6
:10188000DF91CF911F910895FC011382128283E1B1
:1018900093E0918380836483418722871386089530
:1018A0001F93CF93DF93EC01162F6C818CE894E0AB
:1018B000B9D16B85612B8CE894E067D18CE894E01A
:1018C000DF91CF911F91CAC128E0FC01238760E01E
:1018D000E7CF0F931F93CF938C01C62F6460E0DF97
:1018E00081E090E0A5DE6C2F6B7FC801D9DF82E339
:1018F00090E0CF911F910F919BCE1F93CF93DF93D9
:10190000EC01162FCDDF612FCE01DF91CF911F911A
:10191000E0CF0F931F93CF93DF938C01C62FD42F6B
:10192000607F642BEADF80E1C89FB00111246D2B3A
:10193000C801DF91CF911F910F91DFCF40E0E9CF38
:1019400061E0FCDF80ED97E073CE62E0F7DF80EDD1
:1019500097E06ECECF93DF93CDB7DEB728970FB663
:10196000F894DEBF0FBECDBF9C0188E0E3E0F2E05B
:10197000DE01119601900D928A95E1F7F9018085BB
:10198000841710F44FEF480FFE013196E40FF11D5C
:10199000E40FF11D9081690F6068C90128960FB6A8
:1019A000F894DEBF0FBECDBFDF91CF91C7CFFC0152
:1019B0006681262F246026836C60C0CF41E0A9DFBA
:1019C00081E090E00895CF93DF93EC01423018F06E
:1019D0008D8188608D834887222329F0413019F456
:1019E0008D8184608D8362E370E080E090E0E7DDCC
:1019F0006B85CE0155DF68EE73E080E090E0DFDDBF
:101A000060E3CE017ADF84E991E112DE60E3CE018A
:101A100074DF84E991E10CDE60E3CE016EDF86E9DC
:101A200090E006DE60E2CE0168DF6D816062CE018B
:101A300085DF84E08E83CE01BADFCE0181DF82E0D4
:101A40008F8366E0CE017ADFCE01DF91CF917DCF2B
:101A5000CF93DF93EC018CE894E0D5D01D8220E099
:101A60004A856985CE01DF91CF91ADCFF1CF8091CD
:101A7000C00490E02091C104821B910908959091C7
:101A8000C1048091C004981750F4E92FF0E0EE53A0
:101A9000FB4F208130E09F5F9093C10402C02FEF85
:101AA0003FEFC9010895E091C1048091C004E81797
:101AB00030F4F0E0EE53FB4F808190E008958FEF1B
:101AC0009FEF08950895CF93DF93EC01E091980480
:101AD000F09199043097F1F09091C1048091C00485
:101AE0009817C0F090E0292F30E02617370754F4FC
:101AF000DE01A20FB31F4C91D901AE53BB4F4C93E3
:101B00009F5FF1CF1092C1046093C004CB01DF91BD
:101B1000CF911994DF91CF910895E0919A04F091BB
:101B20009B04309729F010929E0410929D04199402
:101B30000895CF92DF92EF92FF920F931F93CF936E
:101B4000DF937C01CB018A0120919C04222389F040
:101B5000EB016B01C40ED51ECC15DD0561F069915A
:101B6000D701ED91FC910190F081E02DC70119950D
:101B7000F3CF642FEBD0C801DF91CF911F910F916C
:101B8000FF90EF90DF90CF900895CF93DF931F9257
:101B9000CDB7DEB7698320919C042223D1F0209138
:101BA0009D04203240F021E030E0FC0133832283A9
:101BB00080E090E014C080919E04E82FF0E0E156B0
:101BC000FB4F998190838F5F80939E0480939D0447
:101BD00004C061E0CE010196B9D081E090E00F90A1
:101BE000DF91CF910895FC011382128288EE93E079
:101BF000A0E0B0E084839583A683B7838FE193E070
:101C00009183808308951092C1041092C0041092B1
:101C10009E0410929D0428D08DE89DE0C4D083E6F8
:101C20009DE0BCC081E080939C046093BF0410924F
:101C30009E0410929D0408950F93062F21E0409179
:101C40009D046FE974E08091BF042AD010929E0435
:101C500010929D0410929C040F91089561E0ECCFC6
:101C60008CE894E0C0CF089510924F0581E08093F6
:101C70004D0510924C0561E084E1D8DD61E085E11D
:101C8000D5DDE9EBF0E080818E7F808380818D7FE0
:101C9000808388E48093B80085E48093BC00089535
:101CA0000F93413208F04AC090914F059111FCCF3B
:101CB00032E030934F0500934D053FEF3093E2043F
:101CC0001092270540932605562FA8E2B5E0FB01A8
:101CD0003E2F351B341718F431913D93F9CF1092F4
:101CE0004E0530914E05880F832B80934E058091D1
:101CF0004C05813061F410924C0580914E05809323
:101D0000BB008091BC0083FDF8CF85EC01C085EE5F
:101D10008093BC00222321F080914F058230D1F3C3
:101D20008091E2048F3F79F08091E204803241F0AB
:101D30008091E204803331F094E005C091E003C06B
:101D400092E001C093E0892F0F910895409104051E
:101D5000262F30E0240F311D21323105DCF4209193
:101D60004F052430C9F4FC0180E090E0861758F458
:101D7000309104052191DC01AA5FBA4FA30FB11D78
:101D80002C930196F3CF80910405680F60930405AE
:101D900080E0089581E0089582E0089590934905D8
:101DA00080934805089590934B0580934A050895C4
:101DB00085ED8093BC008091BC0084FDFCCF109227
:101DC0004F05089585EC8093BC0010924F0508954F
:101DD0001F920F920FB60F9211240BB60F922F93F2
:101DE0003F934F935F936F937F938F939F93AF93A3
:101DF000BF93EF93FF938091B900887F803609F4F9
:101E00009DC070F5883209F45CC090F4803109F40B
:101E100055C038F4882309F4F3C0883009F44EC063
:101E2000F2C0883109F44DC0803209F45EC0EBC0C5
:101E3000803409F469C050F4803309F456C0883303
:101E400009F0E1C08093E204BDDFDDC0803509F414
:101E50004FC0883509F45DC0883409F0D4C0D2C0C1
:101E6000883909F4C3C0A8F4883709F467C038F486
:101E7000883609F463C0803709F460C0C4C088386C
:101E800009F4B4C0803909F45FC0803809F0BBC0E0
:101E90005BC0803B09F482C038F4803A09F466C024
:101EA000883A09F47BC0AFC0803C09F4A3C0883CE9
:101EB00009F4A0C0883B09F486C0A5C080914E05F6
:101EC00010C09091270580912605981770F5E09134
:101ED000270581E08E0F80932705F0E0E85DFA4F3B
:101EE00080818093BB0085EC82C08093E2048AC02D
:101EF000E091270581E08E0F809327058091BB003C
:101F0000F0E0E85DFA4F80839091270580912605E7
:101F10006AC0E091270581E08E0F809327058091AC
:101F2000BB00F0E0E85DFA4F808380914D058111A0
:101F300069C081E080934C0584EA5DC083E08093B2
:101F40004F051092E304CFCF8091E304803208F074
:101F50004DC0E091E30481E08E0F8093E304809113
:101F6000BB00F0E0EC51FB4F8083BDCF2BDF8091B5
:101F7000E304803230F4E091E304F0E0EC51FB4FF5
:101F800010826091E30470E0E0914805F09149050A
:101F900084EE94E019951092E30435C084E08093B8
:101FA0004F051092050510920405E0914A05F09145
:101FB0004B05199580910405811105C081E080933E
:101FC000040510920605E091050581E08E0F8093CF
:101FD0000505F0E0EA5FFA4F80818093BB009091A5
:101FE000050580910405981708F47DCF85E8809356
:101FF000BC0009C085EC8093BC0010924F0503C063
:102000001092E204D5DEFF91EF91BF91AF919F91C5
:102010008F917F916F915F914F913F912F910F9091
:102020000BBE0F900FBE0F901F901895A1E21A2EB5
:10203000AA1BBB1BFD010DC0AA1FBB1FEE1FFF1F6C
:10204000A217B307E407F50720F0A21BB30BE40BBC
:10205000F50B661F771F881F991F1A9469F7609503
:102060007095809590959B01AC01BD01CF010895BD
:10207000EE0FFF1F881F8BBF0790F691E02D19947C
:102080000F931F93CF93DF93CDB7DEB72E970FB685
:10209000F894DEBF0FBECDBF0E891F8986E08C830A
:1020A0001A8309838FEF9FE79E838D83AE01465E7F
:1020B0005F4F688D798DCE01019610D0EF81F88544
:1020C000E00FF11F10822E960FB6F894DEBF0FBE00
:1020D000CDBFDF91CF911F910F9108952F923F9225
:1020E0004F925F926F927F928F929F92AF92BF9228
:1020F000CF92DF92EF92FF920F931F93CF93DF93D4
:10210000CDB7DEB72B970FB6F894DEBF0FBECDBFAD
:102110006C017B018A01FC0117821682838181FF99
:10212000BFC1CE0101963C01F6019381F70193FDF9
:10213000859193FF81917F01882309F4ADC1853298
:1021400039F493FD859193FF81917F01853221F4CC
:10215000B60190E0D6D1E8CF912C212C312CFFE1B3
:10216000F315D8F08B3279F038F4803279F083327D
:10217000A1F4232D20611DC08D3261F0803369F4FC
:10218000232D216016C0832D8260382EE32DE4605C
:102190003E2E2AC0F32DF8601DC037FC2DC020ED67
:1021A000280F2A3040F08E32B9F436FC75C1232D49
:1021B0002064322E19C036FE06C08AE0989E200D9B
:1021C0001124922E11C0EAE02E9E200D1124222E01
:1021D000F32DF0623F2E08C08C3621F4832D8068E9
:1021E000382E02C0883641F4F70193FD859193FFA4
:1021F00081917F018111B3CF982F9F7D95549330AA
:1022000028F40C5F1F4F9FE399830DC0833631F094
:10221000833771F0833509F055C020C0F801808103
:1022200089830E5F1F4F88248394912C530112C021
:102230002801F2E04F0E511CF801A080B18036FE5B
:1022400003C0692D70E002C06FEF7FEFC5014ED172
:102250004C018201F32DFF773F2E15C0280122E0AB
:10226000420E511CF801A080B18036FE03C0692DDA
:1022700070E002C06FEF7FEFC5012DD14C01F32D4F
:10228000F0683F2E820133FC19C0822D90E0881641
:102290009906A0F4B60180E290E033D12A94F5CFFC
:1022A000F50137FC859137FE81915F01B60190E021
:1022B00028D121102A9421E0821A910881149104D6
:1022C00079F7E1C0843611F0893639F5F80137FE27
:1022D00007C060817181828193810C5F1F4F08C0AC
:1022E00060817181072E000C880B990B0E5F1F4FC8
:1022F000F32DFF763F2E97FF09C09095809570953E
:1023000061957F4F8F4F9F4FF0683F2E2AE030E05E
:10231000A30133D1882E861844C0853731F4232D8C
:102320002F7EB22E2AE030E025C0932D997FB92E62
:102330008F36C1F018F4883579F0AEC0803719F0C7
:10234000883721F0A9C0E92FE061BE2EB4FE0DC090
:10235000FB2DF460BF2E09C034FE0AC0292F266071
:10236000B22E06C028E030E005C020E130E002C017
:1023700020E132E0F801B7FE07C0608171818281FF
:1023800093810C5F1F4F06C06081718180E090E0F7
:102390000E5F1F4FA301F1D0882E8618FB2DFF770B
:1023A0003F2E36FE0DC0232D2E7FA22E891458F409
:1023B00034FE0BC032FC09C0832D8E7EA82E05C0D2
:1023C000B82CA32C03C0B82C01C0B92CA4FE0FC09C
:1023D000FE01E80DF11D8081803321F49A2D997E54
:1023E000A92E09C0A2FE06C0B394B39404C08A2DDE
:1023F000867809F0B394A3FC10C0A0FE06C0B21406
:1024000080F4280C922C9B180DC0B21458F4B6011D
:1024100080E290E076D0B394F8CFB21418F42B1881
:1024200002C0982C212CA4FE0FC0B60180E390E0DE
:1024300068D0A2FE16C0A1FC03C088E790E002C0ED
:1024400088E590E0B6010CC08A2D867851F0A1FE97
:1024500002C08BE201C080E2A7FC8DE2B60190E0F1
:1024600050D0891430F4B60180E390E04AD09A94B9
:10247000F8CF8A94F301E80DF11D8081B60190E058
:1024800040D08110F6CF222009F44ECEB60180E272
:1024900090E037D02A94F7CFF6018681978102C069
:1024A0008FEF9FEF2B960FB6F894DEBF0FBECDBF18
:1024B000DF91CF911F910F91FF90EF90DF90CF9020
:1024C000BF90AF909F908F907F906F905F904F9054
:1024D0003F902F900895FC010590615070400110CD
:1024E000D8F7809590958E0F9F1F0895FC0161503D
:1024F000704001900110D8F7809590958E0F9F1F26
:1025000008950F931F93CF93DF93FB01238121FD48
:1025100003C08FEF9FEF2CC022FF16C0468157816A
:10252000248135814217530744F4A081B1819D0174
:102530002F5F3F4F318320838C93268137812F5F1C
:102540003F4F3783268314C08B01EC01FB010084CD
:10255000F185E02D1995892BE1F6D80116968D911C
:102560009C911797019617969C938E931697CE0180
:10257000DF91CF911F910F910895FA01AA2728307A
:1025800051F1203181F1E8946F936E7F6E5F7F4F40
:102590008F4F9F4FAF4FB1E03ED0B4E03CD0670FBC
:1025A000781F891F9A1FA11D680F791F8A1F911D0F
:1025B000A11D6A0F711D811D911DA11D20D009F45F
:1025C00068943F912AE0269F11243019305D3193A1
:1025D000DEF6CF010895462F4770405D4193B3E08A
:1025E0000FD0C9F7F6CF462F4F70405D4A3318F031
:1025F000495D31FD4052419302D0A9F7EACFB4E0E2
:10260000A6959795879577956795BA95C9F7009799
:102610006105710508959B01AC010A2E069457953A
:10262000479537952795BA95C9F7620F731F841F91
:0A263000951FA01D0895F894FFCF38
:10263A00DC050200004000140054004F7665726801
:10264A00656174696E67204572726F720052616EBD
:10265A006765204572726F7200436865636B7375B4
:10266A006D204572726F72004F7665726C6F61648D
:10267A00204572726F7200496E7374727563746961
:10268A006F6E204572726F720025316400253264C4
:10269A000025336400253464002A2A2A2A2A2A2A91
:1026AA002A2A2A2A2A2A2A2A2A2A2A2A2A2A0023B1
:1026BA00232053746172743A200020232323232396
:1026CA0023232323232323232323232323232300F3
:1026DA002C2000232320456E642023232323232335
:1026EA0023232323232323232323232323232300D3
:1026FA007349443A006465673A0072706D3A006C37
:10270A0064253A0043572000434357004552524F2D
:10271A00523A0020202020202020202020000000E3
:10272A0000004B075609DF069707B106CB06BD0620
:10273A000D0A006E616E00696E66006F76660000B3
:10274A00000000DE0C56091D08200800000000C524
:0E275A000D990D1D08620D370D3F0D530D003A
:00000001FF
