S01600004D456E6750726F6A65637441726D2E73726563B0
S11300000AC1000039C1000037C1000035C1000039
S113001033C1000031C100002FC100002DC1000018
S11300202BC10000ABC2000027C1000025C10000A5
S113003023C1000021C100001FC100001DC1000038
S11300401BC1000019C1000017C1000015C1000048
S113005013C1000011C100000FC100000C94600A1C
S11300600BC10000EAC700000C94530805C100004E
S113007003C1000001C10000FFC00000FDC000007A
S1130080FBC00000F9C00000F7C00000F5C000008C
S11300900C94B2080C94E808EFC000000C94D80E3D
S11300A0EBC00000E9C00000E7C00000E5C00000AC
S11300B0E3C00000E1C00000DFC00000DDC00000BC
S11300C0DBC00000D9C00000D7C00000D5C00000CC
S11300D0D3C00000D1C00000CFC00000CDC00000DC
S11300E0CBC000008F0B920B810B850B8B0BC90BC4
S11300F0960B9A0BA00BA40BA80BAE0BB20BB60B72
S1130100C90BBC0BC00BC40B00000A0B02090C0D7D
S11301100E080703040100000000000000000000B6
S113012000000000000000000000000000000000CB
S11301300000000012111000000000000000000088
S113014000000000000000000000000000000102A8
S113015010202008081020401020408002010201D5
S1130160080402010102040810204080804020108D
S113017008040201800402018040201008040201E6
S1130180080402010102040810204080010204084E
S11301901020408005050505070508080808020227
S11301A002020A0A0808040404040101010101010D
S11301B001010303030303030303040707070C0CF0
S11301C00C0C0C0C0C0C02020202060606060606B7
S11301D006060B0B0B0B0B0B0B0B00002200250070
S11301E028002B002E00310034000201000005011C
S11301F008010B0100002100240027002A002D0023
S11302003000330001010000040107010A01C501A7
S113021085081A09200E11241FBECFEFD1E2DEBFDC
S1130220CDBF00E00CBF12E0A0E0B2E0EAE1F6E2EC
S113023000E00BBF02C007900D92A83EB107D9F7AA
S113024025E0A8EEB2E001C01D92A630B207E1F7A6
S113025011E0CBE0D1E000E006C021970109802F36
S1130260FE010E942810C730D10780E00807A9F7D3
S11302700E9448090C940B13C3CEDC01ED91FC9150
S11302800190F081E02D19948F929F92AF92BF92CA
S1130290CF92DF92EF92FF920F931F93CF93DF934E
S11302A000D01F921F92CDB7DEB7B82EA62E942E83
S11302B0852ECDB6DEB68DB79EB7821B91090FB6DB
S11302C0F8949EBF0FBE8DBF0DB71EB70F5F1F4FB3
S11302D01F922F938BE092E09F938F93CE01019610
S11302E07C019F938F930E9430108F929F92FF9274
S11302F0EF921F930F930E9430104A2D6B2D88EEBE
S113030092E00E949A0CB80188EE92E00E94910952
S11303108DB79EB70C960FB6F8949EBF0FBE8DBFD7
S11303200FB6F894DEBE0FBECDBE0F900F900F90A7
S11303300F900F90DF91CF911F910F91FF90EF904D
S1130340DF90CF90BF90AF909F908F9008958FEFE4
S113035084B984B1887F84B9EBE6F0E0808187605A
S11303608083E8E6F0E0808181608083789408955A
S1130370382FFC0180E090E02E2F231B261720F459
S11303802191820F911DF8CF0895809100029091E0
S113039001029093FA028093F90224E044E167E2B7
S11303A088EE92E00C94340CCF92DF92EF92FF929D
S11303B00F931F93CF93DF93F82EE62E6A01022F3B
S11303C066E06E0DD62FD20F622FCA01D1DFC82F7F
S11303D061E082E00E94060C61E083E00E94060C6A
S11303E061E070E080E090E00E94CF0A6FEF70E07F
S11303F08CE993E042DF6FEF70E08CE993E03DDF3E
S11304006F2D8CE993E043D510E0B8016D5F7F4F09
S11304108CE993E032DF63E070E08CE993E02DDF58
S11304206E2D8CE993E033D5A801B6018CE993E0F5
S113043039D7DF0DCD0FC0956C2F70E08CE993E0B8
S11304401CDF8CE993E06FD560E082E00E94060C2B
S113045060E083E00E94060C61E070E080E090E0E0
S1130460DF91CF911F910F91FF90EF90DF90CF908C
S11304700C94CF0A0F931F93CF93DF9300D01F9256
S1130480CDB7DEB78B019CEF980F923058F4643EE1
S1130490724014F404EE12E0053A96E0190714F0E1
S11304A004EA16E009831A834B835C8324E0AE01DB
S11304B04F5F5F4F6EE178DF1093FA020093F90209
S11304C00F900F900F900F90DF91CF911F910F918C
S11304D00895CF93DF931F921F92CDB7DEB7698340
S11304E07A8322E0AE014F5F5F4F62E25DDF0F90DF
S11304F00F90DF91CF910895CF93DF9300D01F9297
S1130500CDB7DEB719821A821B821C8224E0AE01A9
S11305104F5F5F4F66E048DF0F900F900F900F9092
S1130520DF91CF910895CF93DF9300D01F92CDB781
S1130530DEB7613011F4E0DF16C0623031F42FEF22
S113054029839FE09A832B8307C094EE998392E0DA
S11305509A8394EA9B8396E09C8324E0AE014F5FE8
S11305605F4F66E021DF0F900F900F900F90DF91A7
S1130570CF91089560E0D7CF62E0D5CF1F920F925C
S11305800FB60F9211240BB60F922F933F934F93F4
S11305905F936F937F938F939F93AF93BF93EF93E7
S11305A0FF93189B15C02F9A189B11C06091F902F4
S11305B07091FA026150710944E150E080910202A5
S11305C059DF68EC70E080E090E0E9D7EDCF2F9838
S11305D0199B15C02F9A199B11C06091F902709153
S11305E0FA026F5F7F4F44E150E08091020242DFE4
S11305F068EC70E080E090E0D2D7EDCF2F981A9BA2
S11306001FC01F9A64E170E080E090E0C8D71A9B95
S113061005C061E070E080E090E0F8CF80910202D4
S1130620853010F48F5F01C081E080930202843032
S113063010F0A0DF05C0833011F49EDF01C05CDF41
S1130640FF91EF91BF91AF919F918F917F916F91A6
S11306505F914F913F912F910F900BBE0F900FBE62
S11306600F901F9018951F93CF93DF93C82FD62F09
S1130670142F61E082E00E94060C61E083E00E9496
S1130680060C61E070E080E090E089D76FEF70E0E5
S11306908CE993E0F2DD6FEF70E08CE993E0EDDD3F
S11306A06C2F8CE993E0F3D364E070E08CE993E081
S11306B0E4DD62E070E08CE993E0DFDD6D2F8CE92E
S11306C093E0E5D3612F8CE993E0E1D31A5FD10F76
S11306D0CD0FC0956C2F70E08CE993E0CEDD8CE9F2
S11306E093E021D460E082E00E94060C60E083E0A5
S11306F00E94060C61E070E080E090E0DF91CF9111
S11307001F914DC761E472E08FEF92E00AD68CE945
S113071093E023D34AE050E0BC018FEF92E0BAD6D5
S11307206CE472E08FEF92E007D68CE993E015D386
S1130730892BE9F08CE993E010D34AE050E0BC0146
S11307408FEF92E0A7D662E672E08FEF92E0E9D5F0
S11307508CE993E01CD34AE050E0BC018FEF92E0B7
S11307609FD661E070E080E090E019D7DECF65E6C7
S113077072E08FEF92E0E0C5CF93E9DD88EE92E07E
S11307800E94260D88EE92E00E94540C88EE92E0BE
S11307900E94900C61E082E0FDD761E083E0FAD72B
S11307A026E040E051EE60E070E08FEF92E0DCD3B1
S11307B026E047E35FED60E070E08CE993E0D4D39A
S11307C08CE993E0B0D381E097DE82E095DE83E0AC
S11307D0D3DE84E0CFDE85E0CDDEC1E06FEF73E0F1
S11307E08C2F77DECF5FC630C9F740E060E088EE3B
S11307F092E00E949A0C62E872E088EE92E091D551
S113080041E060E088EE92E00E949A0C67E872E0B2
S113081088EE92E086D542E060E088EE92E00E94A5
S11308209A0C6CE872E088EE92E07BD543E060E0DD
S113083088EE92E00E949A0C61E972E088EE92E000
S113084070D548E068E1809102020DDF5BDF62E071
S113085070E080E090E0CF91A2C6AF92BF92CF92B9
S1130860DF92EF92FF920F931F93CF93DF936AE08F
S113087070E080E090E093D68CE993E06ED2181695
S113088019060CF037C18CE993E081D28F3F9105B2
S113089009F030C18CE993E07AD28F3F910509F0D9
S11308A029C18CE993E073D26C018CE993E06FD297
S11308B0D82F8CE993E06BD2C82F811103C08091AB
S11308C0F80201C08C2F8093F80240E067E088EEC4
S11308D092E00E949A0C8091F6029091F702C11165
S11308E002C00097E9F08B30910514F4019602C020
S11308F080E090E09093F7028093F60266E972E05C
S113090088EE92E00ED54AE050E06091F80288EE5D
S113091092E075D564EA72E088EE92E002D5BCC03C
S11309206DE972E088EE92E0FCD4D33008F4B4C0F0
S11309308CE993E02CD2EC018CE993E028D22FEFE0
S1130940AC01249FC001259F900D11247C01EC0E65
S1130950FD1E2091FD023091FE028091FB029091D8
S1130960FC02E216F3060CF401969093FC028093C9
S1130970FB02F092FE02E092FD028CE993E007D2C2
S11309808C018CE993E003D2DFEF9C01D29FC0017C
S1130990D39F900D1124080F191F8CE993E0F7D110
S11309A05C018CE993E0F3D1AC01D49FC001D59FE5
S11309B0900D1124EC01CA0DDB1D8CE993E0E7D105
S11309C08CE993E0E4D18CE993E0E1D18CE993E004
S11309D0DED18CE993E0DBD18CE993E0D8D18CE9CA
S11309E093E0D5D18CE993E0D2D18CE993E0CFD1D7
S11309F0011554E0150724F01450AA24A39401C04F
S1130A00A12CC11584E0D80724F0D450BB24B3949E
S1130A1001C0B12CA601552721E060E084E034DC5C
S1130A20B7010F2C000C880B990BA8D028E539E3EB
S1130A3044EB5DE307D16FD023E0AB0161E084E0D8
S1130A4023DC6FED88EE92E06DD424E0A70161E031
S1130A508AE01ADC4091F9025091FA0224E061E044
S1130A608FE012DC23E0A80162E084E00DDCA11039
S1130A7002C06FE701C06EE788EE92E053D423E032
S1130A80AE0163E084E000DCB11002C06FE701C096
S1130A906EE788EE92E046D48CE993E05ED11816B6
S1130AA0190624F48CE993E072D1F6CF61E070E08A
S1130AB080E090E074D54091F4025091F502403109
S1130AC027E252071CF44F5F5F4F02C040E050E042
S1130AD05093F5024093F40224E060E080E1DF915A
S1130AE0CF911F910F91FF90EF90DF90CF90BF9027
S1130AF0AF90CACBDF91CF911F910F91FF90EF90F0
S1130B00DF90CF90BF90AF90089542E264E280916D
S1130B100202A9DDA2CE04D06894B1118DC008955B
S1130B2070D088F09F5790F0B92F9927B751A0F053
S1130B30D1F0660F771F881F991F1AF0BA95C9F76D
S1130B4012C0B13081F077D0B1E0089574C0672F3E
S1130B50782F8827B85F39F0B93FCCF3869577951D
S1130B606795B395D9F73EF4909580957095619506
S1130B707F4F8F4F9F4F0895E89409C097FB3EF431
S1130B8090958095709561957F4F8F4F9F4F9923D6
S1130B90A9F0F92F96E9BB279395F6958795779554
S1130BA06795B795F111F8CFFAF4BB0F11F460FF14
S1130BB01BC06F5F7F4F8F4F9F4F16C0882311F06C
S1130BC096E911C0772321F09EE8872F762F05C080
S1130BD0662371F096E8862F70E060E02AF09A951B
S1130BE0660F771F881FDAF7880F9695879597F910
S1130BF0089557FD9058440F551F59F05F3F71F009
S1130C004795880F97FB991F61F09F3F79F087956F
S1130C100895121613061406551FF2CF4695F1DFF8
S1130C2008C0161617061806991FF1CF8695710588
S1130C30610508940895E894BB2766277727CB01BC
S1130C4097F908950BD078C069D028F06ED018F0C9
S1130C50952309F05AC05FC01124EECFCADFA0F378
S1130C60959FD1F3950F50E0551F629FF001729F3D
S1130C70BB27F00DB11D639FAA27F00DB11DAA1F5C
S1130C80649F6627B00DA11D661F829F2227B00DA9
S1130C90A11D621F739FB00DA11D621F839FA00D34
S1130CA0611D221F749F3327A00D611D231F849F84
S1130CB0600D211D822F762F6A2F11249F575040DB
S1130CC08AF0E1F088234AF0EE0FFF1FBB1F661F76
S1130CD0771F881F91505040A9F79E3F510570F02F
S1130CE014C0AACF5F3FECF3983EDCF3869577956A
S1130CF06795B795F795E7959F5FC1F7FE2B880F2A
S1130D00911D9695879597F9089597F99F6780E8BF
S1130D1070E060E008959FEF80EC089500240A9449
S1130D201616170618060906089500240A941216C2
S1130D301306140605060895092E0394000C11F4F5
S1130D40882352F0BB0F40F4BF2B11F460FF04C0A2
S1130D506F5F7F4F8F4F9F4F0895FC01918D228DC0
S1130D60892F90E0805C9F4F821B91098F73992794
S1130D700895FC01918D828D981731F0828DE80FD2
S1130D80F11D858D90E008958FEF9FEF0895FC018C
S1130D90918D828D981761F0828DDF01A80FB11DAE
S1130DA05D968C91928D9F5F9F73928F90E00895D2
S1130DB08FEF9FEF0895FC01538D448D252F30E074
S1130DC0842F90E0821B930B541710F0CF96089554
S1130DD0019708958CE798E0892B39F080E090E042
S1130DE0892B19F089D1811124C081E199E0892BE3
S1130DF039F080E090E0892B19F013D281111CC0E6
S1130E0080E090E0892B41F080E090E0892B21F094
S1130E100E940000811113C080E090E0892BA1F0B2
S1130E2080E090E0892B81F00E94000081110AC0CB
S1130E3008950E940000D9CF0E940000E1CF0E94D3
S1130E400000EACF0C9400000895FC01848DDF01BA
S1130E50A80FB11DA35ABF4F2C91848D90E0019629
S1130E608F739927848FA689B7892C93A089B18918
S1130E708C91837080648C93938D848D981306C0B9
S1130E800288F389E02D80818F7D80830895EF921D
S1130E90FF920F931F93CF93DF93EC0181E0888F30
S1130EA09B8D8C8D981305C0E889F989808185FD17
S1130EB025C0F62E0B8D10E00F5F1F4F0F73112707
S1130EC0E02E8C8DE8120BC00FB607FCFACFE88930
S1130ED0F989808185FFF5CFCE01B7DFF2CF8B8D05
S1130EE0FE01E80FF11DE35AFF4FF0829FB7F8941B
S1130EF00B8FEA89FB89808180620AC09FB7F894CE
S1130F00EE89FF896083E889F98980818370806430
S1130F1080839FBF81E090E0DF91CF911F910F917B
S1130F20FF90EF900895CF93DF93EC01888D882391
S1130F30C1F0EA89FB89808185FD05C0A889B9894A
S1130F408C9186FD0EC00FB607FCF5CF808185FF1E
S1130F50F2CFA889B9898C9185FFEDCFCE0175DFD9
S1130F60E8CFDF91CF910895CF92DF92EF92FF9275
S1130F701F93CF93DF93EC016A017B01122FE88961
S1130F80F98982E080834115514E61057105B1F004
S1130F9060E079E08DE390E0A70196010E940610DD
S1130FA0DA01C9010197A109B109B695A7959795E9
S1130FB087959C01211580E13807A8F0E889F98913
S1130FC0108260E874E88EE190E0A70196010E9427
S1130FD00610DA01C9010197A109B109B695A795CF
S1130FE0979587959C01EC85FD853083EE85FF857B
S1130FF02083188EEC89FD891083EA89FB8980811E
S113100080618083EA89FB89808188608083EA89A2
S1131010FB89808180688083EA89FB8980818F7D58
S11310208083DF91CF911F91FF90EF90DF90CF905D
S1131030089580E090E0089508951F920F920FB6EE
S11310400F9211240BB60F922F938F939F93EF93CC
S1131050FF93E0910F03F09110038081E091150359
S1131060F091160382FD12C09081809118038F5F66
S11310708F7320911903821751F0E0911803F0E067
S1131080E150FD4F958F8093180301C08081FF913B
S1131090EF919F918F912F910F900BBE0F900FBEE8
S11310A00F901F9018951F920F920FB60F92112454
S11310B00BB60F922F933F934F935F936F937F934E
S11310C08F939F93AF93BF93EF93FF938FEF92E030
S11310D0BCDEFF91EF91BF91AF919F918F917F9172
S11310E06F915F914F913F912F910F900BBE0F9095
S11310F00FBE0F901F9018958FEF92E02EDE21E027
S1131100892B09F420E0822F0895EFEFF2E0138297
S1131110128288EE93E0A0E0B0E084839583A683F6
S1131120B7838CEA92E09183808385EC90E0958785
S1131130848784EC90E09787868780EC90E0918B9D
S1131140808B81EC90E0938B828B82EC90E0958B8A
S1131150848B86EC90E0978B868B118E128E138E87
S1131160148E08951F920F920FB60F9211240BB68E
S11311700F922F938F939F93EF93FF93E091AC0380
S1131180F091AD038081E091B203F091B30382FD4D
S113119012C090818091B5038F5F8F732091B60345
S11311A0821751F0E091B503F0E0E456FC4F958FBF
S11311B08093B50301C08081FF91EF919F918F913E
S11311C02F910F900BBE0F900FBE0F901F9018958C
S11311D01F920F920FB60F9211240BB60F922F93FA
S11311E03F934F935F936F937F938F939F93AF93AB
S11311F0BF93EF93FF938CE993E027DEFF91EF9188
S1131200BF91AF919F918F917F916F915F914F911A
S11312103F912F910F900BBE0F900FBE0F901F9018
S113122018958CE993E099DD21E0892B09F420E0FD
S1131230822F0895ECE9F3E01382128288EE93E0A2
S1131240A0E0B0E084839583A683B7838CEA92E020
S1131250918380838DEC90E0958784878CEC90E07B
S11312609787868788EC90E0918B808B89EC90E05F
S1131270938B828B8AEC90E0958B848B8EEC90E040
S1131280978B868B118E128E138E148E089508956B
S1131290CAD1FDDF71DACAEED6E037DC2097E9F374
S11312A099DDFBCFCF92DF92EF92FF920F931F93C2
S11312B0CF93DF936C017A018B01C0E0D0E0CE15AF
S11312C0DF0581F0D8016D918D01D601ED91FC917E
S11312D00190F081E02DC6011995892B11F021961A
S11312E0EECF7E01C701DF91CF911F910F91FF9047
S11312F0EF90DF90CF9008956115710579F0FB01AF
S113130001900020E9F73197AF01461B570BDC0130
S1131310ED91FC910280F381E02D199480E090E03E
S11313200895EACFDC01ED91FC910190F081E02D6C
S113133019946AEB72E0E0CF0F931F93CF93DF937E
S1131340EC01DADF8C01CE01F4DF800F911FDF9115
S1131350CF911F910F9108958F929F92AF92BF9258
S1131360EF92FF920F931F93CF93DF93CDB7DEB726
S1131370A1970FB6F894DEBF0FBECDBF7C01FA0172
S1131380CB0119A2223008F42AE08E010F5D1F4F11
S1131390822E912CA12CB12CBF01A501940136D62B
S11313A0F901CA01015011096A3010F4605D01C0ED
S11313B0695CD8016C93232B242B252B69F7B80186
S11313C0C7019ADFA1960FB6F894DEBF0FBECDBF5A
S11313D0DF91CF911F910F91FF90EF90BF90AF904D
S11313E09F908F9008952115310541F4DC01ED9112
S11313F0FC910190F081E02D642F1994ADCF9A01F6
S1131400462F50E060E070E0EECFCF92DF92EF9293
S1131410FF920F931F93CF93DF932115310581F42E
S1131420DC01ED91FC910190F081E02D642FDF91BE
S1131430CF911F910F91FF90EF90DF90CF9019946F
S11314402A303105F1F477FF1BC06A017B01EC01FE
S11314506DE268DF8C0144275527BA014C195D09F8
S11314606E097F092AE0CE0177DF800F911FDF919B
S1131470CF911F910F91FF90EF90DF90CF9008953F
S11314802AE0DF91CF911F910F91FF90EF90DF90B1
S1131490CF9062CF9A01AB01770F660B770BB5CF74
S11314A00F931F93CF93DF93EC01F4DF8C01CE01F4
S11314B040DF800F911FDF91CF911F910F9108950D
S11314C01F920F920FB60F9211242F933F938F9375
S11314D09F93AF93BF9380913A0490913B04A09162
S11314E03C04B0913D043091390423E0230F2D379F
S11314F020F40196A11DB11D05C026E8230F029614
S1131500A11DB11D2093390480933A0490933B04A8
S1131510A0933C04B0933D0480913E0490913F0419
S1131520A0914004B09141040196A11DB11D809386
S11315303E0490933F04A0934004B0934104BF91B0
S1131540AF919F918F913F912F910F900FBE0F906C
S11315501F9018953FB7F89480913E0490913F04F2
S1131560A0914004B091410426B5A89B05C02F3F2B
S113157019F00196A11DB11D3FBFBA2FA92F982FB5
S11315808827820F911DA11DB11DBC01CD0142E030
S1131590660F771F881F991F4A95D1F708958F9278
S11315A09F92AF92BF92CF92DF92EF92FF926B0124
S11315B07C01D0DF4B015C01C114D104E104F104CE
S11315C0F1F041D3C7DFDC01CB0188199909AA09DD
S11315D0BB09883E9340A105B10570F321E0C21A0E
S11315E0D108E108F10888EE880E83E0981EA11C5A
S11315F0B11CC114D104E104F10421F7DDCFFF9043
S1131600EF90DF90CF90BF90AF909F908F90089510
S11316108230910538F0880F991F880F991F05971C
S11316200197F1F70895789484B5826084BD84B5F8
S1131630816084BD85B5826085BD85B5816085BDC9
S1131640EEE6F0E0808181608083E1E8F0E01082E2
S1131650808182608083808181608083E0E8F0E023
S1131660808181608083E1EBF0E08081846080830D
S1131670E0EBF0E0808181608083E1E9F0E080814B
S113168082608083808181608083E0E9F0E08081F2
S113169081608083E1EAF0E08081826080838081E0
S11316A081608083E0EAF0E0808181608083E1E210
S11316B0F1E0808182608083808181608083E0E2C8
S11316C0F1E0808181608083EAE7F0E080818460DA
S11316D08083808182608083808181608083808137
S11316E0806880831092C100089590E0FC013197D6
S11316F0E231F10508F04DC08827EE58FF4F8F4FB7
S1131700A7C4809180008F7703C0809180008F7D73
S113171080938000089580918000877FF9CF84B5FD
S11317208F7702C084B58F7D84BD08958091B00009
S11317308F7703C08091B0008F7D8093B0000895AF
S1131740809190008F7707C0809190008F7D03C0B7
S113175080919000877F8093900008958091A000ED
S11317608F7707C08091A0008F7D03C08091A00077
S1131770877F8093A0000895809120018F7707C010
S1131780809120018F7D03C080912001877F809309
S113179020010895CF93DF9390E0FC01E25BFE4FBC
S11317A02491FC01EC56FE4F8491882361F190E072
S11317B0880F991FFC01EC50FE4FC591D491FC0198
S11317C0E652FE4FA591B491611109C09FB7F894F8
S11317D08881209582238883EC912E230BC062306C
S11317E061F49FB7F8948881322F309583238883DE
S11317F0EC912E2B2C939FBF06C08FB7F894E881F1
S11318002E2B28838FBFDF91CF9108951F93CF9301
S1131810DF93282F30E0F901E85FFE4F8491F9014E
S1131820E25BFE4FD491F901EC56FE4FC491CC23F8
S1131830B9F0162F811159DFEC2FF0E0EE0FFF1FE6
S1131840E652FE4FA591B4919FB7F894111104C0CC
S11318508C91D095D82302C0EC91DE2BDC939FBFF2
S1131860DF91CF911F910895FC01138212828DECB8
S113187092E091838083648341872287138608954D
S11318801F93CF93DF93EC01162F6C8182E494E0D5
S1131890B9D16B85612B82E494E067D182E494E052
S11318A0DF91CF911F91CAC128E0FC01238760E03A
S11318B0E7CF0F931F93CF938C01C62F6460E0DFB3
S11318C081E090E0A5DE6C2F6B7FC801D9DF82E355
S11318D090E0CF911F910F919BCE1F93CF93DF93F5
S11318E0EC01162FCDDF612FCE01DF91CF911F9137
S11318F0E0CF0F931F93CF93DF938C01C62FD42F88
S1131900607F642BEADF80E1C89FB00111246D2B56
S1131910C801DF91CF911F910F91DFCF40E0E9CF54
S113192061E0FCDF80ED97E073CE62E0F7DF80EDED
S113193097E06ECECF93DF93CDB7DEB728970FB67F
S1131940F894DEBF0FBECDBF9C0188E0E3E0F2E077
S1131950DE01119601900D928A95E1F7F9018085D7
S1131960841710F44FEF480FFE013196E40FF11D78
S1131970E40FF11D9081690F6068C90128960FB6C4
S1131980F894DEBF0FBECDBFDF91CF91C7CFFC016E
S11319906681262F246026836C60C0CF41E0A9DFD6
S11319A081E090E00895CF93DF93EC01423018F08A
S11319B08D8188608D834887222329F0413019F472
S11319C08D8184608D8362E370E080E090E0E7DDE8
S11319D06B85CE0155DF68EE73E080E090E0DFDDDB
S11319E060E3CE017ADF84E991E112DE60E3CE01A7
S11319F074DF84E991E10CDE60E3CE016EDF86E9F9
S1131A0090E006DE60E2CE0168DF6D816062CE01A7
S1131A1085DF84E08E83CE01BADFCE0181DF82E0F0
S1131A208F8366E0CE017ADFCE01DF91CF917DCF47
S1131A30CF93DF93EC0182E494E0D5D01D8220E0C3
S1131A404A856985CE01DF91CF91ADCFF1CF8091E9
S1131A50760490E020917704821B91090895909177
S1131A60770480917604981750F4E92FF0E0E85851
S1131A70FB4F208130E09F5F9093770402C02FEFEB
S1131A803FEFC9010895E091770480917604E81747
S1131A9030F4F0E0E858FB4F808190E008958FEF38
S1131AA09FEF08950895CF93DF93EC01E0914E04E6
S1131AB0F0914F043097F1F090917704809176047F
S1131AC09817C0F090E0292F30E02617370754F418
S1131AD0DE01A20FB31F4C91D901A858BB4F4C9300
S1131AE09F5FF1CF1092770460937604CB01DF916E
S1131AF0CF911994DF91CF910895E0915004F09122
S1131B005104309729F010925404109253041994FC
S1131B100895CF92DF92EF92FF920F931F93CF938A
S1131B20DF937C01CB018A0120915204222389F0A6
S1131B30EB016B01C40ED51ECC15DD0561F0699176
S1131B40D701ED91FC910190F081E02DC701199529
S1131B50F3CF642FEBD0C801DF91CF911F910F9188
S1131B60FF90EF90DF90CF900895CF93DF931F9273
S1131B70CDB7DEB76983209152042223D1F020919E
S1131B805304203240F021E030E0FC01338322830F
S1131B9080E090E014C080915404E82FF0E0EB5A08
S1131BA0FB4F998190838F5F8093540480935304F7
S1131BB004C061E0CE010196B9D081E090E00F90BD
S1131BC0DF91CF910895FC011382128288EE93E095
S1131BD0A0E0B0E084839583A683B78389ED92E087
S1131BE09183808308951092770410927604109262
S1131BF054041092530428D08DE79DE0C4D083E5AB
S1131C009DE0BCC081E080935204609375041092FF
S1131C1054041092530408950F93062F21E0409129
S1131C20530465E574E0809175042AD0109254043D
S1131C3010925304109252040F91089561E0ECCF76
S1131C4082E494E0C0CF08951092050581E080936A
S1131C5003051092020561E084E1D8DD61E085E1CD
S1131C60D5DDE9EBF0E080818E7F808380818D7FFC
S1131C70808388E48093B80085E48093BC00089551
S1131C800F93413208F04AC0909105059111FCCFA1
S1131C9032E030930505009303053FEF3093980439
S1131CA01092DD044093DC04562FAEEDB4E0FB014A
S1131CB03E2F351B341718F431913D93F9CF109210
S1131CC0040530910405880F832B809304058091CB
S1131CD00205813061F4109202058091040580931D
S1131CE0BB008091BC0083FDF8CF85EC01C085EE7C
S1131CF08093BC00222321F0809105058230D1F32A
S1131D00809198048F3F79F080919804803241F05B
S1131D1080919804803331F094E005C091E003C0D1
S1131D2092E001C093E0892F0F9108954091BA0485
S1131D30262F30E0240F311D21323105DCF42091AF
S1131D4005052430C9F4FC0180E090E0861758F4BE
S1131D503091BA042191DC01A454BB4FA30FB11DEF
S1131D602C930196F3CF8091BA04680F6093BA0460
S1131D7080E0089581E0089582E008959093FF043F
S1131D808093FE04089590930105809300050895BF
S1131D9085ED8093BC008091BC0084FDFCCF109243
S1131DA00505089585EC8093BC00109205050895FF
S1131DB01F920F920FB60F9211240BB60F922F930E
S1131DC03F934F935F936F937F938F939F93AF93BF
S1131DD0BF93EF93FF938091B900887F803609F415
S1131DE09DC070F5883209F45CC090F4803109F428
S1131DF055C038F4882309F4F3C0883009F44EC080
S1131E00F2C0883109F44DC0803209F45EC0EBC0E1
S1131E10803409F469C050F4803309F456C088331F
S1131E2009F0E1C080939804BDDFDDC0803509F47A
S1131E304FC0883509F45DC0883409F0D4C0D2C0DD
S1131E40883909F4C3C0A8F4883709F467C038F4A2
S1131E50883609F463C0803709F460C0C4C0883888
S1131E6009F4B4C0803909F45FC0803809F0BBC0FC
S1131E705BC0803B09F482C038F4803A09F466C040
S1131E80883A09F47BC0AFC0803C09F4A3C0883C05
S1131E9009F4A0C0883B09F486C0A5C0809104055C
S1131EA010C09091DD048091DC04981770F5E091E6
S1131EB0DD0481E08E0F8093DD04F0E0E252FB4FFD
S1131EC080818093BB0085EC82C0809398048AC093
S1131ED0E091DD0481E08E0F8093DD048091BB00EE
S1131EE0F0E0E252FB4F80839091DD048091DC04AA
S1131EF06AC0E091DD0481E08E0F8093DD0480915F
S1131F00BB00F0E0E252FB4F808380910305811116
S1131F1069C081E08093020584EA5DC083E0809318
S1131F20050510929904CFCF80919904803208F06E
S1131F304DC0E091990481E08E0F809399048091C3
S1131F40BB00F0E0E656FB4F8083BDCF2BDF8091D2
S1131F509904803230F4E0919904F0E0E656FB4FA6
S1131F6010826091990470E0E091FE04F091FF0406
S1131F708AE994E019951092990435C084E080931D
S1131F8005051092BB041092BA04E0910005F0918B
S1131F90010519958091BA04811105C081E08093EF
S1131FA0BA041092BC04E091BB0481E08E0F8093CC
S1131FB0BB04F0E0E454FB4F80818093BB0090911C
S1131FC0BB048091BA04981708F47DCF85E8809308
S1131FD0BC0009C085EC8093BC001092050503C0C9
S1131FE010929804D5DEFF91EF91BF91AF919F912C
S1131FF08F917F916F915F914F913F912F910F90AE
S11320000BBE0F900FBE0F901F901895A1E21A2ED1
S1132010AA1BBB1BFD010DC0AA1FBB1FEE1FFF1F88
S1132020A217B307E407F50720F0A21BB30BE40BD8
S1132030F50B661F771F881F991F1A9469F760951F
S11320407095809590959B01AC01BD01CF010895D9
S1132050EE0FFF1F881F8BBF0790F691E02D199498
S11320600F931F93CF93DF93CDB7DEB72E970FB6A1
S1132070F894DEBF0FBECDBF0E891F8986E08C8326
S11320801A8309838FEF9FE79E838D83AE01465E9B
S11320905F4F688D798DCE01019610D0EF81F88560
S11320A0E00FF11F10822E960FB6F894DEBF0FBE1C
S11320B0CDBFDF91CF911F910F9108952F923F9241
S11320C04F925F926F927F928F929F92AF92BF9244
S11320D0CF92DF92EF92FF920F931F93CF93DF93F0
S11320E0CDB7DEB72B970FB6F894DEBF0FBECDBFCA
S11320F06C017B018A01FC0117821682838181FFB6
S1132100BFC1CE0101963C01F6019381F70193FD15
S1132110859193FF81917F01882309F4ADC18532B4
S113212039F493FD859193FF81917F01853221F4E8
S1132130B60190E0D6D1E8CF912C212C312CFFE1CF
S1132140F315D8F08B3279F038F4803279F0833299
S1132150A1F4232D20611DC08D3261F0803369F418
S1132160232D216016C0832D8260382EE32DE46078
S11321703E2E2AC0F32DF8601DC037FC2DC020ED83
S1132180280F2A3040F08E32B9F436FC75C1232D65
S11321902064322E19C036FE06C08AE0989E200DB7
S11321A01124922E11C0EAE02E9E200D1124222E1D
S11321B0F32DF0623F2E08C08C3621F4832D806805
S11321C0382E02C0883641F4F70193FD859193FFC0
S11321D081917F018111B3CF982F9F7D95549330C6
S11321E028F40C5F1F4F9FE399830DC0833631F0B1
S11321F0833771F0833509F055C020C0F801808120
S113220089830E5F1F4F88248394912C530112C03D
S11322102801F2E04F0E511CF801A080B18036FE77
S113222003C0692D70E002C06FEF7FEFC5014ED18E
S11322304C018201F32DFF773F2E15C0280122E0C7
S1132240420E511CF801A080B18036FE03C0692DF6
S113225070E002C06FEF7FEFC5012DD14C01F32D6B
S1132260F0683F2E820133FC19C0822D90E088165D
S11322709906A0F4B60180E290E033D12A94F5CF18
S1132280F50137FC859137FE81915F01B60190E03D
S113229028D121102A9421E0821A910881149104F2
S11322A079F7E1C0843611F0893639F5F80137FE43
S11322B007C060817181828193810C5F1F4F08C0C8
S11322C060817181072E000C880B990B0E5F1F4FE4
S11322D0F32DFF763F2E97FF09C09095809570955A
S11322E061957F4F8F4F9F4FF0683F2E2AE030E07B
S11322F0A30133D1882E861844C0853731F4232DA9
S11323002F7EB22E2AE030E025C0932D997FB92E7E
S11323108F36C1F018F4883579F0AEC0803719F0E3
S1132320883721F0A9C0E92FE061BE2EB4FE0DC0AC
S1132330FB2DF460BF2E09C034FE0AC0292F26608D
S1132340B22E06C028E030E005C020E130E002C033
S113235020E132E0F801B7FE07C06081718182811B
S113236093810C5F1F4F06C06081718180E090E013
S11323700E5F1F4FA301F1D0882E8618FB2DFF7727
S11323803F2E36FE0DC0232D2E7FA22E891458F425
S113239034FE0BC032FC09C0832D8E7EA82E05C0EE
S11323A0B82CA32C03C0B82C01C0B92CA4FE0FC0B8
S11323B0FE01E80DF11D8081803321F49A2D997E70
S11323C0A92E09C0A2FE06C0B394B39404C08A2DFA
S11323D0867809F0B394A3FC10C0A0FE06C0B21422
S11323E080F4280C922C9B180DC0B21458F4B6013A
S11323F080E290E076D0B394F8CFB21418F42B189E
S113240002C0982C212CA4FE0FC0B60180E390E0FA
S113241068D0A2FE16C0A1FC03C088E790E002C009
S113242088E590E0B6010CC08A2D867851F0A1FEB3
S113243002C08BE201C080E2A7FC8DE2B60190E00D
S113244050D0891430F4B60180E390E04AD09A94D5
S1132450F8CF8A94F301E80DF11D8081B60190E074
S113246040D08110F6CF222009F44ECEB60180E28E
S113247090E037D02A94F7CFF6018681978102C085
S11324808FEF9FEF2B960FB6F894DEBF0FBECDBF34
S1132490DF91CF911F910F91FF90EF90DF90CF903C
S11324A0BF90AF909F908F907F906F905F904F9070
S11324B03F902F900895FC010590615070400110E9
S11324C0D8F7809590958E0F9F1F0895FC01615059
S11324D0704001900110D8F7809590958E0F9F1F42
S11324E008950F931F93CF93DF93FB01238121FD65
S11324F003C08FEF9FEF2CC022FF16C04681578187
S1132500248135814217530744F4A081B1819D0190
S11325102F5F3F4F318320838C93268137812F5F38
S11325203F4F3783268314C08B01EC01FB010084E9
S1132530F185E02D1995892BE1F6D80116968D9138
S11325409C911797019617969C938E931697CE019C
S1132550DF91CF911F910F910895FA01AA27283096
S113256051F1203181F1E8946F936E7F6E5F7F4F5C
S11325708F4F9F4FAF4FB1E03ED0B4E03CD0670FD8
S1132580781F891F9A1FA11D680F791F8A1F911D2B
S1132590A11D6A0F711D811D911DA11D20D009F47B
S11325A068943F912AE0269F11243019305D3193BD
S11325B0DEF6CF010895462F4770405D4193B3E0A6
S11325C00FD0C9F7F6CF462F4F70405D4A3318F04D
S11325D0495D31FD4052419302D0A9F7EACFB4E0FE
S11325E0A6959795879577956795BA95C9F70097B6
S11325F06105710508959B01AC010A2E0694579557
S1132600479537952795BA95C9F7620F731F841FAD
S10D2610951FA01D0895F894FFCF54
S113261ADC050500004000140054002525256464E7
S113262A004F76657268656174696E670052616EFF
S113263A676500436865636B73756D004F766572F1
S113264A6C6F616400496E737472756374696F6E3A
S113265A0023232053746172743A20002023232315
S113266A232323232323232323232323232323232C
S113267A23002C2000232320456E642023232323B4
S113268A232323232323232323232323232323230C
S113269A23007349443A006465673A0072706D3ADC
S11326AA006C64253A004552524F523A00202020C9
S11326BA2020202020202000000000004707520983
S11326CADB069307AD06C706B9060D0A006E616EEE
S11326DA00696E66006F76660000000000CE0C5238
S11326EA0919081C0800000000B50D890D190852C3
S10B26FA0D270D2F0D430D0007
S9030000FC
