:100000004BC100007AC1000078C1000076C1000039
:1000100074C1000072C1000070C100006EC1000018
:100020006CC10000F8C3000068C1000066C1000098
:1000300064C1000062C1000060C100005EC1000038
:100040005CC100005AC1000058C1000056C1000048
:1000500054C1000052C1000050C100000C94A80F10
:100060004CC100000C94560D0C948C0D46C1000040
:1000700044C1000042C1000040C100003EC1000078
:100080003CC100003AC1000038C1000036C1000088
:100090000C94EB0D0C94210E30C100000C94B8149C
:1000A0002CC100002AC1000028C1000026C10000A8
:1000B00024C1000022C1000020C100001EC10000B8
:1000C0001CC100001AC1000018C1000016C10000C8
:1000D00014C1000012C1000010C100000EC10000D8
:1000E0000CC1000007634236B79BD8A71A3968567F
:1000F00018AEBAAB558C1D3CB7CC5763BD6DEDFD4A
:10010000753EF6177231BF000000803F0800000006
:10011000BE922449123EABAAAA2ABECDCCCC4C3EFC
:1001200000000080BEABAAAAAA3E00000000BF00EB
:100130000000803F0000000000084178D3BB4387E7
:10014000D1133D190E3CC3BD4282AD2B3E68EC82FB
:1001500076BED98FE1A93E4C80EFFFBE01C4FF7F80
:100160003F0000000000D710DA10C910CD10D310E6
:100170001111DE10E210E810EC10F010F610FA1079
:10018000FE101111041108110C1100000A0B0209D4
:100190000C0D0E0807030401000000000000000021
:1001A000000000000000000000000000000000004F
:1001B000000000000000121110000000000000000C
:1001C000000000000000000000000000000000002F
:1001D0000102102020080810204010204080020159
:1001E000020108040201010204081020408080403E
:1001F000201008040201800402018040201008043D
:1002000002010804020101020408102040800102DA
:1002100004081020408005050505070508080808A2
:10022000020202020A0A080804040404010101018E
:100230000101010103030303030303030407070789
:100240000C0C0C0C0C0C0C0C02020202060606062E
:10025000060606060B0B0B0B0B0B0B0B000022000C
:10026000250028002B002E00310034000201000080
:10027000050108010B0100002100240027002A00CD
:100280002D003000330001010000040107010A01C4
:10029000F202BE0D530E001411241FBECFEFD1E2A7
:1002A000DEBFCDBF00E00CBF13E0A0E0B2E0ECEF9A
:1002B000F5E300E00BBF02C007900D92A235B10735
:1002C000D9F725E0A2E5B3E001C01D92A53AB20737
:1002D000E1F711E0CCE4D1E000E006C0219701098C
:1002E000802FFE010E940816C834D10780E008075D
:1002F000A9F70E94810E0C94FC1A82CEDC01ED91CC
:10030000FC910190F081E02D19944F925F926F92D1
:100310007F928F929F92AF92BF92CF92DF92EF9295
:10032000FF920F931F93CF93DF9300D01F921F92E2
:10033000CDB7DEB7982E862E8A01D22EADB6BEB6C8
:100340008DB79EB7821B91090FB6F8949EBF0FBE62
:100350008DBF01967C01622F70E080E090E054D761
:100360009B01AC0160E070E080E291E40E94190A18
:100370002B013C01B801012E000C880B990B46D7CC
:10038000A30192010CD787FD09C020E030E040E8CE
:100390005FE3C301B2019ED606D78B011F92DF92A5
:1003A00081E192E09F938F93CE0101966C019F9320
:1003B0008F930E9421181F930F93DF92CF92FF9289
:1003C000EF920E942118482D692D84E593E00E9448
:1003D0007A12B70184E593E00E94D90E8DB79EB7DB
:1003E0000C960FB6F8949EBF0FBE8DBF0FB6F89453
:1003F000BEBE0FBEADBE0F900F900F900F900F902E
:10040000DF91CF911F910F91FF90EF90DF90CF90F0
:10041000BF90AF909F908F907F906F905F904F9024
:1004200008958FEF84B984B1887F84B9EBE6F0E05A
:10043000808187608083E8E6F0E08081816080834E
:1004400078940895833031F4CB0177FF0CC080E0BD
:1004500090E009C08450823068F4CB01643E724061
:1004600014F484EE92E0853A26E092072CF084EAB8
:1004700096E008958FEF9FEF0895CF93DF93EB0100
:10048000BC018AE993E00E94CB0E66E372E08AE940
:1004900093E00E94D90E4AE050E0BE018AE993E061
:1004A000DF91CF910C94980FCF92DF92EF92FF9251
:1004B0000F931F93CF93DF93CDB7DEB7E6970FB6B9
:1004C000F894DEBF0FBECDBF082F67E273E0CE0108
:1004D00001967C010E94E31167E273E0CE0107966A
:1004E0000E94E311102F117000FD03C067E273E05A
:1004F00002C067E172E0CE010D960E94E311111176
:1005000003C067E273E002C06BE172E0CE01439684
:100510000E94E311111103C067E273E002C06FE1B2
:1005200072E0CE0149960E94E311111103C067E207
:1005300073E002C063E272E0CE014F960E94E311C5
:10054000111103C067E273E002C067E272E0CE01FE
:1005500085960E94E31167E273E0CE018B960E94BC
:10056000E311670100E010E0B601CE01C1960E94E0
:100570000C12B801CE01C19680DFCE01C1960E9457
:100580007C110F5F1F4F96E0C90ED11C083011057A
:1005900059F78E010F5C1F4F06501109C8010E94C8
:1005A0007C11E016F106C1F780E090E0E6960FB608
:1005B000F894DEBF0FBECDBFDF91CF911F910F9199
:1005C000FF90EF90DF90CF900895382FFC0180E0EE
:1005D00090E02E2F231B261720F42191820F911DCE
:1005E000F8CF0895809106029091070290939403AA
:1005F0008093930324E044E167E284E593E00C9464
:100600001412EF92FF920F931F93CF93DF93182F43
:10061000D62F7A01022FC6E0C60FC20F622FCA0181
:10062000D4DFC10F8C0FC82FC09561E082E00E941B
:100630004E1161E083E00E944E1161E070E080E0C5
:1006400090E00E9417106FEF70E087E394E056DEB1
:100650006FEF70E087E394E051DE809153038823CD
:1006600039F061E070E080E090E00E941710F5CF73
:1006700081E080935303612F87E394E00E94800C14
:1006800010E0B8016D5F7F4F87E394E037DE63E0F1
:1006900070E087E394E032DE6D2F87E394E00E9400
:1006A000800CA801B70187E394E00E948C0E6C2FA8
:1006B00087E394E00E94800C1092530387E394E058
:1006C0000E94CC0C60E082E00E944E1160E083E06A
:1006D0000E944E1161E070E080E090E0DF91CF91E8
:1006E0001F910F91FF90EF900C941710DF92EF92F3
:1006F000FF920F931F93CF93DF9300D01F92CDB73C
:10070000DEB7182FD42EE52E9DDEF82E092F898313
:100710009A83DB82EC8224E0AE014F5F5F4F6EE193
:10072000812F6FDFF09293030093940389E0189F69
:10073000F0011124EB59FC4FF3820483D682E78247
:100740000F900F900F900F90DF91CF911F910F910D
:10075000FF90EF90DF900895CF93DF931F921F9249
:10076000CDB7DEB769837A8322E0AE014F5F5F4F7A
:1007700062E247DF0F900F90DF91CF9108950F93C2
:100780001F93CF93DF9300D01F92CDB7DEB7182F02
:10079000062F613029F419821A821B821C8208C03C
:1007A000623081F49FEF99838FE08A839B838C83EF
:1007B00024E0AE014F5F5F4F66E0812F22DF1630ED
:1007C000A0F01AC084EE898382E08A8384EA8B8356
:1007D00086E08C8324E0AE014F5F5F4F66E0812F9F
:1007E00010DF163048F4033038F489E0189FF00128
:1007F0001124EB59FC4F02830F900F900F900F9034
:10080000DF91CF911F910F91089561E0B8CF60E023
:10081000B6CF62E0B4CF1F920F920FB60F921124A1
:100820000BB60F922F933F934F935F936F937F93EA
:100830008F939F93AF93BF93CF93EF93FF93189BA7
:100840001CC02F9AC9E0189B17C080910802C89F4E
:10085000F0011124EB59FC4F6381748161507109DF
:100860007483638344E150E041DF68EC70E080E032
:1008700090E00E941710E7CF2F98199B1CC02F9A69
:10088000C9E0199B17C080910802C89FF00111248C
:10089000EB59FC4F638174816F5F7F4F7483638377
:1008A00044E150E023DF68EC70E080E090E00E94DB
:1008B0001710E7CF2F981A9B22C01F9A64E170E0AF
:1008C00080E090E00E9417101A9B05C061E070E084
:1008D00080E090E0F7CF80910802853010F48F5FC0
:1008E00001C081E08093080280936503843010F09A
:1008F0008EDF05C0833011F48CDF01C086DFFF91ED
:10090000EF91CF91BF91AF919F918F917F916F9117
:100910005F914F913F912F910F900BBE0F900FBEA3
:100920000F901F9018951F93CF93DF93C82FD62F4A
:10093000142F61E082E00E944E1161E083E00E948A
:100940004E1161E070E080E090E00E9417106FEFC0
:1009500070E087E394E0D2DC6FEF70E087E394E02F
:10096000CDDC81E0809353036C2F87E394E0C8D7FC
:1009700064E070E087E394E0C1DC62E070E087E36C
:1009800094E0BCDC6D2F87E394E0BAD7612F87E356
:1009900094E0B6D766E0610F6D0F6C0F609587E34A
:1009A00094E0AED71092530387E394E0F5D760E06C
:1009B00082E00E944E1160E083E00E944E1161E0EF
:1009C00070E080E090E0DF91CF911F910C941710C0
:1009D0002F923F924F925F926F927F928F929F924F
:1009E000AF92BF92CF92DF92EF92FF920F931F933D
:1009F000CF93DF9300D000D0CDB7DEB7F42E93DFD6
:100A00006AE070E080E090E00E94171081E080933F
:100A1000520387E394E0F4D6182F87E394E0F0D6EE
:100A20001F3F19F411E08F3F09F010E06BE272E014
:100A30008AE993E00E94D90E87E394E0C7D64AE0A2
:100A400050E0BC018AE993E00E94920F69E372E0F2
:100A50008AE993E00E94E40E112309F4A0C087E321
:100A600094E0CED65C016FE472E0CE0101960E9464
:100A7000E311B5017727CE010196FFDCCE01019687
:100A80000E947C1187E394E0BBD64C016BE572E0D9
:100A9000CE0101960E94E311B4017727CE010196A1
:100AA000ECDCCE0101960E947C1187E394E0A8D68D
:100AB0008C01382E67E672E0CE0101960E94E311A8
:100AC000B8017727CE010196D8DCCE0101960E94AD
:100AD0007C1187E394E094D66C013C01772463E7B2
:100AE00072E0CE0101960E94E311B301CE0101969E
:100AF000C4DCCE0101960E947C1181E08F1530F597
:100B000087E394E07DD6282E7C01FF245E2C4424CC
:100B1000460C571C6FE772E0CE0101960E94E3116C
:100B2000B701CE010196A9DCCE0101960E947C118D
:100B30006BE872E0CE0101960E94E311B201CE0192
:100B400001969BDCCE0101960E947C1187E394E024
:100B500057D67C0167E972E0CE0101960E94E3114D
:100B6000B7017727CE01019688DCCE0101960E945D
:100B70007C11A80C0A0D0C0D200E209463EA72E083
:100B8000CE0101960E94E311622D70E0CE01019624
:100B900074DCCE0101960E947C1111E02E1010E051
:100BA00087E394E013D6892B21F087E394E028D6DD
:100BB000F7CF10925203112341F0332049F0832DD7
:100BC00090E091958195910904C081E09FEF01C06B
:100BD000C20126960FB6F894DEBF0FBECDBFDF91DF
:100BE000CF911F910F91FF90EF90DF90CF90BF902A
:100BF000AF909F908F907F906F905F904F903F90BD
:100C00002F9008956FEA72E08AE993E00E94D90E6E
:100C100087E394E0DBD54AE050E0BC018AE993E049
:100C20000E94920F69E372E08AE993E00E94E40E69
:100C300081E08093520387E394E0C8D5892B09F1C2
:100C400087E394E0C3D54AE050E0BC018AE993E031
:100C50000E94920F6AEB72E08AE993E00E94D90E3B
:100C600087E394E0CDD54AE050E0BC018AE993E007
:100C70000E94980F61E070E080E090E00E94171001
:100C8000DACF109252036DEB72E08AE993E00C9494
:100C9000E40E0F931F93CF93DF9300D000D0CDB716
:100CA000DEB7BFDB84E593E00E94061384E593E0A2
:100CB0000E94341284E593E00E94701261E082E0A9
:100CC0000E94121161E083E00E94121126E040E0D0
:100CD00051EE60E070E08AE993E07FD626E047E3DA
:100CE0005FED60E070E087E394E077D687E394E01F
:100CF00053D685E08093650381E087DD82E085DD62
:100D000083E087DD84E083DD85E081DD11E06FEF46
:100D100073E0812F21DD1F5F1630C9F740E060E0EE
:100D200084E593E00E947A126AED72E084E593E034
:100D30000E94D90E41E060E084E593E00E947A12BF
:100D40006FED72E084E593E00E94D90E42E060E02E
:100D500084E593E00E947A1264EE72E084E593E009
:100D60000E94D90E43E060E084E593E00E947A128D
:100D700069EE72E084E593E00E94D90E48E068E1F4
:100D800080916503D0DD3EDF62E070E080E090E0BE
:100D90000E94171042E064E485E01ADE8C016EEEDA
:100DA00072E0CE0101960E94E311B801CE010196D6
:100DB00064DBCE0101960E947C1126960FB6F89452
:100DC000DEBF0FBECDBFDF91CF911F910F91089570
:100DD0009F92AF92BF92CF92DF92EF92FF920F93CA
:100DE0001F93CF93DF936AE070E080E090E00E9471
:100DF000171087E394E0EAD4181619060CF056C1D0
:100E000081E08093520387E394E0FAD48F3F910509
:100E100009F04CC187E394E0F3D48F3F910509F0CA
:100E200045C187E394E0ECD4EC01B82E8FEFC817EE
:100E3000C1F387E394E0E4D4082F87E394E0E0D49F
:100E4000182F811102C0809164038093640340E0F5
:100E500066E084E593E00E947A12809162039091AB
:100E60006303111102C00097F9F08B30910514F45F
:100E7000019602C080E090E0909363038093620348
:100E8000812F12DB64E073E084E593E092D74AE0BF
:100E900050E06091640384E593E0F9D76FE073E07C
:100EA00084E593E086D7DEC068E073E084E593E0F4
:100EB00080D7033008F4D6C087E394E0A1D48C0136
:100EC00087E394E09DD420E030E0382F020F131F19
:100ED0002091980330919903809196039091970304
:100EE000021713070CF401969093970380939603CF
:100EF000109399030093980387E394E081D46C01E5
:100F000087E394E07DD420E030E0382FC20ED31E7A
:100F100087E394E075D47C0187E394E071D420E00A
:100F200030E0382FE20EF31E87E394E069D487E3C4
:100F300094E066D487E394E063D487E394E060D4DC
:100F400087E394E05DD487E394E05AD487E394E0A8
:100F500057D487E394E054D487E394E051D4C11488
:100F600094E0D9062CF084E0D81A9924939401C017
:100F7000912CE11494E0F9062CF084E0F81AAA24EC
:100F8000A39401C0A12CAE01552799E0C99FE001AF
:100F90001124CB59DC4F1C830B83DF82CE82F98670
:100FA000E88621E060E084E0B0D98A81813029F0D0
:100FB000823031F065EF72E005C06AEF72E002C086
:100FC0006FEF72E084E593E0F4D6B801012E000CD7
:100FD000880B990B1BD128E539E344EB5DE3C6D1BF
:100FE000E2D024E0AB0161E084E08FD96FED84E5CD
:100FF00093E0E0D625E0A80161E08AE086D940913F
:1010000093035091940325E061E08FE07ED924E0C2
:10101000A60162E084E079D9911002C06FE701C0B7
:101020006EE784E593E0C6D624E0A70163E084E0A0
:101030006CD9A11002C06FE701C06EE784E593E0B0
:10104000B9D680919503B81205C090919303809111
:10105000940302C0902F812F909393038093940365
:10106000B092950387E394E0B1D31816190624F4DF
:1010700087E394E0C5D3F6CF61E070E080E090E0D4
:10108000D6D74091600350916103483E93E05907E1
:101090001CF44F5F5F4F02C040E050E0509361038B
:1010A0004093600324E060E080E12FD91092520366
:1010B000DF91CF911F910F91FF90EF90DF90CF9034
:1010C000BF90AF909F90089542E264E280916503E3
:1010D0002ADC7ECE5058BB27AA270ED00DC1FED0E9
:1010E00030F003D120F031F49F3F11F41EF4F3C02F
:1010F0000EF4E095E7FBE9C0E92F0FD180F3BA17B2
:10110000620773078407950718F071F49EF527C1ED
:101110000EF4E0950B2EBA2FA02D0B01B901900112
:101120000C01CA01A0011124FF27591B99F0593F56
:1011300050F4503E68F11A16F040A22F232F342F9E
:101140004427585FF3CF469537952795A795F040EC
:101150005395C9F77EF41F16BA0B620B730B840B01
:10116000BAF09150A1F0FF0FBB1F661F771F881FB9
:10117000C2F70EC0BA0F621F731F841F48F4879511
:1011800077956795B795F7959E3F08F0B3CF939500
:10119000880F08F09927EE0F97958795089571D0DD
:1011A00008F481E0089504D06894B111D9C008957D
:1011B000BCD088F09F5790F0B92F9927B751A0F075
:1011C000D1F0660F771F881F991F1AF0BA95C9F7DB
:1011D00012C0B13081F0C3D0B1E00895C0C0672F14
:1011E000782F8827B85F39F0B93FCCF3869577958B
:1011F0006795B395D9F73EF4909580957095619574
:101200007F4F8F4F9F4F0895E89409C097FB3EF49E
:1012100090958095709561957F4F8F4F9F4F992343
:10122000A9F0F92F96E9BB279395F69587957795C1
:101230006795B795F111F8CFFAF4BB0F11F460FF81
:101240001BC06F5F7F4F8F4F9F4F16C0882311F0D9
:1012500096E911C0772321F09EE8872F762F05C0ED
:10126000662371F096E8862F70E060E02AF09A9588
:10127000660F771F881FDAF7880F9695879597F97D
:101280000895990F0008550FAA0BE0E8FEEF161617
:101290001706E807F907C0F012161306E407F5076A
:1012A00098F0621B730B840B950B39F40A2661F0DE
:1012B000232B242B252B21F408950A2609F4A14081
:1012C000A6958FEF811D811D089597F99F6780E88E
:1012D00070E060E008959FEF80EC089500240A9488
:1012E0001616170618060906089500240A94121601
:1012F0001306140605060895092E0394000C11F434
:10130000882352F0BB0F40F4BF2B11F460FF04C0E0
:101310006F5F7F4F8F4F9F4F089557FD9058440F39
:10132000551F59F05F3F71F04795880F97FB991F44
:1013300061F09F3F79F08795089512161306140601
:10134000551FF2CF4695F1DF08C01616170618068E
:10135000991FF1CF86957105610508940895E89469
:10136000BB2766277727CB0197F908950BD0C4CF09
:10137000B5DF28F0BADF18F0952309F0A6CFABCF80
:101380001124EECFCADFA0F3959FD1F3950F50E063
:10139000551F629FF001729FBB27F00DB11D639F27
:1013A000AA27F00DB11DAA1F649F6627B00DA11DCD
:1013B000661F829F2227B00DA11D621F739FB00D73
:1013C000A11D621F839FA00D611D221F749F3327E3
:1013D000A00D611D231F849F600D211D822F762F7C
:1013E0006A2F11249F5750408AF0E1F088234AF079
:1013F000EE0FFF1FBB1F661F771F881F91505040C5
:10140000A9F79E3F510570F060CFAACF5F3FECF384
:10141000983EDCF3869577956795B795F795E795B0
:101420009F5FC1F7FE2B880F911D9695879597F9C1
:101430000895FA01EE0FFF1F30962105310599F14D
:101440006115710561F48038BFE39B0749F1689429
:101450009038810561F08038BFEF9B0741F09923F8
:1014600042F5FF3FE1053105210511F1E8940894AB
:10147000E795D901AA2329F4AB2FBE2FF85FD0F34B
:1014800010C0FF5F70F4A695E0F7F73950F019F03F
:10149000FF3A38F49F779F930CD00F9007FC905839
:1014A00008953EF018CF60E070E080E89FE3089573
:1014B0004FE79F775F934F933F932F939ED02F914A
:1014C0003F914F915F9152DF05C019F40EF0FDCEB0
:1014D00046CF01CF2ADFC8F39638C0F707F80F923E
:1014E000E8942BE33AEA48EB5FE74EDF0F920F9266
:1014F0000F924DB75EB70F92C0D0E4EEF0E016D079
:101500004F915F91EF91FF91E595EE1FFF1F49F01D
:10151000FE57E0684427EE0F441FFA95E1F7419526
:10152000550B32D00F9007FE26C00895DF93CF935E
:101530001F930F93FF92EF92DF927B018C016894CF
:1015400005C0DA2EEF011EDFFE01E894A59125917A
:10155000359145915591AEF3EF01CEDDFE01970136
:10156000A801DA9479F7DF90EF90FF900F911F9127
:10157000CF91DF9108959B01AC0160E070E080E8BD
:101580009FE3AEC0A2CE14C1D0DEE8F39923D9F315
:10159000940F511DBBF39150504094F059F08823A3
:1015A00032F0660F771F881F91505040C1F79E3F61
:1015B000510544F7880F911D9695879597F90895E1
:1015C0005F3FACF0983E9CF0BB278695779567957A
:1015D000B79508F4B1609395C1F7BB0F58F711F4B4
:1015E00060FFE8CF6F5F7F4F8F4F9F4FE3CFB8CE45
:1015F0000EF0DEC070CE689468CE97DEC8F39923F3
:10160000D1F3C6F3DF93CF931F930F93FF92C92FAC
:10161000DD2788232AF02197660F771F881FDAF7C6
:1016200020E030E040E85FEB9FE3883920F0803E27
:1016300030F021968F774FDDECE0F1E003C04BDD19
:10164000E9E3F1E073DF8B01BE01EC01FB2E6F5784
:1016500071097595771F880B990BD8DD28E132E762
:1016600041E35FE38FDEAF2D9801AE01FF900F9154
:101670001F91CF91DF9140DD3FCEFA01DC01AA0F2F
:10168000BB1F9B01AC01BF5728F4222733274427F7
:1016900050781FC0B75188F4AB2F0024469537957A
:1016A0002795011CA395D2F3002069F0220F331F68
:1016B000441FB395DAF30DD00DCD61307105A0E86C
:1016C0008A07B94630F49B01AC0166277727882743
:1016D0009078309621F0208331834283538308959C
:1016E0000CD00ACE02DE40F0F9DD30F021F45F3F8D
:1016F00019F0EBCD511134CEEECD0FDE98F39923D6
:10170000C9F35523B1F3951B550BBB27AA276217C5
:101710007307840738F09F5F5F4F220F331F441F0A
:10172000AA1FA9F333D00E2E3AF0E0E830D0915042
:101730005040E695001CCAF729D0FE2F27D0660F2F
:10174000771F881FBB1F261737074807AB07B0E86E
:1017500009F0BB0B802DBF01FF2793585F4F2AF084
:101760009E3F510568F0B1CDFBCD5F3FECF3983E55
:10177000DCF3869577956795B795F7959F5FC9F7E1
:10178000880F911D9695879597F90895E1E0660F6A
:10179000771F881FBB1F621773078407BA0720F0E3
:1017A000621B730B840BBA0BEE1F88F7E09508954C
:1017B0009F3F31F0915020F4879577956795B795C5
:1017C000880F911D9695879597F90895FC01918D45
:1017D000228D892F90E0805C9F4F821B91098F732F
:1017E00099270895FC01918D828D981731F0828D93
:1017F000E80FF11D858D90E008958FEF9FEF08951C
:10180000FC01918D828D981761F0828DDF01A80F08
:10181000B11D5D968C91928D9F5F9F73928F90E02A
:1018200008958FEF9FEF0895FC01538D448D252F70
:1018300030E0842F90E0821B930B541710F0CF966A
:1018400008950197089585EB9DE0892B39F080E09C
:1018500090E0892B19F089D1811124C08AE49EE09F
:10186000892B39F080E090E0892B19F013D2811197
:101870001CC080E090E0892B41F080E090E0892B53
:1018800021F00E940000811113C080E090E0892BBC
:10189000A1F080E090E0892B81F00E94000081118E
:1018A0000AC008950E940000D9CF0E940000E1CF35
:1018B0000E940000EACF0C9400000895FC01848D82
:1018C000DF01A80FB11DA35ABF4F2C91848D90E06A
:1018D00001968F739927848FA689B7892C93A08945
:1018E000B1898C91837080648C93938D848D9813CF
:1018F00006C00288F389E02D80818F7D8083089562
:10190000EF92FF920F931F93CF93DF93EC0181E04F
:10191000888F9B8D8C8D981305C0E889F98980810B
:1019200085FD25C0F62E0B8D10E00F5F1F4F0F7346
:101930001127E02E8C8DE8120BC00FB607FCFACFF2
:10194000E889F989808185FFF5CFCE01B7DFF2CF35
:101950008B8DFE01E80FF11DE35AFF4FF0829FB718
:10196000F8940B8FEA89FB89808180620AC09FB757
:10197000F894EE89FF896083E889F9898081837012
:10198000806480839FBF81E090E0DF91CF911F91C1
:101990000F91FF90EF900895CF93DF93EC01888D26
:1019A0008823C1F0EA89FB89808185FD05C0A8896B
:1019B000B9898C9186FD0EC00FB607FCF5CF8081EA
:1019C00085FFF2CFA889B9898C9185FFEDCFCE0133
:1019D00075DFE8CFDF91CF910895CF92DF92EF923C
:1019E000FF921F93CF93DF93EC016A017B01122FCB
:1019F000E889F98982E080834115514E61057105BE
:101A0000B1F060E079E08DE390E0A70196010E94DB
:101A1000E615DA01C9010197A109B109B695A795A3
:101A2000979587959C01211580E13807A8F0E889F2
:101A3000F989108260E874E88EE190E0A7019601D0
:101A40000E94E615DA01C9010197A109B109B6950D
:101A5000A795979587959C01EC85FD853083EE854C
:101A6000FF852083188EEC89FD891083EA89FB8924
:101A7000808180618083EA89FB898081886080839E
:101A8000EA89FB89808180688083EA89FB8980817B
:101A90008F7D8083DF91CF911F91FF90EF90DF903A
:101AA000CF90089580E090E0089508951F920F92DE
:101AB0000FB60F9211240BB60F922F938F939F9313
:101AC000EF93FF93E091AA03F091AB038081E09143
:101AD000B003F091B10382FD12C090818091B303F5
:101AE0008F5F8F732091B403821751F0E091B3039D
:101AF000F0E0E656FC4F958F8093B30301C08081E0
:101B0000FF91EF919F918F912F910F900BBE0F90AE
:101B10000FBE0F901F9018951F920F920FB60F9245
:101B200011240BB60F922F933F934F935F936F93B4
:101B30007F938F939F93AF93BF93EF93FF938AE924
:101B400093E0BCDEFF91EF91BF91AF919F918F9198
:101B50007F916F915F914F913F912F910F900BBEAD
:101B60000F900FBE0F901F9018958AE993E02EDE1C
:101B700021E0892B09F420E0822F0895EAE9F3E0BF
:101B80001382128288EE93E0A0E0B0E08483958314
:101B9000A683B78387E193E09183808385EC90E00F
:101BA0009587848784EC90E09787868780EC90E027
:101BB000918B808B81EC90E0938B828B82EC90E018
:101BC000958B848B86EC90E0978B868B118E128E92
:101BD000138E148E08951F920F920FB60F92112438
:101BE0000BB60F922F938F939F93EF93FF93E091F8
:101BF0004704F09148048081E0914D04F0914E0437
:101C000082FD12C09081809150048F5F8F7320916C
:101C10005104821751F0E0915004F0E0E95CFB4F71
:101C2000958F8093500401C08081FF91EF919F9127
:101C30008F912F910F900BBE0F900FBE0F901F90A2
:101C400018951F920F920FB60F9211240BB60F9298
:101C50002F933F934F935F936F937F938F939F93B4
:101C6000AF93BF93EF93FF9387E394E027DEFF9159
:101C7000EF91BF91AF919F918F917F916F915F9104
:101C80004F913F912F910F900BBE0F900FBE0F9071
:101C90001F90189587E394E099DD21E0892B09F4E2
:101CA00020E0822F0895E7E3F4E01382128288EEA9
:101CB00093E0A0E0B0E084839583A683B78387E1B7
:101CC00093E0918380838DEC90E0958784878CEC02
:101CD00090E09787868788EC90E0918B808B89ECE9
:101CE00090E0938B828B8AEC90E0958B848B8EECCA
:101CF00090E0978B868B118E128E138E148E089522
:101D00000895D9D1FDDF0E944906C3E2DCE0DCD9A9
:101D10002097E9F398DDFBCFCF92DF92EF92FF920D
:101D20000F931F93CF93DF936C017A018B01C0E077
:101D3000D0E0CE15DF0581F0D8016D918D01D6017F
:101D4000ED91FC910190F081E02DC6011995892B50
:101D500011F02196EECF7E01C701DF91CF911F9147
:101D60000F91FF90EF90DF90CF900895611571056E
:101D700079F0FB0101900020E9F73197AF01461B94
:101D8000570BDC01ED91FC910280F381E02D199459
:101D900080E090E00895DB0114964D915C911597D9
:101DA0006D917C91DC01ED91FC910280F381E02D3D
:101DB0001994DCCFDC01ED91FC910190F081E02DD4
:101DC000199465E273E0D2CF0F931F93CF93DF9303
:101DD000EC01CCDF8C01CE01F4DF800F911FDF918D
:101DE000CF911F910F9108958F929F92AF92BF92C2
:101DF000EF92FF920F931F93CF93DF93CDB7DEB790
:101E0000A1970FB6F894DEBF0FBECDBF7C01FA01DB
:101E1000CB0119A2223008F42AE08E010F5D1F4F7A
:101E2000822E912CA12CB12CBF01A5019401CED6FC
:101E3000F901CA01015011096A3010F4605D01C056
:101E4000695CD8016C93232B242B252B69F7B801EF
:101E5000C7018CDFA1960FB6F894DEBF0FBECDBFD1
:101E6000DF91CF911F910F91FF90EF90BF90AF90B6
:101E70009F908F9008952115310541F4DC01ED917B
:101E8000FC910190F081E02D642F1994ADCF9A015F
:101E9000462F50E060E070E0EECFCF92DF92EF92FD
:101EA000FF920F931F93CF93DF932115310581F498
:101EB000DC01ED91FC910190F081E02D642FDF9128
:101EC000CF911F910F91FF90EF90DF90CF901994D9
:101ED0002A303105F1F477FF1BC06A017B01EC0168
:101EE0006DE268DF8C0144275527BA014C195D0962
:101EF0006E097F092AE0CE0177DF800F911FDF9105
:101F0000CF911F910F91FF90EF90DF90CF900895A8
:101F10002AE0DF91CF911F910F91FF90EF90DF901A
:101F2000CF9062CF9A01AB01770F660B770BB5CFDD
:101F30000F931F93CF93DF93EC01F4DF8C01CE015D
:101F400040DF800F911FDF91CF911F910F91089576
:101F50001F920F920FB60F9211242F933F938F93DE
:101F60009F93AF93BF938091D5049091D604A09195
:101F7000D704B091D8043091D40423E0230F2D3737
:101F800020F40196A11DB11D05C026E8230F02967D
:101F9000A11DB11D2093D4048093D5049093D60441
:101FA000A093D704B093D8048091D9049091DA0417
:101FB000A091DB04B091DC040196A11DB11D8093BA
:101FC000D9049093DA04A093DB04B093DC04BF91AE
:101FD000AF919F918F913F912F910F900FBE0F90D6
:101FE0001F9018953FB7F8948091D9049091DA0426
:101FF000A091DB04B091DC0426B5A89B05C02F3F5F
:1020000019F00196A11DB11D3FBFBA2FA92F982F1E
:102010008827820F911DA11DB11DBC01CD0142E099
:10202000660F771F881F991F4A95D1F708958F92E1
:102030009F92AF92BF92CF92DF92EF92FF926B018D
:102040007C01D0DF4B015C01C114D104E104F10437
:10205000F1F0D9D3C7DFDC01CB0188199909AA09AE
:10206000BB09883E9340A105B10570F321E0C21A77
:10207000D108E108F10888EE880E83E0981EA11CC3
:10208000B11CC114D104E104F10421F7DDCFFF90AC
:10209000EF90DF90CF90BF90AF909F908F9008957A
:1020A0008230910538F0880F991F880F991F059786
:1020B0000197F1F70895789484B5826084BD84B562
:1020C000816084BD85B5826085BD85B5816085BD33
:1020D000EEE6F0E0808181608083E1E8F0E010824C
:1020E000808182608083808181608083E0E8F0E08D
:1020F000808181608083E1EBF0E080818460808377
:10210000E0EBF0E0808181608083E1E9F0E08081B4
:1021100082608083808181608083E0E9F0E080815B
:1021200081608083E1EAF0E0808182608083808149
:1021300081608083E0EAF0E0808181608083E1E279
:10214000F1E0808182608083808181608083E0E231
:10215000F1E0808181608083EAE7F0E08081846043
:1021600080838081826080838081816080838081A0
:10217000806880831092C100089590E0FC0131973F
:10218000E231F10508F04DC08827ED54FF4F8F4F25
:102190003FC5809180008F7703C0809180008F7D44
:1021A00080938000089580918000877FF9CF84B567
:1021B0008F7702C084B58F7D84BD08958091B00073
:1021C0008F7703C08091B0008F7D8093B000089519
:1021D000809190008F7707C0809190008F7D03C021
:1021E00080919000877F8093900008958091A00057
:1021F0008F7707C08091A0008F7D03C08091A000E1
:10220000877F8093A0000895809120018F7707C079
:10221000809120018F7D03C080912001877F809372
:1022200020010895CF93DF9390E0FC01E053FE4F2F
:102230002491FC01EA5EFD4F8491882361F190E0D6
:10224000880F991FFC01EA58FD4FC591D491FC01FC
:10225000E45AFD4FA591B491611109C09FB7F8945C
:102260008881209582238883EC912E230BC06230D5
:1022700061F49FB7F8948881322F30958323888347
:10228000EC912E2B2C939FBF06C08FB7F894E8815A
:102290002E2B28838FBFDF91CF9108951F93CF936B
:1022A000DF93282F30E0F901E657FE4F8491F901C2
:1022B000E053FE4FD491F901EA5EFD4FC491CC2367
:1022C000B9F0162F811159DFEC2FF0E0EE0FFF1F50
:1022D000E45AFD4FA591B4919FB7F894111104C031
:1022E0008C91D095D82302C0EC91DE2BDC939FBF5C
:1022F000DF91CF911F910895FC018081918128C5C4
:10230000CF93DF93EC0188819981009709F020D564
:10231000198218821D821C821B821A82DF91CF9142
:1023200008950F931F93CF93DF93EC018B016F5FA1
:102330007F4F8881998195D5009731F09983888363
:102340001B830A8381E001C080E0DF91CF911F9160
:102350000F910895CF93DF93EC0188819981892BA8
:1023600029F08A819B818617970758F4CE01D9DF1F
:10237000882341F08C819D81892B19F4E881F981B2
:10238000108281E0DF91CF910895EF92FF920F9339
:102390001F93CF93DF93EC017B018A01BA01DADF4F
:1023A000811103C0CE01ACDF06C01D830C83B701D1
:1023B000888199813FD6CE01DF91CF911F910F91F6
:1023C000FF90EF900895FC01118210821382128217
:1023D000158214826115710549F0FB0101900020FE
:1023E000E9F73197AF01461B570BCFCF0895CF9335
:1023F000DF93EC01FB018617970751F06081718133
:102400006115710521F044815581BFDF01C078DF7E
:10241000CE01DF91CF910895FC01118210821382C9
:10242000128215821482E3CFFC011382128288E3A8
:1024300093E0918380836483418722871386089584
:102440001F93CF93DF93EC01162F6C818DED94E0F9
:10245000B9D16B85612B8DED94E067D18DED94E062
:10246000DF91CF911F91CAC128E0FC01238760E072
:10247000E7CF0F931F93CF938C01C62F6460E0DFEB
:1024800081E090E00DDE6C2F6B7FC801D9DF82E325
:1024900090E0CF911F910F9103CE1F93CF93DF93C5
:1024A000EC01162FCDDF612FCE01DF91CF911F916F
:1024B000E0CF0F931F93CF93DF938C01C62FD42FC0
:1024C000607F642BEADF80E1C89FB00111246D2B8F
:1024D000C801DF91CF911F910F91DFCF40E0E9CF8D
:1024E00061E0FCDF80ED97E0DBCD62E0F7DF80EDBF
:1024F00097E0D6CDCF93DF93CDB7DEB728970FB651
:10250000F894DEBF0FBECDBF9C0188E0E9E0F2E0A9
:10251000DE01119601900D928A95E1F7F90180850F
:10252000841710F44FEF480FFE013196E40FF11DB0
:10253000E40FF11D9081690F6068C90128960FB6FC
:10254000F894DEBF0FBECDBFDF91CF91C7CFFC01A6
:102550006681262F246026836C60C0CF41E0A9DF0E
:1025600081E090E00895CF93DF93EC01423018F0C2
:102570008D8188608D834887222329F0413019F4AA
:102580008D8184608D8362E370E080E090E04FDDB8
:102590006B85CE0155DF68EE73E080E090E047DDAB
:1025A00060E3CE017ADF84E991E17ADD60E3CE0178
:1025B00074DF84E991E174DD60E3CE016EDF86E9CA
:1025C00090E06EDD60E2CE0168DF6D816062CE0179
:1025D00085DF84E08E83CE01BADFCE0181DF82E029
:1025E0008F8366E0CE017ADFCE01DF91CF917DCF80
:1025F000CF93DF93EC018DED94E0D5D01D8220E0E8
:102600004A856985CE01DF91CF91ADCFF1CF809121
:10261000110590E020911205821B91090895909177
:10262000120580911105981750F4E92FF0E0ED5E46
:10263000FA4F208130E09F5F9093120502C02FEF88
:102640003FEFC9010895E091120580911105E81747
:1026500030F4F0E0ED5EFA4F808190E008958FEF66
:102660009FEF08950895CF93DF93EC01E091E90483
:10267000F091EA043097F1F09091120580911105E4
:102680009817C0F090E0292F30E02617370754F450
:10269000DE01A20FB31F4C91D901AD5EBA4F4C932E
:1026A0009F5FF1CF1092120560931105CB01DF916E
:1026B000CF911994DF91CF910895E091EB04F091BF
:1026C000EC04309729F01092EF041092EE04199464
:1026D0000895CF92DF92EF92FF920F931F93CF93C3
:1026E000DF937C01CB018A012091ED04222389F044
:1026F000EB016B01C40ED51ECC15DD0561F06991AF
:10270000D701ED91FC910190F081E02DC701199561
:10271000F3CF642FEBD0C801DF91CF911F910F91C0
:10272000FF90EF90DF90CF900895CF93DF931F92AB
:10273000CDB7DEB769832091ED042223D1F020913B
:10274000EE04203240F021E030E0FC0133832283AC
:1027500080E090E014C08091EF04E82FF0E0E051B9
:10276000FB4F998190838F5F8093EF048093EE04F9
:1027700004C061E0CE010196B9D081E090E00F90F5
:10278000DF91CF910895FC011382128288EE93E0CD
:10279000A0E0B0E084839583A683B78384E493E0CC
:1027A0009183808308951092120510921105109262
:1027B000EF041092EE0428D08DE593E1C4D083E3BA
:1027C00093E1BCC081E08093ED046093100510920A
:1027D000EF041092EE0408950F93062F21E040912C
:1027E000EE0460EF74E0809110052AD01092EF049F
:1027F0001092EE041092ED040F91089561E0ECCF79
:102800008DED94E0C0CF08951092A00581E08093F3
:102810009E0510929D0561E084E140DD61E085E167
:102820003DDDE9EBF0E080818E7F808380818D7FCC
:10283000808388E48093B80085E48093BC00089589
:102840000F93413208F04AC09091A0059111FCCF3E
:1028500032E03093A00500939E053FEF309333059F
:102860001092780540937705562FA9E7B5E0FB0154
:102870003E2F351B341718F431913D93F9CF109248
:102880009F0530919F05880F832B80939F05809132
:102890009D05813061F410929D0580919F05809384
:1028A000BB008091BC0083FDF8CF85EC01C085EEB4
:1028B0008093BC00222321F08091A0058230D1F3C7
:1028C000809133058F3F79F080913305803241F05C
:1028D00080913305803331F094E005C091E003C06E
:1028E00092E001C093E0892F0F9108954091550522
:1028F000262F30E0240F311D21323105DCF42091E8
:10290000A0052430C9F4FC0180E090E0861758F45B
:10291000309155052191DC01A95ABA4FA30FB11D81
:102920002C930196F3CF80915505680F6093550560
:1029300080E0089581E0089582E0089590939A05DB
:1029400080939905089590939C0580939B05089525
:1029500085ED8093BC008091BC0084FDFCCF10927B
:10296000A005089585EC8093BC001092A005089501
:102970001F920F920FB60F9211240BB60F922F9346
:102980003F934F935F936F937F938F939F93AF93F7
:10299000BF93EF93FF938091B900887F803609F44D
:1029A0009DC070F5883209F45CC090F4803109F460
:1029B00055C038F4882309F4F3C0883009F44EC0B8
:1029C000F2C0883109F44DC0803209F45EC0EBC01A
:1029D000803409F469C050F4803309F456C0883358
:1029E00009F0E1C080933305BDDFDDC0803509F417
:1029F0004FC0883509F45DC0883409F0D4C0D2C016
:102A0000883909F4C3C0A8F4883709F467C038F4DA
:102A1000883609F463C0803709F460C0C4C08838C0
:102A200009F4B4C0803909F45FC0803809F0BBC034
:102A30005BC0803B09F482C038F4803A09F466C078
:102A4000883A09F47BC0AFC0803C09F4A3C0883C3D
:102A500009F4A0C0883B09F486C0A5C080919F05F9
:102A600010C09091780580917705981770F5E091E6
:102A7000780581E08E0F80937805F0E0E758FA4FF3
:102A800080818093BB0085EC82C0809333058AC02F
:102A9000E091780581E08E0F809378058091BB00EE
:102AA000F0E0E758FA4F80839091780580917705A0
:102AB0006AC0E091780581E08E0F8093780580915F
:102AC000BB00F0E0E758FA4F808380919E058111AA
:102AD00069C081E080939D0584EA5DC083E08093B6
:102AE000A00510923405CFCF80913405803208F0D4
:102AF0004DC0E091340581E08E0F809334058091C4
:102B0000BB00F0E0EB5CFA4F8083BDCF2BDF809100
:102B10003405803230F4E0913405F0E0EB5CFA4F9C
:102B200010826091340570E0E0919905F0919A056A
:102B300085E395E019951092340535C084E08093C3
:102B4000A0051092560510925505E0919B05F09155
:102B50009C05199580915505811105C081E08093F0
:102B6000550510925705E091560581E08E0F809330
:102B70005605F0E0E95AFA4F80818093BB009091AE
:102B8000560580915505981708F47DCF85E8809308
:102B9000BC0009C085EC8093BC001092A00503C066
:102BA00010923305D5DEFF91EF91BF91AF919F91C8
:102BB0008F917F916F915F914F913F912F910F90E6
:102BC0000BBE0F900FBE0F901F901895A1E21A2E0A
:102BD000AA1BBB1BFD010DC0AA1FBB1FEE1FFF1FC1
:102BE000A217B307E407F50720F0A21BB30BE40B11
:102BF000F50B661F771F881F991F1A9469F7609558
:102C00007095809590959B01AC01BD01CF01089511
:102C1000EE0FFF1F881F8BBF0790F691E02D1994D0
:102C20000F931F93CF93DF938230910510F482E0CE
:102C300090E0E091A305F091A40520E030E0A0E051
:102C4000B0E0309719F1408151810281138148171A
:102C50005907C8F08417950769F4109731F0129658
:102C60000C93129713961C9327C00093A3051093FF
:102C7000A40522C02115310519F04217530718F495
:102C80009A01BD01EF01DF01F801DBCF211531050C
:102C9000F9F0281B390B2430310580F48A819B819F
:102CA0006115710521F0FB019383828304C0909329
:102CB000A4058093A305FE01329644C0FE01E20FF5
:102CC000F31F8193919322503109398328833AC0AD
:102CD0002091A1053091A205232B41F420910202FD
:102CE000309103023093A2052093A10520910002A8
:102CF000309101022115310541F42DB73EB74091C5
:102D0000040250910502241B350BE091A105F091BE
:102D1000A205E217F307A0F42E1B3F0B2817390773
:102D200078F0AC014E5F5F4F2417350748F04E0F27
:102D30005F1F5093A2054093A1058193919302C018
:102D4000E0E0F0E0CF01DF91CF911F910F91089566
:102D5000CF93DF93009709F481C0FC01329713826F
:102D60001282A091A305B091A405109781F420814F
:102D70003181820F931F2091A1053091A205281760
:102D8000390751F5F093A205E093A10567C0ED0165
:102D900020E030E0CE17DF0740F44A815B819E01DE
:102DA00041155105F1F0EA01F5CFD383C28340818B
:102DB0005181840F951FC817D90759F488819981CB
:102DC000840F951F0296918380838A819B819383D0
:102DD00082832115310529F4F093A405E093A3051E
:102DE0003DC0E901FB83EA8349915991C40FD51F86
:102DF000EC17FD0761F480819181840F951F029685
:102E0000E90199838883828193819B838A83E0E0AF
:102E1000F0E012968D919C911397009719F0FD01A7
:102E2000DC01F7CF8D919C9111979D012E5F3F4F53
:102E3000820F931F2091A1053091A2052817390711
:102E400069F4309729F41092A4051092A30502C0EA
:102E500013821282B093A205A093A105DF91CF91B6
:102E600008956F927F928F929F92AF92BF92CF926E
:102E7000DF92EF92FF920F931F93CF93DF93009710
:102E800081F4CB01DF91CF911F910F91FF90EF90D3
:102E9000DF90CF90BF90AF909F908F907F906F907A
:102EA000BFCEFC01E60FF71F9C0122503109E2174B
:102EB000F30708F4A5C0EC01D9010D911C911197FD
:102EC00006171707A8F00530110508F497C0C801C8
:102ED00004978617970708F491C002501109061B42
:102EE000170B019311936D937C93CF0131DF86C053
:102EF0005B01A01AB10A4C01800E911EA091A3059E
:102F0000B091A405612C712CE12CF12C109709F4DF
:102F100046C08D919C911197A815B905B1F56C012A
:102F200042E0C40ED11CCA14DB0478F14C018A18AB
:102F30009B08640142E0C40ED11C1296BC9012970B
:102F40001396AC91B5E0CB16D10440F0B282A383C6
:102F500091828082D9016D937C9309C00E5F1F4FCF
:102F6000800F911FF90191838083EB2DFA2FE114DB
:102F7000F10431F0D7011396FC93EE9312973EC003
:102F8000F093A405E093A30539C06816790608F408
:102F90003C017D0112960D90BC91A02DB7CF809180
:102FA000A1059091A20588169906E1F466167706A8
:102FB000C8F48091000290910102009741F48DB70E
:102FC0009EB74091040250910502841B950BE817AF
:102FD000F907B0F4F093A205E093A105F90171831C
:102FE00060830CC0CB011CDE7C01009749F0A80176
:102FF000BE0117D0CE01ACDEC70104C0CE0102C0B5
:1030000080E090E0DF91CF911F910F91FF90EF90C2
:10301000DF90CF90BF90AF909F908F907F906F90F8
:103020000895FB01DC0102C001900D924150504017
:10303000D8F70895FB01DC0101900D920020E1F723
:1030400008950F931F93CF93DF93CDB7DEB72E97DD
:103050000FB6F894DEBF0FBECDBF0E891F8986E084
:103060008C831A8309838FEF9FE79E838D83AE0144
:10307000465E5F4F688D798DCE01019610D0EF814D
:10308000F885E00FF11F10822E960FB6F894DEBF80
:103090000FBECDBFDF91CF911F910F9108952F9259
:1030A0003F924F925F926F927F928F929F92AF92D8
:1030B000BF92CF92DF92EF92FF920F931F93CF9325
:1030C000DF93CDB7DEB72B970FB6F894DEBF0FBEF8
:1030D000CDBF6C017B018A01FC01178216828381BE
:1030E00081FFBFC1CE0101963C01F6019381F7013A
:1030F00093FD859193FF81917F01882309F4ADC1F0
:10310000853239F493FD859193FF81917F0185325A
:1031100021F4B60190E0D6D1E8CF912C212C312CAE
:10312000FFE1F315D8F08B3279F038F4803279F082
:103130008332A1F4232D20611DC08D3261F08033D4
:1031400069F4232D216016C0832D8260382EE32D73
:10315000E4603E2E2AC0F32DF8601DC037FC2DC060
:1031600020ED280F2A3040F08E32B9F436FC75C1BC
:10317000232D2064322E19C036FE06C08AE0989EA8
:10318000200D1124922E11C0EAE02E9E200D112454
:10319000222EF32DF0623F2E08C08C3621F4832DB1
:1031A0008068382E02C0883641F4F70193FD85917E
:1031B00093FF81917F018111B3CF982F9F7D95540B
:1031C000933028F40C5F1F4F9FE399830DC0833623
:1031D00031F0833771F0833509F055C020C0F80114
:1031E000808189830E5F1F4F88248394912C530123
:1031F00012C02801F2E04F0E511CF801A080B180EE
:1032000036FE03C0692D70E002C06FEF7FEFC5018D
:103210004ED14C018201F32DFF773F2E15C02801BE
:1032200022E0420E511CF801A080B18036FE03C09E
:10323000692D70E002C06FEF7FEFC5012DD14C0109
:10324000F32DF0683F2E820133FC19C0822D90E0EF
:1032500088169906A0F4B60180E290E033D12A9452
:10326000F5CFF50137FC859137FE81915F01B601FD
:1032700090E028D121102A9421E0821A910881142B
:10328000910479F7E1C0843611F0893639F5F801F7
:1032900037FE07C060817181828193810C5F1F4F6F
:1032A00008C060817181072E000C880B990B0E5F9E
:1032B0001F4FF32DFF763F2E97FF09C09095809505
:1032C000709561957F4F8F4F9F4FF0683F2E2AE09A
:1032D00030E0A30133D1882E861844C0853731F4FD
:1032E000232D2F7EB22E2AE030E025C0932D997F2A
:1032F000B92E8F36C1F018F4883579F0AEC080371A
:1033000019F0883721F0A9C0E92FE061BE2EB4FE84
:103310000DC0FB2DF460BF2E09C034FE0AC0292F5A
:103320002660B22E06C028E030E005C020E130E083
:1033300002C020E132E0F801B7FE07C06081718170
:10334000828193810C5F1F4F06C06081718180E094
:1033500090E00E5F1F4FA301F1D0882E8618FB2D41
:10336000FF773F2E36FE0DC0232D2E7FA22E89140F
:1033700058F434FE0BC032FC09C0832D8E7EA82E7B
:1033800005C0B82CA32C03C0B82C01C0B92CA4FED6
:103390000FC0FE01E80DF11D8081803321F49A2DCC
:1033A000997EA92E09C0A2FE06C0B394B39404C0AE
:1033B0008A2D867809F0B394A3FC10C0A0FE06C045
:1033C000B21480F4280C922C9B180DC0B21458F43F
:1033D000B60180E290E076D0B394F8CFB21418F43E
:1033E0002B1802C0982C212CA4FE0FC0B60180E33C
:1033F00090E068D0A2FE16C0A1FC03C088E790E070
:1034000002C088E590E0B6010CC08A2D867851F0A4
:10341000A1FE02C08BE201C080E2A7FC8DE2B601F2
:1034200090E050D0891430F4B60180E390E04AD0A7
:103430009A94F8CF8A94F301E80DF11D8081B601CA
:1034400090E040D08110F6CF222009F44ECEB60194
:1034500080E290E037D02A94F7CFF60186819781F9
:1034600002C08FEF9FEF2B960FB6F894DEBF0FBE12
:10347000CDBFDF91CF911F910F91FF90EF90DF9023
:10348000CF90BF90AF909F908F907F906F905F9004
:103490004F903F902F900895FC010590615070402F
:1034A0000110D8F7809590958E0F9F1F0895FC010D
:1034B0006150704001900110D8F7809590958E0F63
:1034C0009F1F08950F931F93CF93DF93FB012381D9
:1034D00021FD03C08FEF9FEF2CC022FF16C0468155
:1034E0005781248135814217530744F4A081B1816B
:1034F0009D012F5F3F4F318320838C93268137813D
:103500002F5F3F4F3783268314C08B01EC01FB01F3
:103510000084F185E02D1995892BE1F6D8011696E6
:103520008D919C911797019617969C938E93169761
:10353000CE01DF91CF911F910F910895FA01AA2733
:10354000283051F1203181F1E8946F936E7F6E5FE6
:103550007F4F8F4F9F4FAF4FB1E03ED0B4E03CD094
:10356000670F781F891F9A1FA11D680F791F8A1F77
:10357000911DA11D6A0F711D811D911DA11D20D0DE
:1035800009F468943F912AE0269F11243019305D98
:103590003193DEF6CF010895462F4770405D419389
:1035A000B3E00FD0C9F7F6CF462F4F70405D4A33D6
:1035B00018F0495D31FD4052419302D0A9F7EACF9E
:1035C000B4E0A6959795879577956795BA95C9F7CD
:1035D00000976105710508959B01AC010A2E0694C0
:1035E0005795479537952795BA95C9F7620F731F79
:0C35F000841F951FA01D0895F894FFCFC4
:1035FC000000A5052000DC05050000400014005467
:10360C00002525256464006F487400526E670053D2
:10361C006F6D006F4C6400496E730023232053744C
:10362C006172742030313A2000202323232323237A
:10363C002323232323232323232323232323005341
:10364C006572766F204944202020004D7367204C12
:10365C00656E67746820004D7367204572726F72D7
:10366C002020004D73672044617461204C20004D74
:10367C0073672044617461204820004D73672044B7
:10368C0061746120202000436865636B73756D2045
:10369C00202000436865636B73756D7E20200023CA
:1036AC00232053746172743A20002C2000232320B1
:1036BC00456E642023232323232323232323232323
:1036CC00232323232323232323007349443A006415
:1036DC0065673A0072706D3A006C64253A00726549
:1036EC007475726E00204A6E74002057686C00204E
:1036FC004D6C740045523A002020202020202020C0
:10370C0020200000000000800C8C0E140CCC0CE669
:10371C000B000CF20B0D0A006E616E00696E6600F8
:10372C006F76660000000000AE128C0E520D550D27
:10373C000000000095136913520D321307130F1379
:02374C00231345
:00000001FF
